:020000040800F2
:10000000384B00205D02000861310008952A000885
:100010004D310008BD0900085939000800000000F2
:100020000000000000000000000000009D0100082A
:10003000490B000800000000F9010008A93200087F
:1000400077020008770200087702000877020008AC
:10005000770200087702000877020008770200089C
:10006000770200087702000877020008770200088C
:10007000770200087702000877020008770200087C
:100080008D0A00087702000877020008770200084E
:10009000C10900087702000877020008770200080B
:1000A000770200080D340008770200087702000884
:1000B0007702000819340008253400087702000888
:1000C000770200087702000877020008770200082C
:1000D00077020008413900084D390008770200080E
:1000E000770200087702000877020008770200080C
:1000F0003134000877020008770200087702000810
:1001000077020008770200087702000877020008EB
:1001100077020008770200087702000877020008DB
:100120007702000877020008990A000877020008A1
:1001300077020008770200087702000877020008BB
:10014000CD0900087702000877020008770200084E
:10015000770200087702000877020008770200089B
:10016000770200087702000877020008770200088B
:1001700077020008770200087702000800000000FC
:100180007702000877020008DFF80CD000F0E2FAEE
:1001900000480047E3390008384B00202C4B196811
:1001A0000868B0E8F04F80F30988BFF36F8F4FF015
:1001B000000080F3118870470000000008480068C4
:1001C000006880F308884FF0000080F3148862B65E
:1001D00061B6BFF34F8FBFF36F8F00DF00BF00BF6B
:1001E00008ED00E0DFF80C00016841F470010160E7
:1001F000704700BF88ED00E0EFF30980BFF36F8F19
:10020000134B1A681EF0100F08BF20ED108A20E96A
:10021000F04F106009B44FF0500080F31188BFF325
:100220004F8FBFF36F8F04F049F84FF0000080F359
:10023000118809BC19680868B0E8F04F1EF0100F6B
:1002400008BFB0EC108A80F30988BFF36F8F704746
:100250003C000020EFF3058070470000064880470F
:1002600006480047FEE7FEE7FEE7FEE7FEE7FEE79B
:10027000FEE7FEE7FEE7FEE75533000889010008C8
:100280002DE9F05F0546002092469B4688460646CB
:10029000814640241BE0284641464746224600F05E
:1002A000A3F953465A46C01A914110D31146184635
:1002B000224600F08AF92D1A67EB01084F462246C4
:1002C0000120002100F081F917EB00094E41201EAA
:1002D000A4F10104DFDC484631462A464346BDE826
:1002E000F09F40EA01039B0703D009E008C9121FF1
:1002F00008C0042AFAD203E011F8013B00F8013BE0
:10030000521EF9D27047D2B201E000F8012B491E0B
:10031000FBD270470022F6E710B513460A460446A2
:100320001946FFF7F0FF204610BD2DE9FE4F80462D
:1003300081EA0300C00F0C46009021F0004123F039
:100340000045B8EB0200A94105D24046214690463F
:100350001C460B46024623F00040104347D0270DB1
:10036000C7F30A00C3F30A510290401A01904028D3
:100370006BDAC3F3130040F4801B0098924620B15F
:100380000023D2EB030A63EB0B0B01985946C0F133
:100390004002504600F019F906460D4650465946AF
:1003A000019A00F031F910EB08006141002487EA5E
:1003B000115284EAE7731A4340D0009A62B3019A5B
:1003C000012A4FEA075215DC001B61EB02014FF0D6
:1003D000004202EA0752CDE90042001C41F58011BB
:1003E00032462B4600F068F903B0BDE8F08F404676
:1003F0002146F9E7001B61EB0201001C41F5801367
:1004000000185B412018A2F5001747EB030140EAF2
:10041000D570B6196D4111E06D084FEA360645EA10
:10042000C0754FEA0752001B61EB0201001C41F549
:10043000801149084FEA30000019514132462B46DD
:1004400003B0BDE8F04F00F028B900980122400049
:100450000023D0EB020263EBE073009821464FEAE1
:10046000E074B8EB000061EB0401E9E783F00043BE
:100470005BE781F0004158E72DE9F04D81EA030484
:1004800004F0004B21F0004514464FF0000A23F021
:10049000004150EA050220D054EA01021DD0C5F304
:1004A0000A570246C5F31303C1F31300C1F30A56FA
:1004B00040F4801543F48013A7EB0608101BD646C2
:1004C00008F2FD3873EB050002D308F1010801E0E2
:1004D00092185B41B8F1000F03DA00200146BDE835
:1004E000F08D00204FF48011064684460EE0171B65
:1004F00073EB050705D3121B63EB050306434CEAB8
:10050000010C49084FEA300092185B4150EA01079C
:10051000EDD152EA030012D082EA040083EA050119
:10052000084305D0101BAB4106D20122002306E090
:1005300000224FF0004302E06FF0010253101AEB6B
:1005400006004CEB085110EB0A0041EB0B01BDE833
:10055000F04D00F0A2B80EB5C10F80EAE07008447B
:10056000CA07002140F233438DE80E000A460B46CD
:1005700000F0A2F803B000BD0EB540F23341029185
:100580000021CDE900110A460B4600F095F803B0B2
:1005900000BD01F0004330B421F0004150EA0102F7
:1005A00006D00A0DA2F56072C1F31301002A02DC25
:1005B00030BC00207047440F44EAC104C100E01879
:1005C00030BC00EBC25000F031B8202A04DB203AE6
:1005D00000FA02F1002070479140C2F1200320FA96
:1005E00003F3194390407047202A04DB203A21FA94
:1005F00002F00021704721FA02F3D040C2F120023C
:100600009140084319467047202A06DBCB17203A51
:1006100041FA02F043EAE07306E041FA02F3D04007
:10062000C2F1200291400843194670470029A8BF33
:100630007047401C490008BF20F00100704710B40B
:10064000B0FA80FC00FA0CF050EA010404BF10BCC0
:10065000704749B1CCF1200421FA04F411FA0CF1ED
:1006600018BF012121430843A3EB0C01CB1D4FEA26
:1006700000614FEA102042BF002010BC704700EB21
:10068000C35010440029A4BF10BC7047401C49004F
:1006900008BF20F0010010BC704710B5141E73F1A4
:1006A000000408DA401C41F1000192185B411A4332
:1006B00001D120F0010010BD2DE9F04D92469B467E
:1006C00011B1B1FA81F202E0B0FA80F22032904624
:1006D000FFF77BFF04460F4640EA0A0041EA0B01A0
:1006E00053465A46084313D0114653EA010019D025
:1006F000C8F140025046FFF777FF05460E465046C8
:1007000059464246FFF761FF084305D0012004E047
:1007100020463946BDE8F08D0020054346EAE076E4
:100720002C4337430A986305E40AA0EB0800002233
:10073000FD0A44EA47540A3002D500200146E9E7A1
:10074000010510196941DDE9084500196941BDE855
:10075000F04DA2E7064C074D06E0E06840F00103CB
:1007600094E8070098471034AC42F6D3FFF710FD29
:10077000A8470008C847000810B50146806B026C06
:1007800012F0500F05D0026CD20626D500F0ACFA5C
:1007900010BD016C41F40071016401688A6812F0B7
:1007A000405F17D1027EAAB9CA6A12F4700F02D054
:1007B0008A6852050ED44A6822F020024A60016C11
:1007C00021F480710164016CC90403D4016C41F00F
:1007D0000101016400F086FA10BD806BC26CBDE8B7
:1007E00010400846104710B5806B40210164416CF1
:1007F00041F00401416400F077FA10BD10B5806B40
:1008000000F071FA10BD0000464910B54A6822F4A4
:1008100040324A604A6843681A434A6001684A683D
:1008200022F480724A6001684A68036942EA03223E
:100830004A6001684A6822F040724A6001684A686A
:1008400083681A434A6001688A6822F400628A60F9
:1008500001688A68C3681A438A60816A6FF07062AF
:10086000D14201688A6822F070628A6001688A68F1
:100870000CD0836A1A438A6001688A6822F0405269
:100880008A6001688A68C36A1A4301E022F0405214
:100890008A6001688A6822F002028A6001688A68B8
:1008A000037E42EA43028A6090F820100029016822
:1008B0004A680FD042F400624A6001684A6822F434
:1008C00060424A6001684A68174C436A04EB43334C
:1008D0001A4301E022F400624A600168CA6A22F405
:1008E0007002CA620168CA6A838B104C04EB03531E
:1008F0001A43CA6201688A6822F400728A60016839
:100900008A6890F8303042EA43228A6001688A6837
:1009100022F480628A6001688A68406942EA802025
:10092000886010BD0023014000E0FFFF0000F0FFE1
:1009300010B502F085FA02F013FA02F037F902F06E
:1009400067F902F097F902F0C7F902F0E7F902F04F
:1009500021FB02F055FB02F001FB02F087FB02F0E5
:10096000A1FB02F0BBFB02F0D5FB104800F034F80D
:100970000F4800F031F80D4800F006FF0C4800F079
:1009800003FF0C4800F05CFA02F00EFD022107485C
:1009900000F064FB0221064800F060FBBDE8104057
:1009A0000A220549034800F0C1BA0000D80100201E
:1009B00000020020A000002074070020FEE70000D5
:1009C000014800F058BC0000D8010020014800F0A8
:1009D00052BC00000002002000B58BB000210122B3
:1009E000CDE90612039108920E22094B0491009161
:1009F000019102910992984200D105910449283150
:100A0000884200D10592694600F03AFB0BB000BD68
:100A1000D801002008B5642002F0F8FF03F072FD51
:100A2000194C0090A07CC00703D06421684602F0F6
:100A3000F4FFA07C800705D502F024FC6421684601
:100A400002F0EBFFA07C400703D56421684602F06A
:100A5000E4FFA07C000703D56421684602F0DDFFB7
:100A6000A07CC00603D56421684602F0D6FFA07CB6
:100A7000800603D56421684602F0CFFF64216846F2
:100A800002F0CBFFCEE70000D8450020014800F07F
:100A9000C1BE00009C060020014800F0BBBE000063
:100AA0003C06002001681823CAB2103AB2FBF3F2E8
:100AB000054B6FF30901032A9B5CC36500D9091D2F
:100AC00081650846704700004447000810B501469C
:100AD00000208B698A6A4FF0C07453B1B3F5005F90
:100AE00015D072B1012A0CD0022A0AD0032A09D1EA
:100AF00004E01AB1012A06D0022A03D1C96AC90149
:100B000000D5012010BDC96AA142FAD010BD002A4B
:100B1000F7D0012AF2D0022AF3D0032AF3D010BD75
:100B200030B50468256825F4802525600468636075
:100B30008368402B036803D099600068C26030BDB1
:100B40009A600068C16030BD7047704710B50F4CA7
:100B50002DED028BA068FFF7FEFC41EC180BE0685E
:100B60000068406AFFF708FD9FED091B53EC112B4D
:100B7000FFF782FC53EC182BFFF7D7FBFFF709FDBB
:100B8000BDEC028B00EE100A10BD0000D84500201D
:100B9000000000000000594078B50024009490F84F
:100BA0003C20012A19D0012280F83C200A68072342
:100BB0000568092A13D9EE680A3A02EB420293400B
:100BC0009E43EE600B788A680A3B03EB43039A402E
:100BD0000368DD682A43DA6010E0022078BD2E69E0
:100BE00002EB420293409E432E610B788A6803EB2E
:100BF00043039A4003681D692A431A614A681F2308
:100C0000072A13D205686E6B521E02EB82029340D4
:100C10009E436E630B790A885B1E92B203EB8303DB
:100C20009A4003685D6B2A435A6327E005680D2AE2
:100C300012D22E6BD21F02EB820293409E432E6390
:100C40000B790A88DB1F92B203EB83039A40036897
:100C50001D6B2A431A6311E0EE6A0D3A02EB820221
:100C600093409E43EE620B790A880D3B92B203EBF0
:100C700083039A400368DD6A2A43DA62164B0568EB
:100C8000144A9D4206D10D68122D03D1556845F4D2
:100C90008005556005689D4218D10B68102B01D066
:100CA000112B13D1536843F40003536009681029D2
:100CB0000CD10A490A4A0968B1FBF2F101EB810142
:100CC000490000E0491E00910029FBD180F83C401A
:100CD000002078BD002301400020014038000020A2
:100CE00040420F0070477047704770B504004FF0E6
:100CF000000503D0206C002610B107E0012070BD74
:100D0000204600F01DF8666484F83C60206CC00644
:100D100010D4206C20F4885040F00200206420465B
:100D2000FFF772FD6664206C20F0020040F00100C5
:100D3000206400E0012584F83C60284670BD000076
:100D4000F0B587B0064614216846FFF7E3FA364847
:100D5000344F34680025344914380323334ABC42E5
:100D600030D10C6844F480740C60096801F480711F
:100D70000591016841F0010101600068694600F0D9
:100D80000100059012208DE82900104600F0B8FE01
:100D9000284C2748C4E900050015A560C4E90350A4
:100DA000800060618000A0618011C4E907052046D1
:100DB000656200F0FFFD08B1FFF7C7FEB463A663EC
:100DC00007B0F0BD1C4EB44211D10C6844F400745D
:100DD0000C60096801F400710591016841F001019E
:100DE0000160006800F001000590042013E0134E3C
:100DF000B442E5D10C6844F480640C60096801F4E5
:100E000080610591016841F001010160006800F016
:100E10000100059008208DE829006946104600F081
:100E20006FFECDE700200140443802400000024040
:100E3000706402407801002000210140002201403E
:100E400018B50021009190F83C20012A07D001221A
:100E500080F83C2002689368DB0702D011E0022092
:100E600018BD936843F0010393602A4A2A4B126825
:100E7000B2FBF3F202EB420200E0521E0092002AA3
:100E8000FBD102689368DB0741D0036C40F2016438
:100E9000A34343F48073036453685B0505D5036C77
:100EA00023F4005343F480530364036CDB0404D540
:100EB000436C23F00603436400E0416480F83C1077
:100EC00016496FF02203136049680068CA06144986
:100ED00006D088421BD1816811F0405F13D016E024
:100EE0008842F8D00F4A904203D1D1F80423D206A9
:100EF000F1D00D4A90420AD1D1F8041301F01F013C
:100F00001029E8D303E0816841F08041816000202E
:100F100018BD00003800002040420F0000230140AF
:100F2000002001400021014000220140F8B50E469A
:100F300000210446009190F83C00012807D00120D0
:100F400084F83C0020688368DB0702D011E00220AF
:100F5000F8BD836843F0010383603748374B00686E
:100F6000B0FBF3F000EB400000E0401E00900028D2
:100F7000FBD120688368DB075CD0236C40F20165FD
:100F8000AB4343F4807323644068400505D5206C6F
:100F900020F4005040F480502064206CC00404D53C
:100FA000606C20F00600606400E0616484F83C102E
:100FB000A16B2448224DC863A16B23480864A16B30
:100FC0002248C86421686FF02200086020684168E8
:100FD00041F0806141602068816841F480718160E6
:100FE0002168134632464C31A06B00F04DFD686815
:100FF0001749C006206806D088421BD1816811F0CD
:10100000405F13D016E08842F8D0124A904203D1D4
:10101000D1F80423D206F1D00F4A90420AD1D1F878
:10102000041301F01F011029E8D303E0816841F0A7
:10103000804181600020F8BD3800002040420F0050
:101040000023014079070008FD070008E7070008B2
:1010500000200140002101400022014090F82020A2
:10106000012A07D0022A05D0416A41F48021416259
:1010700001207047006842690A43426100207047BE
:1010800010B590F82020012A07D0022A05D0416A25
:1010900041F480214162012010BD3B48D0F800227C
:1010A00042F00102C0F80022D0F8002222F47C5263
:1010B000C0F80022D0F800224B6A42EA0322C0F8AE
:1010C00000220A7D02F01F0301229A40D0F81C3250
:1010D0009343C0F81C32CB69B3B9D0F80C329343B8
:1010E000C0F80C328C894B6864F31F434C6900EBE9
:1010F000C404C4F840320C890B6864F31F434C6984
:1011000000EBC404C4F84432CB69012B16D1D0F8EB
:101110000C321343C0F80C320C884B6864F31F4345
:101120004C6900EBC404C4F840320C89CB6864F30A
:101130001F434C6900EBC404C4F844328B69002B94
:10114000D0F804320ED01343C0F804320B69002BE0
:10115000D0F8143208D01343C0F81432096A0129B8
:1011600004D008E09343EFE79343F5E7D0F81C126F
:101170001143C0F81C12D0F8001221F00101C0F890
:101180000012002010BD000000640040704730B520
:1011900090F82040012C05D0022C03D0416A41F484
:1011A00080215DE00468002955D02469A40754D04B
:1011B0004FF4D874056804EB01142D5915F004059B
:1011C000956005682D594ED0ED08556005682C597D
:1011D000C4F34004D4604FF4DA74056804EB0114DE
:1011E0002D5905F00F05156105682D59C5F3072523
:1011F000956105682C59240C54614FF4DC72046825
:1012000002EB0112A4581C700468A458240A5C70F4
:101210000468A458240C9C700468A258120EDA705A
:101220004FF4DE72046802EB0112A4581C710468CA
:10123000A458240A5C710468A458240C9C710468A6
:10124000A258120EDA71006881B1016941F02001E3
:101250000161002030BDE468A8E7416A41F4001153
:101260004162012030BD6D0D1560AFE7C16841F0EE
:101270002001C160EDE72DE9F05F0546006800241C
:101280004669D0F804908768D0F80CB0D0F810A068
:10129000D0F81880F10748D0F90714D001218160F7
:1012A000B80703D5284600F09CFA0CE0780702D571
:1012B0004FF4006407E0380702D54FF4805402E091
:1012C000284600F08DFAF80516D529684FF480708D
:1012D0008860B80503D5284600F085FA0CE078054B
:1012E00002D544F4005407E0380502D544F48044A4
:1012F00002E0284600F076FAF80316D529684FF484
:1013000080308860B80303D5284600F06EFA0CE000
:10131000780302D544F4004407E0380302D544F4CE
:10132000803402E0284600F05FFA300707D55FEA14
:10133000CB6004D52968102044F40074C86070079D
:101340004FF0080707D55FEA0B7004D52868C7601F
:10135000284600F099F9B00706D52868C0688007CC
:1013600002D0284600F092F9700607D55FEACA60FD
:1013700004D52968102044F480640861B00607D5BC
:101380005FEA0A7004D528680761284600F0F8F97A
:10139000F00606D528680069800702D0284600F0CC
:1013A000F0F9B00308D55FEAC96005D529681020B7
:1013B0004860284600F0E6F9F00307D55FEA0970B7
:1013C00004D528684760284600F010FA300446D556
:1013D0005FEA497040D5F00504D55FEAC87001D0D6
:1013E00044F00104B00504D55FEA887001D544F0EB
:1013F0000204700504D55FEA487001D544F0040486
:10140000300529D518F0700F26D008F0700040285C
:1014100015D006DC102809D020280AD0302816D193
:101420000AE050280ED0602811D10EE044F00804E4
:101430000DE044F010040AE044F0200407E044F01A
:10144000400404E044F0800401E044F4807428681F
:10145000816921F070018161296804204860002CB5
:1014600005D0686A204368622846FFF78FFEBDE812
:10147000F09F70B5040003D094F8200010B104E090
:10148000012070BD204600F081F82068016821F03D
:101490000201016000F018FC0546052604E000F09A
:1014A00013FC401B0A2811D8206840688007F6D436
:1014B0002068016841F00101016000F005FC05466B
:1014C0000BE000F001FC401B0A2806D9606A40F4DA
:1014D0000030606284F82060D2E720684068C0076E
:1014E000EFD0207E0128206801683DD021F08001E6
:1014F0000160607E01282068016838D021F0400139
:101500000160A07E01282068016833D021F020010D
:101510000160E07E0128206801682ED041F01001B2
:101520000160207F01282068016829D021F008018E
:101530000160607F01282068016824D021F0040147
:101540000160D4E902010843D4E9041211430843BD
:101550006168491E08432168C8610020606201205B
:1015600084F82000002070BD41F08001C0E741F008
:101570004001C5E741F02001CAE721F01001CFE7A3
:1015800041F00801D4E741F00401D9E7F0B587B094
:10159000044614216846FEF7BDFE364B3648DFF898
:1015A000D0E01968D4F800C0334A03250226092781
:1015B00010300024491CF44522D11960012907D1BB
:1015C000016841F000710160006800F00070059052
:1015D000106840F0080010601068CDE9005600F077
:1015E0000800CDE9047069462448CDE9024500F0C1
:1015F00087FA00220521142000F0F2FB142033E0CA
:10160000DFF87CE0F44531D1D0F800C04CF0806CBC
:10161000C0F800C0D0F800C001290CF0806CCDF8F3
:1016200014C0196007D1016841F0007101600068C1
:1016300000F000700590106840F002001060106823
:1016400002AB00F0020005904FF44050CDE90006D7
:1016500083E8B00069460B4800F052FA00220521E9
:10166000402000F0BDFB402000F0ACFB07B0F0BD17
:10167000006400400000002030380240000C0240AE
:10168000006800400004024070470000374910B570
:10169000884206D1BDE81040354B364A0021FFF79D
:1016A00076BD354988425FD1314B324A08331C320E
:1016B0000021FFF76CFD2F4833221C302F490068B2
:1016C000A0F50070013814D0012823D002282FD0B3
:1016D000032849D1D1F8DC30581CC1F8DC0001F1F5
:1016E000B400322B35D822490831BDE8104002F051
:1016F00073B9886A431C8B62322803D81C491F487F
:101700000831F2E78A621A491C48083102F044F9AC
:10171000002025E04B6E581C486618483C30322BA0
:10172000E1D94A661249083102F036F9012017E082
:10173000D1F8A030581CC1F8A00010487830322BE6
:10174000D1D9C1F8A0200A49083102F025F90220B8
:1017500006E0C1F8DC200649083102F01DF903203B
:10176000BDE8104001F022BD10BD0000D8010020EE
:101770001C000020FC060020000200208C440020F9
:10178000704770477047000070B5044690F820001D
:10179000012804D0606A40F40020606218E0022052
:1017A00084F820002068016821F00101016000F048
:1017B0008BFA05460EE000BF00F086FA401B0A28AF
:1017C00008D9606A40F400306062052084F8200087
:1017D000012070BD20684068C007EDD1606270BD17
:1017E000704770477047704770477047704790F870
:1017F0003510022903D08021416501207047052161
:1018000080F835100068016821F0010101600020B6
:10181000704700002DE9F84304464FF00009CDF869
:10182000009063484FF41651A56D0068B0FBF1F7C6
:101830002E6894F85C10082000FA01F131420FD0B4
:1018400021680A6852070BD50A6822F004020A6070
:1018500094F85C108840A860606D40F001006065FD
:1018600094F85C104FF0010808FA01F0304208D0FB
:1018700021684969090604D5A860606D40F002003E
:10188000606594F85C1004208840304208D02168DC
:101890000968890704D5A860606D40F004006065A0
:1018A00094F85C1010208840304218D021680968F4
:1018B000090714D5A86020680168490304D50068A9
:1018C000000308D5A16C07E00168C90503D40168CD
:1018D00021F008010160216C09B12046884794F885
:1018E0005C1020208840304231D021680968C90648
:1018F0002DD5A86094F8350005282068016806D029
:10190000490347D5006800031DD4616C1CE021F039
:10191000160101602068416921F080014161206C5D
:1019200008B9A06C20B12068016821F008010160AD
:1019300094F85C103F208840A86084F8349084F8C4
:101940003580216D1FE0E16B09B120468847606D4D
:1019500000282BD0606DC00714D0052084F8350016
:101960002068016821F0010101600098401C00908E
:10197000B84203D820680068C007F6D184F83490D4
:1019800084F83580E16C002910D001B02046BDE814
:10199000F04308470168C905D5D4016821F010015A
:1019A000016084F8349084F83580CCE7BDE8F88392
:1019B000380000202DE9F041044600F085F9064684
:1019C0005CB1002584F83450022084F8350020688A
:1019D000016821F0010101600DE00120BDE8F08106
:1019E00000F072F9801B052805D9202060650320CE
:1019F00084F83500F2E720680068C007F0D122685B
:101A0000116820480140D4E901031843D4E90336A2
:101A10003343184363691843A3691843E3691843C0
:101A2000236A18430843616A042903D1D4E90B13DC
:101A300019430843106020684069666A20F0070176
:101A400030460E43012704280CD1A06A0643E06A01
:101A500040B12046FFF73AF820B14020606584F895
:101A60003570BAE7206846612046FFF71BF894F806
:101A70005C203F2191408160656584F835700020CD
:101A8000ACE700003F8010F02DE9F0410446866D80
:101A900090F83400002501280DD0012084F834008E
:101AA00094F835700020012F07D084F83400022507
:101AB0002846BDE8F0810220FBE7022784F8357054
:101AC00060652046FFF72CF894F85C103F208840B2
:101AD000B0602068016841F016010160206841692A
:101AE00041F080014161206C20B12068016841F023
:101AF000080101602068016841F001010160D7E739
:101B00002DE9F84FDFF87CB100224FF001084FF0CB
:101B1000030A4FF00F090BF1040E00BF0B6808FA1F
:101B200002F42340A3426ED14D68022D01D0122D44
:101B30000ED1D50800EB850CDCF820505607F70EC7
:101B400009FA07F6B5430E69BE402E43CCF8206073
:101B5000066855000F790AFA05FC07F0030726EA24
:101B60000C06AF40374307604E68012E05D0022EA9
:101B700003D0112E01D0122E0ED18668CF6826EA2E
:101B80000C06AF40374387604668A6430C79C4F320
:101B90000014944034434460C6688C6826EA0C06FE
:101BA000AC403443C4604C68E40065D5364C2568CD
:101BB00045F480452560246822F0030504F4804440
:101BC0000094324C2E19D6F8084895072F0F09FAC1
:101BD00007F5AC432E4DA84201D1002524E02D4D40
:101BE000A84201D101251FE02B4DA84201D10225B9
:101BF0001AE02A4DA84201D1032515E0284DA8423C
:101C000002D1042510E037E0264DA84201D1052578
:101C10000AE0254DA84201D1062505E0234DA84242
:101C200001D1072500E00825BD402543C6F8085826
:101C3000DBF800405D464E689C43F60300D51C432C
:101C40002C60DEF8004075464E689C43B60300D514
:101C50001C432C600B4D08352C684E689C43F602E3
:101C600000D51C432C60074D0C352C684E689C43F6
:101C7000B60200D51C432C60521C102AFFF44EAF54
:101C8000BDE8F88F003C014044380240003001407C
:101C9000000002400004024000080240000C024024
:101CA000001002400014024000180240001C0240D4
:101CB000426931EA020200D10904816170470AB128
:101CC000816170470904FBE70148806870470000A4
:101CD0002C0000200248816802781144816070471E
:101CE0002C0000200B4810B5016841F40071016020
:101CF000016841F480610160016841F48071016014
:101D0000032000F08DF8002000F006F800F03EF807
:101D1000002010BD003C024010B5014688B00022F2
:101D2000192000F05DF8192000F04CF81348002449
:101D3000016841F001010160006805A900F001009F
:101D40000690684600F016F900F04AF90C49400088
:101D5000B0FBF1F10C480B4A491E026040F2E73239
:101D6000C0E90324C0E9011400F04DFB10B10120CB
:101D700008B010BD044800F0A7FBF9E74438024062
:101D800040420F0000000140340700200C4882B0A0
:101D9000016841F480410160006800F480400090D7
:101DA0000748001F016841F080510160006800226F
:101DB00000F0805000900F21901E02B000F010B88B
:101DC00044380240002809DB00F01F020121914045
:101DD0004009800000F1E020C0F8001170470000C9
:101DE000F0B40E4B1B680C46C3F30223C3F1070586
:101DF000042D00D90425191D072901D2002300E074
:101E0000DB1E012606FA05F1491E214099409E403D
:101E1000761E16403143F0BC01F09FBD0CED00E092
:101E2000064900F0070208684FF6FF03184040EA31
:101E30000220034A10430860704700000CED00E0E8
:101E40000000FA052DE9F0470E46050065D0DFF8E1
:101E50001481D8F80000F7B200F00F00B04207D2AA
:101E600088F80070D8F8000000F00F00B04254D19C
:101E700028683D4C810712D5400703D5206840F4FF
:101E8000E05020602878000703D5206840F46040C7
:101E900020602068A96820F0F000084320602878BE
:101EA000C0072DD0304968680839012812D00228AF
:101EB00013D0032811D00968890700292DDA216879
:101EC00021F0030101432160FFF7FEFE814641F24C
:101ED000883A0EE009688903EFE709688901ECE7B1
:101EE000FFF7F2FEA0EB0901514502D90320BDE83E
:101EF000F0872068696800F00C00B0EB810FEFD12B
:101F0000D8F80010404601F00F01B14207D9077020
:101F1000006800F00F00B04201D00120E7E7287808
:101F2000400705D52068E96820F4E05008432060A8
:101F30002878000706D52068296920F4604040EA27
:101F4000C100206000F05CF82168084AC1F3031169
:101F5000515CC840064908600020FFF7DDFE002004
:101F6000C5E70000003C0240083802404C4700082A
:101F7000380000200F2202600C4A136803F00303AC
:101F80004360136803F0F0038360136803F4E053C5
:101F9000C36012684FF4E05303EAD20202610448BE
:101FA000006800F00F000860704700000838024029
:101FB000003C0240014800687047000038000020E3
:101FC0000448054900680968044AC1F38221515C4C
:101FD000C840704738000020083802405C470008BD
:101FE0000448054900680968044AC1F34231515C5C
:101FF000C840704738000020083802405C4700089D
:10200000154810B5006810F00C02144813D014499C
:10201000042A0FD0082A0ED10F4C241F22682368EF
:1020200002F03F025B0207D52068C0F38810A0FBD6
:10203000010106E0084610BD2168C1F38811A1FB2B
:1020400000010023FEF71CF92168C1F30141491C7E
:102050004900B0FBF1F010BD083802400024F40044
:1020600000366E012DE9F84F050076D02878DFF8AC
:10207000F8B2BE4CC00749D0DBF800105846C1F397
:102080008101012908D00068C0F3810002280AD12B
:10209000201D0068400206D52068800336D5686898
:1020A0000028E2D032E06868B0F5803F10D0B0F58B
:1020B000A02F206810D020F480302060206820F409
:1020C000802020606868A0B1FFF7FEFD06460CE0A6
:1020D000206840F48030F4E740F480202060F7E787
:1020E000FFF7F2FD801B642873D820688003F7D5C2
:1020F0000CE0FFF7E9FD064605E000BFFFF7E4FD51
:10210000801B6428F0D820688003F7D42878DFF893
:10211000608280074FF000093ED5DBF8001058467A
:1021200011F00C0F09D00068C0F3810002280BD118
:102130008D48001F0068400206D42068800715D52E
:10214000E868012809D111E0E868B8B10120C8F8B1
:102150000000FFF7B9FD064605E002E1FFF7B4FD18
:10216000801B0228C0D820688007F7D5206829691D
:1021700020F0F80040EAC10020600DE0C8F80090AF
:10218000FFF7A2FD064604E0FFF79EFD801B022834
:102190001FD820688007F7D42878000722D5724E10
:1021A000744869696C3671B101210160FFF78CFDDB
:1021B000074604E0FFF788FDC01B022809D83068F5
:1021C0008007F7D50EE0C0F80090FFF77DFD0746C9
:1021D00005E083E0FFF778FDC01B02287ED8306859
:1021E0008007F7D42878400768D5DFF87CA100275E
:1021F0000AF1380ADAF80000C0000BD4DAF800104F
:1022000041F08051CAF80010DAF80000012700F010
:1022100080500090584E3068C00510D4306840F4AB
:1022200080703060FFF750FD009005E0FFF74CFD37
:102230000099401A022851D83068C005F6D54A4E98
:10224000A868683601280FD00528306810D020F023
:1022500001003060306820F004003060A868B8B138
:10226000FFF732FD00900FE0306840F00100F4E726
:1022700040F004003060F7E7FFF726FD0099411AAF
:1022800041F28830814264D830688007F4D50EE08E
:10229000FFF71AFD009007E0FFF716FD0099411ABD
:1022A00041F28830814254D830688007F4D42FB18D
:1022B000DAF8001021F08051CAF80010A869C0B304
:1022C000DBF80010C1F3810102294AD002284846F8
:1022D00007D0C8F86000FFF7F7FC00E039E00546DA
:1022E0003AE04746C8F86000FFF7EEFC064604E017
:1022F000FFF7EAFC801B02282BD820688001F7D466
:10230000D5E907010843A96A1C4A490802EB0141C3
:102310006A6A41EA8211084395F82C1040EA01618B
:102320001148001F016001203866FFF7CDFC05460B
:1023300005E014E0FFF7C8FC401B022809D820681C
:102340008001F7D50BE000BFFFF7BEFC401B022861
:1023500002D90320BDE8F88F20688001F4D4002062
:10236000F8E70120F6E70000083802400038024094
:1023700000004742800E4742007000400000FFFF0F
:102380004FF0E0210428086903D020F00400086120
:10239000704740F00400FAE710B5401EB0F1807FAE
:1023A00001D3012010BD4FF0E02460610F216017C0
:1023B00001F0D3FA0020A06107202061002010BDA9
:1023C0007047704770B590F83C20012A19D001245D
:1023D00000F83C4F0222427050F83C3C5A689D681D
:1023E00022F070060A684968324325F080052943C7
:1023F0005A6050F83C2C91604470002101700846EE
:1024000070BD022070BD10B5040003D094F83D00EB
:1024100010B107E0012010BD002084F83C002046E8
:1024200000F00CF8022084F83D00211D206801F026
:1024300005F8012084F83D00002010BD08B51E4AB3
:1024400001681E4891420ED1016841F0020101600D
:102450000068002200F00200009005211D20FFF717
:10246000BFFC1D2022E0164A91420ED1016841F0C6
:10247000040101600068002200F0040000900521C2
:102480001E20FFF7ADFC1E2010E00E4A914211D134
:10249000016841F0800101600068002200F08000C6
:1024A000009005212C20FFF79BFC2C20BDE8084064
:1024B000FFF788BC08BD000000040040403802401F
:1024C00000080040001C00400168CA6842F0010298
:1024D000CA600068816801F00701062903D001681D
:1024E00041F0010101600020704770B5044690F88A
:1024F0003C00012817D0012584F83C50022084F8C4
:102500003D002068826822F0770222F47F428260D8
:102510000868502830D00DDC20284DD005DC98B359
:1025200010283BD148E0022070BD302844D040281C
:1025300034D139E0602828D0702806D0B0F5805F0B
:102540002CD0B0F5005F29D10AE0CB68D1E9012198
:10255000206800F0D7FF2068816841F0770109E02A
:10256000CB68D1E90121206800F0CCFF20688168A8
:1025700041F48041816011E0CA684968206800F038
:10258000D3FF5021206807E016E0CA684968206838
:1025900000F0DBFF6021206800F0BEFF84F83D50B2
:1025A000002084F83C0070BDCA684968206800F0CB
:1025B000BBFF40212068EFE7226801461046EBE7A9
:1025C000704770B50446006801694FF00005C943C3
:1025D000890715D4C168C943890711D4E91E01616F
:1025E00001202077206880698007204602D0FFF70D
:1025F000E7FF04E000F098F8204600F096F8257711
:1026000020680169C943490717D4C168C94349070C
:1026100013D46FF0040101610220207720688069E3
:1026200010F4407F204602D0FFF7CAFF04E000F01C
:102630007BF8204600F079F8257720680169C943C6
:10264000090716D4C168C943090712D46FF00801FD
:102650000161042020772068C0698007204602D0ED
:10266000FFF7AEFF04E000F05FF8204600F05DF8F1
:10267000257720680169C943C90617D4C168C943D1
:10268000C90613D46FF0100101610820207720687B
:10269000C06910F4407F204602D0FFF791FF04E0AC
:1026A00000F042F8204600F040F8257720680169E4
:1026B000C943C90708D1C168C943C90704D1891EE4
:1026C0000161204600F032F820680169C94309061B
:1026D00009D4C168C943090605D46FF080010161BE
:1026E0002046FFF76DFE20680169C943490609D4F9
:1026F000C168C943490605D46FF040010161204615
:1027000000F024F820680169C94389060BD4C16828
:10271000C943890607D46FF0200101612046BDE856
:102720007040FFF74EBE70BD7047704700680549A6
:10273000884201D1FFF7CEBA0349884201D100F0A7
:1027400041BD7047000001400004004070477047E1
:1027500070B5026804461068D168536910F00F0F15
:1027600051D003F0010501F4907635435DD0C207E6
:1027700005D0CA0503D5E26B42F00102E2634207CD
:1027800005D5DA0703D0E26B42F00202E26382076A
:1027900005D5DA0703D0E26B42F00402E2630207D8
:1027A00005D5DA0703D0E26B42F00802E263E26B80
:1027B000002A34D0800604D5880602D5204600F0D1
:1027C000ECFE20684069E16BC0F3801001F0080165
:1027D0000143204624D000F0D2FE2068416949061A
:1027E0001AD5416921F040014161606BA0B11B49DC
:1027F0000165606BFEF7FBFF002810D0606B016D78
:10280000BDE87040084783060FD58B060DD52046DE
:10281000BDE8704000F0C1BE2046FFF798FF70BDD4
:10282000FFF795FF0020E06370BD030606D50B0699
:1028300004D52046BDE8704001F050B84006F3D5FD
:102840004806F1D5D168204621F04001D160202111
:1028500084F8391000F01DF970BD00006F350008D4
:1028600070B5040004D094F83900002510B106E0DA
:10287000012070BD84F83850204600F023F8242051
:1028800084F839002068C16821F40051C1602046F5
:1028900000F0CEFE2068016921F4904101612068BA
:1028A000416921F02A0141612068C16841F4005169
:1028B000C160E563202084F8390084F83A000020E4
:1028C00070BD00002DE9F04F87B006461421684620
:1028D000FDF720FD6449634837680024DFF88891DC
:1028E0001439022201230325DFF880E14FF0C00AEA
:1028F0004FF0070C4FF0006B874238D1D9F80070C9
:1029000047F01007C9F80070D9F8000000F0100077
:102910000590086840F0020008600868CDF800A043
:1029200000F00200CDE904C001AF694687E82C0041
:102930007046FFF7E5F84F4D4D482860C5E901B4F2
:102940000015C5E903406C61AC61EC612C6228465E
:102950006C62FFF72FF808B1FEF7F7F875630022F5
:1029600005212520AE63FFF73BFA252038E03E48DD
:10297000DFF80481001F474537D1076847F4003767
:102980000760006800F400300590086840F0080017
:1029900008600868694600F00800059060208DE82E
:1029A0002D103648FFF7ACF8324D354860352860B9
:1029B000C5E901B40015C5E903406C61AC61EC6187
:1029C0002C6228466C62FEF7F5FF08B1FEF7BDF8F1
:1029D0007563002205212620AE63FFF701FA262049
:1029E000FFF7F0F907B0BDE8F08F264CA74216D1EB
:1029F000046844F480240460006800F4802005909A
:102A0000086840F0020008600868694600F00200AB
:102A100005904FF440608DE82D1070461EE01A4876
:102A20008742DFD1D9F8004044F02004C9F80040C3
:102A3000D9F8000000F020000590086840F004007C
:102A400008600868CDF800A000F004000590082098
:102A5000CDE9035069460D48CDE90123FFF750F851
:102A6000C0E700000010014044380240000402406A
:102A7000406402403C06002000440040000C02403C
:102A800088600240004800400014014000080240F5
:102A900070477047FEE7000008B5642000F0B6FFFD
:102AA00001F030FDDFF8F8803E4C08F114050127F5
:102AB0004FF4004A4FF4804B002605F114090090B2
:102AC000042000F087FB207CC0070AD05946364816
:102AD000FFF7EEF8A8F80070C821684600F09DFFE7
:102AE00006E0A8F80060012259462F48FFF7E7F8F2
:102AF000207C800709D551462B48FFF7D9F82F8055
:102B0000C821684600F089FF05E0012251462648A9
:102B1000FFF7D5F82E80207C40070AD55946224879
:102B2000FFF7C6F802202880C821684600F075FF2C
:102B300005E02E80012259461B48FFF7C0F8207C93
:102B400000070BD54FF480511748FFF7B1F8032069
:102B50002880C821684600F060FF05E001222E8031
:102B600011031148FFF7ABF8207CC0060BD5A9F87C
:102B700000704FF400610C48FFF79AF8C8216846CE
:102B800000F04BFF06E00122A9F80060D1020648E0
:102B9000FFF795F84FF41671684600F03EFF8FE797
:102BA000F8460020D8450020001802407FB50024D8
:102BB00015480094019402941249039401604FF463
:102BC0008031C0E9011401250461057680F82040B8
:102BD0000E49C0E90A14C561C46080F830504561EF
:102BE000FEF783F808B1FDF7B0FF0095CDE9015479
:102BF00069460548FDF7D0FF002801D0FDF7A5FF85
:102C00007FBD000000200140A00000200100000F57
:102C10007FB500241548009401940294124903944E
:102C200001604FF48031C0E901140125046105768B
:102C300080F820400E49C0E90A14C561C46080F8DC
:102C400030504561FEF751F808B1FDF77EFF0220D4
:102C5000CDE90005694602940448FDF79DFF002870
:102C600001D0FDF772FF7FBD00210140E800002088
:102C70000100000F7FB500241548009401940294D0
:102C80001249039401604FF48031C0E90114012519
:102C90000461057680F820400E49C0E90A14C56138
:102CA000C46080F830504561FEF71FF808B1FDF7A9
:102CB0004CFF0320CDE90005694602940448FDF766
:102CC0006BFF002801D0FDF740FF7FBD00220140CF
:102CD000300100200100000F0F4810B50D490160C0
:102CE0000621416000214FF480328160C0E9031267
:102CF0004FF440124261017641768176C1760177C8
:102D00004177FEF7B6FB002803D0BDE81040FDF781
:102D10001CBF10BD00640040D80100200F4810B552
:102D20000D4901600621416000214FF4803281602D
:102D3000C0E903124FF44012426101764176817678
:102D4000C17601774177FEF794FB002803D0BDE8F8
:102D50001040FDF7FABE10BD0068004000020020E0
:102D6000114808B5016841F480010160016801F46F
:102D700080010091016841F40011016000680022A7
:102D800000F40010009005211020FFF729F8102012
:102D9000FFF718F8002205213A20FFF721F8BDE8D7
:102DA00008403A20FFF70EB83038024010B5AAB0FC
:102DB0001C2221496846FDF794FA0021684600F07C
:102DC00042FE1E4C1C491C2220601C3107A8FDF746
:102DD00088FA002107A800F036FE174960601C221F
:102DE00038310EA8FDF77DFA00210EA800F02BFE69
:102DF0001149A0601C22543115A8FDF772FA002178
:102E000015A800F020FE0C49E0601C2270311CA8BF
:102E1000FDF767FA00211CA800F015FE0649606165
:102E20001C228C3123A8FDF75CFA002123A800F0B6
:102E30000AFE20612AB010BD9C4600080400002054
:102E40002DE9F04786B014216846FDF763FA3D4846
:102E50000024016841F020010160016801F02001B7
:102E60000591016841F080010160016801F0800175
:102E70000591016841F004010160016801F004015D
:102E80000591016841F001010160016801F0010153
:102E90000591016841F010010160016801F0100125
:102EA0000591016841F002010160016801F0020131
:102EB0000591016841F0080101600068DFF8888031
:102EC00000F0080041F67F050590002229464046A3
:102ED000FEF7F5FEDFF874904FF4404600223146CD
:102EE0004846FEF7ECFEDFF868A04FF4804700226A
:102EF00039465046FEF7E3FE00950125CDE9015421
:102F0000694640460394FEF7FBFD062000901148F9
:102F1000CDE9010469461048FEF7F2FD0096CDE9BF
:102F20000154694648460394FEF7EAFD0097CDE94F
:102F30000154694650460394FEF7E2FD06B0BDE831
:102F4000F0870000303802400014024000100240B8
:102F50000004024000001110000802400C4810B5A7
:102F60000A49016053214160002140F2E732C0E983
:102F70000212016180218161FFF745FA08B1FDF776
:102F8000E4FDBDE810400248FFF79EBA001C004077
:102F9000FC04002010B586B0002418480094019469
:102FA0000294039404941449059401605321C0E9E8
:102FB000011440F2E731C0E9031480218161FFF779
:102FC00022FA08B1FDF7C1FD4FF480500090694628
:102FD0000A48FFF78AFA08B1FDF7B7FD049404A97F
:102FE00006480594FFF7EEF908B1FDF7AEFD03487A
:102FF000FFF76AFA06B010BD000400407C04002010
:1030000010B586B0002418480094019402940394EB
:1030100004941449059401605321C0E9011440F25D
:10302000E731C0E9031480218161FFF7ECF908B1B1
:10303000FDF78BFD4FF48050009069460A48FFF77A
:1030400054FA08B1FDF781FD049404A906480594DB
:10305000FFF7B8F908B1FDF778FD0348FFF734FA38
:1030600006B010BD00080040BC0400200C4810B59C
:103070000A4901604FF4E1314160002181600C2276
:10308000C160C0E904128161C161FFF7E9FB00285A
:1030900003D0BDE81040FDF758BD10BD0010014041
:1030A0003C0500200C4810B50A4901604FF4E1319D
:1030B0004160002181600C22C160C0E9041281617D
:1030C000C161FFF7CDFB002803D0BDE81040FDF73C
:1030D0003CBD10BD004400407C0500200C4810B5EC
:1030E0000A4901604FF4E1314160002181600C2206
:1030F000C160C0E904128161C161FFF7B1FB002822
:1031000003D0BDE81040FDF720BD10BD00480040D1
:10311000BC0500200C4810B50A4901604FF4E131AC
:103120004160002181600C22C160C0E9041281610C
:10313000C161FFF795FB002803D0BDE81040FDF703
:1031400004BD10BD00140140FC050020FEE708B5D9
:1031500001F0D8F900900A21684600F05EFCFAE719
:103160007047000070B50024FDF7F0FC0D4B0E4DCC
:10317000A3F114015FF0010003EB8402D2ED000A19
:1031800070EE600A10EE902AAA420A8A00FA04F64B
:1031900001DD324300E0B243641C24B20A82042CF5
:1031A000EADB70BDEC4500200000C84210B50446C3
:1031B000FDF7CCFC024800EB840080ED000A10BD56
:1031C000EC45002002488168491C8160704700007E
:1031D000D845002010B50446FDF7B8FC024800EBC6
:1031E000840080ED000A10BDFC45002018480188CD
:1031F000C1F30A0217490A804278D308827843EA69
:103200004213C3F30A034B80C378920942EA830353
:10321000027943EA8223C3F30A038B80530842797D
:1032200043EAC213C3F30A03CB8093090B72C2F3C0
:1032300001124A72C2884A8102898A814289CA81FE
:10324000027B0A74427B4A74C0894882704700003E
:10325000BC4600207C45002008B501F053F94FF032
:10326000FF3400902146012000F076FE012803D1B2
:10327000FFF7B0FFFFF7BAFF0121684600F0CDFB72
:10328000F0E7000007480021018041808180C18073
:103290000172417241818181C18101744174418215
:1032A000704700007C45002000F0C3BB30B593B0F0
:1032B00030216846FDF72EF814210CA8FDF72AF8F6
:1032C00022480025016841F080510160006800F04B
:1032D000805011901E48016841F4804101600068EF
:1032E000022400F48040119001200090000401901D
:1032F0008001CDE90640182008904FF4A870CDE970
:10330000090404200B906846FEF7ACFE0CA90F20C0
:1033100081E831004FF4A0500F90E0021090052199
:103320000CA8FEF78FFDFEF745FE4FF47A71B0FB57
:10333000F1F0FFF731F80420FFF722F800220F2107
:10334000501EFEF74DFD13B030BD00004038024066
:10335000007000401048016841F4700101600F489E
:10336000016841F0010101600C4A0021083211603E
:1033700002680B4B1A400260031D0A4A1A60026879
:1033800022F48022026005480C3001600249580690
:10339000803908607047000088ED00E00038024086
:1033A000FFFFF6FE10300024044900224A808A8084
:1033B000CA808A60024ACA6070470000D84500206F
:1033C000BC04002070B50024FDF7C0FB0D4B0E4D72
:1033D000A3F124015FF0010003EB8402D2ED000AA7
:1033E00070EE600A10EE902AAA424A8A00FA04F6A9
:1033F00001DD324300E0B243641C24B24A82062C51
:10340000EADB70BDFC4500200000C8420148FFF720
:10341000D8B80000340700200148FFF7D2B80000F8
:103420007C0400200148FFF7CCB80000BC04002059
:103430000148FFF7C6B80000FC040020F0B50268A0
:10344000254C264D264E274F274B4FF0804CA0424F
:1034500009D0604507D0A84205D0B04203D0B84299
:1034600001D0984204D122F0700E4A6842EA0E025E
:10347000A0421BD0604519D0A84217D0B04215D049
:10348000B84213D0984211D0184DA8420ED0184D12
:10349000A8420BD0174DA84208D0174DA84205D01E
:1034A000164DA84202D0164DA84203D122F4407511
:1034B000CA682A434D6922F080022A4302608A6862
:1034C000C2620A688262A04201D0984201D10969B1
:1034D000016301214161F0BD000001400004004092
:1034E00000080040000C0040000401400040014082
:1034F000004401400048014000180040001C00400A
:103500000020004010B5846842EA032224F47F447E
:103510000A432243826010BD826822F070020A438F
:1035200042F007018160704710B5036A046A24F015
:1035300001040462846924F0F00444EA021423F0D4
:103540000A020A438461026210BD10B5036A23F0C7
:10355000100303628369046A23F4704343EA02326E
:1035600024F0A00343EA01118261016210BD10B58D
:10357000806B0021C185C184FFF7E9F810BD0168A7
:10358000CA6822F49072CA6001684A6922F0010296
:103590004A61202180F83A10704710B590F83A102F
:1035A000222901D0022010BD8168B1F5805F11D0C1
:1035B0000169002901681FD0496801F07F03816A11
:1035C0004A1C82620B70C18D491E0904090CC18519
:1035D00018D02BE00269816A002A0268526805D07F
:1035E000D2B20A80816A491C8162ECE7C2F3080208
:1035F0000A80816A891CF7E74A68816A4B1C8362EA
:103600000A70E0E70168CA6822F02002CA60016817
:10361000CA6822F48072CA6001684A6922F0010215
:103620004A61202180F83A10FFF732FA002010BDDD
:103630002DE9F041044600680169E26821F4405137
:10364000114301612169A068E2690843616911437E
:1036500022680843D16849F20C6399430143D16061
:1036600020684169A26921F4407111434161E26916
:103670006425B2F5004F9748974922684FF0320809
:103680003FD08A4201D082427CD1FEF7A9FC00EBF8
:10369000C00101EB001061688900B0FBF1F6FEF794
:1036A0009FFC00EBC00101EB001061688900B0FBDA
:1036B000F1F0B0FBF5F06FF01801484306EB800124
:1036C00008EB0110B0FBF5F000F0F006FEF788FC07
:1036D00000EBC00101EB001061688900B0FBF1F064
:1036E000B0FBF5F006EB0016FEF77AFC00EBC0012C
:1036F00001EB001061688900B0FBF1F7FEF770FC88
:10370000D2E08A4201D082423DD1FEF769FC00EB53
:10371000C00101EB001061684900B0FBF1F0B0FBA3
:10372000F5F00601FEF75CFC00EBC00101EB0010B8
:1037300061684900B0FBF1F7FEF752FC00EBC001F5
:1037400001EB001061684900B0FBF1F0B0FBF5F04F
:103750006FF01801484307EB800108EBC100B0FB94
:10376000F5F000F0F80006EB4006FEF739FC00EB40
:10377000C00101EB001061684900B0FBF1F7FEF7F2
:103780002FFC3CE055E0FEF71BFC00EBC00101EB19
:10379000001061684900B0FBF1F0B0FBF5F00601E4
:1037A000FEF70EFC00EBC00101EB00106168490060
:1037B000B0FBF1F7FEF704FC00EBC00101EB0010D9
:1037C00061684900B0FBF1F0B0FBF5F06FF0180153
:1037D000484307EB800108EBC100B0FBF5F000F0B7
:1037E000F80006EB4006FEF7EBFB00EBC00101EB37
:1037F000001061684900B0FBF1F7FEF7E1FB00EB58
:10380000C00101EB001061684900B0FBF1F0B0FBB2
:10381000F5F06FF01801484307EB800108EBC10099
:10382000B0FBF5F000F00700216830448860BDE887
:10383000F081FEF7C5FB00EBC00101EB00106168F1
:103840008900B0FBF1F6FEF7BBFB00EBC00101EB1A
:10385000001061688900B0FBF1F0B0FBF5F06FF08B
:103860001801484306EB800108EB0110B0FBF5F0AE
:1038700000F0F006FEF7A4FB00EBC00101EB001026
:1038800061688900B0FBF1F0B0FBF5F006EB0016C3
:10389000FEF796FB00EBC00101EB001061688900A8
:1038A000B0FBF1F7FEF78CFB00EBC00101EB001061
:1038B00061688900B0FBF1F0B0FBF5F06FF0180122
:1038C000484307EB800108EB0110B0FBF5F000F076
:1038D0000F00A9E7001401400010014090F83910D2
:1038E000212901D0022070478168B1F5805F016A0B
:1038F0000BD04A1C0262026809785160C18C491ED3
:103900000904090CC1840ED017E009880268C1F3CC
:103910000801516001690029016A02D0491C016255
:10392000ECE7891CFBE70168CA6822F08002CA60E4
:103930000068C16841F04001C1600020704700008C
:103940000148FEF705BF00003C0500200148FEF7D6
:10395000FFBE00007C050020FEE70907090E0028D5
:1039600004DB00F1E02080F80014704700F00F0045
:1039700000F1E02080F8141D704702E008C8121F13
:1039800008C1002AFAD170477047002001E001C148
:10399000121F002AFBD1704710B5038943810A88A2
:1039A00052BA02814C88D31A64BA04808C88B3F569
:1039B000805F64BA448089798171016901DD491EA3
:1039C00003E013F5805F01DA491C016102EB41312C
:1039D0008289891A416110BD098849BA01818181B2
:1039E0007047FEF77FF9FFF761FC00F049FBFCF739
:1039F0009FFFFFF7DBF900F063FB00F015F8FEE72F
:103A000001460020842900D0C81C704710B500B9B9
:103A1000012000F0A9FB002010BD10B501B9012163
:103A200000F0C8FB002010BD10B500F009FC00201C
:103A300010BD10B500F058FD012803D0BDE81040BE
:103A400000F0E4BC10BD7FB50D4604464169B0F9F5
:103A5000080081B1A16971B1FFF7D2FFD4E9051265
:103A60008DE80700D4E900102B46226900F011FD13
:103A7000039004B070BDFFF7C3FF03A9CDE90001B7
:103A8000208A2B4682B2D4E9001000F0D5FC012830
:103A900001D00020EDE70398EBE700002DE9F041AD
:103AA000184C0F46054666692068001D00F088FA2C
:103AB00038B9206890F82C1001208840A169814312
:103AC000A161681C07D137B12168BDE8F0410E48FB
:103AD000091D00F0B9BA20683544B5424560216837
:103AE00005D2A068BDE8F041091D00F095BA6068F4
:103AF000091D00F091FA206B854200D22563BDE8D4
:103B0000F08100003C000020780800202DE9F04101
:103B1000054600F0B5FA2E4C2069401C2061206853
:103B20002C4F10B1E06940B32DE0256020690128D9
:103B300029D1002606EB860007EB800000F05EFA34
:103B4000761C072EF6D323488C3000F057FA214814
:103B5000A03000F053FA1F48B43000F04FFA1D486F
:103B6000C83000F04BFA1B48DC3000F047FA194827
:103B70008C3060601430A06005E02068E96AC06A9B
:103B8000884200D82560E06A401CE062E96A0120B2
:103B9000A26988401043A06101EB810007EB80001F
:103BA000291D00F051FA00F08BFAE06900280CD0D2
:103BB0002068E96AC06A884207D207494FF08050FE
:103BC0000860BFF34F8FBFF36F8FBDE8F081000037
:103BD0003C0000209C07002004ED00E010B50446E6
:103BE00090F8510058B101280CD002280FD0502075
:103BF00080F31188BFF34F8FBFF36F8FFEE7206B09
:103C000000F072FA2046BDE8104000F06DBA10BD19
:103C100010484FF47051420706D0C01D0D4920F0E6
:103C20000700411AC1F570510B4A00230144C2E953
:103C300000030839103A21F0070111604B600B6056
:103C40000B1AC0E9001393604FF000405360D0603E
:103C5000704700008C08002088000020144E154C8E
:103C6000A6F1C8074FF08058DFF84C9012E000BF73
:103C700000F006FAF068C568281D00F0A1F9206977
:103C8000401E2061E068401EE06000F019FA2846FE
:103C9000FFF7A4FFE0680028EAD138680128F9D9C5
:103CA000C9F80080BFF34F8FBFF36F8FF2E70000BA
:103CB000640800203C00002004ED00E02DE9F047FE
:103CC0009A46DDE9098481466FF00303206B03EB1C
:103CD00082021044089D20F00706700707D050208C
:103CE00080F31188BFF34F8FBFF36F8FFEE7231868
:103CF0000A5C83F834200A5C12B1401C1028F6D309
:103D0000002784F84370072D00D30625E562C4E937
:103D10001157201D00F07DF904F1180000F079F929
:103D20002461C5F107006462A061E76484F8507003
:103D300052464946304600F0BFF82060B8F1000F07
:103D400001D0C8F80040BDE8F087000030B5114947
:103D500000E011460A688242FBD34B685C1884423B
:103D600003D1406818444860084643681C189442D0
:103D700009D1084C103C2468A24209D052681A4468
:103D800042600A6812680260814200D0086030BD5B
:103D90000460F9E78800002006484168096829B1F5
:103DA0004168C968C9684968016370474FF0FF31CD
:103DB000FAE700003C00002008484068401C4FF033
:103DC000500080F3118804D0BFF34F8FBFF36F8F83
:103DD000FEE7BFF34F8FBFF36F8FFEE79000002029
:103DE0002DE9F0410546002700F060FA314E3068B9
:103DF00008B9FFF70DFFF06805424BD1C5B3083590
:103E000068070ED005F00700C0F1080005446807F8
:103E100007D0502080F31188BFF34F8FBFF36F8F0F
:103E2000FEE72DB37068854234D822481030014631
:103E30000C6801E020460C466168A94202D2216864
:103E40000029F7D131688C4224D0076821680160CD
:103E500060680837411B10290FD96019420708D044
:103E6000502080F31188BFF34F8FBFF36F8FFEE7B1
:103E700010E041606560FFF769FF61687068401A93
:103E80007060B268904200D2B060F06801430020D8
:103E9000C4E9000100F0A0FB780707D0502080F3B0
:103EA0001188BFF34F8FBFF36F8FFEE73846BDE831
:103EB000F08100007800002010B5031F4FF08074DF
:103EC0001C601B1F21F001011960191F044B0B60BE
:103ED00014390A60091F6FF0020244380A6010BDED
:103EE000B93D000808B5C820FFF790FD00F00AFBB7
:103EF000154C164F164EDFF85CA04FF480454FF47A
:103F000000484FF4805900900020FFF763F92068C3
:103F10000022401C206029463846FDF7D0FE0122D1
:103F200029463046FDF7CBFE012241463046FDF7DB
:103F3000C6FE002249465046FDF7C1FE6421684690
:103F4000FFF76BFDE0E700009C000020000402404A
:103F5000001002400014024070B50C46064600F006
:103F60008FF8154D2868C06C80B92968012081F848
:103F700050005CB101212046FFF790FD0F494FF042
:103F800080500860BFF34F8FBFF36F8F00F098F839
:103F900000F076F82868C46C002034B116B12968A6
:103FA000C86402E02A68611ED164296881F8500063
:103FB00000F086F8204670BD3C00002004ED00E0D3
:103FC000D0E9013201699A60D0E901235A604A6858
:103FD000824201D182684A60002202610868401E64
:103FE0000860086870470000034B036003F1540049
:103FF00008608020106070472802002000F108014E
:104000004FF0FF32C0E90112C1600161002101607F
:10401000704700210161704730B50B685A1C02D00F
:1040200000F1080202E0026904E0224654682568B3
:104030009D42FAD953684B6099608A60516008616B
:104040000168491C016030BD42684A6093688B601A
:1040500093685960916008610168491C016070476C
:1040600008B500F04FFA00900520FFF7B3F8FFF70E
:10407000A9F9FFF777F814216846FFF7CEFCF3E7BC
:10408000502080F31188BFF34F8FBFF36F8F0A4921
:104090004868401C486001280CD10848006810F0AE
:1040A000FF0F07D0502080F31188BFF34F8FBFF36D
:1040B0006F8FFEE7704700009000002004ED00E0E5
:1040C0000849486828B1401E486001D180F3118832
:1040D0007047502080F31188BFF34F8FBFF36F8F6D
:1040E000FEE700009000002070B5002827D0144D96
:1040F000A0F108046168E868014207D1502080F30C
:104100001188BFF34F8FBFF36F8FFEE722683AB17C
:10411000502080F31188BFF34F8FBFF36F8FFEE7FE
:104120008143616000F0C2F86068696808446860B3
:104130002046FFF70BFEBDE8704000F04DBA70BDA1
:10414000780000204FF0E0200021016181610549E5
:104150004FF47A720968B1FBF2F1491E41610721FF
:10416000016170473800002010B5020014D00F48DC
:10417000806B38B1502080F31188BFF34F8FBFF3AD
:104180006F8FFEE700F092F800211046FFF786FCE3
:1041900000F022FA002807D105494FF0805008604E
:1041A000BFF34F8FBFF36F8F10BD00003C000020A6
:1041B00004ED00E070B50D4604000BD095B11E4A29
:1041C000906BB8B1502080F31188BFF34F8FBFF3CD
:1041D0006F8FFEE7502080F31188BFF34F8FBFF33E
:1041E0006F8FFEE7502080F31188BFF34F8FBFF32E
:1041F0006F8FFEE700F05AF852692368591993420D
:1042000004D98B420AD9914202D807E08B42FAD9ED
:10421000881A21600021FFF741FC00E0216000F0D6
:10422000DBF9002807D105494FF080500860BFF343
:104230004F8FBFF36F8F70BD3C00002004ED00E096
:1042400010B586B00024039405AA04A903A8049419
:10425000FFF7CAFEDDE903010094CDE90110002358
:104260000EA11048059A00F014F90F490028486380
:1042700011D0502080F31188BFF34F8FBFF36F8FA1
:104280004FF0FF3008630120C8614C6106B0BDE803
:10429000104000F041B806B010BD000049444C4544
:1042A000000000005D3C00083C0000200248816BDB
:1042B000491C8163704700003C0000201448816B5A
:1042C00011B1012141627047002141628169B1FA57
:1042D00081F1C1F11F0101EB81020E4951F8223039
:1042E0006BB101EB820101F108034A6852684A6030
:1042F0009A4201D152684A60D168016070475020EB
:1043000080F31188BFF34F8FBFF36F8FFEE700007C
:104310003C0000209C0700201CB537480168374A44
:10432000914207D1502080F31188BFF34F8FBFF324
:104330006F8FFEE700683149491E884207D150203F
:1043400080F31188BFF34F8FBFF36F8FFEE72C49C7
:1043500008780190FF20087008788DF800009DF81B
:1043600000009DF8002000F0F000904207D050209F
:1043700080F31188BFF34F8FBFF36F8FFEE79DF877
:104380000000204B00F0500018700720986005E0F6
:104390009DF8002052008DF80020401E9DF800205E
:1043A0001206F5D49860032807D0502080F31188B6
:1043B000BFF34F8FBFF36F8FFEE74FF440709860ED
:1043C000019808700C482030016841F470010160C8
:1043D000016841F070410160FFF7B4FE00205860B1
:1043E000FBF700FF0848016841F040410160FBF71E
:1043F000E5FE00201CBD000000ED00E071C20F4191
:1044000000E400E09000002034EF00E010B5502000
:1044100080F31188BFF34F8FBFF36F8F00F078F8F0
:1044200018B104494FF080500860002080F31188D3
:1044300010BD000004ED00E02DE9FF5F8346DDE9DB
:104440000E87994616468A469000FFF7C9FC05007C
:104450001CD05420FFF7C4FC040014D000202563B6
:1044600084F85100CDE90240CDE900874B46324641
:1044700051465846FFF722FC2046FFF747FB012034
:1044800004B0BDE8F09F2846FFF72EFE4FF0FF3046
:10449000F6E7F0B585B0DDE90B640A9DA6B1DCB1A5
:1044A000542700972663022684F85160002604AF43
:1044B000CDE90246CDE90057FFF700FC2046FFF7A3
:1044C00025FB049805B0F0BD502080F31188BFF3A0
:1044D0004F8FBFF36F8FFEE7502080F31188BFF33B
:1044E0004F8FBFF36F8FFEE70548C16919B1806B2D
:1044F00018B100207047012070470220704700006B
:104500003C00002001484069704700003C0000204A
:104510002DE9F0412E4C0027A06B40B1206A401CD1
:104520002062606A00B101273846BDE8F081666903
:10453000761C666113D16068006838B1502080F342
:104540001188BFF34F8FBFF36F8FFEE76068A168DC
:104550006160A060A06A401CA062FFF71DFC206B98
:10456000DFF87080864209D36068006880B16068B7
:10457000C068C568686886420DD220632068C06A3A
:1045800000EB800158F821000128CAD90127C8E7AB
:104590004FF0FF30F1E7281DFFF712FDA86A18B1B0
:1045A00005F11800FFF70CFDE86A0121A2698140BE
:1045B0001143A16100EB800108EB8100291DFFF789
:1045C00043FDE86A2168C96A8842CDD30127CBE759
:1045D0003C0000209C0700202DE9F0472C4D0024D2
:1045E0002746A86B38B1FFF74BFDA86B401EA863A8
:1045F000A86B40B146E0502080F31188BFF34F8F85
:10460000BFF36F8FFEE72969224E0120D1B3A6F1D7
:10461000B40980463068E8B1F068C46804F1180055
:10462000FFF7CEFC201DFFF7CBFCE06AAA6908FA71
:1046300000F11143A96100EB800109EB8100211D0C
:10464000FFF702FDE06A2968C96A8842E2D3C5F82B
:104650002480DFE70CB1FFF79FFB2C6A44B146468C
:10466000FFF756FF00B16E62641EF9D10020286288
:10467000686A38B10849012738070860BFF34F8FCF
:10468000BFF36F8FFFF71CFD3846BDE8F0870000D1
:104690003C0000205008002004ED00E064470008C2
:1046A000E53E0008000000000000000000010000DE
:1046B00000000000000000007C470008593200089C
:1046C00002000000000000000001000000000000E7
:1046D000000000006C4700084F3100080100000096
:1046E000000000008000000000000000000000004A
:1046F0008C470008992A0008010000000000000013
:104700000001000000000000000000009C470008BD
:10471000150A0008000000000000000080000000F2
:1047200000000000000000009447000861400008FD
:1047300000000000000000008000000000000000F9
:104740000000000000061016000610160000000011
:104750000000000001020304060708090000000031
:10476000010203045461736B310000004D696E69EE
:104770005043446174615461736B000052656D6F06
:104780007465446174615461736B00004C656454DA
:1047900061736B00764F75744C696E654368656331
:1047A0006B5461736B000000C847000800000020D4
:1047B000A00000007A39000868480008A000002026
:1047C000984A00008A39000800000000000000003C
:1047D00000000000000000000000000000000000D9
:1047E00000000000000000000000000000000000C9
:1047F00000000000010000001000000000000000A8
:104800000024F40000000000000000000000000090
:104810000000000000000000000000000000000098
:104820000000000000000000000000000000000088
:104830000000000000000000000000000000000078
:104840000000000000000000000000000000000068
:10485000000000000000000000000000AAAAAAAAB0
:08486000000000000000000050
:040000050800018965
:00000001FF
