:020000040800F2
:10000000B84F00205D0200085D3800084B31000841
:10001000D53600082D0C000805400008000000003F
:100020000000000000000000000000009D0100082A
:100030002D11000800000000F901000839390008FE
:1000400077020008770200087702000877020008AC
:10005000770200087702000877020008770200089C
:10006000770200087702000877020008770200088C
:10007000770200087702000877020008770200087C
:100080007110000877020008770200087702000864
:10009000310C000877020008770200087702000898
:1000A00077020008553A0008770200087702000836
:1000B00077020008613A00086D3A000877020008EC
:1000C000770200087702000877020008770200082C
:1000D00077020008ED3F0008F93F000877020008AA
:1000E000770200087702000877020008770200080C
:1000F000793A0008770200087702000877020008C2
:1001000077020008770200087702000877020008EB
:1001100077020008770200087702000877020008DB
:1001200077020008770200087D10000877020008B7
:1001300077020008770200087702000877020008BB
:100140003D0C0008770200087702000877020008DB
:10015000770200087702000877020008770200089B
:10016000770200087702000877020008770200088B
:1001700077020008770200087702000800000000FC
:100180007702000877020008DFF80CD000F0EAFBE5
:1001900000480047BF400008B84F00202C4B1968AA
:1001A0000868B0E8F04F80F30988BFF36F8F4FF015
:1001B000000080F3118870470000000008480068C4
:1001C000006880F308884FF0000080F3148862B65E
:1001D00061B6BFF34F8FBFF36F8F00DF00BF00BF6B
:1001E00008ED00E0DFF80C00016841F470010160E7
:1001F000704700BF88ED00E0EFF30980BFF36F8F19
:10020000134B1A681EF0100F08BF20ED108A20E96A
:10021000F04F106009B44FF0500080F31188BFF325
:100220004F8FBFF36F8F04F009FE4FF0000080F393
:10023000118809BC19680868B0E8F04F1EF0100F6B
:1002400008BFB0EC108A80F30988BFF36F8F704746
:1002500034000020EFF30580704700000648804717
:1002600006480047FEE7FEE7FEE7FEE7FEE7FEE79B
:10027000FEE7FEE7FEE7FEE7E53900088901000832
:10028000DFED3C0A20EE200AFDEEC00AB5EEC00A02
:1002900010EE902AF1EE10FA38BF521E00EE902AAE
:1002A000DFF8D8C0B0EE084AF8EEE00A30EE600A97
:1002B000DFED310A60EE200ABCEEE00A10EE102AF3
:1002C000C2F3080200EE102A02F180030CEB820256
:1002D000B8EE400AC3F308030CEB830330EEC00A08
:1002E000D2ED000A93ED002A93ED011AF1EE601AA7
:1002F000D2ED010A71EE422AF1EE603ADFED200AFA
:1003000031EEA31A21EE203AB0EE001A41EE213A66
:1003100001EE623A62EE842A43EEE02A40EE032ABE
:1003200060EE222A41EEA02A00EE222A81ED002A68
:10033000D3ED001A93ED013AD2ED002A92ED012A95
:1003400071EE833A01EE213A32EE622A63EEA03A70
:1003500041EE423A22EE042A03EE602A00EE232AFE
:1003600020EE021A01EEA01A40EE012AC0ED002A8A
:1003700070470000610B363B00000044EC5200085F
:10038000DB0F493C2DE9F05F0546002092469B4675
:1003900088460646814640241BE02846414647469B
:1003A000224600F028FA53465A46C01A914110D30B
:1003B00011461846224600F00FFA2D1A67EB010885
:1003C0004F4622460120002100F006FA17EB0009F3
:1003D0004E41201EA4F10104DFDC484631462A4686
:1003E0004346BDE8F09F40EA01039B0703D009E0C4
:1003F00008C9121F08C0042AFAD203E011F8013B11
:1004000000F8013B521EF9D27047D2B201E000F869
:10041000012B491EFBD270470022F6E710B51346A8
:100420000A4604461946FFF7F0FF204610BD2DE9A5
:10043000FE4F804681EA0300C00F0C46009021F079
:10044000004123F00045B8EB0200A94105D2404627
:10045000214690461C460B46024623F000401043BE
:1004600047D0270DC7F30A00C3F30A510290401A80
:10047000019040286BDAC3F3130040F4801B00980E
:10048000924620B10023D2EB030A63EB0B0B0198D9
:100490005946C0F14002504600F09EF906460D460E
:1004A00050465946019A00F0B6F910EB0800614138
:1004B000002487EA115284EAE7731A4340D0009A75
:1004C00062B3019A012A4FEA075215DC001B61EB67
:1004D00002014FF0004202EA0752CDE90042001C3F
:1004E00041F5801132462B4600F0EDF903B0BDE82E
:1004F000F08F40462146F9E7001B61EB0201001C2A
:1005000041F5801300185B412018A2F5001747EB56
:10051000030140EAD570B6196D4111E06D084FEA4C
:10052000360645EAC0754FEA0752001B61EB02012F
:10053000001C41F5801149084FEA30000019514173
:1005400032462B4603B0BDE8F04F00F0ADB900983D
:10055000012240000023D0EB020263EBE07300981D
:1005600021464FEAE074B8EB000061EB0401E9E7D3
:1005700083F000435BE781F0004158E72DE9FE4F2F
:1005800081EA030404F0004421F0004100944FF09C
:10059000000B23F0004350EA01045ED052EA03044A
:1005A0005BD0C3F30A54C1F30A552C44A4F2F334CC
:1005B0000194A0FB0254C1F3130141F48011C3F371
:1005C000130343F4801301FB024400FB034E840A2F
:1005D000970A44EA815447EA8357A4FB07680295C7
:1005E0008D0A05FB07854FEA932C04FB0C54270565
:1005F000029D4FEA065847EA1637B5EB08056EEB41
:10060000070C870E920E47EA811742EA8312A7FB76
:100610000201B6EB0B0164EB00042B0D43EA0C3333
:100620005E1844EB1C50DA465146E7FB0201C5F365
:1006300013044FEA0B3343EA14534FEA0432019C8C
:1006400043EA0603A4F10C040294009CCDE900B433
:1006500000F039F903B0BDE8F08F00200146F9E75A
:100660002DE9F04D81EA030404F0004B21F0004530
:1006700014464FF0000A23F0004150EA050220D052
:1006800054EA01021DD0C5F30A570246C5F313030D
:10069000C1F31300C1F30A5640F4801543F48013EC
:1006A000A7EB0608101BD64608F2FD3873EB0500D1
:1006B00002D308F1010801E092185B41B8F1000F84
:1006C00003DA00200146BDE8F08D00204FF48011D0
:1006D000064684460EE0171B73EB050705D3121B75
:1006E00063EB050306434CEA010C49084FEA30006E
:1006F00092185B4150EA0107EDD152EA030012D093
:1007000082EA040083EA0501084305D0101BAB41CF
:1007100006D20122002306E000224FF0004302E04F
:100720006FF0010253101AEB06004CEB085110EB6E
:100730000A0041EB0B01BDE8F04D00F0B5B80EB575
:10074000C10F80EAE0700844CA07002140F2334339
:100750008DE80E000A460B4600F0B5F803B000BD68
:100760000EB540F2334102910021CDE900110A4655
:100770000B4600F0A8F803B000BD00F0004230F0D6
:1007800000400AD0C10D01F56071C0F3160042EAC5
:100790000151C208400711437047002001467047CD
:1007A00001F0004330B421F0004150EA010206D0CC
:1007B0000A0DA2F56072C1F31301002A02DC30BCFD
:1007C00000207047440F44EAC104C100E01830BC67
:1007D00000EBC25000F031B8202A04DB203A00FAC6
:1007E00002F1002070479140C2F1200320FA03F388
:1007F000194390407047202A04DB203A21FA02F086
:100800000021704721FA02F3D040C2F1200291404A
:10081000084319467047202A06DBCB17203A41FAD5
:1008200002F043EAE07306E041FA02F3D040C2F17D
:10083000200291400843194670470029A8BF70471D
:10084000401C490008BF20F00100704710B4B0FA06
:1008500080FC00FA0CF050EA010404BF10BC7047A1
:1008600049B1CCF1200421FA04F411FA0CF118BFBB
:10087000012121430843A3EB0C01CB1D4FEA00618A
:100880004FEA102042BF002010BC704700EBC3505D
:1008900010440029A4BF10BC7047401C490008BF89
:1008A00020F0010010BC704710B5141E73F1000455
:1008B00008DA401C41F1000192185B411A4301D152
:1008C00020F0010010BD2DE9F04D92469B4611B17C
:1008D000B1FA81F202E0B0FA80F220329046FFF7DE
:1008E0007BFF04460F4640EA0A0041EA0B015346EB
:1008F0005A46084313D0114653EA010019D0C8F1F3
:1009000040025046FFF777FF05460E4650465946CF
:100910004246FFF761FF084305D0012004E020466E
:100920003946BDE8F08D0020054346EAE0762C43C9
:1009300037430A986305E40AA0EB08000022FD0A89
:1009400044EA47540A3002D500200146E9E7010590
:1009500010196941DDE9084500196941BDE8F04D0C
:10096000A2E70000064C074D06E0E06840F00103F6
:1009700094E8070098471034AC42F6D3FFF708FC20
:10098000245B0008445B0008D0ED000AF4EEC00AC6
:10099000F1EE10FA01DD80ED000AD0ED000AB1EEB3
:1009A000400AF4EEC00AF1EE10FA01D280ED000A1E
:1009B000704710B50146806B026C12F0500F05D0E5
:1009C000026CD20626D500F081FC10BD016C41F40A
:1009D0000071016401688A6812F0405F17D1027EDD
:1009E000AAB9CA6A12F4700F02D08A6852050ED4EE
:1009F0004A6822F020024A60016C21F4807101648F
:100A0000016CC90403D4016C41F00101016400F0E0
:100A10005BFC10BD806BC26CBDE8104008461047FF
:100A200010B5806B40210164416C41F004014164C8
:100A300000F04CFC10BD10B5806B00F046FC10BD02
:100A4000464910B54A6822F440324A604A68436811
:100A50001A434A6001684A6822F480724A60016859
:100A60004A68036942EA03224A6001684A6822F040
:100A700040724A6001684A6883681A434A600168A4
:100A80008A6822F400628A6001688A68C3681A432F
:100A90008A60816A6FF07062D14201688A6822F0D0
:100AA00070628A6001688A680CD0836A1A438A601F
:100AB00001688A6822F040528A6001688A68C36AC5
:100AC0001A4301E022F040528A6001688A6822F0ED
:100AD00002028A6001688A68037E42EA43028A60F1
:100AE00090F82010002901684A680FD042F4006293
:100AF0004A6001684A6822F460424A6001684A68B4
:100B0000174C436A04EB43331A4301E022F40062BA
:100B10004A600168CA6A22F47002CA620168CA6A3D
:100B2000838B104C04EB03531A43CA6201688A6832
:100B300022F400728A6001688A6890F8303042EAD4
:100B400043228A6001688A6822F480628A600168B0
:100B50008A68406942EA8020886010BD0023014015
:100B600000E0FFFF0000F0FF0C494A42884202DA31
:100B700000F50050FAE7904202DDA0F50050F5E7DD
:100B800000EE100ADFED060AB8EEC00A20EE200AD9
:100B9000DFED040A20EE200A7047000000F0FFFF9E
:100BA0000000B4430000003910B502F00DFC02F063
:100BB000B1FB02F0D5FA02F005FB02F035FB02F0C2
:100BC00065FB02F085FB02F0A9FC02F0DDFC02F0FF
:100BD00089FC02F00FFD02F029FD02F043FD02F056
:100BE0005DFD0E4800F056F80D4800F053F80B4834
:100BF00001F0CEF80A4801F0CBF802F01DFF022107
:100C0000064800F0A7FC0221054800F0A3FCBDE85F
:100C100010400A220349044800F004BC00020020EE
:100C2000280200209C070020C8000020FEE70000EA
:100C3000014800F000BE000000020020014800F062
:100C4000FABD00002802002001884ABA06490A813C
:100C5000428852BA12B24A61044902790A70427952
:100C60004A708079C8707047A44500209400002025
:100C700001884ABA06494A82428852BA0A80828862
:100C800052BA4A8082790A72C0794872704700006D
:100C9000E045002000B58BB000210122CDE906120D
:100CA000039108920E22094B049100910191029147
:100CB0000992984200D1059104492831884200D117
:100CC0000592694600F0BCFC0BB000BD000200209C
:100CD0002DED028B84B0C82003F01BFA04F0F2F96A
:100CE000039000F03DF9DFF808B29FED828ADFF84B
:100CF0000882DFF80892824FABF106054FF0000A38
:100D000008F1900678788BF800007E485B460189F0
:100D100041F62650401AA860FFF726FF85ED030A2A
:100D20001878012806D0022803D003284DD00428C3
:100D30002CD17EE0B5EEC00AF1EE10FA02DDF0EE45
:100D4000400A01E0F1EE400A10EE900A6E49884236
:100D500002DAA5F800A00AE06748F0EE480A9038E9
:100D600003F01EFABDEEC00A10EE100A2880624899
:100D70001038D0ED000A90ED010AB5F9000001EE3F
:100D8000100AB8EEC11A5C4803F0AEF95FF0000437
:100D900008EB8400C4EB0411D0ED000A39F92100FE
:100DA00000EE100A06EBC410B8EEC00A03F0F8F922
:100DB000641C042CECDBD6ED142AF5EEC02AF1EE0F
:100DC00010FA41DDB0EE620A40E040F6B83028800B
:100DD00002A901A8FFF754FA4748DDED021A1038BE
:100DE0009DED011A90ED010AD0ED000A20EE212AB6
:100DF00020EE010A00EEC12A00EEA10ABDEEC22AD1
:100E0000BDEEC00A12EE100A10EE101A00B2688091
:100E100009B2A980B5F9002000EE102AB8EEC01A78
:100E200000EE101AF8EEC00A00EE100AB8EEC00A82
:100E3000A9E73148A5F800A01038B0EE481AD0ED67
:100E4000000A90ED010A9EE7B1EE620A96ED342A9F
:100E5000B5EEC02AF1EE10FA02DDF0EE421A01E022
:100E6000F1EE421A70EE210AD6ED541AF5EEC01AD0
:100E7000F1EE10FA02DDB0EE610A01E0B1EE610AB6
:100E800030EE801A96ED740AB5EEC00AF1EE10FA53
:100E900002DDF0EE400A01E0F1EE400A71EE200AB8
:100EA000C5ED040AF87801281CD0BDEEC00A10EE8A
:100EB000100ABDEEE10A00B2009010EE100ABDEE7D
:100EC000C20A03B210EE100ABDEEE20A02B210EE40
:100ED000100A01B20D4800F01BF8052103A803F029
:100EE0001FF90FE700231A461946CDF800A0F1E7D5
:100EF0009E0000200000000008470020B4440020AD
:100F000094000020A4450020333353400002002009
:100F10007CB5124C0826069D26610026A660E66078
:100F20004FF4007626600C0A8DF800408DF8011011
:100F3000110A8DF80210190A8DF804108DF8053089
:100F4000290A8DF806108DF803208DF8075001232B
:100F50006A46024900F010FB7CBD0000F445002009
:100F60002DE9F0414FF47A742DED028B42F21075A9
:100F70009FED368AB0EE001AB7EE080AF0EE480A86
:100F800023462A460321324802F06AFC30489FED8E
:100F9000311ADFED310A9FED310A23462A4603213B
:100FA000A03802F05DFC2A4E0024DFED2D8A803649
:100FB0004FF4FA67F0EE680A06EBC410B0EE601A60
:100FC000B7EE080A3B462A46032102F049FC641C9E
:100FD000042CEFDB4FF4FA74DFED228A41F27075D6
:100FE000B0EE481AF0EE480AB0EE680A23462A46E8
:100FF00003211D4802F034FC1B48B0EE481AF0EE05
:10100000480AB0EE680A23462A460321803002F0DF
:1010100027FCB0EE481AF0EE480AB0EE680A234604
:101020002A460321114802F01BFCB0EE481AF0EEEC
:10103000480AB0EE680ABDEC028B23462A46BDE89A
:10104000F0410A480321803002F00ABC0AD7233C51
:10105000184700200000000052B89E3E00002042C9
:10106000CDCCCC3D9A99193F98490020984A002050
:10107000014800F0D3BE0000C4060020014800F083
:10108000CDBE00006406002001681823CAB2103AE1
:10109000B2FBF3F2054B6FF30901032A9B5CC365B6
:1010A00000D9091D8165084670470000CC52000830
:1010B00010B5014600208B698A6A4FF0C07453B1A5
:1010C000B3F5005F15D072B1012A0CD0022A0AD004
:1010D000032A09D104E01AB1012A06D0022A03D159
:1010E000C96AC90100D5012010BDC96AA142FAD060
:1010F00010BD002AF7D0012AF2D0022AF3D0032A29
:10110000F3D010BD30B50468256825F4802525602E
:10111000046863608368402B036803D099600068AB
:10112000C26030BD9A600068C16030BD70477047D2
:1011300010B50F4C2DED028BA068FFF700FB41ECC2
:10114000180BE0680068406AFFF70AFB9FED091B77
:1011500053EC112BFFF784FA53EC182BFFF767F9C8
:10116000FFF71EFBBDEC028B00EE100A10BD000065
:101170003C460020000000000000594078B50024E3
:10118000009490F83C20012A19D0012280F83C20DC
:101190000A6807230568092A13D9EE680A3A02EBA0
:1011A000420293409E43EE600B788A680A3B03EB51
:1011B00043039A400368DD682A43DA6010E00220A6
:1011C00078BD2E6902EB420293409E432E610B785C
:1011D0008A6803EB43039A4003681D692A431A6136
:1011E0004A681F23072A13D205686E6B521E02EB52
:1011F000820293409E436E630B790A885B1E92B213
:1012000003EB83039A4003685D6B2A435A6327E02C
:1012100005680D2A12D22E6BD21F02EB8202934078
:101220009E432E630B790A88DB1F92B203EB830384
:101230009A4003681D6B2A431A6311E0EE6A0D3A67
:1012400002EB820293409E43EE620B790A880D3BCB
:1012500092B203EB83039A400368DD6A2A43DA62A1
:10126000164B0568144A9D4206D10D68122D03D114
:10127000556845F48005556005689D4218D10B6896
:10128000102B01D0112B13D1536843F4000353608A
:10129000096810290CD10A490A4A0968B1FBF2F120
:1012A00001EB8101490000E0491E00910029FBD1BA
:1012B00080F83C40002078BD002301400020014020
:1012C0003000002040420F0070477047704770B5F3
:1012D00004004FF0000503D0206C002610B107E099
:1012E000012070BD204600F01DF8666484F83C6063
:1012F000206CC00610D4206C20F4885040F002000E
:1013000020642046FFF79CFB6664206C20F00200FE
:1013100040F00100206400E0012584F83C6028468C
:1013200070BD0000F0B587B0064614216846FFF78F
:1013300073F83648344F3468002534491438032391
:10134000334ABC4230D10C6844F480740C600968A4
:1013500001F480710591016841F0010101600068AC
:10136000694600F00100059012208DE82900104622
:1013700000F0CAFE284C2748C4E900050015A56006
:10138000C4E90350800060618000A0618011C4E95D
:1013900007052046656200F011FE08B1FFF7C7FEA1
:1013A000B463A66307B0F0BD1C4EB44211D10C6803
:1013B00044F400740C60096801F40071059101683F
:1013C00041F001010160006800F001000590042077
:1013D00013E0134EB442E5D10C6844F480640C6011
:1013E000096801F480610591016841F00101016023
:1013F000006800F00100059008208DE8290069468A
:10140000104600F081FECDE7002001404438024044
:101410000000024070640240A00100200021014051
:1014200000220140F8B50E4600210446009190F8D4
:101430003C00012807D0012084F83C002068836824
:10144000DB0702D011E00220F8BD836843F00103FE
:1014500083603748374B0068B0FBF3F000EB400087
:1014600000E0401E00900028FBD120688368DB0765
:101470005CD0236C40F20165AB4343F4807323647A
:101480004068400505D5206C20F4005040F48050A1
:101490002064206CC00404D5606C20F006006064F9
:1014A00000E0616484F83C10A16B2448224DC863BD
:1014B000A16B23480864A16B2248C86421686FF0BF
:1014C000220008602068416841F080614160206826
:1014D000816841F4807181602168134632464C3145
:1014E000A06B00F0D5FD68681749C006206806D0DB
:1014F00088421BD1816811F0405F13D016E088420A
:10150000F8D0124A904203D1D1F80423D206F1D088
:101510000F4A90420AD1D1F8041301F01F0110299B
:10152000E8D303E0816841F0804181600020F8BD8C
:101530003000002040420F0000230140B3090008A2
:10154000370A0008210A000800200140002101405C
:101550000022014090F82020012A07D0022A05D05D
:10156000416A41F48021416201207047006842696C
:101570000A43426100207047F0B590F8205004689B
:10158000A468012D05D0022D03D0416A41F48021C9
:1015900053E014F0406F01D1E5004BD5C4F3016472
:1015A000022C03D9416A41F4000146E00125A5401F
:1015B0001D608D684FF4C0739DB1CE6835434E6891
:1015C00045EAC605066803EB0417F5514FF4C275EA
:1015D000076805EB04150E697E51097D012905D0C8
:1015E00009E00E88CD6845EA4655EBE701684E599B
:1015F00046F480764E511179D2F805504FF4C676F4
:1016000041EA0525016806EB04168D511178D2F8E0
:1016100001204FF4C47541EA0221026805EB04156C
:101620005151006803EB0411425842F0010242504C
:101630000020F0BD416A41F4001141620120F0BD7B
:1016400010B590F82020012A07D0022A05D0416A5F
:1016500041F480214162012010BD3B48D0F80022B6
:1016600042F00102C0F80022D0F8002222F47C529D
:10167000C0F80022D0F800224B6A42EA0322C0F8E8
:1016800000220A7D02F01F0301229A40D0F81C328A
:101690009343C0F81C32CB69B3B9D0F80C329343F2
:1016A000C0F80C328C894B6864F31F434C6900EB23
:1016B000C404C4F840320C890B6864F31F434C69BE
:1016C00000EBC404C4F84432CB69012B16D1D0F826
:1016D0000C321343C0F80C320C884B6864F31F4380
:1016E0004C6900EBC404C4F840320C89CB6864F345
:1016F0001F434C6900EBC404C4F844328B69002BCF
:10170000D0F804320ED01343C0F804320B69002B1A
:10171000D0F8143208D01343C0F81432096A0129F2
:1017200004D008E09343EFE79343F5E7D0F81C12A9
:101730001143C0F81C12D0F8001221F00101C0F8CA
:101740000012002010BD000000640040704730B55A
:1017500090F82040012C05D0022C03D0416A41F4BE
:1017600080215DE00468002955D02469A40754D085
:101770004FF4D874056804EB01142D5915F00405D5
:10178000956005682D594ED0ED08556005682C59B7
:10179000C4F34004D4604FF4DA74056804EB011418
:1017A0002D5905F00F05156105682D59C5F307255D
:1017B000956105682C59240C54614FF4DC7204685F
:1017C00002EB0112A4581C700468A458240A5C702F
:1017D0000468A458240C9C700468A258120EDA7095
:1017E0004FF4DE72046802EB0112A4581C71046805
:1017F000A458240A5C710468A458240C9C710468E1
:10180000A258120EDA71006881B1016941F020011D
:101810000161002030BDE468A8E7416A41F400118D
:101820004162012030BD6D0D1560AFE7C16841F028
:101830002001C160EDE72DE9F05F05460068002456
:101840004669D0F804908768D0F80CB0D0F810A0A2
:10185000D0F81880F10748D0F90714D00121816031
:10186000B80703D5284600F0C0FA0CE0780702D587
:101870004FF4006407E0380702D54FF4805402E0CB
:10188000284600F0B1FAF80516D529684FF48070A3
:101890008860B80503D5284600F0A9FA0CE0780561
:1018A00002D544F4005407E0380502D544F48044DE
:1018B00002E0284600F09AFAF80316D529684FF49A
:1018C00080308860B80303D5284600F092FA0CE017
:1018D000780302D544F4004407E0380302D544F409
:1018E000803402E0284600F083FA300707D55FEA2B
:1018F000CB6004D52968102044F40074C8607007D8
:101900004FF0080707D55FEA0B7004D52868C76059
:10191000284600F099F9B00706D52868C068800706
:1019200002D0284600F092F9700607D55FEACA6037
:1019300004D52968102044F480640861B00607D5F6
:101940005FEA0A7004D528680761284600F01CFA8F
:10195000F00606D528680069800702D0284600F006
:1019600014FAB00308D55FEAC96005D529681020CC
:101970004860284600F00AFAF00307D55FEA0970CC
:1019800004D528684760284600F034FA300446D56C
:101990005FEA497040D5F00504D55FEAC87001D010
:1019A00044F00104B00504D55FEA887001D544F025
:1019B0000204700504D55FEA487001D544F00404C0
:1019C000300529D518F0700F26D008F07000402897
:1019D00015D006DC102809D020280AD0302816D1CE
:1019E0000AE050280ED0602811D10EE044F008041F
:1019F0000DE044F010040AE044F0200407E044F055
:101A0000400404E044F0800401E044F48074286859
:101A1000816921F070018161296804204860002CEF
:101A200005D0686A204368622846FFF78FFEBDE84C
:101A3000F09F70B5040003D094F8200010B104E0CA
:101A4000012070BD204600F081F82068016821F077
:101A50000201016000F036FC0546052604E000F0B6
:101A600031FC401B0A2811D8206840688007F6D452
:101A70002068016841F00101016000F023FC054687
:101A80000BE000F01FFC401B0A2806D9606A40F4F6
:101A90000030606284F82060D2E720684068C007A8
:101AA000EFD0207E0128206801683DD021F0800120
:101AB0000160607E01282068016838D021F0400173
:101AC0000160A07E01282068016833D021F0200148
:101AD0000160E07E0128206801682ED041F01001ED
:101AE0000160207F01282068016829D021F00801C9
:101AF0000160607F01282068016824D021F0040182
:101B00000160D4E902010843D4E9041211430843F7
:101B10006168491E08432168C86100206062012095
:101B200084F82000002070BD41F08001C0E741F042
:101B30004001C5E741F02001CAE721F01001CFE7DD
:101B400041F00801D4E741F00401D9E7F0B587B0CE
:101B5000044614216846FEF75FFC364B3648DFF832
:101B6000D0E01968D4F800C0334A032502260927BB
:101B700010300024491CF44522D11960012907D1F5
:101B8000016841F000710160006800F0007005908C
:101B9000106840F0080010601068CDE9005600F0B1
:101BA0000800CDE9047069462448CDE9024500F0FB
:101BB000ABFA00220521142000F010FC142033E0C1
:101BC000DFF87CE0F44531D1D0F800C04CF0806CF7
:101BD000C0F800C0D0F800C001290CF0806CCDF82E
:101BE00014C0196007D1016841F0007101600068FC
:101BF00000F000700590106840F00200106010685E
:101C000002AB00F0020005904FF44050CDE9000611
:101C100083E8B00069460B4800F076FA00220521FF
:101C2000402000F0DBFB402000F0CAFB07B0F0BD15
:101C3000006400400000002030380240000C0240E8
:101C4000006800400004024070470000474910B59A
:101C5000884256D1464B474A0021FFF778FD454858
:101C6000332345490068A0F50070013813D00128DE
:101C700020D002282BD0032876D1D1F8DC20501CAC
:101C8000C1F8DC0001F1B400322A30D83849BDE88F
:101C9000104002F00FBA886A421C8A62322802D8C9
:101CA00033493548F3E78B623149334802F0E2F9B2
:101CB000002022E04A6E501C48662F483C30322AF1
:101CC000E4D94B662A4902F0D5F9012015E0D1F894
:101CD000A020501CC1F8A00027487830322AD5D95E
:101CE000C1F8A030224902F0C5F9022005E0C1F890
:101CF000DC301F4902F0BEF90320BDE8104001F0BE
:101D0000BBBD1E4988422FD1194B1A4A08331C32D9
:101D10000021FFF71CFD17481C300068B0F5887FD4
:101D20000BD0A0F5807019381ED007281CD11048A0
:101D3000BDE810400830FEF787BF0D480830FEF7B9
:101D400097FF0F480A49091F006802F0DDFF0848A5
:101D5000001F0068002807D00A494FF08050086033
:101D6000BFF34F8FBFF36F8F10BD00000002002044
:101D70001400002024070020B44400202802002082
:101D80000800002004ED00E0704770477047000035
:101D900070B5044690F82000012804D0606A40F431
:101DA0000020606218E0022084F8200020680168AA
:101DB00021F00101016000F085FA05460EE000BF48
:101DC00000F080FA401B0A2808D9606A40F400300D
:101DD0006062052084F82000012070BD2068406802
:101DE000C007EDD1606270BD7047704770477047A3
:101DF00070477047704790F83510022903D0802152
:101E0000416501207047052180F8351000680168A0
:101E100021F0010101600020704700002DE9F84326
:101E200004464FF00009CDF8009063484FF4165176
:101E3000A56D0068B0FBF1F72E6894F85C100820DF
:101E400000FA01F131420FD021680A6852070BD520
:101E50000A6822F004020A6094F85C108840A860C6
:101E6000606D40F00100606594F85C104FF001086F
:101E700008FA01F0304208D021684969090604D502
:101E8000A860606D40F00200606594F85C1004206A
:101E90008840304208D021680968890704D5A860C5
:101EA000606D40F00400606594F85C10102088407C
:101EB000304218D021680968090714D5A860206845
:101EC0000168490304D50068000308D5A16C07E048
:101ED0000168C90503D4016821F008010160216C83
:101EE00009B12046884794F85C1020208840304291
:101EF00031D021680968C9062DD5A86094F835004D
:101F000005282068016806D0490347D5006800030A
:101F10001DD4616C1CE021F016010160206841694C
:101F200021F080014161206C08B9A06C20B12068CB
:101F3000016821F00801016094F85C103F2088409E
:101F4000A86084F8349084F83580216D1FE0E16B3F
:101F500009B120468847606D00282BD0606DC0070E
:101F600014D0052084F835002068016821F00101B3
:101F700001600098401C0090B84203D820680068B7
:101F8000C007F6D184F8349084F83580E16C0029DC
:101F900010D001B02046BDE8F04308470168C905EC
:101FA000D5D4016821F01001016084F8349084F8E0
:101FB0003580CCE7BDE8F883300000202DE9F04102
:101FC000044600F07FF906465CB1002584F83450E1
:101FD000022084F835002068016821F001010160C9
:101FE0000DE00120BDE8F08100F06CF9801B0528B0
:101FF00005D920206065032084F83500F2E72068C9
:102000000068C007F0D12268116820480140D4E977
:1020100001031843D4E90336334318436369184373
:10202000A3691843E3691843236A18430843616AA4
:10203000042903D1D4E90B13194308431060206825
:102040004069666A20F0070130460E4301270428E4
:102050000CD1A06A0643E06A40B12046FFF728F899
:1020600020B14020606584F83570BAE72068466189
:102070002046FFF709F894F85C203F2191408160E9
:10208000656584F835700020ACE700003F8010F0F3
:102090002DE9F0410446866D90F8340000250128B2
:1020A0000DD0012084F8340094F835700020012F01
:1020B00007D084F8340002252846BDE8F0810220CC
:1020C000FBE7022784F8357060652046FFF71AF8B1
:1020D00094F85C103F208840B0602068016841F0AF
:1020E000160101602068416941F080014161206C66
:1020F00020B12068016841F0080101602068016892
:1021000041F001010160D7E72DE9F84FDFF87CB11C
:1021100000224FF001084FF0030A4FF00F090BF1B6
:10212000040E00BF0B6808FA02F42340A3426ED1EC
:102130004D68022D01D0122D0ED1D50800EB850C73
:10214000DCF820505607F70E09FA07F6B5430E697A
:10215000BE402E43CCF82060066855000F790AFA7D
:1021600005FC07F0030726EA0C06AF40374307607B
:102170004E68012E05D0022E03D0112E01D0122E52
:102180000ED18668CF6826EA0C06AF4037438760D9
:102190004668A6430C79C4F3001494403443446069
:1021A000C6688C6826EA0C06AC403443C4604C68B0
:1021B000E40065D5364C256845F4804525602468E3
:1021C00022F0030504F480440094324C2E19D6F812
:1021D000084895072F0F09FA07F5AC432E4DA84282
:1021E00001D1002524E02D4DA84201D101251FE099
:1021F0002B4DA84201D102251AE02A4DA84201D157
:10220000032515E0284DA84202D1042510E037E04F
:10221000264DA84201D105250AE0254DA84201D14D
:10222000062505E0234DA84201D1072500E0082539
:10223000BD402543C6F80858DBF800405D464E68AF
:102240009C43F60300D51C432C60DEF80040754625
:102250004E689C43B60300D51C432C600B4D0835DB
:102260002C684E689C43F60200D51C432C60074D39
:102270000C352C684E689C43B60200D51C432C607C
:10228000521C102AFFF44EAFBDE8F88F003C01400D
:102290004438024000300140000002400004024087
:1022A00000080240000C02400010024000140240EE
:1022B00000180240001C02400AB181617047090405
:1022C000FBE7000001488068704700002400002000
:1022D0000248816802781144816070472400002020
:1022E0000B4810B5016841F400710160016841F4C8
:1022F00080610160016841F480710160032000F099
:102300008DF8002000F006F800F03EF8002010BD27
:10231000003C024010B5014688B00022192000F0B0
:102320005DF8192000F04CF813480024016841F0D2
:1023300001010160006805A900F0010006906846EF
:1023400000F016F900F04AF90C494000B0FBF1F139
:102350000C480B4A491E026040F2E732C0E90324F0
:10236000C0E9011400F04DFB10B1012008B010BD10
:10237000044800F0A7FBF9E74438024040420F0050
:10238000000001405C0700200C4882B0016841F465
:1023900080410160006800F4804000900748001F01
:1023A000016841F0805101600068002200F0805017
:1023B00000900F21901E02B000F010B84438024087
:1023C000002809DB00F01F02012191404009800034
:1023D00000F1E020C0F8001170470000F0B40E4B8F
:1023E0001B680C46C3F30223C3F10705042D00D973
:1023F0000425191D072901D2002300E0DB1E012658
:1024000006FA05F1491E214099409E40761E16406D
:102410003143F0BC01F00FBE0CED00E0064900F0C6
:10242000070208684FF6FF03184040EA0220034AFB
:1024300010430860704700000CED00E00000FA0552
:102440002DE9F0470E46050065D0DFF81481D8F875
:102450000000F7B200F00F00B04207D288F8007019
:10246000D8F8000000F00F00B04254D128683D4C6D
:10247000810712D5400703D5206840F4E050206062
:102480002878000703D5206840F460402060206869
:10249000A96820F0F000084320602878C0072DD0FC
:1024A000304968680839012812D0022813D003285F
:1024B00011D00968890700292DDA216821F003016C
:1024C00001432160FFF7FEFE814641F2883A0EE0AB
:1024D00009688903EFE709688901ECE7FFF7F2FE75
:1024E000A0EB0901514502D90320BDE8F08720681F
:1024F000696800F00C00B0EB810FEFD1D8F8001044
:10250000404601F00F01B14207D90770006800F0A2
:102510000F00B04201D00120E7E72878400705D539
:102520002068E96820F4E05008432060287800071C
:1025300006D52068296920F4604040EAC100206087
:1025400000F05CF82168084AC1F30311515CC840EF
:10255000064908600020FFF7DDFE0020C5E7000007
:10256000003C024008380240D452000830000020ED
:102570000F2202600C4A136803F0030343601368E0
:1025800003F0F0038360136803F4E053C360126840
:102590004FF4E05303EAD20202610448006800F0FD
:1025A0000F0008607047000008380240003C0240FD
:1025B00001480068704700003000002004480549C9
:1025C00000680968044AC1F38221515CC840704721
:1025D0003000002008380240E45200080448054951
:1025E00000680968044AC1F34231515CC840704731
:1025F0003000002008380240E4520008154810B5A9
:10260000006810F00C02144813D01449042A0FD0AB
:10261000082A0ED10F4C241F2268236802F03F02C3
:102620005B0207D52068C0F38810A0FB010106E01B
:10263000084610BD2168C1F38811A1FB00010023E9
:10264000FDF7A0FE2168C1F30141491C4900B0FB20
:10265000F1F010BD083802400024F40000366E018D
:102660002DE9F84F050076D02878DFF8F8B2BE4C97
:10267000C00749D0DBF800105846C1F38101012999
:1026800008D00068C0F3810002280AD1201D00682C
:10269000400206D52068800336D568680028E2D05D
:1026A00032E06868B0F5803F10D0B0F5A02F206808
:1026B00010D020F480302060206820F4802020603A
:1026C0006868A0B1FFF7FEFD06460CE0206840F404
:1026D0008030F4E740F480202060F7E7FFF7F2FD58
:1026E000801B642873D820688003F7D50CE0FFF7BF
:1026F000E9FD064605E000BFFFF7E4FD801B642806
:10270000F0D820688003F7D42878DFF8608280074B
:102710004FF000093ED5DBF80010584611F00C0FC1
:1027200009D00068C0F3810002280BD18D48001F3A
:102730000068400206D42068800715D5E8680128A3
:1027400009D111E0E868B8B10120C8F80000FFF72E
:10275000B9FD064605E002E1FFF7B4FD801B022843
:10276000C0D820688007F7D52068296920F0F800D4
:1027700040EAC10020600DE0C8F80090FFF7A2FD1C
:10278000064604E0FFF79EFD801B02281FD8206844
:102790008007F7D42878000722D5724E74486969FB
:1027A0006C3671B101210160FFF78CFD074604E032
:1027B000FFF788FDC01B022809D830688007F7D5CD
:1027C0000EE0C0F80090FFF77DFD074605E083E0CE
:1027D000FFF778FDC01B02287ED830688007F7D449
:1027E0002878400768D5DFF87CA100270AF1380A6D
:1027F000DAF80000C0000BD4DAF8001041F0805184
:10280000CAF80010DAF80000012700F080500090AC
:10281000584E3068C00510D4306840F48070306085
:10282000FFF750FD009005E0FFF74CFD0099401ABE
:10283000022851D83068C005F6D54A4EA8686836D7
:1028400001280FD00528306810D020F0010030603A
:10285000306820F004003060A868B8B1FFF732FD9E
:1028600000900FE0306840F00100F4E740F0040011
:102870003060F7E7FFF726FD0099411A41F28830F2
:10288000814264D830688007F4D50EE0FFF71AFD66
:10289000009007E0FFF716FD0099411A41F28830D9
:1028A000814254D830688007F4D42FB1DAF8001090
:1028B00021F08051CAF80010A869C0B3DBF80010FD
:1028C000C1F3810102294AD00228484607D0C8F83E
:1028D0006000FFF7F7FC00E039E005463AE04746C4
:1028E000C8F86000FFF7EEFC064604E0FFF7EAFCDC
:1028F000801B02282BD820688001F7D4D5E9070176
:102900000843A96A1C4A490802EB01416A6A41EA84
:102910008211084395F82C1040EA01611148001F0C
:10292000016001203866FFF7CDFC054605E014E0A4
:10293000FFF7C8FC401B022809D820688001F7D5A2
:102940000BE000BFFFF7BEFC401B022802D90320AA
:10295000BDE8F88F20688001F4D40020F8E701205A
:10296000F6E7000008380240003802400000474205
:10297000800E4742007000400000FFFF4FF0E02152
:102980000428086903D020F004000861704740F073
:102990000400FAE710B5401EB0F1807F01D301209A
:1029A00010BD4FF0E02460610F21601701F043FB80
:1029B0000020A06107202061002010BD70477047F3
:1029C00070B590F83C20012A19D0012400F83C4F42
:1029D0000222427050F83C3C5A689D6822F0700612
:1029E0000A684968324325F0800529435A6050F847
:1029F0003C2C9160447000210170084670BD02209B
:102A000070BD10B5040003D094F83D0010B107E08C
:102A1000012010BD002084F83C00204600F00CF896
:102A2000022084F83D00211D206801F02BF80120D0
:102A300084F83D00002010BD08B51E4A01681E48FC
:102A400091420ED1016841F002010160006800224C
:102A500000F00200009005211D20FFF7BFFC1D20A3
:102A600022E0164A91420ED1016841F00401016052
:102A70000068002200F00400009005211E20FFF7EE
:102A8000ADFC1E2010E00E4A914211D1016841F0C8
:102A9000800101600068002200F0800000900521A4
:102AA0002C20FFF79BFC2C20BDE80840FFF788BCDA
:102AB00008BD00000004004040380240000800400B
:102AC000001C00400168CA6842F00102CA60006848
:102AD000816801F00701062903D0016841F0010176
:102AE00001600020704770B5044690F83C00012852
:102AF00017D0012584F83C50022084F83D0020685E
:102B0000826822F0770222F47F42826008685028AF
:102B100030D00DDC20284DD005DC98B310283BD1F7
:102B200048E0022070BD302844D0402834D139E03C
:102B3000602828D0702806D0B0F5805F2CD0B0F582
:102B4000005F29D10AE0CB68D1E90121206800F0BB
:102B5000FDFF2068816841F0770109E0CB68D1E989
:102B60000121206800F0F2FF2068816841F4804173
:102B7000816011E0CA684968206800F0F9FF5021BF
:102B8000206807E016E0CA684968206801F001F88B
:102B90006021206800F0E4FF84F83D50002084F8B4
:102BA0003C0070BDCA684968206800F0E1FF402120
:102BB0002068EFE7226801461046EBE7704770B5E2
:102BC0000446006801694FF00005C943890715D420
:102BD000C168C943890711D4E91E0161012020772A
:102BE000206880698007204602D0FFF7E7FF04E0F5
:102BF00000F098F8204600F096F8257720680169E3
:102C0000C943490717D4C168C943490713D46FF0B2
:102C100004010161022020772068806910F4407F60
:102C2000204602D0FFF7CAFF04E000F07BF8204600
:102C300000F079F8257720680169C943090716D49F
:102C4000C168C943090712D46FF00801016104206B
:102C500020772068C0698007204602D0FFF7AEFFCA
:102C600004E000F05FF8204600F05DF8257720686A
:102C70000169C943C90617D4C168C943C90613D439
:102C80006FF010010161082020772068C06910F4FE
:102C9000407F204602D0FFF791FF04E000F042F8A9
:102CA000204600F040F8257720680169C943C9072C
:102CB00008D1C168C943C90704D1891E01612046F2
:102CC00000F032F820680169C943090609D4C168D7
:102CD000C943090605D46FF0800101612046FFF762
:102CE0006DFE20680169C943490609D4C168C9431A
:102CF000490605D46FF040010161204600F024F838
:102D000020680169C94389060BD4C168C943890693
:102D100007D46FF0200101612046BDE87040FFF745
:102D20004EBE70BD7047704700680549884201D1AA
:102D3000FFF7CEBA0349884201D100F0A9BD704720
:102D400000000140000400407047704770B5026801
:102D500004461068D168536910F00F0F51D003F08A
:102D6000010501F4907635435DD0C20705D0CA0550
:102D700003D5E26B42F00102E263420705D5DA07B0
:102D800003D0E26B42F00202E263820705D5DA0764
:102D900003D0E26B42F00402E263020705D5DA07D2
:102DA00003D0E26B42F00802E263E26B002A34D007
:102DB000800604D5880602D5204600F012FF206860
:102DC0004069E16BC0F3801001F008010143204627
:102DD00024D000F0F8FE2068416949061AD54169FF
:102DE00021F040014161606BA0B11B490165606B3E
:102DF000FFF701F8002810D0606B016DBDE870404E
:102E0000084783060FD58B060DD52046BDE87040D8
:102E100000F0E7BE2046FFF798FF70BDFFF795FF73
:102E20000020E06370BD030606D50B0604D52046DE
:102E3000BDE8704001F076B84006F3D54806F1D5FC
:102E4000D168204621F04001D160202184F839105A
:102E500000F07AF970BD0000B73B000870B50400BF
:102E600004D094F83900002510B106E0012070BDAF
:102E700084F83850204600F023F8242084F83900E4
:102E80002068C16821F40051C160204600F0F4FEC2
:102E90002068016921F4904101612068416921F0B5
:102EA0002A0141612068C16841F40051C160E563B5
:102EB000202084F8390084F83A00002070BD00001A
:102EC0002DE9F04F87B0064614216846FDF7A4FAB5
:102ED0006449634837680024DFF888911439022276
:102EE00001230325DFF880E14FF0C00A4FF0070C03
:102EF0004FF0006B874238D1D9F8007047F01007C7
:102F0000C9F80070D9F8000000F0100005900868BA
:102F100040F0020008600868CDF800A000F0020050
:102F2000CDE904C001AF694687E82C007046FFF781
:102F3000EBF84F4D4D482860C5E901B40015C5E9CF
:102F400003406C61AC61EC612C6228466C62FFF757
:102F500035F808B1FEF7EBF875630022052125204E
:102F6000AE63FFF73BFA252038E03E48DFF80481E6
:102F7000001F474537D1076847F4003707600068EE
:102F800000F400300590086840F008000860086808
:102F9000694600F00800059060208DE82D10364845
:102FA000FFF7B2F8324D354860352860C5E901B405
:102FB0000015C5E903406C61AC61EC612C622846E8
:102FC0006C62FEF7FBFF08B1FEF7B1F875630022F3
:102FD00005212620AE63FFF701FA2620FFF7F0F95E
:102FE00007B0BDE8F08F264CA74216D1046844F420
:102FF00080240460006800F480200590086840F098
:10300000020008600868694600F0020005904FF46D
:1030100040608DE82D1070461EE01A488742DFD1CF
:10302000D9F8004044F02004C9F80040D9F8000065
:1030300000F020000590086840F00400086008686F
:10304000CDF800A000F0040005900820CDE9035061
:1030500069460D48CDE90123FFF756F8C0E70000A7
:103060000010014044380240000402404064024025
:103070006406002000440040000C024088600240CA
:1030800000480040001401400008024070472DE94C
:10309000F843044690F839001F4616460D4620288E
:1030A00050D1A5B19EB194F8380001284AD0012032
:1030B00084F838004FF00008C4F83C80212084F8E0
:1030C0003900FFF7FFF8A6848146E68426E0012058
:1030D000BDE8F883E08C401EE084A0684B46B0F564
:1030E000805F4FF000024FF080012046009703D030
:1030F00000F049FFE8B90DE000F045FFC8B92888A5
:103100002168C0F308004860206908B16D1C05E023
:10311000AD1C03E0216815F8010B4860E08C002825
:10312000D8D14B46002240212046009700F02BFFCB
:1031300008B10320CCE7202084F8390084F83880D7
:103140000020C5E70220C3E77047FEE7F7EE001A4C
:1031500071EEC11A21EE800A00EE810A704700006C
:103160007FB50024154800940194029412490394F9
:1031700001604FF48031C0E9011401250461057636
:1031800080F820400E49C0E90A14C561C46080F887
:1031900030504561FEF79BF808B1FDF7C8FF009578
:1031A000CDE9015469460548FDF7E8FF002801D044
:1031B000FDF7BDFF7FBD000000200140C8000020DA
:1031C0000100000F7FB5002415480094019402947B
:1031D0001249039401604FF48031C0E901140125C4
:1031E0000461057680F820400E49C0E90A14C561E3
:1031F000C46080F830504561FEF769F808B1FDF70A
:1032000096FF0220CDE90005694602940448FDF7C7
:10321000B5FF002801D0FDF78AFF7FBD00210140E6
:10322000100100200100000F7FB500241548009414
:10323000019402941249039401604FF48031C0E973
:10324000011401250461057680F820400E49C0E98B
:103250000A14C561C46080F830504561FEF737F844
:1032600008B1FDF764FF0320CDE90005694602942B
:103270000448FDF783FF002801D0FDF758FF7FBD0C
:1032800000220140580100200100000F0F4810B536
:103290000D4901600621416000214FF480328160B8
:1032A000C0E903124FF44012426101764176817603
:1032B000C17601774177FEF7BCFB002803D0BDE85B
:1032C0001040FDF734BF10BD006400400002002034
:1032D0000F4810B50D4901600621416000214FF4EF
:1032E00080328160C0E903124FF4401242610176DE
:1032F00041768176C17601774177FEF79AFB002807
:1033000003D0BDE81040FDF712BF10BD00680040BB
:1033100028020020114808B5016841F480010160CD
:10332000016801F480010091016841F4001101601D
:103330000068002200F40010009005211020FFF723
:103340004DF81020FFF73CF8002205213A20FFF746
:1033500045F8BDE808403A20FFF732B8303802405F
:1033600010B59CB01C2216496846FDF73CF80021B8
:10337000684600F0EBFE134C11491C2220601C3102
:1033800007A8FDF730F8002107A800F0DFFE0C4980
:1033900060601C2238310EA8FDF725F800210EA828
:1033A00000F0D4FE064960601C22543115A8FDF7D8
:1033B0001AF8002115A800F0C9FEA0601CB010BDCD
:1033C0005C520008040000202DE9F04786B014216B
:1033D0006846FDF721F83D480024016841F02001CE
:1033E0000160016801F020010591016841F0800150
:1033F0000160016801F080010591016841F004015C
:103400000160016801F004010591016841F00101CA
:103410000160016801F001010591016841F01001AE
:103420000160016801F010010591016841F002019D
:103430000160016801F002010591016841F0080195
:1034400001600068DFF8888000F0080041F67F0521
:103450000590002229464046FEF72EFFDFF87490C3
:103460004FF44046002231464846FEF725FFDFF87C
:1034700068A04FF48047002239465046FEF71CFFF3
:1034800000950125CDE90154694640460394FEF7B5
:103490003BFE062000901148CDE901046946104822
:1034A000FEF732FE0096CDE9015469464846039482
:1034B000FEF72AFE0097CDE9015469465046039471
:1034C000FEF722FE06B0BDE8F0870000303802406B
:1034D00000140240001002400004024000001110DD
:1034E000000802400C4810B50A49016053214160B0
:1034F000002140F2E732C0E90212016180218161BE
:10350000FFF77FFA08B1FDF712FEBDE81040024850
:10351000FFF7D8BA001C00402405002010B586B083
:1035200000241848009401940294039404941449CC
:10353000059401605321C0E9011440F2E731C0E96C
:10354000031480218161FFF75CFA08B1FDF7EFFDFC
:103550004FF48050009069460A48FFF7C4FA08B15A
:10356000FDF7E5FD049404A906480594FFF728FA41
:1035700008B1FDF7DCFD0348FFF7A4FA06B010BD63
:1035800000040040A404002010B586B000241848B0
:1035900000940194029403940494144905940160E6
:1035A0005321C0E9011440F2E731C0E9031480213E
:1035B0008161FFF726FA08B1FDF7B9FD4FF480509D
:1035C000009069460A48FFF78EFA08B1FDF7AFFD93
:1035D000049404A906480594FFF7F2F908B1FDF731
:1035E000A6FD0348FFF76EFA06B010BD00080040C4
:1035F000E40400200C4810B50A4901604FF4E131A1
:103600004160002181600C22C160C0E90412816127
:10361000C161FFF723FC002803D0BDE81040FDF78F
:1036200086BD10BD00100140640500200C4810B597
:103630000A4901604FF4E1314160002181600C22B0
:10364000C160C0E904128161C161FFF707FC002875
:1036500003D0BDE81040FDF76ABD10BD0044004036
:10366000A40500200C4810B50A4901604FF4E1316F
:103670004160002181600C22C160C0E904128161B7
:10368000C161FFF7EBFB002803D0BDE81040FDF758
:103690004EBD10BD00480040E40500200C4810B5A8
:1036A0000A4901604FF4E1314160002181600C2240
:1036B000C160C0E904128161C161FFF7CFFB00283E
:1036C00003D0BDE81040FDF732BD10BD001401402D
:1036D00024060020FEE708B501F0F4FC00900A2162
:1036E000684600F01DFDFAE730B55748428A574852
:1036F000D10605D541F2707101804EF6900104E0CB
:1037000042F2921101804DF66E614180910605D51D
:103710004FF4FA6101804FF6300141804C49D307E4
:1037200091ED001A9FED4B0ADFED4B0A02D031EE0E
:10373000401A03E0930704D531EE001A81ED001A18
:1037400001E0C1ED000AB0F90230D1ED001A01EE3E
:10375000103AB8EEC11AF4EEC11AF1EE10FA02D224
:1037600001EE103A0CE0B0F9004001EE104AB8EE5C
:10377000C11AF4EEC11AF1EE10FA05DD01EE104A9D
:10378000B8EEC11A81ED001A314D140795ED011AFA
:1037900002D531EE401A03E0540704D531EE001A89
:1037A00081ED011A03E0C1ED010A91ED011A01EE6C
:1037B000903AF8EEE11AB4EEE11AF1EE10FA0AD3FB
:1037C000B0F9003001EE903AF8EEE11AB4EEE11AE9
:1037D000F1EE10FA05DD01EE103AB8EEC11A81EDF6
:1037E000011A1B4C130694ED021A02D531EE000AA1
:1037F00003E0520604D531EE400A81ED020A03E0EF
:10380000C1ED020A91ED020AB0F9062000EE902AFD
:10381000F8EEE00AB4EEE00AF1EE10FA02D200EEA1
:10382000102A0CE0B0F9040000EE900AF8EEE00A6D
:10383000B4EEE00AF1EE10FA05DD00EE100AB8EE83
:10384000C00A81ED020A30BDE0450020AC00002036
:10385000F8460020000070420000000070470000A1
:1038600030B4034C8467034CC46730BC00F088BD9F
:10387000814300088F43000810B50446FDF758FC4B
:10388000024800EB840080ED000A10BD5046002085
:1038900002488168491C8160704700003C46002056
:1038A00010B50446FDF744FC024800EB840080EDAF
:1038B000000A10BD604600200C480188C1F58061F7
:1038C00001EB810100EE101A0949B8EEC00A81ED42
:1038D000010A4088C0F5806000EB8000400000EEE7
:1038E000100AB8EEC00A81ED000A7047E0450020DA
:1038F000F846002008B501F0E5FB0E4C4FF0FF350F
:1039000000902946012001F071F801280CD1FFF741
:10391000C7FF207A012802D0022805D102E0FFF774
:10392000E3FE01E0FFF7C8FF0721684600F0F8FB5F
:10393000E7E70000E045002000F0FEBB30B593B0A3
:1039400030216846FCF768FD14210CA8FCF764FDE3
:1039500022480025016841F080510160006800F0B4
:10396000805011901E48016841F480410160006858
:10397000022400F480401190012000900004019086
:103980008001CDE90640182008904FF4A870CDE9D9
:10399000090404200B906846FEF762FE0CA90F2074
:1039A00081E831004FF4A0500F90E0021090052103
:1039B0000CA8FEF745FDFEF7FBFD4FF47A71B0FB56
:1039C000F1F0FEF7E7FF0420FEF7D8FF00220F21F9
:1039D000501EFEF703FD13B030BD0000403802401A
:1039E000007000401048016841F4700101600F4808
:1039F000016841F0010101600C4A002108321160A8
:103A000002680B4B1A400260031D0A4A1A600268E2
:103A100022F48022026005480C30016002495806F9
:103A2000803908607047000088ED00E000380240EF
:103A3000FFFFF6FE10300024044900224A808A80ED
:103A4000CA808A60024ACA60704700003C46002073
:103A5000E40400200148FFF7B2B800005C07002032
:103A60000148FFF7ACB80000A40400200148FFF7AC
:103A7000A6B80000E40400200148FFF7A0B8000049
:103A800024050020F0B50268254C264D264E274F10
:103A9000274B4FF0804CA04209D0604507D0A84288
:103AA00005D0B04203D0B84201D0984204D122F0F0
:103AB000700E4A6842EA0E02A0421BD0604519D03F
:103AC000A84217D0B04215D0B84213D0984211D0B6
:103AD000184DA8420ED0184DA8420BD0174DA84241
:103AE00008D0174DA84205D0164DA84202D0164D59
:103AF000A84203D122F44075CA682A434D6922F0D6
:103B000080022A4302608A68C2620A688262A04216
:103B100001D0984201D10969016301214161F0BDE1
:103B2000000001400004004000080040000C00407C
:103B300000040140004001400044014000480140B1
:103B400000180040001C00400020004010B58468B0
:103B500042EA032224F47F440A432243826010BDD8
:103B6000826822F070020A4342F0070181607047C8
:103B700010B5036A046A24F001040462846924F025
:103B8000F00444EA021423F00A020A438461026248
:103B900010BD10B5036A23F0100303628369046A41
:103BA00023F4704343EA023224F0A00343EA0111F4
:103BB0008261016210BD10B5806B0021C185C18496
:103BC000FFF7C3F810BD0168CA6822F49072CA609A
:103BD00001684A6922F001024A61202180F83A1006
:103BE000704710B590F83A10222901D0022010BD7C
:103BF0008168B1F5805F11D00169002901681FD08B
:103C0000496801F07F03816A4A1C82620B70C18D92
:103C1000491E0904090CC18518D02BE00269816A8C
:103C2000002A0268526805D0D2B20A80816A491C13
:103C30008162ECE7C2F308020A80816A891CF7E717
:103C40004A68816A4B1C83620A70E0E70168CA68AF
:103C500022F02002CA600168CA6822F48072CA6039
:103C600001684A6922F001024A61202180F83A1075
:103C7000FFF70CFA002010BD2DE9F0410446006862
:103C80000169E26821F44051114301612169A06892
:103C9000E26908436169114322680843D16849F227
:103CA0000C6399430143D16020684169A26921F402
:103CB000407111434161E2696425B2F5004F9748B4
:103CC000974922684FF032083FD08A4201D08242A1
:103CD0007CD1FEF783FC00EBC00101EB00106168B2
:103CE0008900B0FBF1F6FEF779FC00EBC00101EBB7
:103CF000001061688900B0FBF1F0B0FBF5F06FF0E7
:103D00001801484306EB800108EB0110B0FBF5F009
:103D100000F0F006FEF762FC00EBC00101EB0010C2
:103D200061688900B0FBF1F0B0FBF5F006EB00161E
:103D3000FEF754FC00EBC00101EB00106168890044
:103D4000B0FBF1F7FEF74AFCD2E08A4201D0824292
:103D50003DD1FEF743FC00EBC00101EB00106168B0
:103D60004900B0FBF1F0B0FBF5F00601FEF736FCC0
:103D700000EBC00101EB001061684900B0FBF1F7F6
:103D8000FEF72CFC00EBC00101EB0010616849005C
:103D9000B0FBF1F0B0FBF5F06FF01801484307EB12
:103DA000800108EBC100B0FBF5F000F0F80006EB75
:103DB0004006FEF713FC00EBC00101EB0010616848
:103DC0004900B0FBF1F7FEF709FC3CE055E0FEF7D7
:103DD000F5FB00EBC00101EB001061684900B0FB8E
:103DE000F1F0B0FBF5F00601FEF7E8FB00EBC001D7
:103DF00001EB001061684900B0FBF1F7FEF7DEFB54
:103E000000EBC00101EB001061684900B0FBF1F06C
:103E1000B0FBF5F06FF01801484307EB800108EBA9
:103E2000C100B0FBF5F000F0F80006EB4006FEF72D
:103E3000C5FB00EBC00101EB001061684900B0FB5D
:103E4000F1F7FEF7BBFB00EBC00101EB001061686E
:103E50004900B0FBF1F0B0FBF5F06FF018014843FA
:103E600007EB800108EBC100B0FBF5F000F00700A4
:103E7000216830448860BDE8F081FEF79FFB00EBCD
:103E8000C00101EB001061688900B0FBF1F6FEF79C
:103E900095FB00EBC00101EB001061688900B0FBED
:103EA000F1F0B0FBF5F06FF01801484306EB80012C
:103EB00008EB0110B0FBF5F000F0F006FEF77EFB1A
:103EC00000EBC00101EB001061688900B0FBF1F06C
:103ED000B0FBF5F006EB0016FEF770FB00EBC0013F
:103EE00001EB001061688900B0FBF1F7FEF766FB9B
:103EF00000EBC00101EB001061688900B0FBF1F03C
:103F0000B0FBF5F06FF01801484307EB800108EBB8
:103F10000110B0FBF5F000F00F00A9E7001401401C
:103F20000010014090F83910212901D0022070477B
:103F30008168B1F5805F016A0BD04A1C0262026899
:103F400009785160C18C491E0904090CC1840ED046
:103F500017E009880268C1F308015160016900296E
:103F6000016A02D0491C0162ECE7891CFBE7016889
:103F7000CA6822F08002CA600068C16841F040014E
:103F8000C160002070472DE9F041984617460E4663
:103F90000446069D1DE0681C1BD02DB1FEF792F96A
:103FA000A0EB0800A84214D92068C16821F4D071A0
:103FB000C1602068416921F001014161202084F83D
:103FC000390084F83A00002084F838000320BDE866
:103FD000F0812068006836EA000004D00020B84272
:103FE000D9D00020F3E70120F9E700000148FEF7EF
:103FF000ADBE0000640500200148FEF7A7BE00002A
:10400000A4050020FEE72DE9F04115460E460746BF
:10401000002405E0315D384600F006F8641CE4B287
:10402000AC42F7D3BDE8F08113B50A23012201A900
:10403000FFF72DF81CBD0907090E002804DB00F16D
:10404000E02080F80014704700F00F0000F1E0203D
:1040500080F8141D704702E008C8121F08C1002A2A
:10406000FAD170477047002001E001C1121F002AF9
:10407000FBD1704710B5038943810A8852BA028187
:104080004C88D31A64BA04808C88B3F5805F64BA14
:10409000448089798171016901DD491E03E013F5CE
:1040A000805F01DA491C016102EB41318289891A82
:1040B000416110BD098849BA018181817047FEF7CD
:1040C0000FF9FFF73BFC00F015FDFCF76DFDFFF766
:1040D00047F900F02FFD00F02AF8FEE70146002026
:1040E000842900D0C81C704770EEC01A30EE200A38
:1040F00031EE812A71EE400A30EE010A80ED002A8D
:10410000C0ED010A71EE610AC0ED020A80ED030AFA
:10411000704710B500B9012000F08AFD002010BDE5
:1041200010B501B9012100F0A9FD002010BD10B5A6
:1041300000F046FE002010BD10B500F0B5FF0128CC
:1041400003D0BDE8104000F041BF10BD7FB50D4663
:1041500004464169B0F9080081B1A16971B1FFF766
:10416000BDFFD4E905128DE80700D4E900102B4605
:10417000226900F06EFF039004B070BDFFF7AEFF40
:1041800003A9CDE90001208A2B4682B2D4E90010B0
:1041900000F032FF012801D00020EDE70398EBE7A3
:1041A00070B530EEC01A80ED080AC0ED050A80ED4A
:1041B0000B1AD0ED191A04469FED6F2A30EEC00A93
:1041C000F5EEC01AB1EE400AF1EE10FA0ED0B5EEDF
:1041D000C01AF1EE10FA02DDF0EE410A01E0F0EE55
:1041E000400AF4EEE10AF1EE10FA12DCD4ED1A0AFC
:1041F000F5EEC00AF1EE10FA0ED0B5EEC01AF1EEEF
:1042000010FA01DDB0EE410AB4EEE00AF1EE10FA68
:1042100002D2B0EE420A70BDE16E04F134000546F0
:10422000032902D0042944D085E094ED000A20EE51
:10423000010A84ED0C0A94ED0D0AD4ED010A00EE9A
:10424000810A84ED0D0A94ED0A0AD4ED020A31EEDA
:10425000400A60EE200AC4ED130A94ED120A9FEDA5
:10426000471AFEF773FF84ED0E0A94ED1D0A2846E7
:10427000B8EE400AFCF788FB94ED0C0AD4ED0D0A69
:1042800004F1500030EE200AD4ED0E0A30EE200A80
:1042900084ED140A94ED1C0AB8EE400AFCF774FB96
:1042A00094ED140A84ED150A94ED0E0A84ED120AB9
:1042B00041E094ED0A0AD4ED001A71EE400A60EE76
:1042C000A10AC4ED0C0AD4ED010A60EE810AC4ED26
:1042D0000D0AF0EE000A00EE601A94ED090AD4ED22
:1042E000020A31EE000A20EE200A84ED0E0A94ED57
:1042F0001D0AB8EE400AFCF747FB94ED0C0AD4ED1A
:104300000D0A04F15C0030EE200AD4ED0E0A30EE06
:10431000200A84ED160AD4ED180A30EE800A84EDE6
:10432000170A94ED1C0AB8EE400AFCF72DFB94ED39
:10433000170A84ED180A94ED0A0A84ED090A94ED2F
:104340000B0A84ED0A0A94ED070A84ED060A94ED3F
:10435000080A84ED070A94ED040A84ED030A94ED3B
:10436000050A84ED040AE06E032802D094ED170AD2
:1043700070BD94ED140A70BD000000009A99193FB9
:1043800000F16C0C8CE80E0080EC030A704780ECA6
:10439000030A70472DE9F041184C0F46054666693F
:1043A0002068001D00F056FB38B9206890F82C10EA
:1043B00001208840A1698143A161681C07D137B100
:1043C0002168BDE8F0410E48091D00F087BB206858
:1043D0003544B5424560216805D2A068BDE8F0418A
:1043E000091D00F063BB6068091D00F05FFB206BD6
:1043F000854200D22563BDE8F08100003400002032
:10440000A00800202DE9F041054600F073FB2E4C7A
:104410002069401C206120682C4F10B1E06940B336
:104420002DE025602069012829D1002606EB8600B1
:1044300007EB800000F02CFB761C072EF6D32348F8
:104440008C3000F025FB2148A03000F021FB1F48F4
:10445000B43000F01DFB1D48C83000F019FB1B48AC
:10446000DC3000F015FB19488C3060601430A0601F
:1044700005E02068E96AC06A884200D82560E06AE1
:10448000401CE062E96A0120A26988401043A061F3
:1044900001EB810007EB8000291D00F01FFB00F0FD
:1044A00049FBE06900280CD02068E96AC06A8842AC
:1044B00007D207494FF080500860BFF34F8FBFF31A
:1044C0006F8FBDE8F081000034000020C407002099
:1044D00004ED00E010B5044690F8510058B10128F1
:1044E0000CD002280FD0502080F31188BFF34F8FDB
:1044F000BFF36F8FFEE7206B00F030FB2046BDE876
:10450000104000F02BBB10BD10484FF47051420713
:1045100006D0C01D0D4920F00700411AC1F57051A9
:104520000B4A00230144C2E900030839103A21F084
:10453000070111604B600B600B1AC0E90013936018
:104540004FF000405360D06070470000B408002076
:1045500080000020144E154CA6F1C8074FF080587B
:10456000DFF84C9012E000BF00F0C4FAF068C568B4
:10457000281D00F06FFA2069401E2061E068401E8F
:10458000E06000F0D7FA2846FFF7A4FFE0680028B3
:10459000EAD138680128F9D9C9F80080BFF34F8FF4
:1045A000BFF36F8FF2E700008C080020340000207A
:1045B00004ED00E02DE9F0479A46DDE909848146E3
:1045C0006FF00303206B03EB82021044089D20F080
:1045D0000706700707D0502080F31188BFF34F8F74
:1045E000BFF36F8FFEE723180A5C83F834200A5C60
:1045F00012B1401C1028F6D3002784F84370072D11
:1046000000D30625E562C4E91157201D00F04BFADE
:1046100004F1180000F047FA2461C5F10700646254
:10462000A061E76484F8507052464946304600F075
:10463000BFF82060B8F1000F01D0C8F80040BDE815
:10464000F087000030B5114900E011460A68824247
:10465000FBD34B685C18844203D14068184448601F
:10466000084643681C18944209D1084C103C246841
:10467000A24209D052681A4442600A681268026075
:10468000814200D0086030BD0460F9E7800000205E
:1046900006484168096829B14168C968C96849681C
:1046A000016370474FF0FF31FAE70000340000204B
:1046B00008484068401C4FF0500080F3118804D037
:1046C000BFF34F8FBFF36F8FFEE7BFF34F8FBFF383
:1046D0006F8FFEE7880000202DE9F0410546002796
:1046E00000F0A4FB314E306808B9FFF70DFFF06809
:1046F00005424BD1C5B3083568070ED005F0070059
:10470000C0F108000544680707D0502080F31188E5
:10471000BFF34F8FBFF36F8FFEE72DB370688542F5
:1047200034D82248103001460C6801E020460C467F
:104730006168A94202D221680029F7D131688C4210
:1047400024D007682168016060680837411B102980
:104750000FD96019420708D0502080F31188BFF3A9
:104760004F8FBFF36F8FFEE710E041606560FFF78A
:1047700069FF61687068401A7060B268904200D248
:10478000B060F06801430020C4E9000100F004FDBE
:10479000780707D0502080F31188BFF34F8FBFF305
:1047A0006F8FFEE73846BDE8F08100007000002002
:1047B00010B5031F4FF080741C601B1F21F0010116
:1047C0001960191F044B0B6014390A60091F6FF040
:1047D000020244380A6010BDB14600082DED028B7C
:1047E00084B0C820FFF795FC00F06CFCDFF8AC91BA
:1047F000DFF8AC816B4C6C4D4FF480474FF4004AAE
:104800004FF4805B02900020FFF74AF828680022EE
:10481000401C286039464846FDF74EFD01223946C6
:1048200046464046FDF748FD012251463046FDF719
:1048300043FD002259465D48FDF73EFD5C490026D8
:104840004FEA060051F82020401CC0B216440A2846
:10485000F8D300EE106AB8EEC00A9FED568A20EE3B
:10486000080A10EE100AFBF788FF9FED531B53EC6C
:10487000112BFBF783FE9FED521B53EC112BFBF723
:104880007DFEFBF78DFFE86094ED060A84ED070AD4
:1048900094ED050A84ED060A94ED040A84ED050AF8
:1048A00094ED030A84ED040A94ED020A84ED030AF0
:1048B00094ED010A84ED020A94ED000A84ED010AE8
:1048C00000EE106AB8EEC00A60EE080A9FED3E1ACC
:1048D0009FED3E0A5FF0000010EE810ADFED3C0A1A
:1048E00080EE201A9FED3B0A84ED001A85ED020A46
:1048F00004EB8001D5ED020A91ED000A401CC0B224
:1049000030EE200A082885ED020AF1D3F4EE000A01
:1049100020EE200A85ED010A10EE100AFBF72DFFAC
:104920009FED2D1B53EC112BFBF728FE9FED2C1B4D
:1049300053EC112BFBF722FEFBF732FF00EE100ABF
:104940006E4685ED040ABDEEC00A082110EE100A7D
:10495000ADF80000244890ED000ABDEEC00A10EE4C
:10496000100AADF802005020ADF804007820ADF830
:104970000600304600F090FA0821304600F08CFA2C
:104980000821304600F088FA0821304600F084FA09
:10499000142102A8FFF7C4FB35E700000004024021
:1049A00000100240984B0020B40000200014024088
:1049B0009C070020CDCCCC3D6666666666660A40E4
:1049C000000000000000303FED32533A3333D33F54
:1049D000022B873D0000000000000000000038406E
:1049E000000000000000F43FA800002070B50C4655
:1049F000064600F07FF8154D2868C06C80B929681C
:104A0000012081F850005CB101212046FFF7C2FC73
:104A10000F494FF080500860BFF34F8FBFF36F8F87
:104A200000F088F800F066F82868C46C002034B103
:104A300016B12968C86402E02A68611ED164296839
:104A400081F8500000F076F8204670BD3400002058
:104A500004ED00E0D0E9013201699A60D0E9012358
:104A60005A604A68824201D182684A60002202612B
:104A70000868401E0860086870470000034B036028
:104A800003F154000860802010607047500200203D
:104A900000F108014FF0FF32C0E90112C16001616D
:104AA00000210160704700210161704730B50B683B
:104AB0005A1C02D000F1080202E0026904E022461A
:104AC000546825689D42FAD953684B6099608A60A2
:104AD000516008610168491C016030BD42684A604C
:104AE00093688B6093685960916008610168491C04
:104AF00001607047502080F31188BFF34F8FBFF3E0
:104B00006F8F0A494868401C486001280CD108484A
:104B1000006810F0FF0F07D0502080F31188BFF31A
:104B20004F8FBFF36F8FFEE77047000088000020B3
:104B300004ED00E00849486828B1401E486001D1F2
:104B400080F311887047502080F31188BFF34F8F96
:104B5000BFF36F8FFEE700008800002070B50028CB
:104B600027D0144DA0F108046168E868014207D11C
:104B7000502080F31188BFF34F8FBFF36F8FFEE794
:104B800022683AB1502080F31188BFF34F8FBFF3F2
:104B90006F8FFEE78143616000F048F960686968E3
:104BA000084468602046FFF74DFDBDE8704000F006
:104BB000F3BA70BD700000204FF0E02000210161C9
:104BC000816105494FF47A720968B1FBF2F1491E1F
:104BD00041610721016170473000002010B5FBF7EB
:104BE00039FB114910280ED300F1E02090F8F003B2
:104BF0000A78904207D2502080F31188BFF34F8F7C
:104C0000BFF36F8FFEE709480068896800F4E06031
:104C1000884207D9502080F31188BFF34F8FBFF32C
:104C20006F8FFEE710BD0000880000200CED00E053
:104C300010B5020014D00F48806B38B1502080F3BB
:104C40001188BFF34F8FBFF36F8FFEE700F0EEF8D0
:104C500000211046FFF79EFB00F09EFA002807D1C6
:104C600005494FF080500860BFF34F8FBFF36F8F3F
:104C700010BD00003400002004ED00E070B50D46CA
:104C800004000BD095B11E4A906BB8B1502080F350
:104C90001188BFF34F8FBFF36F8FFEE7502080F373
:104CA0001188BFF34F8FBFF36F8FFEE7502080F363
:104CB0001188BFF34F8FBFF36F8FFEE700F0B6F898
:104CC000526923685919934204D98B420AD99142F7
:104CD00002D807E08B42FAD9881A21600021FFF739
:104CE00059FB00E0216000F057FA002807D1054980
:104CF0004FF080500860BFF34F8FBFF36F8F70BDD0
:104D00003400002004ED00E02DE9F0418846040065
:104D100015D0FFF763FF5020EFF3118680F3118861
:104D2000BFF34F8FBFF36F8F94F85000022184F8C8
:104D30005010E16C491CE164012808D037E0502094
:104D400080F31188BFF34F8FBFF36F8FFEE7A06A28
:104D500038B1502080F31188BFF34F8FBFF36F8FAE
:104D6000FEE7154DA86B012778B104F1180113482F
:104D7000FFF7B4FEE06A2968C96A884217D9B8F11A
:104D8000000F13D0C8F8007011E0201DFFF762FE7D
:104D9000E16AAA6907FA01F01043A86101EB8100FA
:104DA0000649B43901EB8000211DE1E76F6286F30B
:104DB0001188BDE8F0810000340000207808002050
:104DC00010B586B00024039405AA04A903A804948E
:104DD000FFF754FEDDE903010094CDE90110002343
:104DE0000EA11048059A00F034F90F4900284863D5
:104DF00011D0502080F31188BFF34F8FBFF36F8F16
:104E00004FF0FF3008630120C8614C6106B0BDE877
:104E1000104000F061B806B010BD000049444C4598
:104E20000000000055450008340000200248816B56
:104E3000491C816370470000340000201448816BD6
:104E400011B1012141627047002141628169B1FACB
:104E500081F1C1F11F0101EB81020E4951F82230AD
:104E60006BB101EB820101F108034A6852684A60A4
:104E70009A4201D152684A60D1680160704750205F
:104E800080F31188BFF34F8FBFF36F8FFEE70000F1
:104E900034000020C40700207CB504460BA00D465A
:104EA000006800900AA00222006801906946094843
:104EB000FFF7A9F8AAB221460648FFF7A4F8022294
:104EC00001A90448FFF79FF87CBD000003FC000027
:104ED000FC030000A40500201CB537480168374AD0
:104EE000914207D1502080F31188BFF34F8FBFF359
:104EF0006F8FFEE700683149491E884207D1502074
:104F000080F31188BFF34F8FBFF36F8FFEE72C49FB
:104F100008780190FF20087008788DF800009DF84F
:104F200000009DF8002000F0F000904207D05020D3
:104F300080F31188BFF34F8FBFF36F8FFEE79DF8AB
:104F40000000204B00F0500018700720986005E02A
:104F50009DF8002052008DF80020401E9DF8002092
:104F60001206F5D49860032807D0502080F31188EA
:104F7000BFF34F8FBFF36F8FFEE74FF44070986021
:104F8000019808700C482030016841F470010160FC
:104F9000016841F070410160FFF70EFE002058608B
:104FA000FBF720F90848016841F040410160FBF738
:104FB00005F900201CBD000000ED00E071C20F41AA
:104FC00000E400E08800002034EF00E010B550203D
:104FD00080F31188BFF34F8FBFF36F8F00F078F825
:104FE00018B104494FF080500860002080F3118808
:104FF00010BD000004ED00E02DE9FF5F8346DDE910
:105000000E87994616468A469000FFF765FB050015
:105010001CD05420FFF760FB040014D0002025634F
:1050200084F85100CDE90240CDE900874B46324675
:1050300051465846FFF7BEFA2046FFF7E3F9012034
:1050400004B0BDE8F09F2846FFF788FD4FF0FF3021
:10505000F6E7F0B585B0DDE90B640A9DA6B1DCB1D9
:10506000542700972663022684F85160002604AF77
:10507000CDE90246CDE90057FFF79CFA2046FFF73D
:10508000C1F9049805B0F0BD502080F31188BFF33A
:105090004F8FBFF36F8FFEE7502080F31188BFF36F
:1050A0004F8FBFF36F8FFEE70548C16919B1806B61
:1050B00018B100207047012070470220704700009F
:1050C000340000200148406970470000340000208F
:1050D0002DE9F0412E4C0027A06B40B1206A401C06
:1050E0002062606A00B101273846BDE8F081666938
:1050F000761C666113D16068006838B1502080F377
:105100001188BFF34F8FBFF36F8FFEE76068A16810
:105110006160A060A06A401CA062FFF7B9FA206B32
:10512000DFF87080864209D36068006880B16068EB
:10513000C068C568686886420DD220632068C06A6E
:1051400000EB800158F821000128CAD90127C8E7DF
:105150004FF0FF30F1E7281DFFF77CFCA86A18B17B
:1051600005F11800FFF776FCE86A0121A269814089
:105170001143A16100EB800108EB8100291DFFF7BD
:10518000ADFCE86A2168C96A8842CDD30127CBE724
:1051900034000020C40700202DE9F0472C4D0024E6
:1051A0002746A86B38B1FFF7A5FCA86B401EA86383
:1051B000A86B40B146E0502080F31188BFF34F8FB9
:1051C000BFF36F8FFEE72969224E0120D1B3A6F10C
:1051D000B40980463068E8B1F068C46804F118008A
:1051E000FFF738FC201DFFF735FCE06AAA6908FAD2
:1051F00000F11143A96100EB800109EB8100211D41
:10520000FFF76CFCE06A2968C96A8842E2D3C5F8F6
:105210002480DFE70CB1FFF73BFA2C6A44B1464625
:10522000FFF756FF00B16E62641EF9D100202862BC
:10523000686A38B10849012738070860BFF34F8F03
:10524000BFF36F8FFFF776FC3846BDE8F0870000AC
:10525000340000207808002004ED00E0F05A000837
:10526000DD47000800000000000000000001000011
:105270000000000000000000185B0008D10C0008CE
:10528000020000000000000000010000000000001B
:1052900000000000085B0008F5380008020000006C
:1052A00000000000000100000000000000000000FD
:1052B000F85A0008D736000801000000000000007E
:1052C0008000000000000000000000000006101632
:1052D0000006101600000000000000000102030498
:1052E0000607080900000000010203040000000096
:1052F000920E493CB10AC93C2BC3163D2EFB483DDA
:10530000752B7B3D04A9963D80B6AF3D36BDC83DAB
:105310002FBCE13D73B2FA3D87CF093E8340163E74
:10532000B5AB223EA2102F3ECF6E3B3EC2C5473EDC
:105330000115543E135C603E7F9A6C3ECCCF783EA4
:10534000C07D823E938E883E229A8E3E32A0943E4D
:1053500086A09A3EE59AA03E128FA63ED47CAC3E33
:10536000EF63B23E2A44B83E491DBE3E15EFC33E30
:1053700053B9C93ECA7BCF3E4136D53E80E8DA3EBE
:105380004F92E03E7533E63EBBCBEB3EEA5AF13E30
:10539000CBE0F63E275DFC3EE4E7003F3D9C033F4B
:1053A000824B063F9BF5083F6B9A0B3FDA390E3F65
:1053B000CDD3103F2A68133FD9F6153FC07F183F61
:1053C000C6021B3FD17F1D3FCBF61F3F9967223F8F
:1053D00025D2243F5636273F1594293F4AEB2B3FD1
:1053E000DE3B2E3FBB85303FC9C8323FF304353F1B
:1053F000233A373F4268393F3B8F3B3FF9AE3D3F51
:1054000067C73F3F70D8413F01E2433F03E4453F58
:1054100065DE473F12D1493FF8BB4B3F029F4D3FEE
:10542000207A4F3F3D4D513F4918533F31DB543FA8
:10543000E595563F5348583F6AF2593F1A945B3FEF
:10544000532D5D3F05BE5E3F2146603F97C5613FDE
:105450005A3C633F59AA643F880F663FD86B673F49
:105460003CBF683FA7096A3F0C4B6B3F5E836C3FB4
:1054700093B26D3F9ED86E3F73F56F3F0809713F41
:105480005213723F4714733FDD0B743F0BFA743FA6
:10549000C6DE753F07BA763FC58B773FF853783F36
:1054A0009812793F9DC7793F02737A3FBE147B3FC4
:1054B000CDAC7B3F283B7C3FC9BF7C3FAC3A7D3FB6
:1054C000CCAB7D3F23137E3FB0707E3F6DC47E3FEB
:1054D000580E7F3F6D4E7F3FAB847F3F0FB17F3FC4
:1054E00097D37F3F43EC7F3F11FB7F3F0000803F1E
:1054F00011FB7F3F43EC7F3F97D37F3F0FB17F3F4F
:10550000AB847F3F6D4E7F3F580E7F3F6DC47E3F23
:10551000B0707E3F23137E3FCCAB7D3FAC3A7D3FE6
:10552000C9BF7C3F283B7C3FCDAC7B3FBE147B3F5B
:1055300002737A3F9DC7793F9812793FF853783FBD
:10554000C58B773F07BA763FC6DE753F0BFA743FCF
:10555000DD0B743F4714733F5213723F0809713FCC
:1055600073F56F3F9ED86E3F93B26D3F5E836C3F85
:105570000C4B6B3FA7096A3F3CBF683FD86B673F46
:10558000880F663F59AA643F5A3C633F97C5613F05
:105590002146603F05BE5E3F532D5D3F1A945B3F41
:1055A0006AF2593F5348583FE595563F31DB543F27
:1055B0004918533F3D4D513F207A4F3F029F4D3F89
:1055C000F8BB4B3F12D1493F65DE473F03E4453FFF
:1055D00001E2433F70D8413F67C73F3FF9AE3D3FCF
:1055E0003B8F3B3F4268393F233A373FF304353F17
:1055F000C9C8323FBB85303FDE3B2E3F4AEB2B3FD5
:105600001594293F5636273F25D2243F9967223FDC
:10561000CBF61F3FD17F1D3FC6021B3FC07F183F07
:10562000D9F6153F2A68133FCDD3103FDA390E3F24
:105630006B9A0B3F9BF5083F824B063F3D9C033F17
:10564000E4E7003F275DFC3ECBE0F63EEA5AF13E40
:10565000BBCBEB3E7533E63E4F92E03E80E8DA3E50
:105660004136D53ECA7BCF3E53B9C93E15EFC33E46
:10567000491DBE3E2A44B83EEF63B23ED47CAC3EE8
:10568000128FA63EE59AA03E86A09A3E32A0943E96
:10569000229A8E3E938E883EC07D823ECCCF783E4D
:1056A0007F9A6C3E135C603E0115543EC2C5473E76
:1056B000CF6E3B3EA2102F3EB5AB223E8340163E3E
:1056C00087CF093E73B2FA3D2FBCE13D36BDC83DE0
:1056D00080B6AF3D04A9963D752B7B3D2EFB483D22
:1056E0002BC3163DB10AC93C920E493C0000000094
:1056F000920E49BCB10AC9BC2BC316BD2EFB48BDD6
:10570000752B7BBD04A996BD80B6AFBD36BDC8BDA7
:105710002FBCE1BD73B2FABD87CF09BE834016BE70
:10572000B5AB22BEA2102FBECF6E3BBEC2C547BED8
:10573000011554BE135C60BE7F9A6CBECCCF78BEA0
:10574000C07D82BE938E88BE229A8EBE32A094BE49
:1057500086A09ABEE59AA0BE128FA6BED47CACBE2F
:10576000EF63B2BE2A44B8BE491DBEBE15EFC3BE2C
:1057700053B9C9BECA7BCFBE4136D5BE80E8DABEBA
:105780004F92E0BE7533E6BEBBCBEBBEEA5AF1BE2C
:10579000CBE0F6BE275DFCBEE4E700BF3D9C03BF47
:1057A000824B06BF9BF508BF6B9A0BBFDA390EBF61
:1057B000CDD310BF2A6813BFD9F615BFC07F18BF5D
:1057C000C6021BBFD17F1DBFCBF61FBF996722BF8B
:1057D00025D224BF563627BF159429BF4AEB2BBFCD
:1057E000DE3B2EBFBB8530BFC9C832BFF30435BF17
:1057F000233A37BF426839BF3B8F3BBFF9AE3DBF4D
:1058000067C73FBF70D841BF01E243BF03E445BF54
:1058100065DE47BF12D149BFF8BB4BBF029F4DBFEA
:10582000207A4FBF3D4D51BF491853BF31DB54BFA4
:10583000E59556BF534858BF6AF259BF1A945BBFEB
:10584000532D5DBF05BE5EBF214660BF97C561BFDA
:105850005A3C63BF59AA64BF880F66BFD86B67BF45
:105860003CBF68BFA7096ABF0C4B6BBF5E836CBFB0
:1058700093B26DBF9ED86EBF73F56FBF080971BF3D
:10588000521372BF471473BFDD0B74BF0BFA74BFA2
:10589000C6DE75BF07BA76BFC58B77BFF85378BF32
:1058A000981279BF9DC779BF02737ABFBE147BBFC0
:1058B000CDAC7BBF283B7CBFC9BF7CBFAC3A7DBFB2
:1058C000CCAB7DBF23137EBFB0707EBF6DC47EBFE7
:1058D000580E7FBF6D4E7FBFAB847FBF0FB17FBFC0
:1058E00097D37FBF43EC7FBF11FB7FBF000080BF1A
:1058F00011FB7FBF43EC7FBF97D37FBF0FB17FBF4B
:10590000AB847FBF6D4E7FBF580E7FBF6DC47EBF1F
:10591000B0707EBF23137EBFCCAB7DBFAC3A7DBFE2
:10592000C9BF7CBF283B7CBFCDAC7BBFBE147BBF57
:1059300002737ABF9DC779BF981279BFF85378BFB9
:10594000C58B77BF07BA76BFC6DE75BF0BFA74BFCB
:10595000DD0B74BF471473BF521372BF080971BFC8
:1059600073F56FBF9ED86EBF93B26DBF5E836CBF81
:105970000C4B6BBFA7096ABF3CBF68BFD86B67BF42
:10598000880F66BF59AA64BF5A3C63BF97C561BF01
:10599000214660BF05BE5EBF532D5DBF1A945BBF3D
:1059A0006AF259BF534858BFE59556BF31DB54BF23
:1059B000491853BF3D4D51BF207A4FBF029F4DBF85
:1059C000F8BB4BBF12D149BF65DE47BF03E445BFFB
:1059D00001E243BF70D841BF67C73FBFF9AE3DBFCB
:1059E0003B8F3BBF426839BF233A37BFF30435BF13
:1059F000C9C832BFBB8530BFDE3B2EBF4AEB2BBFD1
:105A0000159429BF563627BF25D224BF996722BFD8
:105A1000CBF61FBFD17F1DBFC6021BBFC07F18BF03
:105A2000D9F615BF2A6813BFCDD310BFDA390EBF20
:105A30006B9A0BBF9BF508BF824B06BF3D9C03BF13
:105A4000E4E700BF275DFCBECBE0F6BEEA5AF1BE3C
:105A5000BBCBEBBE7533E6BE4F92E0BE80E8DABE4C
:105A60004136D5BECA7BCFBE53B9C9BE15EFC3BE42
:105A7000491DBEBE2A44B8BEEF63B2BED47CACBEE4
:105A8000128FA6BEE59AA0BE86A09ABE32A094BE92
:105A9000229A8EBE938E88BEC07D82BECCCF78BE49
:105AA0007F9A6CBE135C60BE011554BEC2C547BE72
:105AB000CF6E3BBEA2102FBEB5AB22BE834016BE3A
:105AC00087CF09BE73B2FABD2FBCE1BD36BDC8BDDC
:105AD00080B6AFBD04A996BD752B7BBD2EFB48BD1E
