:020000040800F2
:10000000A84700205D0200083F230008051E0008E5
:100010003D230008B5040008E9290008000000009D
:100020000000000000000000000000009D0100082A
:100030006505000800000000F90100089D23000884
:1000400077020008770200087702000877020008AC
:10005000770200087702000877020008770200089C
:10006000770200087702000877020008770200088C
:10007000770200087702000877020008770200087C
:10008000D104000877020008770200087702000810
:10009000B904000877020008770200087702000818
:1000A000770200089D240008770200087702000804
:1000B00077020008A9240008B52400087702000888
:1000C000770200087702000877020008770200082C
:1000D00077020008D1290008DD290008770200080E
:1000E000770200087702000877020008770200080C
:1000F000C124000877020008770200087702000890
:1001000077020008770200087702000877020008EB
:1001100077020008770200087702000877020008DB
:100120007702000877020008DD0400087702000863
:1001300077020008770200087702000877020008BB
:10014000C50400087702000877020008770200085B
:10015000770200087702000877020008770200089B
:10016000770200087702000877020008770200088B
:1001700077020008770200087702000800000000FC
:100180007702000877020008DFF80CD000F0ECF8E6
:1001900000480047292A0008A84700202C4B19686E
:1001A0000868B0E8F04F80F30988BFF36F8F4FF015
:1001B000000080F3118870470000000008480068C4
:1001C000006880F308884FF0000080F3148862B65E
:1001D00061B6BFF34F8FBFF36F8F00DF00BF00BF6B
:1001E00008ED00E0DFF80C00016841F470010160E7
:1001F000704700BF88ED00E0EFF30980BFF36F8F19
:10020000134B1A681EF0100F08BF20ED108A20E96A
:10021000F04F106009B44FF0500080F31188BFF325
:100220004F8FBFF36F8F02F0B7FF4FF0000080F3E6
:10023000118809BC19680868B0E8F04F1EF0100F6B
:1002400008BFB0EC108A80F30988BFF36F8F704746
:100250001C000020EFF3058070470000064880472F
:1002600006480047FEE7FEE7FEE7FEE7FEE7FEE79B
:10027000FEE7FEE7FEE7FEE74924000889010008E3
:100280002DE9F05F0546002092469B4688460646CB
:10029000814640241BE0284641464746224600F05E
:1002A00053F853465A46C01A914110D31146184686
:1002B000224600F03AF82D1A67EB01084F46224615
:1002C0000120002100F031F817EB00094E41201EFB
:1002D000A4F10104DFDC484631462A464346BDE826
:1002E000F09F40EA01039B0703D009E008C9121FF1
:1002F00008C0042AFAD203E011F8013B00F8013BE0
:10030000521EF9D27047D2B201E000F8012B491E0B
:10031000FBD270470022F6E710B513460A460446A2
:100320001946FFF7F0FF204610BD202A04DB203AD3
:1003300000FA02F1002070479140C2F1200320FA38
:1003400003F3194390407047202A04DB203A21FA36
:1003500002F00021704721FA02F3D040C2F12002DE
:100360009140084319467047064C074D06E0E06887
:1003700040F0010394E8070098471034AC42F6D3EC
:10038000FFF706FFB4350008D4350008464910B51C
:100390004A6822F440324A604A6843681A434A6015
:1003A00001684A6822F480724A6001684A680369F9
:1003B00042EA03224A6001684A6822F040724A60B9
:1003C00001684A6883681A434A6001688A6822F4AF
:1003D00000628A6001688A68C3681A438A60816A19
:1003E0006FF07062D14201688A6822F070628A60A0
:1003F00001688A680CD0836A1A438A6001688A6837
:1004000022F040528A6001688A68C36A1A4301E098
:1004100022F040528A6001688A6822F002028A60F3
:1004200001688A68037E42EA43028A6090F82010DD
:10043000002901684A680FD042F400624A600168EE
:100440004A6822F460424A6001684A68174C436A6D
:1004500004EB43331A4301E022F400624A6001686E
:10046000CA6A22F47002CA620168CA6A838B104C9D
:1004700004EB03531A43CA6201688A6822F40072CB
:100480008A6001688A6890F8303042EA43228A60C4
:1004900001688A6822F480628A6001688A6840691B
:1004A00042EA8020886010BD0023014000E0FFFF89
:1004B0000000F0FFFEE70000014800F084B90000F2
:1004C00054010020014800F07EB900007C010020AA
:1004D000014800F09FBB000018060020014800F012
:1004E00099BB0000B805002001681823CAB2103A71
:1004F000B2FBF3F2054B6FF30901032A9B5CC36562
:1005000000D9091D8165084670470000883500083C
:1005100010B5014600208B698A6A4FF0C07453B150
:10052000B3F5005F15D072B1012A0CD0022A0AD0AF
:10053000032A09D104E01AB1012A06D0022A03D104
:10054000C96AC90100D5012010BDC96AA142FAD00B
:1005500010BD002AF7D0012AF2D0022AF3D0032AD4
:10056000F3D010BD7047704778B50024009490F820
:100570003C20012A19D0012280F83C200A68072378
:100580000568092A13D9EE680A3A02EB4202934041
:100590009E43EE600B788A680A3B03EB43039A4064
:1005A0000368DD682A43DA6010E0022078BD2E6916
:1005B00002EB420293409E432E610B788A6803EB64
:1005C00043039A4003681D692A431A614A681F233E
:1005D000072A13D205686E6B521E02EB820293400B
:1005E0009E436E630B790A885B1E92B203EB830312
:1005F0009A4003685D6B2A435A6327E005680D2A19
:1006000012D22E6BD21F02EB820293409E432E63C6
:100610000B790A88DB1F92B203EB83039A400368CD
:100620001D6B2A431A6311E0EE6A0D3A02EB820257
:1006300093409E43EE620B790A880D3B92B203EB26
:1006400083039A400368DD6A2A43DA62164B056821
:10065000144A9D4206D10D68122D03D1556845F408
:100660008005556005689D4218D10B68102B01D09C
:10067000112B13D1536843F4000353600968102908
:100680000CD10A490A4A0968B1FBF2F101EB810178
:10069000490000E0491E00910029FBD180F83C4050
:1006A000002078BD002301400020014018000020F8
:1006B00040420F0070B504004FF0000503D0206CDD
:1006C000002610B107E0012070BD204600F01CF8A4
:1006D000666484F83C60206CC00610D4206C20F462
:1006E000885040F0020020642046FFF74FFE666409
:1006F000206C20F0020040F00100206400E00125A1
:1007000084F83C60284670BD70B586B0044614215C
:100710006846FFF7FFFD274A254E25680023254937
:10072000143A03242448B54211D10D6845F480756C
:100730000D60096801F480710591116841F00101B3
:100740001160116801F001010591122113E01B4EA7
:10075000B54218D10D6845F400750D60096801F4C3
:1007600000710591116841F001011160116801F0FB
:10077000010105910421CDE900140293694600F0BE
:1007800083FB06B070BD0E4EB542FAD10D6845F43C
:1007900080650D60096801F480610591116841F080
:1007A00001011160116801F0010105910821E2E7E2
:1007B0000020014044380240000002400021014076
:1007C0000022014070472DE9F05F054600680024D3
:1007D0004669D0F804908768D0F80CB0D0F810A023
:1007E000D0F81880F10748D0F90714D001218160B2
:1007F000B80703D5284600F0F5F90CE0780702D5D4
:100800004FF4006407E0380702D54FF4805402E04B
:10081000284600F0E6F9F80516D529684FF48070EF
:100820008860B80503D5284600F0DEF90CE07805AD
:1008300002D544F4005407E0380502D544F480445E
:1008400002E0284600F0CFF9F80316D529684FF4E6
:1008500080308860B80303D5284600F0C7F90CE063
:10086000780302D544F4004407E0380302D544F489
:10087000803402E0284600F0B8F9300707D55FEA77
:10088000CB6004D52968102044F40074C860700758
:100890004FF0080707D55FEA0B7004D52868C760DA
:1008A000284600F099F9B00706D52868C068800787
:1008B00002D0284600F091F9700607D55FEACA60B9
:1008C00004D52968102044F480640861B00607D577
:1008D0005FEA0A7004D528680761284600F07EF9AF
:1008E000F00606D528680069800702D0284600F087
:1008F00076F9B00308D55FEAC96005D529681020EC
:100900004860284600F06CF9F00307D55FEA0970EB
:1009100004D528684760284600F069F9300446D5B8
:100920005FEA497040D5F00504D55FEAC87001D090
:1009300044F00104B00504D55FEA887001D544F0A5
:100940000204700504D55FEA487001D544F0040440
:10095000300529D518F0700F26D008F07000402817
:1009600015D006DC102809D020280AD0302816D14E
:100970000AE050280ED0602811D10EE044F008049F
:100980000DE044F010040AE044F0200407E044F0D5
:10099000400404E044F0800401E044F480742868DA
:1009A000816921F070018161296804204860002C70
:1009B00005D0686A204368622846FFF703FFBDE858
:1009C000F09F70B5040003D094F8200010B104E04B
:1009D000012070BD204600F081F82068016821F0F8
:1009E0000201016000F02EFB0546052604E000F040
:1009F00029FB401B0A2811D8206840688007F6D4DC
:100A00002068016841F00101016000F01BFB054610
:100A10000BE000F017FB401B0A2806D9606A40F47F
:100A20000030606284F82060D2E720684068C00728
:100A3000EFD0207E0128206801683DD021F08001A0
:100A40000160607E01282068016838D021F04001F3
:100A50000160A07E01282068016833D021F02001C8
:100A60000160E07E0128206801682ED041F010016D
:100A70000160207F01282068016829D021F0080149
:100A80000160607F01282068016824D021F0040102
:100A90000160D4E902010843D4E904121143084378
:100AA0006168491E08432168C86100206062012016
:100AB00084F82000002070BD41F08001C0E741F0C3
:100AC0004001C5E741F02001CAE721F01001CFE75E
:100AD00041F00801D4E741F00401D9E7F0B587B04F
:100AE000044614216846FFF715FC364B3648DFF8FC
:100AF000D0E01968D4F800C0334A0325022609273C
:100B000010300024491CF44522D11960012907D175
:100B1000016841F000710160006800F0007005900C
:100B2000106840F0080010601068CDE9005600F031
:100B30000800CDE9047069462448CDE9024500F07B
:100B4000A3F900220521142000F008FB142033E053
:100B5000DFF87CE0F44531D1D0F800C04CF0806C77
:100B6000C0F800C0D0F800C001290CF0806CCDF8AE
:100B700014C0196007D1016841F00071016000687C
:100B800000F000700590106840F0020010601068DE
:100B900002AB00F0020005904FF44050CDE9000692
:100BA00083E8B00069460B4800F06EF90022052189
:100BB000402000F0D3FA402000F0C2FA07B0F0BDA8
:100BC000006400400000002030380240000C024069
:100BD000006800400004024070477047704770474B
:100BE000704770477047704770477047704770474D
:100BF00090F83510022903D080214165012070470B
:100C0000052180F835100068016821F001010160BC
:100C1000002070472DE9F84304464FF00009CDF855
:100C2000009063484FF41651A56D0068B0FBF1F7D2
:100C30002E6894F85C10082000FA01F131420FD0C0
:100C400021680A6852070BD50A6822F004020A607C
:100C500094F85C108840A860606D40F00100606509
:100C600094F85C104FF0010808FA01F0304208D007
:100C700021684969090604D5A860606D40F002004A
:100C8000606594F85C1004208840304208D02168E8
:100C90000968890704D5A860606D40F004006065AC
:100CA00094F85C1010208840304218D02168096800
:100CB000090714D5A86020680168490304D50068B5
:100CC000000308D5A16C07E00168C90503D40168D9
:100CD00021F008010160216C09B12046884794F891
:100CE0005C1020208840304231D021680968C90654
:100CF0002DD5A86094F8350005282068016806D035
:100D0000490347D5006800031DD4616C1CE021F045
:100D1000160101602068416921F080014161206C69
:100D200008B9A06C20B12068016821F008010160B9
:100D300094F85C103F208840A86084F8349084F8D0
:100D40003580216D1FE0E16B09B120468847606D59
:100D500000282BD0606DC00714D0052084F8350022
:100D60002068016821F0010101600098401C00909A
:100D7000B84203D820680068C007F6D184F83490E0
:100D800084F83580E16C002910D001B02046BDE820
:100D9000F04308470168C905D5D4016821F0100166
:100DA000016084F8349084F83580CCE7BDE8F8839E
:100DB000180000202DE9F041044600F043F90646F2
:100DC0005CB1002584F83450022084F83500206896
:100DD000016821F0010101600DE00120BDE8F08112
:100DE00000F030F9801B052805D92020606503201C
:100DF00084F83500F2E720680068C007F0D1226867
:100E0000116820480140D4E901031843D4E90336AE
:100E10003343184363691843A3691843E3691843CC
:100E2000236A18430843616A042903D1D4E90B13E8
:100E300019430843106020684069666A20F0070182
:100E400030460E43012704280CD1A06A0643E06A0D
:100E500040B12046FFF75CFB20B14020606584F87C
:100E60003570BAE7206846612046FFF73DFB94F8ED
:100E70005C203F2191408160656584F835700020D9
:100E8000ACE700003F8010F02DE9F84FDFF87CB1AF
:100E900000224FF001084FF0030A4FF00F090BF149
:100EA000040E00BF0B6808FA02F42340A3426ED17F
:100EB0004D68022D01D0122D0ED1D50800EB850C06
:100EC000DCF820505607F70E09FA07F6B5430E690D
:100ED000BE402E43CCF82060066855000F790AFA10
:100EE00005FC07F0030726EA0C06AF40374307600E
:100EF0004E68012E05D0022E03D0112E01D0122EE5
:100F00000ED18668CF6826EA0C06AF40374387606B
:100F10004668A6430C79C4F30014944034434460FB
:100F2000C6688C6826EA0C06AC403443C4604C6842
:100F3000E40065D5364C256845F480452560246875
:100F400022F0030504F480440094324C2E19D6F8A4
:100F5000084895072F0F09FA07F5AC432E4DA84214
:100F600001D1002524E02D4DA84201D101251FE02B
:100F70002B4DA84201D102251AE02A4DA84201D1E9
:100F8000032515E0284DA84202D1042510E037E0E2
:100F9000264DA84201D105250AE0254DA84201D1E0
:100FA000062505E0234DA84201D1072500E00825CC
:100FB000BD402543C6F80858DBF800405D464E6842
:100FC0009C43F60300D51C432C60DEF800407546B8
:100FD0004E689C43B60300D51C432C600B4D08356E
:100FE0002C684E689C43F60200D51C432C60074DCC
:100FF0000C352C684E689C43B60200D51C432C600F
:10100000521C102AFFF44EAFBDE8F88F003C01409F
:101010004438024000300140000002400004024019
:1010200000080240000C0240001002400014024080
:1010300000180240001C02400AB181617047090497
:10104000FBE7000001488068704700000C000020AA
:101050000248816802781144816070470C000020CA
:101060000B4810B5016841F400710160016841F45A
:1010700080610160016841F480710160032000F02B
:101080008DF8002000F006F800F03EF8002010BDBA
:10109000003C024010B5014688B00022192000F043
:1010A0005DF8192000F04CF813480024016841F065
:1010B00001010160006805A900F001000690684682
:1010C00000F016F900F04AF90C494000B0FBF1F1CC
:1010D0000C480B4A491E026040F2E732C0E9032483
:1010E000C0E9011400F04DFB10B1012008B010BDA3
:1010F000044800F0A7FBF9E74438024040420F00E3
:1011000000000140780600200C4882B0016841F4DC
:1011100080410160006800F4804000900748001F93
:10112000016841F0805101600068002200F08050A9
:1011300000900F21901E02B000F010B84438024019
:10114000002809DB00F01F020121914040098000C6
:1011500000F1E020C0F8001170470000F0B40E4B21
:101160001B680C46C3F30223C3F10705042D00D905
:101170000425191D072901D2002300E0DB1E0126EA
:1011800006FA05F1491E214099409E40761E164000
:101190003143F0BC01F029BC0CED00E0064900F041
:1011A000070208684FF6FF03184040EA0220034A8E
:1011B00010430860704700000CED00E00000FA05E5
:1011C0002DE9F0470E46050065D0DFF81481D8F808
:1011D0000000F7B200F00F00B04207D288F80070AC
:1011E000D8F8000000F00F00B04254D128683D4C00
:1011F000810712D5400703D5206840F4E0502060F5
:101200002878000703D5206840F4604020602068FB
:10121000A96820F0F000084320602878C0072DD08E
:10122000304968680839012812D0022813D00328F1
:1012300011D00968890700292DDA216821F00301FE
:1012400001432160FFF7FEFE814641F2883A0EE03D
:1012500009688903EFE709688901ECE7FFF7F2FE07
:10126000A0EB0901514502D90320BDE8F0872068B1
:10127000696800F00C00B0EB810FEFD1D8F80010D6
:10128000404601F00F01B14207D90770006800F035
:101290000F00B04201D00120E7E72878400705D5CC
:1012A0002068E96820F4E0500843206028780007AF
:1012B00006D52068296920F4604040EAC10020601A
:1012C00000F05CF82168084AC1F30311515CC84082
:1012D000064908600020FFF7DDFE0020C5E700009A
:1012E000003C0240083802409035000818000020F9
:1012F0000F2202600C4A136803F003034360136873
:1013000003F0F0038360136803F4E053C3601268D2
:101310004FF4E05303EAD20202610448006800F08F
:101320000F0008607047000008380240003C02408F
:101330000148006870470000180000200448054973
:1013400000680968044AC1F38221515CC8407047B3
:101350001800002008380240A0350008044805495C
:1013600000680968044AC1F34231515CC8407047C3
:101370001800002008380240A0350008154810B5B4
:10138000006810F00C02144813D01449042A0FD03E
:10139000082A0ED10F4C241F2268236802F03F0256
:1013A0005B0207D52068C0F38810A0FB010106E0AE
:1013B000084610BD2168C1F38811A1FB000100237C
:1013C000FEF75EFF2168C1F30141491C4900B0FBF3
:1013D000F1F010BD083802400024F40000366E0120
:1013E0002DE9F84F050076D02878DFF8F8B2BE4C2A
:1013F000C00749D0DBF800105846C1F3810101292C
:1014000008D00068C0F3810002280AD1201D0068BE
:10141000400206D52068800336D568680028E2D0EF
:1014200032E06868B0F5803F10D0B0F5A02F20689A
:1014300010D020F480302060206820F480202060CC
:101440006868A0B1FFF7FEFD06460CE0206840F496
:101450008030F4E740F480202060F7E7FFF7F2FDEA
:10146000801B642873D820688003F7D50CE0FFF751
:10147000E9FD064605E000BFFFF7E4FD801B642898
:10148000F0D820688003F7D42878DFF860828007DE
:101490004FF000093ED5DBF80010584611F00C0F54
:1014A00009D00068C0F3810002280BD18D48001FCD
:1014B0000068400206D42068800715D5E868012836
:1014C00009D111E0E868B8B10120C8F80000FFF7C1
:1014D000B9FD064605E002E1FFF7B4FD801B0228D6
:1014E000C0D820688007F7D52068296920F0F80067
:1014F00040EAC10020600DE0C8F80090FFF7A2FDAF
:10150000064604E0FFF79EFD801B02281FD82068D6
:101510008007F7D42878000722D5724E744869698D
:101520006C3671B101210160FFF78CFD074604E0C4
:10153000FFF788FDC01B022809D830688007F7D55F
:101540000EE0C0F80090FFF77DFD074605E083E060
:10155000FFF778FDC01B02287ED830688007F7D4DB
:101560002878400768D5DFF87CA100270AF1380AFF
:10157000DAF80000C0000BD4DAF8001041F0805116
:10158000CAF80010DAF80000012700F0805000903F
:10159000584E3068C00510D4306840F48070306018
:1015A000FFF750FD009005E0FFF74CFD0099401A51
:1015B000022851D83068C005F6D54A4EA86868366A
:1015C00001280FD00528306810D020F001003060CD
:1015D000306820F004003060A868B8B1FFF732FD31
:1015E00000900FE0306840F00100F4E740F00400A4
:1015F0003060F7E7FFF726FD0099411A41F2883085
:10160000814264D830688007F4D50EE0FFF71AFDF8
:10161000009007E0FFF716FD0099411A41F288306B
:10162000814254D830688007F4D42FB1DAF8001022
:1016300021F08051CAF80010A869C0B3DBF800108F
:10164000C1F3810102294AD00228484607D0C8F8D0
:101650006000FFF7F7FC00E039E005463AE0474656
:10166000C8F86000FFF7EEFC064604E0FFF7EAFC6E
:10167000801B02282BD820688001F7D4D5E9070108
:101680000843A96A1C4A490802EB01416A6A41EA17
:101690008211084395F82C1040EA01611148001F9F
:1016A000016001203866FFF7CDFC054605E014E037
:1016B000FFF7C8FC401B022809D820688001F7D535
:1016C0000BE000BFFFF7BEFC401B022802D903203D
:1016D000BDE8F88F20688001F4D40020F8E70120ED
:1016E000F6E7000008380240003802400000474298
:1016F000800E4742007000400000FFFF4FF0E021E5
:101700000428086903D020F004000861704740F005
:101710000400FAE710B5401EB0F1807F01D301202C
:1017200010BD4FF0E02460610F21601701F05DF9FA
:101730000020A06107202061002010BD7047704785
:1017400070B590F83C20012A19D0012400F83C4FD4
:101750000222427050F83C3C5A689D6822F07006A4
:101760000A684968324325F0800529435A6050F8D9
:101770003C2C9160447000210170084670BD02202D
:1017800070BD10B5040003D094F83D0010B107E01F
:10179000012010BD002084F83C00204600F00CF829
:1017A000022084F83D00211D206800F08FFE0120FA
:1017B00084F83D00002010BD08B51E4A01681E488F
:1017C00091420ED1016841F00201016000680022DF
:1017D00000F00200009005211D20FFF7BFFC1D2036
:1017E00022E0164A91420ED1016841F004010160E5
:1017F0000068002200F00400009005211E20FFF781
:10180000ADFC1E2010E00E4A914211D1016841F05A
:10181000800101600068002200F080000090052136
:101820002C20FFF79BFC2C20BDE80840FFF788BC6C
:1018300008BD00000004004040380240000800409D
:10184000001C00400168CA6842F00102CA600068DA
:10185000816801F00701062903D0016841F0010108
:1018600001600020704770B5044690F83C000128E4
:1018700017D0012584F83C50022084F83D002068F0
:10188000826822F0770222F47F4282600868502842
:1018900030D00DDC20284DD005DC98B310283BD18A
:1018A00048E0022070BD302844D0402834D139E0CF
:1018B000602828D0702806D0B0F5805F2CD0B0F515
:1018C000005F29D10AE0CB68D1E90121206800F04E
:1018D00061FE2068816841F0770109E0CB68D1E9B9
:1018E0000121206800F056FE2068816841F48041A3
:1018F000816011E0CA684968206800F05DFE5021EF
:10190000206807E016E0CA684968206800F065FEB4
:101910006021206800F048FE84F83D50002084F8E3
:101920003C0070BDCA684968206800F045FE40214F
:101930002068EFE7226801461046EBE7704770B574
:101940000446006801694FF00005C943890715D4B2
:10195000C168C943890711D4E91E016101202077BC
:10196000206880698007204602D0FFF7E7FF04E087
:1019700000F098F8204600F096F825772068016975
:10198000C943490717D4C168C943490713D46FF045
:1019900004010161022020772068806910F4407FF3
:1019A000204602D0FFF7CAFF04E000F07BF8204693
:1019B00000F079F8257720680169C943090716D432
:1019C000C168C943090712D46FF0080101610420FE
:1019D00020772068C0698007204602D0FFF7AEFF5D
:1019E00004E000F05FF8204600F05DF825772068FD
:1019F0000169C943C90617D4C168C943C90613D4CC
:101A00006FF010010161082020772068C06910F490
:101A1000407F204602D0FFF791FF04E000F042F83B
:101A2000204600F040F8257720680169C943C907BE
:101A300008D1C168C943C90704D1891E0161204684
:101A400000F032F820680169C943090609D4C16869
:101A5000C943090605D46FF0800101612046FFF7F4
:101A60006DFE20680169C943490609D4C168C943AC
:101A7000490605D46FF040010161204600F01EF8D0
:101A800020680169C94389060BD4C168C943890626
:101A900007D46FF0200101612046BDE87040FFF7D8
:101AA0004EBE70BD7047704700680349884201D13F
:101AB000FFF7CEBA70470000000001407047704742
:101AC00070B5026804461068D168536910F00F0FB2
:101AD00051D003F0010501F4907635435DD0C20783
:101AE00005D0CA0503D5E26B42F00102E26342076A
:101AF00005D5DA0703D0E26B42F00202E263820707
:101B000005D5DA0703D0E26B42F00402E263020774
:101B100005D5DA0703D0E26B42F00802E263E26B1C
:101B2000002A34D0800604D5880602D5204600F06D
:101B30007CFD20684069E16BC0F3801001F0080172
:101B40000143204624D000F062FD20684169490627
:101B50001AD5416921F040014161606BA0B11B4978
:101B60000165606BFFF744F8002810D0606B016DD1
:101B7000BDE87040084783060FD58B060DD520467B
:101B8000BDE8704000F051BD2046FFF798FF70BDE2
:101B9000FFF795FF0020E06370BD030606D50B0636
:101BA00004D52046BDE8704000F0E0BE4006F3D505
:101BB0004806F1D5D168204621F04001D1602021AE
:101BC00084F8391000F01DF970BD0000FF250008F1
:101BD00070B5040004D094F83900002510B106E077
:101BE000012070BD84F83850204600F023F82420EE
:101BF00084F839002068C16821F40051C160204692
:101C000000F05EFD2068016921F4904101612068C7
:101C1000416921F02A0141612068C16841F4005105
:101C2000C160E563202084F8390084F83A00002080
:101C300070BD00002DE9F04F87B0064614216846BC
:101C4000FEF768FB6449634837680024DFF8889131
:101C50001439022201230325DFF880E14FF0C00A86
:101C60004FF0070C4FF0006B874238D1D9F8007065
:101C700047F01007C9F80070D9F8000000F0100014
:101C80000590086840F0020008600868CDF800A0E0
:101C900000F00200CDE904C001AF694687E82C00DE
:101CA0007046FFF7F1F84F4D4D482860C5E901B483
:101CB0000015C5E903406C61AC61EC612C622846FB
:101CC0006C62FFF777F808B1FEF74DFC75630022F0
:101CD00005212520AE63FFF741FA252038E03E4874
:101CE000DFF80481001F474537D1076847F4003704
:101CF0000760006800F400300590086840F00800B4
:101D000008600868694600F00800059060208DE8CA
:101D10002D103648FFF7B8F8324D35486035286049
:101D2000C5E901B40015C5E903406C61AC61EC6123
:101D30002C6228466C62FFF73DF808B1FEF713FCF1
:101D40007563002205212620AE63FFF707FA2620DF
:101D5000FFF7F6F907B0BDE8F08F264CA74216D181
:101D6000046844F480240460006800F48020059036
:101D7000086840F0020008600868694600F0020048
:101D800005904FF440608DE82D1070461EE01A4813
:101D90008742DFD1D9F8004044F02004C9F8004060
:101DA000D9F8000000F020000590086840F0040019
:101DB00008600868CDF800A000F004000590082035
:101DC000CDE9035069460D48CDE90123FFF75CF8E2
:101DD000C0E7000000100140443802400004024007
:101DE00040640240B805002000440040000C02405E
:101DF0008860024000480040001401400008024092
:101E000070477047FEE700007FB500241548009436
:101E1000019402941249039401604FF48031C0E9A7
:101E200001140461047680F820400F49C0E90A14C7
:101E30000125C561C46080F830404561FEF73AFC79
:101E400008B1FEF790FB0095CDE9015469460548BD
:101E5000FEF78AFB002801D0FEF785FB7FBD00005E
:101E6000002001407C0000200100000F7FB500240D
:101E700015480094019402941249039401604FF4B0
:101E80008031C0E901140461047680F820400F49D4
:101E9000C0E90A140125C561C46080F8304045617D
:101EA000FEF708FC08B1FEF75EFB0220CDE9000555
:101EB000694602940448FEF757FB002801D0FEF75C
:101EC00052FB7FBD00210140C40000200100000F33
:101ED0007FB500241548009401940294124903949C
:101EE00001604FF48031C0E901140461047680F888
:101EF00020400F49C0E90A140125C561C46080F87B
:101F000030404561FEF7D6FB08B1FEF72CFB0320FD
:101F1000CDE90005694602940448FEF725FB002838
:101F200001D0FEF720FB7FBD002201400C01002004
:101F30000100000F0F4810B50D49016006214160F6
:101F400000214FF480328160C0E903124FF4401247
:101F50004261017641768176C17601774177FEF75D
:101F600030FD002803D0BDE81040FEF7FCBA10BDDC
:101F700000640040540100200F4810B50D49016075
:101F80000621416000214FF480328160C0E90312D4
:101F90004FF440124261017641768176C176017735
:101FA0004177FEF70EFD002803D0BDE81040FEF794
:101FB000DABA10BD006800407C010020114808B565
:101FC000016841F480010160016801F48001009121
:101FD000016841F4001101600068002200F4001063
:101FE000009005211020FFF7B9F81020FFF7A8F89E
:101FF000002205213A20FFF7B1F8BDE808403A2059
:10200000FFF79EB83038024000B587B01C22064961
:102010006846FEF766F90021684600F046FD034970
:10202000486007B000BD00006C35000804000020C7
:102030002DE9F04786B014216846FEF76BF93D485C
:102040000024016841F020010160016801F02001D5
:102050000591016841F080010160016801F0800193
:102060000591016841F004010160016801F004017B
:102070000591016841F001010160016801F0010171
:102080000591016841F010010160016801F0100143
:102090000591016841F002010160016801F002014F
:1020A0000591016841F0080101600068DFF888804F
:1020B00000F0080041F67F050590002229464046C1
:1020C000FEF7BAFFDFF874904FF440460022314625
:1020D0004846FEF7B1FFDFF868A04FF480470022C2
:1020E00039465046FEF7A8FF00950125CDE9015479
:1020F000694640460394FEF7C7FE0620009011484B
:10210000CDE9010469461048FEF7BEFE0096CDE910
:102110000154694648460394FEF7B6FE0097CDE9A0
:102120000154694650460394FEF7AEFE06B0BDE882
:10213000F0870000303802400014024000100240D6
:102140000004024000001110000802400C4810B5C5
:102150000A49016053214160002140F2E732C0E9A1
:102160000212016180218161FFF70BFB08B1FEF7CC
:10217000FAF9BDE810400248FFF764BB001C0040BC
:102180007804002010B586B000241848009401940B
:102190000294039404941449059401605321C0E906
:1021A000011440F2E731C0E9031480218161FFF797
:1021B000E8FA08B1FEF7D7F94FF48050009069466D
:1021C0000A48FFF750FB08B1FEF7CDF9049404A9C3
:1021D00006480594FFF7B4FA08B1FEF7C4F90348BE
:1021E000FFF730FB06B010BD00040040F8030020EC
:1021F00010B586B00024184800940194029403940A
:1022000004941449059401605321C0E9011440F27B
:10221000E731C0E9031480218161FFF7B2FA08B108
:10222000FEF7A1F94FF48050009069460A48FFF785
:102230001AFB08B1FEF797F9049404A9064805941F
:10224000FFF77EFA08B1FEF78EF90348FFF7FAFAB6
:1022500006B010BD00080040380400200C4810B53E
:102260000A4901604FF4E1314160002181600C2294
:10227000C160C0E904128161C161FFF7A9FC0028B7
:1022800003D0BDE81040FEF76EB910BD001001404C
:10229000B80400200C4810B50A4901604FF4E13140
:1022A0004160002181600C22C160C0E9041281619B
:1022B000C161FFF78DFC002803D0BDE81040FEF798
:1022C00052B910BD00440040F80400200C4810B57D
:1022D0000A4901604FF4E1314160002181600C2224
:1022E000C160C0E904128161C161FFF771FC00287F
:1022F00003D0BDE81040FEF736B910BD00480040DD
:10230000380500200C4810B50A4901604FF4E1314E
:102310004160002181600C22C160C0E9041281612A
:10232000C161FFF755FC002803D0BDE81040FEF75F
:102330001AB910BD0014014078050020FEE770476F
:10234000124F134EDFF84CA0134C4FF480454FF45E
:1023500000484FF48059002229463846FEF76CFEAB
:10236000012229463046FEF767FE012241463046EB
:10237000FEF762FE002249465046FEF75DFE2068E9
:10238000401C2060642000F07AFBE4E70004024077
:1023900000100240001402400400002000F07BBB4B
:1023A00030B593B030216846FDF7B4FF14210CA876
:1023B000FDF7B0FF22480025016841F0805101601F
:1023C000006800F0805011901E48016841F480417F
:1023D00001600068022400F4804011900120009008
:1023E000000401908001CDE90640182008904FF4C8
:1023F000A870CDE9090404200B906846FEF7F0FFB1
:102400000CA90F2081E831004FF4A0500F90E0029A
:10241000109005210CA8FEF7D3FEFEF789FF4FF4BC
:102420007A71B0FBF1F0FFF775F90420FFF766F958
:1024300000220F21501EFEF791FE13B030BD0000A8
:1024400040380240007000401048016841F47001BB
:1024500001600F48016841F0010101600C4A002150
:102460000832116002680B4B1A400260031D0A4AD1
:102470001A60026822F48022026005480C30016074
:1024800002495806803908607047000088ED00E076
:1024900000380240FFFFF6FE103000240148FFF72D
:1024A0004EBA0000780600200148FFF748BA000045
:1024B000F80300200148FFF742BA0000380400206A
:1024C0000148FFF73CBA000078040020F0B502682C
:1024D000254C264D264E274F274B4FF0804CA042CF
:1024E00009D0604507D0A84205D0B04203D0B84219
:1024F00001D0984204D122F0700E4A6842EA0E02DE
:10250000A0421BD0604519D0A84217D0B04215D0C8
:10251000B84213D0984211D0184DA8420ED0184D91
:10252000A8420BD0174DA84208D0174DA84205D09D
:10253000164DA84202D0164DA84203D122F4407590
:10254000CA682A434D6922F080022A4302608A68E1
:10255000C2620A688262A04201D0984201D1096930
:10256000016301214161F0BD000001400004004011
:1025700000080040000C0040000401400040014001
:10258000004401400048014000180040001C004089
:102590000020004010B5846842EA032224F47F44FE
:1025A0000A432243826010BD826822F070020A430F
:1025B00042F007018160704710B5036A046A24F095
:1025C00001040462846924F0F00444EA021423F054
:1025D0000A020A438461026210BD10B5036A23F047
:1025E000100303628369046A23F4704343EA0232EE
:1025F00024F0A00343EA01118261016210BD10B50D
:10260000806B0021C185C184FFF759FA10BD0168B4
:10261000CA6822F49072CA6001684A6922F0010215
:102620004A61202180F83A10704710B590F83A10AE
:10263000222901D0022010BD8168B1F5805F11D040
:102640000169002901681FD0496801F07F03816A90
:102650004A1C82620B70C18D491E0904090CC18598
:1026600018D02BE00269816A002A0268526805D0FE
:10267000D2B20A80816A491C8162ECE7C2F3080287
:102680000A80816A891CF7E74A68816A4B1C836269
:102690000A70E0E70168CA6822F02002CA60016897
:1026A000CA6822F48072CA6001684A6922F0010295
:1026B0004A61202180F83A10FFF7A2FB002010BDEC
:1026C0002DE9F041044600680169E26821F44051B7
:1026D000114301612169A068E269084361691143FE
:1026E00022680843D16849F20C6399430143D160E1
:1026F00020684169A26921F4407111434161E26996
:102700006425B2F5004F9748974922684FF0320888
:102710003FD08A4201D082427CD1FEF71FFE00EBFF
:10272000C00101EB001061688900B0FBF1F6FEF713
:1027300015FE00EBC00101EB001061688900B0FBE1
:10274000F1F0B0FBF5F06FF01801484306EB8001A3
:1027500008EB0110B0FBF5F000F0F006FEF7FEFD0F
:1027600000EBC00101EB001061688900B0FBF1F0E3
:10277000B0FBF5F006EB0016FEF7F0FD00EBC00134
:1027800001EB001061688900B0FBF1F7FEF7E6FD90
:10279000D2E08A4201D082423DD1FEF7DFFD00EB5C
:1027A000C00101EB001061684900B0FBF1F0B0FB23
:1027B000F5F00601FEF7D2FD00EBC00101EB0010C1
:1027C00061684900B0FBF1F7FEF7C8FD00EBC001FE
:1027D00001EB001061684900B0FBF1F0B0FBF5F0CF
:1027E0006FF01801484307EB800108EBC100B0FB14
:1027F000F5F000F0F80006EB4006FEF7AFFD00EB49
:10280000C00101EB001061684900B0FBF1F7FEF771
:10281000A5FD3CE055E0FEF791FD00EBC00101EBAA
:10282000001061684900B0FBF1F0B0FBF5F0060163
:10283000FEF784FD00EBC00101EB00106168490068
:10284000B0FBF1F7FEF77AFD00EBC00101EB0010E1
:1028500061684900B0FBF1F0B0FBF5F06FF01801D2
:10286000484307EB800108EBC100B0FBF5F000F036
:10287000F80006EB4006FEF761FD00EBC00101EB3E
:10288000001061684900B0FBF1F7FEF757FD00EB5F
:10289000C00101EB001061684900B0FBF1F0B0FB32
:1028A000F5F06FF01801484307EB800108EBC10019
:1028B000B0FBF5F000F00700216830448860BDE807
:1028C000F081FEF73BFD00EBC00101EB00106168F9
:1028D0008900B0FBF1F6FEF731FD00EBC00101EB22
:1028E000001061688900B0FBF1F0B0FBF5F06FF00B
:1028F0001801484306EB800108EB0110B0FBF5F02E
:1029000000F0F006FEF71AFD00EBC00101EB00102D
:1029100061688900B0FBF1F0B0FBF5F006EB001642
:10292000FEF70CFD00EBC00101EB001061688900AF
:10293000B0FBF1F7FEF702FD00EBC00101EB001068
:1029400061688900B0FBF1F0B0FBF5F06FF01801A1
:10295000484307EB800108EB0110B0FBF5F000F0F5
:102960000F00A9E7001401400010014090F8391051
:10297000212901D0022070478168B1F5805F016A8A
:102980000BD04A1C0262026809785160C18C491E52
:102990000904090CC1840ED017E009880268C1F34C
:1029A0000801516001690029016A02D0491C0162D5
:1029B000ECE7891CFBE70168CA6822F08002CA6064
:1029C0000068C16841F04001C1600020704700000C
:1029D0000148FFF775B80000B80400200148FFF770
:1029E0006FB80000F8040020FEE70907090E002870
:1029F00004DB00F1E02080F80014704700F00F00C5
:102A000000F1E02080F8141D704702E008C8121F92
:102A100008C1002AFAD170477047002001E001C1C7
:102A2000121F002AFBD17047FEF71AFBFFF7B8FC14
:102A3000FFF7FEFAFFF7C2FAFFF7E6F9FFF716FA1B
:102A4000FFF746FAFFF776FAFFF796FAFFF79AFBD9
:102A5000FFF7CEFBFFF77AFBFFF700FCFFF71AFC4E
:102A6000FFF734FCFFF74EFCFFF7CEFA00F00EF84C
:102A7000FEE701460020842900D0C81C704710B52D
:102A800000B9012000F024FB002010BD10B500F0BB
:102A900045FB002010BD10B500F094FC012803D0C8
:102AA000BDE8104000F020BC10BD7FB50D460446C7
:102AB0004169B0F9080081B1A16971B1FFF7D9FF8F
:102AC000D4E905128DE80700D4E900102B462269ED
:102AD00000F04DFC039004B070BDFFF7CAFF03A9DE
:102AE000CDE90001208A2B4682B2D4E9001000F023
:102AF00011FC012801D00020EDE70398EBE700006E
:102B00002DE9F041184C0F46054666692068001D06
:102B100000F01AFA38B9206890F82C10012088408B
:102B2000A1698143A161681C07D137B12168BDE863
:102B3000F0410E48091D00F04BBA20683544B542FB
:102B40004560216805D2A068BDE8F041091D00F08C
:102B500027BA6068091D00F023FA206B854200D275
:102B60002563BDE8F08100001C00002094070020D0
:102B70002DE9F041054600F037FA2E4C2069401C43
:102B8000206120682C4F10B1E06940B32DE0256032
:102B90002069012829D1002606EB860007EB80007A
:102BA00000F0F0F9761C072EF6D323488C3000F0A5
:102BB000E9F92148A03000F0E5F91F48B43000F0F1
:102BC000E1F91D48C83000F0DDF91B48DC3000F0A9
:102BD000D9F919488C3060601430A06005E0206895
:102BE000E96AC06A884200D82560E06A401CE06259
:102BF000E96A0120A26988401043A06101EB8100CD
:102C000007EB8000291D00F0E3F900F00DFAE06900
:102C100000280CD02068E96AC06A884207D20749B8
:102C20004FF080500860BFF34F8FBFF36F8FBDE848
:102C3000F08100001C000020B806002004ED00E038
:102C400010B5044690F8510058B101280CD0022864
:102C50000FD0502080F31188BFF34F8FBFF36F8FD9
:102C6000FEE7206B00F0F4F92046BDE8104000F0CC
:102C7000EFB910BD10484FF47051420706D0C01D87
:102C80000D4920F00700411AC1F570510B4A00238D
:102C90000144C2E900030839103A21F0070111602C
:102CA0004B600B600B1AC0E9001393604FF00040BB
:102CB0005360D06070470000A80700206800002023
:102CC000144E154CA6F1C8074FF08058DFF84C9011
:102CD00012E000BF00F088F9F068C568281D00F018
:102CE00033F92069401E2061E068401EE06000F07A
:102CF0009BF92846FFF7A4FFE0680028EAD138686E
:102D00000128F9D9C9F80080BFF34F8FBFF36F8F47
:102D1000F2E70000800700201C00002004ED00E026
:102D20002DE9F0479A46DDE9098481466FF00303F7
:102D3000206B03EB82021044089D20F00706700709
:102D400007D0502080F31188BFF34F8FBFF36F8FF0
:102D5000FEE723180A5C83F834200A5C12B1401C99
:102D60001028F6D3002784F84370072D00D30625DA
:102D7000E562C4E91157201D00F00FF904F11800B5
:102D800000F00BF92461C5F107006462A061E764FB
:102D900084F8507052464946304600F0BFF8206033
:102DA000B8F1000F01D0C8F80040BDE8F08700007E
:102DB00030B5114900E011460A688242FBD34B68E6
:102DC0005C18844203D14068184448600846436850
:102DD0001C18944209D1084C103C2468A24209D026
:102DE00052681A4442600A6812680260814200D048
:102DF000086030BD0460F9E76800002006484168BB
:102E0000096829B14168C968C968496801637047A0
:102E10004FF0FF31FAE700001C000020084840682E
:102E2000401C4FF0500080F3118804D0BFF34F8F47
:102E3000BFF36F8FFEE7BFF34F8FBFF36F8FFEE7D8
:102E4000700000202DE9F0410546002700F09CF9B4
:102E5000314E306808B9FFF70DFFF06805424BD1DD
:102E6000C5B3083568070ED005F00700C0F10800AB
:102E70000544680707D0502080F31188BFF34F8FB7
:102E8000BFF36F8FFEE72DB37068854234D82248B8
:102E9000103001460C6801E020460C466168A942EA
:102EA00002D221680029F7D131688C4224D007680A
:102EB0002168016060680837411B10290FD960192B
:102EC000420708D0502080F31188BFF34F8FBFF323
:102ED0006F8FFEE710E041606560FFF769FF616892
:102EE0007068401A7060B268904200D2B060F068BA
:102EF00001430020C4E9000100F0D6FA780707D0AA
:102F0000502080F31188BFF34F8FBFF36F8FFEE720
:102F10003846BDE8F08100005800002010B5031FBE
:102F20004FF080741C601B1F21F001011960191FF4
:102F3000044B0B6014390A60091F6FF00202443819
:102F40000A6010BD1D2E0008D0E9013201699A60A7
:102F5000D0E901235A604A68824201D182684A60FE
:102F6000002202610868401E08600868704700007F
:102F7000034B036003F15400086080201060704729
:102F8000A401002000F108014FF0FF32C0E9011256
:102F9000C16001610021016070470021016170473B
:102FA00030B50B685A1C02D000F1080202E0026939
:102FB00004E02246546825689D42FAD953684B6064
:102FC00099608A60516008610168491C016030BDE8
:102FD00042684A6093688B609368596091600861A9
:102FE0000168491C01607047502080F31188BFF3CD
:102FF0004F8FBFF36F8F0A494868401C4860012813
:103000000CD10848006810F0FF0F07D0502080F363
:103010001188BFF34F8FBFF36F8FFEE7704700003B
:103020007000002004ED00E00849486828B1401E07
:10303000486001D180F311887047502080F31188D7
:10304000BFF34F8FBFF36F8FFEE7000070000020CB
:1030500070B5002827D0144DA0F108046168E86815
:10306000014207D1502080F31188BFF34F8FBFF387
:103070006F8FFEE722683AB1502080F31188BFF3CA
:103080004F8FBFF36F8FFEE78143616000F07CF8E4
:1030900060686968084468602046FFF789FEBDE8FB
:1030A000704000F001BA70BD580000204FF0E020E1
:1030B00000210161816105494FF47A720968B1FB11
:1030C000F2F1491E4161072101617047180000209B
:1030D00010B5020014D00F48806B38B1502080F337
:1030E0001188BFF34F8FBFF36F8FFEE700F04CF8EE
:1030F00000211046FFF704FD00F0D6F9002807D1A3
:1031000005494FF080500860BFF34F8FBFF36F8FBA
:1031100010BD00001C00002004ED00E010B586B0DA
:103120000024039405AA04A903A80494FFF720FF30
:10313000DDE903010094CDE9011000230EA1104840
:10314000059A00F014F90F490028486311D0502067
:1031500080F31188BFF34F8FBFF36F8F4FF0FF30B5
:1031600008630120C8614C6106B0BDE8104000F062
:1031700041B806B010BD000049444C4500000000B5
:10318000C12C00081C0000200248816B491C81638F
:10319000704700001C0000201448816B11B1012110
:1031A00041627047002141628169B1FA81F1C1F148
:1031B0001F0101EB81020E4951F822306BB101EB86
:1031C000820101F108034A6852684A609A4201D1BB
:1031D00052684A60D16801607047502080F31188BE
:1031E000BFF34F8FBFF36F8FFEE700001C0000207E
:1031F000B80600201CB537480168374A914207D10C
:10320000502080F31188BFF34F8FBFF36F8FFEE71D
:1032100000683149491E884207D1502080F3118847
:10322000BFF34F8FBFF36F8FFEE72C4908780190F3
:10323000FF20087008788DF800009DF800009DF8C8
:10324000002000F0F000904207D0502080F3118859
:10325000BFF34F8FBFF36F8FFEE79DF80000204B49
:1032600000F0500018700720986005E09DF80020DD
:1032700052008DF80020401E9DF800201206F5D463
:103280009860032807D0502080F31188BFF34F8F38
:10329000BFF36F8FFEE74FF440709860019808709D
:1032A0000C482030016841F470010160016841F070
:1032B00070410160FFF7FAFE00205860FCF792FFB2
:1032C0000848016841F040410160FCF777FF0020A9
:1032D0001CBD000000ED00E071C20F4100E400E001
:1032E0007000002034EF00E010B5502080F311880A
:1032F000BFF34F8FBFF36F8F00F072F818B104491E
:103300004FF080500860002080F3118810BD00004D
:1033100004ED00E02DE9FF5F8346DDE90E87994665
:1033200016468A469000FFF78DFD05001CD05420FC
:10333000FFF788FD040014D00020256384F85100B5
:10334000CDE90240CDE900874B463246514658460A
:10335000FFF7E6FC2046FFF70BFC012004B0BDE8B8
:10336000F09F2846FFF774FE4FF0FF30F6E7F0B508
:1033700085B0DDE90B640A9DA6B1DCB15427009746
:103380002663022684F85160002604AFCDE9024688
:10339000CDE90057FFF7C4FC2046FFF7E9FB04988E
:1033A00005B0F0BD502080F31188BFF34F8FBFF3FD
:1033B0006F8FFEE7502080F31188BFF34F8FBFF36C
:1033C0006F8FFEE70548C16919B1806B18B1002005
:1033D0007047012070470220704700001C00002049
:1033E0002DE9F0412E4C0027A06B40B1206A401C13
:1033F0002062606A00B101273846BDE8F081666945
:10340000761C666113D16068006838B1502080F383
:103410001188BFF34F8FBFF36F8FFEE76068A1681D
:103420006160A060A06A401CA062FFF7E7FC206B0F
:10343000DFF87080864209D36068006880B16068F8
:10344000C068C568686886420DD220632068C06A7B
:1034500000EB800158F821000128CAD90127C8E7EC
:103460004FF0FF30F1E7281DFFF76EFDA86A18B195
:1034700005F11800FFF768FDE86A0121A2698140A3
:103480001143A16100EB800108EB8100291DFFF7CA
:103490009FFDE86A2168C96A8842CDD30127CBE73E
:1034A0001C000020B80600202DE9F0472C4D002418
:1034B0002746A86B38B1FFF797FDA86B401EA8639D
:1034C000A86B40B146E0502080F31188BFF34F8FC6
:1034D000BFF36F8FFEE72969224E0120D1B3A6F119
:1034E000B40980463068E8B1F068C46804F1180097
:1034F000FFF72AFD201DFFF727FDE06AAA6908FAF9
:1035000000F11143A96100EB800109EB8100211D4D
:10351000FFF75EFDE06A2968C96A8842E2D3C5F810
:103520002480DFE70CB1FFF769FC2C6A44B1464602
:10353000FFF756FF00B16E62641EF9D100202862C9
:10354000686A38B10849012738070860BFF34F8F10
:10355000BFF36F8FFFF768FD3846BDE8F0870000C6
:103560001C0000206C07002004ED00E0A8350008D6
:10357000412300080000000000000000800000005F
:1035800000000000000000000006101600061016E3
:103590000000000000000000010203040607080903
:1035A000000000000102030464656661756C7454D8
:1035B00061736B00D4350008000000207C0000001F
:1035C0000A2A0008503600087C0000202C47000022
:1035D0001A2A00080000000000000000000000009F
:1035E0000100000010000000000000000024F400B2
:1035F00000000000000000000000000000000000CB
:1036000000000000000000000000000000000000BA
:1036100000000000000000000000000000000000AA
:10362000000000000000000000000000000000009A
:10363000000000000000000000000000000000008A
:103640000000000000000000AAAAAAAA00000000D2
:040000050800018965
:00000001FF
