:020000040800F2
:10000000E056002081020008454D0008673D0008C9
:10001000754B0008770C0008215C00080000000008
:10002000000000000000000000000000C101000806
:10003000E90F0008000000001D02000857510008E9
:100040009B0200089B0200089B0200089B0200081C
:100050009B0200089B0200089B0200089B0200080C
:10006000EB0F00089B020008F10F00089B0200083C
:100070009B0200089B020008FD0E00089B0200087E
:10008000090F0008150F00089B0200089B020008DA
:10009000790C00089B0200089B020008F70F00087B
:1000A0009B020008BD5200089B0200089B0200084A
:1000B0009B020008C95200089B0200089B0200082E
:1000C0009B0200089B0200089B0200089B0200089C
:1000D0009B020008ED5900089B0200089B020008E3
:1000E0009B0200089B0200089B020008F5520008D2
:1000F0009B0200089B0200089B0200089B0200086C
:100100009B0200089B0200089B0200089B0200085B
:100110009B0200089B020008E95200089B020008AD
:100120009B020008210F00082D0F00089B02000809
:10013000390F00089B0200089B0200089B02000880
:10014000850C00089B0200089B0200089B02000827
:100150009B0200089B0200089B020008095B000844
:100160009B0200089B0200089B0200089B020008FB
:100170009B0200089B0200089B0200080000000090
:100180009B0200089B0200089B020008D55500084E
:100190009B0200089B0200089B0200089B020008CB
:1001A00000000000000000009B020008DFF80CD0F7
:1001B00000F09AFB00480047ED670008E056002079
:1001C0002C4B19680868B0E8F04F80F30988BFF33A
:1001D0006F8F4FF0000080F311887047000000001F
:1001E00008480068006880F308884FF0000080F33A
:1001F000148862B661B6BFF34F8FBFF36F8F00DF15
:1002000000BF00BF08ED00E0DFF80C00016841F41A
:1002100070010160704700BF88ED00E0EFF30980D6
:10022000BFF36F8F134B1A681EF0100F08BF20ED3D
:10023000108A20E9F04F106009B44FF0500080F3AD
:100240001188BFF34F8FBFF36F8F07F0D9F84FF0CE
:10025000000080F3118809BC19680868B0E8F04F05
:100260001EF0100F08BFB0EC108A80F30988BFF3AE
:100270006F8F704754000020EFF305807047000037
:100280000648804706480047FEE7FEE7FEE7FEE730
:10029000FEE7FEE7FEE7FEE7FEE7FEE705520008A1
:1002A000AD0100082DE9F05F0546002092469B460F
:1002B00088460646814640241BE02846414647467C
:1002C000224600F0B9F953465A46C01A914110D35C
:1002D00011461846224600F0A0F92D1A67EB0108D6
:1002E0004F4622460120002100F097F917EB000944
:1002F0004E41201EA4F10104DFDC484631462A4667
:100300004346BDE8F09F40EA01039B0703D009E0A4
:1003100008C9121F08C0042AFAD203E011F8013BF1
:1003200000F8013B521EF9D27047D2B201E000F84A
:10033000012B491EFBD270470022F6E710B5134689
:100340000A4604461946FFF7F0FF204610BD2DE986
:10035000FE4F804681EA0300C00F0C46009021F05A
:10036000004123F00045B8EB0200A94105D2404608
:10037000214690461C460B46024623F0004010439F
:1003800047D0270DC7F30A00C3F30A510290401A61
:10039000019040286BDAC3F3130040F4801B0098EF
:1003A000924620B10023D2EB030A63EB0B0B0198BA
:1003B0005946C0F14002504600F02FF906460D465E
:1003C00050465946019A00F047F910EB0800614188
:1003D000002487EA115284EAE7731A4340D0009A56
:1003E00062B3019A012A4FEA075215DC001B61EB48
:1003F00002014FF0004202EA0752CDE90042001C20
:1004000041F5801132462B4600F07EF903B0BDE87D
:10041000F08F40462146F9E7001B61EB0201001C0A
:1004200041F5801300185B412018A2F5001747EB37
:10043000030140EAD570B6196D4111E06D084FEA2D
:10044000360645EAC0754FEA0752001B61EB020110
:10045000001C41F5801149084FEA30000019514154
:1004600032462B4603B0BDE8F04F00F03EB900988D
:10047000012240000023D0EB020263EBE0730098FE
:1004800021464FEAE074B8EB000061EB0401E9E7B4
:1004900083F000435BE781F0004158E72DE9F04D20
:1004A00081EA030404F0004B21F0004514464FF0AC
:1004B000000A23F0004150EA050220D054EA01026C
:1004C0001DD0C5F30A570246C5F31303C1F3130049
:1004D000C1F30A5640F4801543F48013A7EB0608D5
:1004E000101BD64608F2FD3873EB050002D308F165
:1004F000010801E092185B41B8F1000F03DA002017
:100500000146BDE8F08D00204FF480110646844678
:100510000EE0171B73EB050705D3121B63EB0503F6
:1005200006434CEA010C49084FEA300092185B413F
:1005300050EA0107EDD152EA030012D082EA04002A
:1005400083EA0501084305D0101BAB4106D2012206
:10055000002306E000224FF0004302E06FF00102AA
:1005600053101AEB06004CEB085110EB0A0041EB5C
:100570000B01BDE8F04D00F0B8B80EB5C10F80EA30
:10058000E0700844CA07002140F233438DE80E00B2
:100590000A460B4600F0B8F803B000BD0EB540F2B5
:1005A000334102910021CDE900110A460B4600F0CB
:1005B000ABF803B000BD01F0004330B421F00041BE
:1005C00050EA010206D00A0DA2F56072C1F31301D0
:1005D000002A02DC30BC00207047440F44EAC1040A
:1005E000C100E01830BC00EBC25000F047B830B595
:1005F0000B46014600202022012409E021FA02F5E1
:100600009D4205D303FA02F5491B04FA02F528447A
:10061000151EA2F10102F1DC30BD202A04DB203AD4
:1006200000FA02F1002070479140C2F1200320FA45
:1006300003F3194390407047202A04DB203A21FA43
:1006400002F00021704721FA02F3D040C2F12002EB
:100650009140084319467047202A06DBCB17203A01
:1006600041FA02F043EAE07306E041FA02F3D040B7
:10067000C2F1200291400843194670470029A8BFE3
:100680007047401C490008BF20F00100704710B4BB
:10069000B0FA80FC00FA0CF050EA010404BF10BC70
:1006A000704749B1CCF1200421FA04F411FA0CF19D
:1006B00018BF012121430843A3EB0C01CB1D4FEAD6
:1006C00000614FEA102042BF002010BC704700EBD1
:1006D000C35010440029A4BF10BC7047401C4900FF
:1006E00008BF20F0010010BC704710B5141E73F154
:1006F000000408DA401C41F1000192185B411A43E2
:1007000001D120F0010010BD2DE9F04D92469B462D
:1007100011B1B1FA81F202E0B0FA80F220329046D3
:10072000FFF77BFF04460F4640EA0A0041EA0B014F
:1007300053465A46084313D0114653EA010019D0D4
:10074000C8F140025046FFF777FF05460E46504677
:1007500059464246FFF761FF084305D0012004E0F7
:1007600020463946BDE8F08D0020054346EAE07694
:100770002C4337430A986305E40AA0EB08000022E3
:10078000FD0A44EA47540A3002D500200146E9E751
:10079000010510196941DDE9084500196941BDE805
:1007A000F04DA2E72DE9FE4F81EA030404F0004476
:1007B00021F0004100944FF0000B23F0004350EA79
:1007C00001045ED052EA03045BD0C3F30A54C1F3C0
:1007D0000A552C44A4F2F3340194A0FB0254C1F353
:1007E000130141F48011C3F3130343F4801301FB9D
:1007F000024400FB034E840A970A44EA815447EA04
:100800008357A4FB076802958D0A05FB07854FEA0D
:10081000932C04FB0C542705029D4FEA065847EA27
:100820001637B5EB08056EEB070C870E920E47EAFC
:10083000811742EA8312A7FB0201B6EB0B0164EBBE
:1008400000042B0D43EA0C335E1844EB1C50DA46CF
:100850005146E7FB0201C5F313044FEA0B3343EAA9
:1008600014534FEA0432019C43EA0603A4F10C043A
:100870000294009CCDE900B4FFF746FF03B0BDE849
:10088000F08F00200146F9E7C1F30A52C1F31301CA
:1008900040F2FF3341F480119A4202DA002001460F
:1008A000704740F233439A42A2F2334202DC524292
:1008B000FFF7C2BEFFF7B1BE30B5041E71F10004F0
:1008C00004DB4FF00044404264EB0101141E73F15D
:1008D000000405DB1C464FF00043524263EB040367
:1008E000994208BF904230BD064C074D06E0E068D3
:1008F00040F0010394E8070098471034AC42F6D367
:10090000FFF758FC7479000894790008D0ED000ACC
:10091000F4EEC00AF1EE10FA01DD80ED000AD0ED30
:10092000000AB1EE400AF4EEC00AF1EE10FA01D26C
:1009300080ED000A704710B50146806B026C12F022
:10094000500F05D0026CD20626D500F0B9FF10BDBD
:10095000016C41F40071016401688A6812F0405F23
:1009600017D1027EAAB9CA6A12F4700F02D08A683F
:1009700052050ED44A6822F020024A60016C21F42C
:1009800080710164016CC90403D4016C41F0010160
:10099000016400F093FF10BD806BC26CBDE8104095
:1009A0000846104710B5806B40210164416C41F04E
:1009B0000401416400F084FF10BD10B5806B00F0AD
:1009C0007EFF10BD464910B54A6822F440324A60A5
:1009D0004A6843681A434A6001684A6822F4807290
:1009E0004A6001684A68036942EA03224A60016872
:1009F0004A6822F040724A6001684A6883681A4374
:100A00004A6001688A6822F400628A6001688A6824
:100A1000C3681A438A60816A6FF07062D1420168CC
:100A20008A6822F070628A6001688A680CD0836AE2
:100A30001A438A6001688A6822F040528A6001681D
:100A40008A68C36A1A4301E022F040528A60016852
:100A50008A6822F002028A6001688A68037E42EA9C
:100A600043028A6090F82010002901684A680FD07C
:100A700042F400624A6001684A6822F460424A60B7
:100A800001684A68174C436A04EB43331A4301E098
:100A900022F400624A600168CA6A22F47002CA62E3
:100AA0000168CA6A838B104C04EB03531A43CA6271
:100AB00001688A6822F400728A6001688A6890F886
:100AC000303042EA43228A6001688A6822F48062F8
:100AD0008A6001688A68406942EA8020886010BDA7
:100AE0000023014000E0FFFF0000F0FF1CB50C4BAD
:100AF00008224FF400741A6100229A601C60DA60C8
:100B00000B0A8DF800308DF801108DF802208DF859
:100B10000320019201236A46014901F069F81CBDD6
:100B20006C47002010B503F08DFD03F0D9FC03F0F5
:100B3000BBFE03F0EFFE03F08FFC03F0AFFC03F00D
:100B400049FF03F089FE03F055FC03F061FE03F05A
:100B500067FF03F081FF03F09BFF03F0B7FF03F093
:100B6000D1FF03F0EBFF04F01FF9194800F0E8F89B
:100B7000184800F0E5F8164801F01EFC154801F091
:100B80001BFC154800F014FF00F03CFA03F040FB9A
:100B900004F062FB12221149114800F061F80B22A7
:100BA0001049114800F05CF809221049104800F083
:100BB00057F80A220F49084800F070FF0221044844
:100BC00001F004F8BDE810400221024800F0FEBF29
:100BD000C4010020EC0100201C010020C0490020BD
:100BE00040060020D249002000060020244A0020B0
:100BF00000070020E847002070B5044690F839004F
:100C0000202801D0212829D121B31AB394F8380023
:100C1000012823D0012084F83800A162A285002594
:100C2000E56394F83900212816D0222084F8390091
:100C300008461346666B216802463046091D01F0DE
:100C400029FD2068416941F04001416184F8385034
:100C5000002070BD012070BD2320E7E7022070BD99
:100C600010B50446FFF7C8FF2068C16841F01001C5
:100C7000C160002010BDFEE7014801F018B9000076
:100C8000C4010020014801F012B90000EC0100206D
:100C9000704770471CB5144B08241C6100249C60ED
:100CA000DC604FF490741C600B891C0A8DF80040C6
:100CB0008DF801308B8A1B0A8DF80230097D8DF882
:100CC0000310D1788DF8041011788DF80510917803
:100CD0008DF8061051788DF8071001236A460249F5
:100CE00000F086FF1CBD00009C4700202DE9FC4160
:100CF000124CDDE90867082525610025A560E5603F
:100D00004FF4887525600C0A8DF800408DF80110AD
:100D1000110A8DF80210190A8DF804108DF80530AB
:100D20008DF803208DF806608DF8077001236A4660
:100D3000024900F05DFFBDE8FC810000844700200F
:100D400000B58BB000210122CDE906120391089273
:100D50000E22094B0491009101910291099298424F
:100D600000D1059104492831884200D10592694695
:100D700000F0A2FF0BB000BDC401002008B5642044
:100D800005F049FD06F060FC234C0090A07CC007F4
:100D900006D022A004F046FF6421684605F042FD1B
:100DA000A07C800708D521A004F03CFF04F010F9D6
:100DB0006421684605F036FDA07C400709D521A0D6
:100DC00004F030FF254800F085F86421684605F0FE
:100DD00029FDA07C000706D521A004F023FF642193
:100DE000684605F01FFDA07CC00606D520A004F0D3
:100DF00019FF6421684605F015FDA07C800606D524
:100E00001FA004F00FFF6421684605F00BFD64216C
:100E1000684605F007FDB9E77048002074657374F3
:100E20005461736B204747200A09000052656D6FBB
:100E30007465446174615461736B204747200A09EB
:100E40000000000047696D62616C436F6E74726CE4
:100E50005461736B204747200A090000C401002039
:100E600047756E5461736B204747200A09000000E4
:100E70004C65645461736B204747200A09000000E9
:100E8000764F75744C696E65436865636B54617326
:100E90006B204747200A09007CB50D4B40F2FF1438
:100EA00008251C6000249C60C3E903450B0A8DF8EB
:100EB00000308DF80110110A8DF802108DF8032012
:100EC00001236A460249019400F092FE7CBD0000B5
:100ED0003C4700201CB5084940F2FF1208230A6075
:100EE00000228A60C1E903230092019201236A462D
:100EF00000F07EFE1CBD00003C470020014801F0D0
:100F00008FBA000040070020014801F089BA0000B4
:100F100060080020014801F083BA0000A00700200B
:100F2000014801F07DBA0000C0080020014801F02E
:100F300077BA000000080020014801F071BA0000F3
:100F40006401002001681823CAB2103AB2FBF3F220
:100F5000054B6FF30901032A9B5CC36500D9091D8A
:100F60008165084670470000DC78000810B501462E
:100F700000208B698A6A4FF0C07453B1B3F5005FEB
:100F800015D072B1012A0CD0022A0AD0032A09D145
:100F900004E01AB1012A06D0022A03D1C96AC901A4
:100FA00000D5012010BDC96AA142FAD010BD002AA7
:100FB000F7D0012AF2D0022AF3D0032AF3D010BDD1
:100FC00030B50468256825F48025256004686360D1
:100FD0008368402B036803D099600068C26030BD0D
:100FE0009A600068C16030BD7047042001F0C6BB44
:100FF000102001F0C3BB802001F0C0BB704704F09B
:1010000069B900002DE9F0471C480068016841F00B
:10101000010101600021194802F008FC0421174871
:1010200002F004FC0821154802F000FC642001F0E5
:1010300091FB134CC825256040F6B838404601F0B6
:1010400089FB642626604FF4FA69484601F082FB6A
:10105000692727604FF47A7001F07CFB241D25601E
:10106000404601F077FB2660484601F073FB27609D
:10107000BDE8F047642001F06DBB000000050020D2
:10108000340C004010B50F4C2DED028BA068FFF71B
:1010900074FA41EC180BE0680068406AFFF77EFACA
:1010A0009FED091B53EC112BFFF7F8F953EC182BAC
:1010B000FFF74DF9FFF77FFABDEC028B00EE100A47
:1010C00010BD0000704800200000000000005940E2
:1010D0000B480C4903780B70027A0A73FF2B0ED170
:1010E000FE2A0CD1B0F8012052BA4A80B0F8032091
:1010F00052BA8A8042798A71C08840BA08817047A2
:10110000244A00202E4A0020CD4ECE4D00202DED49
:10111000028B82B0707168704FF0030A2C1F85F843
:1011200000A06080208005F06BFAC82005F073FBFA
:1011300006F08AFAC44FDFF814B3C54D06F118095A
:101140009FEDC48BA04606F13004009002F00CFE27
:10115000BC4ABD49C148FFF79DFD022003F056FE81
:10116000B848C178022902D0012903D004E080F8F0
:1011700000A013E0417879B1D9F80C20C9F800201B
:10118000E16821603A8940F63C718A4213D2B989FC
:10119000A1F63C71494214E002210170B16831604E
:1011A000A16821609BED050ABDEEC00A89ED030A26
:1011B0006969E160E6E741F64C518A4207D9BA898C
:1011C000891A316080F800A0022141700AE041785C
:1011D000022907D1002141709BED050ABDEEC00A2E
:1011E00089ED000A298941F24462914203D2AA8919
:1011F00041F2A86106E041F64C52914205D9AA8914
:1012000041F61A51891AE16021600078012804D062
:10121000022857D0032854D1A6E099ED000A884847
:10122000F8EEC00A9BED050AC83005F03BFB8C4880
:10123000B0F908101E2091FBF0F000EE100A804873
:10124000C830B8EEC00AD0ED140A00F5207005F0E1
:1012500029FB844890ED140AB1EE400ABDEEC00AA5
:1012600010EE100AA8F8000094ED000A7E48F8EE8F
:10127000C00A95ED050AB8EEC00A05F013FB7848E0
:10128000B0F90C00FFF779F953EC182BFFF706F9CA
:10129000FFF791F900EE100A7348D0ED140A00F53B
:1012A000207005F0FFFA6F48803090ED140AB1EE1F
:1012B000400ABDEEC00A10EE100AA8F802007869D4
:1012C0003060ACE096ED000A6848F8EEC00A97ED91
:1012D000050AB8EEC00A05F0E5FA6148B0F9081051
:1012E0001E2091FBF0F000EE100A6048B8EEC00A34
:1012F000D0ED140A803005F0D5FA5C48803090EDCE
:10130000140AB1EE400ABDEEC00A10EE100AA8F8A9
:10131000000094ED000A5648F8EEC00A95ED050A63
:10132000B8EEC00A05F0BEFA4D48B0F90C00FFF760
:1013300024F953EC182BFFF7B1F8FFF73CF900EE56
:10134000100A4B48D0ED140A803005F0ABFA48483B
:10135000803090ED140AB1EE400ABDEEC00A10EEE6
:10136000100AA8F802005AE096ED000A3448F8EE98
:10137000C00A97ED050A4830B8EEC00A05F092FAA7
:101380003748B0F908101E2091FBF0F000EE100A6B
:101390002B484830B8EEC00AD0ED140A00F5207092
:1013A00005F080FA2F48803890ED140AB1EE400A1B
:1013B000BDEEC00A10EE100AA8F8000094ED000A75
:1013C0002948F8EEC00A95ED050A8030B8EEC00A4B
:1013D00005F068FA2248B0F90C00FFF7CEF853EC9C
:1013E000182BFFF75BF8FFF7E6F800EE100A1E482F
:1013F0008030D0ED140A803005F054FA1D4890ED8D
:10140000140AB1EE400ABDEEC00A10EE100AA8F8A8
:1014100002009BED050ABDEEC00A89ED000AB8F88E
:101420000000B8F90220404201B21348FFF734FD32
:10143000E06820610521684605F0F4F986E60000C1
:10144000484B0020FC00002000470020B44800204A
:10145000C44600206666666666663040EC01002081
:101460005C490020904E0020904C0020904F0020BE
:1014700090500020904D0020C401002070B541F232
:1014800088342DED028B41F270759FED0F8AB0EE1E
:10149000001A9FED0E0AF0EE480A23462A46032161
:1014A0000B4803F075FCB0EE481ABDEC028B2346E6
:1014B0002A46BDE8704006480321DFED060AB7EE74
:1014C000080A803003F064BC00000000CDCC4C3E24
:1014D00090510020CDCCCC3D08B54FF4FA6005F01A
:1014E0009AF906F0B1F80090FFF7C8FF8D4DDFF8CC
:1014F00038B24FF000084FF0010A8C4C8C4F85F841
:1015000007A0C1460BF58076032003F07FFCFFF7B0
:10151000B9FDBDEEC00A87ED0C0A7078022803D031
:10152000B178012903D005E0042068711CE06979D5
:10153000042902D0012805D016E085F80590E0784E
:10154000F8B913E06879012802D0022807D00BE02F
:101550003089B188801C05E084F803A011E0F08890
:10156000B188801D8142F7D084F80390B8EEC00A9C
:10157000D4ED020A6F4930EE600A10EE100A88427C
:1015800007DA05206871FFF77DFDBDEEC00A87ED23
:101590000B0AA07804F0D0FF68790B2836D2DFE878
:1015A00000F006141F363B478E8E8E8E6C0020781E
:1015B00010B184F8029041E003F0BAFB84F8029085
:1015C0007869606084F800A038E084F802A05A4886
:1015D000606097ED050AB8EEC00ADFED580A09E031
:1015E0000320A0705648606097ED050AB8EEC00A67
:1015F000DFED540A4C4805F055F99BED140ABDEE99
:10160000C00A10EE108A48462070607057E0DFF87C
:10161000388184F802A0F6E7FFF734FDBDEEC00A7A
:10162000DFF82881484687ED0C0A84F80290EBE742
:101630002078A8B184F8039084F8029097ED050A09
:10164000D4ED010A3848B8EEC00AF8EEE00A05F019
:1016500029F99BED140ABDEEC00A10EE100A2DE028
:1016600003F066FB84F802907869606084F800A05B
:10167000FFF708FD84ED020AE0E7607898B197ED86
:101680000C0AD4ED030A3249B8EEC00A30EE600A03
:1016900010EE100A88420FDD03F04AFB85F807A020
:1016A00084F802900BE084F80290FFF7EBFC84EDE5
:1016B000030A84F801A002E04FF47A708046B7F97B
:1016C000000000EE908A00EE100A1748F8EEE00ADB
:1016D000B8EEC00A803005F0E5F81348803090ED90
:1016E000140ABDEEC00A10EE100A01B21948FFF745
:1016F000FDF9A879022804D06979022905D00128CA
:1017000008D06879012803D004E0B088F08001E0B7
:10171000B08830816879A8710A21684605F082F89E
:10172000F2E60000FC00002090510020040100209F
:101730008846002000007A44106EFFFF00F011C7B9
:10174000184EFEFF00F4D8C748F4FFFF0CFEFFFF61
:101750000000FA44C401002078B50024009490F8F9
:101760003C20012A19D0012280F83C200A68072376
:101770000568092A13D9EE680A3A02EB420293403F
:101780009E43EE600B788A680A3B03EB43039A4062
:101790000368DD682A43DA6010E0022078BD2E6914
:1017A00002EB420293409E432E610B788A6803EB62
:1017B00043039A4003681D692A431A614A681F233C
:1017C000072A13D205686E6B521E02EB8202934009
:1017D0009E436E630A8893B20A79521E02EB82021C
:1017E00093400268556B2B43536327E005680D2A2D
:1017F00012D22E6BD21F02EB820293409E432E63C5
:101800000B790A88DB1F92B203EB83039A400368CB
:101810001D6B2A431A6311E0EE6A0D3A02EB820255
:1018200093409E43EE620B790A880D3B92B203EB24
:1018300083039A400368DD6A2A43DA621B4B05681A
:10184000194A9D420AD10D68122D07D1556825F419
:1018500000055560556845F48005556005689D4252
:101860001DD1134D0B68AB4201D0112B17D153681A
:1018700023F480035360536843F400035360096802
:10188000A9420CD10B490C4A0968B1FBF2F101EBFA
:101890008101490000E0491E00910029FBD180F838
:1018A0003C40002078BD00000023014000200140A2
:1018B000120000105000002040420F007047704797
:1018C000704770B504004FF0000503D0206C00266F
:1018D00010B107E0012070BD204600F01DF86664DD
:1018E00084F83C60206CC00610D4206C20F4885032
:1018F00040F0020020642046FFF764F86664206C24
:1019000020F0020040F00100206400E0012584F88E
:101910003C60284670BD000070B586B006461421B4
:101920006846FEF709FD1D493068884234D11C48DD
:101930000025016841F480710160006800F4807046
:10194000059017481438016841F0020101600068F1
:10195000694600F002000590022000900320CDE9C6
:101960000105104800F016FF104C0F48C4E90005AF
:101970000015A560C4E90350800060618000A0618B
:101980008011C4E907052046656200F019FE08B120
:10199000FFF734FBB463A66306B070BD00200140BE
:1019A0004438024000040240706402406401002098
:1019B00018B50021009190F83C20012A07D001229F
:1019C00080F83C2002689368DB0702D011E0022017
:1019D00018BD936843F0010393602A4A2A4B1268AA
:1019E000B2FBF3F202EB420200E0521E0092002A28
:1019F000FBD102689368DB0741D0036C40F20164BD
:101A0000A34343F48073036453685B0505D5036CFB
:101A100023F4005343F480530364036CDB0404D5C4
:101A2000436C23F00603436400E0416480F83C10FB
:101A300016496FF02203136049680068CA0614490A
:101A400006D088421BD1816811F0405F13D016E0A8
:101A50008842F8D00F4A904203D1D1F80423D2062D
:101A6000F1D00D4A90420AD1D1F8041301F01F01C0
:101A70001029E8D303E0816841F0804181600020B3
:101A800018BD00005000002040420F00002301401C
:101A9000002001400021014000220140F8B50E461F
:101AA00000210446009190F83C00012807D0012055
:101AB00084F83C0020688368DB0702D011E0022034
:101AC000F8BD836843F0010383603748374B0068F3
:101AD000B0FBF3F000EB400000E0401E0090002857
:101AE000FBD120688368DB075CD0236C40F2016582
:101AF000AB4343F4807323644068400505D5206CF4
:101B000020F4005040F480502064206CC00404D5C0
:101B1000606C20F00600606400E0616484F83C10B2
:101B2000A16B2448224DC863A16B23480864A16BB4
:101B30002248C86421686FF022000860206841686C
:101B400041F0806141602068816841F4807181606A
:101B50002168134632464C31A06B00F0BEFD686828
:101B60001749C006206806D088421BD1816811F051
:101B7000405F13D016E08842F8D0124A904203D159
:101B8000D1F80423D206F1D00F4A90420AD1D1F8FD
:101B9000041301F01F011029E8D303E0816841F02C
:101BA000804181600020F8BD5000002040420F00BD
:101BB0000023014037090008BB090008A5090008F7
:101BC00000200140002101400022014090F8202027
:101BD000012A07D0022A05D0416A41F480214162DE
:101BE00001207047006842690A4342610020704743
:101BF000F0B590F820500468A468012D05D0022D9E
:101C000003D0416A41F4802153E014F0406F01D1C8
:101C1000E5004BD5C4F30164022C03D9416A41F4B9
:101C2000000146E00125A5401D608D684FF4C0739A
:101C30009DB1CE6835434E6845EAC605066803EB9C
:101C40000417F5514FF4C275076805EB04150E69CA
:101C50007E51097D012905D009E00E88CD6845EA4D
:101C60004655EBE701684E5946F480764E5111799E
:101C7000D2F805504FF4C67641EA0525016806EB17
:101C800004168D511178D2F801204FF4C47541EA41
:101C90000221026805EB04155151006803EB0411A1
:101CA000425842F0010242500020F0BD416A41F426
:101CB000001141620120F0BD10B590F82020012AEA
:101CC00007D0022A05D0416A41F4802141620120F7
:101CD00010BD3B48D0F8002242F00102C0F80022BB
:101CE000D0F8002222F47C52C0F80022D0F8002262
:101CF0004B6A42EA0322C0F800220A7D02F01F0369
:101D000001229A40D0F81C329343C0F81C32CB69B0
:101D1000B3B9D0F80C329343C0F80C328C894B68BD
:101D200064F31F434C6900EBC404C4F840320C89CF
:101D30000B6864F31F434C6900EBC404C4F84432DD
:101D4000CB69012B16D1D0F80C321343C0F80C32FA
:101D50000C884B6864F31F434C6900EBC404C4F85F
:101D600040320C89CB6864F31F434C6900EBC40418
:101D7000C4F844328B69002BD0F804320ED01343E0
:101D8000C0F804320B69002BD0F8143208D013438A
:101D9000C0F81432096A012904D008E09343EFE740
:101DA0009343F5E7D0F81C121143C0F81C12D0F889
:101DB000001221F00101C0F80012002010BD000047
:101DC00000640040704730B590F82040012C05D0E9
:101DD000022C03D0416A41F480215DE004680029AF
:101DE00055D02469A40754D04FF4D874056804EB87
:101DF00001142D5915F00405956005682D594ED034
:101E0000ED08556005682C59C4F34004D4604FF4C4
:101E1000DA74056804EB01142D5905F00F051561FE
:101E200005682D59C5F30725956105682C59240CC3
:101E300054614FF4DC72046802EB0112A4581C7068
:101E40000468A458240A5C700468A458240C9C708C
:101E50000468A258120EDA704FF4DE72046802EBC6
:101E60000112A4581C710468A458240A5C71046807
:101E7000A458240C9C710468A258120EDA710068F0
:101E800081B1016941F020010161002030BDE468A9
:101E9000A8E7416A41F400114162012030BD6D0D97
:101EA0001560AFE7C16841F02001C160EDE72DE9A1
:101EB000F05F0546006800244669D0F80490876802
:101EC000D0F80CB0D0F810A0D0F81880F10748D0A6
:101ED000F90714D001218160B80703D5284600F026
:101EE00098FA0CE0780702D54FF4006407E0380751
:101EF00002D54FF4805402E0284600F089FAF80534
:101F000016D529684FF480708860B80503D5284637
:101F100000F081FA0CE0780502D544F4005407E0A3
:101F2000380502D544F4804402E0284600F072FAF5
:101F3000F80316D529684FF480308860B80303D5BC
:101F4000284600F06AFA0CE0780302D544F4004415
:101F500007E0380302D544F4803402E0284600F05C
:101F60005BFA300707D55FEACB6004D529681020FB
:101F700044F40074C86070074FF0080707D55FEAA3
:101F80000B7004D52868C760284600F099F9B0079F
:101F900006D52868C068800702D0284600F092F96C
:101FA000700607D55FEACA6004D52968102044F49A
:101FB00080640861B00607D55FEA0A7004D5286816
:101FC0000761284600F0F4F9F00606D52868006994
:101FD000800702D0284600F0ECF9B00308D55FEA8C
:101FE000C96005D5296810204860284600F0E2F94C
:101FF000F00307D55FEA097004D5286847602846D2
:1020000000F00CFA300446D55FEA497040D5F0057F
:1020100004D55FEAC87001D044F00104B00504D5CE
:102020005FEA887001D544F00204700504D55FEAC8
:10203000487001D544F00404300529D518F0700F1C
:1020400026D008F07000402815D006DC102809D0F2
:1020500020280AD0302816D10AE050280ED0602857
:1020600011D10EE044F008040DE044F010040AE041
:1020700044F0200407E044F0400404E044F080040D
:1020800001E044F480742868816921F07001816165
:10209000296804204860002C05D0686A20436862E3
:1020A0002846FFF78FFEBDE8F09F70B5040003D00F
:1020B00094F8200010B104E0012070BD204600F02B
:1020C00081F82068016821F00201016000F05AFCEB
:1020D0000546052604E000F055FC401B0A2811D8EF
:1020E000206840688007F6D42068016841F001014B
:1020F000016000F047FC05460BE000F043FC401B8C
:102100000A2806D9606A40F40030606284F82060D2
:10211000D2E720684068C007EFD0207E0128206801
:1021200001683DD021F080010160607E01282068B7
:10213000016838D021F040010160A07E01282068AC
:10214000016833D021F020010160E07E0128206881
:1021500001682ED041F010010160207F0128206825
:10216000016829D021F008010160607F0128206802
:10217000016824D021F004010160D4E90201084380
:10218000D4E90412114308436168491E08432168D9
:10219000C86100206062012084F82000002070BD2A
:1021A00041F08001C0E741F04001C5E741F0200166
:1021B000CAE721F01001CFE741F00801D4E741F070
:1021C0000401D9E7F0B587B0044614216846FEF74C
:1021D000B3F8364B3648DFF8D0E01968D4F800C0C1
:1021E000334A03250226092710300024491CF445F0
:1021F00022D11960012907D1016841F00071016005
:10220000006800F000700590106840F00800106051
:102210001068CDE9005600F00800CDE90470694669
:102220002448CDE9024500F0B5FA0022052114202A
:1022300000F034FC142033E0DFF87CE0F44531D1C9
:10224000D0F800C04CF0806CC0F800C0D0F800C0DE
:1022500001290CF0806CCDF814C0196007D1016819
:1022600041F000710160006800F000700590106896
:1022700040F002001060106802AB00F00200059010
:102280004FF44050CDE9000683E8B00069460B48A2
:1022900000F080FA00220521402000F0FFFB4020E2
:1022A00000F0EEFB07B0F0BD00640040000000202D
:1022B00030380240000C0240006800400004024038
:1022C00070470000334910B5884242D1324B334A3F
:1022D0000021FFF778FD314833240068A0F5007035
:1022E000013821D004280CD0052852D1022002F058
:1022F00079FD2B48816A4A1C8262322910D826490E
:102300001CE0012002F06EFD2648816A4A1C8262B0
:10231000322901D8204911E084621F49214814E084
:1023200084621D491E4810E0032002F05BFD1E4838
:10233000816A4A1C8262322904D81749BDE81040DC
:1023400004F059B9846214491748BDE8104004F0FC
:1023500033B9164988421CD10F4B104A08331C323E
:102360000021FFF730FD0D481C30006821280BD0FC
:10237000B0F5087F0DD0A0F51060113809D1BDE887
:1023800010400A48FEF785BCBDE810400748FEF73C
:102390007FBC10BDC40100203400002020090020B3
:1023A000C44600200047002088460020EC010020A1
:1023B000704770477047000070B5044690F82000E1
:1023C000012804D0606A40F40020606218E0022016
:1023D00084F820002068016821F00101016000F00C
:1023E000D1FA05460EE000BF00F0CCFA401B0A28E7
:1023F00008D9606A40F400306062052084F820004B
:10240000012070BD20684068C007EDD1606270BDDA
:1024100070477047704770477047704770470000BB
:102420002DE9F84304464FF00009CDF800906348C9
:102430004FF41651A56D0068B0FBF1F72E6894F8C3
:102440005C10082000FA01F131420FD021680A68BF
:1024500052070BD50A6822F004020A6094F85C1057
:102460008840A860606D40F00100606594F85C10E1
:102470004FF0010808FA01F0304208D0216849699C
:10248000090604D5A860606D40F00200606594F80C
:102490005C1004208840304208D021680968890710
:1024A00004D5A860606D40F00400606594F85C108D
:1024B00010208840304218D021680968090714D5D7
:1024C000A86020680168490304D50068000308D5A6
:1024D000A16C07E00168C90503D4016821F0080177
:1024E0000160216C09B12046884794F85C102020D7
:1024F0008840304231D021680968C9062DD5A860CE
:1025000094F8350005282068016806D0490347D5AE
:10251000006800031DD4616C1CE021F0160101600D
:102520002068416921F080014161206C08B9A06CEC
:1025300020B12068016821F00801016094F85C1066
:102540003F208840A86084F8349084F83580216D5D
:102550001FE0E16B09B120468847606D00282BD051
:10256000606DC00714D0052084F83500206801682C
:1025700021F0010101600098401C0090B84203D88E
:1025800020680068C007F6D184F8349084F835805C
:10259000E16C002910D001B02046BDE8F0430847A7
:1025A0000168C905D5D4016821F01001016084F8E3
:1025B000349084F83580CCE7BDE8F88350000020E3
:1025C0002DE9F041044600F0DDF906465CB1002536
:1025D00084F83450022084F835002068016821F026
:1025E000010101600DE00120BDE8F08100F0CAF9B1
:1025F000801B052805D920206065032084F835005C
:10260000F2E720680068C007F0D12268116820480E
:102610000140D4E901031843D4E903363343184396
:1026200063691843A3691843E3691843236A18438D
:102630000843616A042903D1D4E90B131943084301
:10264000106020684069666A20F0070130460E433A
:10265000012704280CD1A06A0643E06A40B1204655
:10266000FEF784FC20B14020606584F83570BAE73D
:10267000206846612046FEF765FC94F85C203F2107
:1026800091408160656584F835700020ACE70000FA
:102690003F8010F070B5044690F834000025012802
:1026A0000CD0012084F8340094F835600020012E0D
:1026B00006D084F834000225284670BD022070BD83
:1026C000022684F8356060652046FEF779FC2068B4
:1026D000016841F001010160EEE72DE9F041044697
:1026E000866D90F83400002501280DD0012084F873
:1026F000340094F835700020012F07D084F834009E
:1027000002252846BDE8F0810220FBE7022784F875
:10271000357060652046FEF753FC94F85C103F204E
:102720008840B0602068016841F0160101602068AF
:10273000416941F080014161206C20B1206801684D
:1027400041F0080101602068016841F00101016069
:10275000D7E7000070B5044600F014F90546601C88
:1027600002D004480078044400F00CF9401BA04259
:10277000FAD370BD4400002070470000044910B532
:102780000A68024202D00860FFF7F6FF10BD0000A1
:10279000143C01402DE9F84FDFF890B100224FF0D2
:1027A00001084FF0030A4FF00F090BF1040E00BFB0
:1027B0000B6808FA02F42340A3426ED14D68022D43
:1027C00001D0122D0ED1D50800EB850CDCF820507D
:1027D0005607F70E09FA07F6B5430E69BE402E43B9
:1027E000CCF82060066855000F790AFA05FC07F05E
:1027F000030726EA0C06AF40374307604E68012EF8
:1028000005D0022E03D0112E01D0122E0ED18768D2
:10281000CE6827EA0C07AE403E4386604668A64372
:102820000C79C4F30014944034434460C4688E6847
:1028300024EA0C04AE402643C6604C68E4006FD521
:102840003B4C256845F480452560246822F003054B
:1028500004F480440094374C2E19D6F808489507A4
:102860002F0F09FA07F5AC43334DA84201D10025DB
:102870002EE0324DA84201D1012529E0304DA84279
:1028800001D1022524E02F4DA84201D103251FE0EC
:102890002D4DA84202D104251AE041E02B4DA8425B
:1028A00001D1052514E02A4DA84201D106250FE0EB
:1028B000284DA84201D107250AE0274DA84201D1A1
:1028C000082505E0254DA84201D1092500E00A258B
:1028D000BD402543C6F80858DBF800405D464E6809
:1028E0009C43F60300D51C432C60DEF8004075467F
:1028F0004E689C43B60300D51C432C600B4D083535
:102900002C684E689C43F60200D51C432C60074D92
:102910000C352C684E689C43B60200D51C432C60D5
:10292000521C102AFFF444AFBDE8F88F003C014070
:1029300044380240003001400000024000040240E0
:1029400000080240000C0240001002400014024047
:1029500000180240001C02400020024000240240F7
:102960000069084000D001207047426931EA020244
:1029700000D10904816170470AB18161704709047F
:10298000FBE7000001488068704700004400002019
:102990000248816802781144816070474400002039
:1029A0000B4810B5016841F400710160016841F401
:1029B00080610160016841F480710160032000F0D2
:1029C0008DF8002000F006F800F03EF8002010BD61
:1029D000003C024010B5014688B00022192000F0EA
:1029E0005DF8192000F04CF813480024016841F00C
:1029F00001010160006805A900F001000690684629
:102A000000F016F900F04AF90C494000B0FBF1F172
:102A10000C480B4A491E026040F2E732C0E9032429
:102A2000C0E9011400F0B4FC10B1012008B010BDE1
:102A3000044800F01BFDF9E74438024040420F0013
:102A400000000140580900200C4882B0016841F4A0
:102A500080410160006800F4804000900748001F3A
:102A6000016841F0805101600068002200F0805050
:102A700000900F21901E02B000F010B844380240C0
:102A8000002809DB00F01F0201219140400980006D
:102A900000F1E020C0F8001170470000F0B40E4BC8
:102AA0001B680C46C3F30223C3F10705042D00D9AC
:102AB0000425191D072901D2002300E0DB1E012691
:102AC00006FA05F1491E214099409E40761E1640A7
:102AD0003143F0BC03F0B6B80CED00E0064900F05D
:102AE000070208684FF6FF03184040EA0220034A35
:102AF00010430860704700000CED00E00000FA058C
:102B00002DE9F0470E46050065D0DFF81481D8F8AE
:102B10000000F7B200F00F00B04207D288F8007052
:102B2000D8F8000000F00F00B04254D128683D4CA6
:102B3000810712D5400703D5206840F4E05020609B
:102B40002878000703D5206840F4604020602068A2
:102B5000A96820F0F000084320602878C0072DD035
:102B6000304968680839012812D0022813D0032898
:102B700011D00968890700292DDA216821F00301A5
:102B800001432160FFF7FEFE814641F2883A0EE0E4
:102B900009688903EFE709688901ECE7FFF7F2FEAE
:102BA000A0EB0901514502D90320BDE8F087206858
:102BB000696800F00C00B0EB810FEFD1D8F800107D
:102BC000404601F00F01B14207D90770006800F0DC
:102BD0000F00B04201D00120E7E72878400705D573
:102BE0002068E96820F4E050084320602878000756
:102BF00006D52068296920F4604040EAC1002060C1
:102C000000F05CF82168084AC1F30311515CC84028
:102C1000064908600020FFF7DDFE0020C5E7000040
:102C2000003C024008380240E478000850000020D0
:102C30000F2202600C4A136803F003034360136819
:102C400003F0F0038360136803F4E053C360126879
:102C50004FF4E05303EAD20202610448006800F036
:102C60000F0008607047000008380240003C024036
:102C700001480068704700005000002004480549E2
:102C800000680968044AC1F38221515CC84070475A
:102C90005000002008380240F47800080448054934
:102CA00000680968044AC1F34231515CC84070476A
:102CB0005000002008380240F4780008154810B58C
:102CC000006810F00C02144813D01449042A0FD0E5
:102CD000082A0ED10F4C241F2268236802F03F02FD
:102CE0005B0207D52068C0F38810A0FB010106E055
:102CF000084610BD2168C1F38811A1FB0001002323
:102D0000FDF7D0FA2168C1F30141491C4900B0FB2D
:102D1000F1F010BD083802400024F400001BB70099
:102D20002DE9F84F050076D02878DFF8F8B2BE4CD0
:102D3000C00749D0DBF800105846C1F381010129D2
:102D400008D00068C0F3810002280AD1201D006865
:102D5000400206D52068800336D568680028E2D096
:102D600032E06868B0F5803F10D0B0F5A02F206841
:102D700010D020F480302060206820F48020206073
:102D80006868A0B1FFF7FEFD06460CE0206840F43D
:102D90008030F4E740F480202060F7E7FFF7F2FD91
:102DA000801B642873D820688003F7D50CE0FFF7F8
:102DB000E9FD064605E000BFFFF7E4FD801B64283F
:102DC000F0D820688003F7D42878DFF86082800785
:102DD0004FF000093ED5DBF80010584611F00C0FFB
:102DE00009D00068C0F3810002280BD18D48001F74
:102DF0000068400206D42068800715D5E8680128DD
:102E000009D111E0E868B8B10120C8F80000FFF767
:102E1000B9FD064605E002E1FFF7B4FD801B02287C
:102E2000C0D820688007F7D52068296920F0F8000D
:102E300040EAC10020600DE0C8F80090FFF7A2FD55
:102E4000064604E0FFF79EFD801B02281FD820687D
:102E50008007F7D42878000722D5724E7448696934
:102E60006C3671B101210160FFF78CFD074604E06B
:102E7000FFF788FDC01B022809D830688007F7D506
:102E80000EE0C0F80090FFF77DFD074605E083E007
:102E9000FFF778FDC01B02287ED830688007F7D482
:102EA0002878400768D5DFF87CA100270AF1380AA6
:102EB000DAF80000C0000BD4DAF8001041F08051BD
:102EC000CAF80010DAF80000012700F080500090E6
:102ED000584E3068C00510D4306840F480703060BF
:102EE000FFF750FD009005E0FFF74CFD0099401AF8
:102EF000022851D83068C005F6D54A4EA868683611
:102F000001280FD00528306810D020F00100306073
:102F1000306820F004003060A868B8B1FFF732FDD7
:102F200000900FE0306840F00100F4E740F004004A
:102F30003060F7E7FFF726FD0099411A41F288302B
:102F4000814264D830688007F4D50EE0FFF71AFD9F
:102F5000009007E0FFF716FD0099411A41F2883012
:102F6000814254D830688007F4D42FB1DAF80010C9
:102F700021F08051CAF80010A869C0B3DBF8001036
:102F8000C1F3810102294AD00228484607D0C8F877
:102F90006000FFF7F7FC00E039E005463AE04746FD
:102FA000C8F86000FFF7EEFC064604E0FFF7EAFC15
:102FB000801B02282BD820688001F7D4D5E90701AF
:102FC0000843A96A1C4A490802EB01416A6A41EABE
:102FD0008211084395F82C1040EA01611148001F46
:102FE000016001203866FFF7CDFC054605E014E0DE
:102FF000FFF7C8FC401B022809D820688001F7D5DC
:103000000BE000BFFFF7BEFC401B022802D90320E3
:10301000BDE8F88F20688001F4D40020F8E7012093
:10302000F6E700000838024000380240000047423E
:10303000800E4742007000400000FFFF70B50400A2
:1030400005D00025A56294F8510010B106E00120DA
:1030500070BD84F85050204600F030F8022084F80B
:1030600051002068016821F040010160D4E90101AC
:103070000843D4E903121143084361690843218BD3
:1030800001F400710843E1690843216A0843A16A19
:10309000084321680860A069042101EA1040616AC0
:1030A0000843216848602068C16921F40061C1615A
:1030B0006565012084F85100002070BD10B586B010
:1030C000044614216846FDF737F914492068884200
:1030D00021D113480021026842F480120260006886
:1030E00000F4801005900E481438026842F0200267
:1030F0000260006800F0200005904FF460700090BE
:103100000220CDE9010103200390052004906946C7
:103110000448FFF73FFB06B010BD0000005001401F
:1031200044380240001402402DE9F84F044690F85C
:10313000500000270A9E1D4692468B464FF001091B
:1031400001280ED0012084F85000FFF71BFC8046B8
:1031500094F85100616801280CD0B1F5827F07D145
:1031600002E00220BDE8F88FA16809B9042801D067
:103170000227C2E0BBF1000F27D0BAF1000F24D024
:103180001DB394F85100042802D0052084F85100A2
:1031900000206065C4F838A0E587A587C4F830B082
:1031A000E586A5862064606420680168490603D42A
:1031B000016841F040010160E068B0F5006F6068AF
:1031C00005D0E8B3012D46D07FE0012795E008B196
:1031D000012D39D1206B21680088C860206B801CCC
:1031E0002063E08E401EE0862EE02068816889071B
:1031F0000FD5E18E69B1B9F1010F0AD1216B0988B0
:10320000C160206B801C2063E08E401EE0864FF082
:10321000000920688168C9070CD0E18F51B1C068EE
:10322000A16B0880A06B801CA063E08F401EE0872C
:103230004FF00109FFF7A6FBA0EB0800B04200E049
:1032400009E001D3701C50D1E08E0028CDD1E08F71
:103250000028CAD13FE0206B216800780873206BFA
:10326000401C2063E08E401EE0862EE020688168CE
:1032700089070FD5E18E69B1B9F1010F0AD1216B30
:1032800009780173206B401C2063E08E401EE086AD
:103290004FF0000920688168C9070CD0E18F51B157
:1032A000C068A16B0870A06B401CA063E08F401E3B
:1032B000E0874FF00109FFF765FBA0EB0800B04283
:1032C00002D3701C01D010E07EB1E08E0028CDD179
:1032D000E08F0028CAD142463146204601F08AFEDE
:1032E00028B101272020606507E0032705E0A068DA
:1032F00018B92068C16880680090012084F85100E6
:10330000002084F8500038462CE74FF0E0210428D4
:10331000086903D020F004000861704740F0040001
:10332000FAE710B5401EB0F1807F01D3012010BD37
:103330004FF0E02460610F21601702F083FC002051
:10334000A06107202061002010BD7047704770B554
:1033500090F83C20012A19D0012400F83C4F0222A9
:10336000427050F83C3C5A689D6822F070060A682A
:103370004968324325F0800529435A6050F83C2CB7
:103380009160447000210170084670BD022070BD3C
:1033900010B5040003D094F83D0010B107E00120FF
:1033A00010BD002084F83C00204600F00DF80220FB
:1033B00084F83D00211D206801F0A2FF012084F85F
:1033C0003D00002010BD000008B5234A01682348D5
:1033D00091420ED1016841F00201016000680022B3
:1033E00000F00200009005211D20FFF757FB1D2073
:1033F0002EE01B4A914208D1016841F008010160AA
:10340000006800F00800009008BD164A91420ED1F5
:10341000016841F0100101600068002200F0100016
:10342000009004213620FFF739FB362010E00E4AC9
:103430009142E9D1016841F0400101600068002239
:1034400000F04000009005212B20FFF727FB2B20E8
:10345000BDE80840FFF714BB0004004040380240BC
:10346000000C004000100040001800400168CA68CD
:1034700042F00102CA600068816801F00701062974
:1034800003D0016841F0010101600020704770B570
:10349000044690F83C00012817D0012584F83C50E0
:1034A000022084F83D002068826822F0770222F42E
:1034B0007F4282600868502830D00DDC20284DD033
:1034C00005DC98B310283BD148E0022070BD3028BD
:1034D00044D0402834D139E0602828D0702806D064
:1034E000B0F5805F2CD0B0F5005F29D10AE0CB6841
:1034F000D1E90121206801F074FF2068816841F062
:10350000770109E0CB68D1E90121206801F069FF6A
:103510002068816841F48041816011E0CA6849688F
:10352000206802F033F85021206807E016E0CA68EE
:103530004968206802F03BF86021206801F05BFFD9
:1035400084F83D50002084F83C0070BDCA6849688A
:10355000206802F01BF840212068EFE7226801464E
:103560001046EBE7704770B50446006801694FF0FC
:103570000005C943890715D4C168C943890711D417
:10358000E91E0161012020772068806980072046BC
:1035900002D0FFF7E7FF04E000F0C2F8204600F099
:1035A00044F9257720680169C943490717D4C168E0
:1035B000C943490713D46FF0040101610220207749
:1035C0002068806910F4407F204602D0FFF7CAFFD0
:1035D00004E000F0A5F8204600F027F925772068E0
:1035E0000169C943090716D4C168C943090712D440
:1035F0006FF008010161042020772068C06980070E
:10360000204602D0FFF7AEFF04E000F089F8204624
:1036100000F00BF9257720680169C943C90617D462
:10362000C168C943C90613D46FF0100101610820B5
:1036300020772068C06910F4407F204602D0FFF751
:1036400091FF04E000F06CF8204600F0EEF82577DA
:1036500020680169C943C90708D1C168C943C907BE
:1036600004D1891E0161204600F002F92068016939
:10367000C943090609D4C168C943090605D46FF0D6
:10368000800101612046FFF760FE20680169C9439F
:10369000490609D4C168C943490605D46FF0400101
:1036A0000161204600F010F920680169C9438906CC
:1036B0000BD4C168C943890607D46FF020010161AA
:1036C0002046BDE87040FFF741BE70BD10B586B022
:1036D000044614216846FCF72FFE0E4920688842F4
:1036E00015D10D480021026842F080020260006896
:1036F00000F0800005904FF4E05000900220CDE9EA
:103700000101CDE9031069460448FFF743F806B00C
:1037100010BD0000000C004030380240001C024088
:10372000704770B5044690F83C000D4601280DD056
:10373000012684F83C60022084F83D0042B1042A4E
:1037400018D0082A2AD00C2A4DD139E0022070BDA9
:10375000206801F059FE2068816941F0080181610B
:103760002068816921F004018161206881692A69EA
:10377000114311E0206801F077FE2068816941F46F
:10378000006181612068816921F480618161206824
:1037900081692A6941EA0221816124E0206801F0FF
:1037A00099FE2068C16941F00801C1612068C169C2
:1037B00021F00401C1612068C1692A69114311E047
:1037C000206801F0BBFE2068C16941F40061C1615D
:1037D0002068C16921F48061C1612068C1692A69DA
:1037E00041EA0221C16184F83D60002084F83C0078
:1037F00070BD10B5040003D094F83D0010B107E08F
:10380000012010BD002084F83C00204600F00CF898
:10381000022084F83D00211D206801F071FD012087
:1038200084F83D00002010BD7047704710B5044675
:103830000068012201F0C8FD0B492068884202D0CF
:103840000A49884203D1416C41F400414164206837
:10385000816801F00701062903D0016841F00101E8
:103860000160002010BD0000000001400004014084
:103870000F4A0168914201D1FFF78AB80D4A91427F
:103880000BD10D4801680A6842F001020A60006825
:10389000C16841F00101C160704708498842FBD00E
:1038A00007498842F8D007498842F5D101F0A6BA05
:1038B00000000140000C004000050020C004002072
:1038C0008005002040050020704770B5040004D03A
:1038D00094F83900002510B106E0012070BD84F88D
:1038E0003850204600F022F8242084F8390020685F
:1038F000C16821F40051C160204601F0EFFE20684C
:10390000016921F4904101612068416921F02A0197
:1039100041612068C16841F40051C160E563202025
:1039200084F8390084F83A00002070BD2DE9F04F8A
:1039300087B0054614216846FCF7FEFCCD49DFF848
:1039400030831039D5F800C00024DFF82893022214
:1039500001230320DFF820A30E158F154FF0080B6D
:10396000C4453AD1D9F8008048F08048C9F80080B1
:10397000D9F800C00CF0804CCDF814C0D1F800C0CC
:103980004CF0100CC1F800C0096801F0100105915D
:10399000C1018DE80E00CDE9030B69465046FEF7E4
:1039A000F9FEDFF8DC82B5494046C8F800104FF058
:1039B0002061C0E90114C0E90346C8F81440C0E919
:1039C0000647C8F82040C8F82440DAE0C5F834803B
:1039D000C8F8385007B0BDE8F08FDFF8A882C445BA
:1039E00045D1D9F8008048F00048C9F80080D9F8DE
:1039F00000C00CF0004CCDF814C0D1F800C04CF061
:103A0000100CC1F800C009688DE80D0001F010012C
:103A1000CDE904B1039069465046FEF7BBFEDFF8DE
:103A20006082964908F1600848314046C8F80010A5
:103A30000905C0E90114C0E90346C8F814404FF471
:103A40008031C8F81840C8E90771C8F82440FEF76B
:103A5000B7FD08B1FDF7D2FAC5F83480002206217F
:103A60005320C8F83850FFF719F853204EE0DFF81C
:103A70001882DFF800E24FF0070A0EF1040EC44589
:103A800047D1DEF8008048F01008CEF80080DEF85C
:103A900000C00CF0100CCDF814C0D1F800C04CF0F0
:103AA000020CC1F800C0096801F002010591C021B3
:103AB0008DE80E00CDE9030A69467448FEF76AFEF8
:103AC000DFF8BC81724908F1C0084046C8F8001010
:103AD0004FF00061C0E90114C0E90346C8F8144082
:103AE0008912C8F81840C8E90771C8F82440FEF7E1
:103AF00067FD08B1FDF782FAC5F834800022052180
:103B00002520C8F83850FEF7C9FF2520FEF7B8FF7A
:103B100060E7DFF88081C4453BD1D9F8008048F4E4
:103B20000038C9F80080D9F800C00CF4003CCDF88A
:103B300014C0D1F800C04CF0080CC1F800C00968EE
:103B400001F00801059160218DE80E00CDE9030A1E
:103B500069465148FEF71EFE4849DFF84081303182
:103B60004046C8F800104FF00061C0E90114C0E9F8
:103B70000346C8F81440C0E90647C8F82040C8F812
:103B80002440FEF71DFD00283FF420AFFDF736FA74
:103B90001CE7DFF80C81C4451DD1D9F8005045F46D
:103BA0008025C9F80050D9F8004004F48024059419
:103BB0000C6844F008040C60096801F008010591E4
:103BC0004FF440718DE80E00CDE9030A6946324892
:103BD000FEF7E0FDFEE6DFF8CC80C44598D1DEF8C4
:103BE000008048F02008CEF80080DEF800C00CF01D
:103BF000200CCDF814C0D1F800C04CF0400CC1F836
:103C000000C0096801F0400105914FF484418DE83E
:103C10000E00CDE9030B69462348FEF7BBFDDFF834
:103C20007C801B4908F1600818394046C8F800102C
:103C30008905C0E90114C0E90346C8F814404FF4EF
:103C40000031C8F81840C8E90771C8F82440FEF7E9
:103C5000B7FC08B1FDF7D2F9C5F83480002206217F
:103C60004720C8F83850FEF719FF47204EE70000FC
:103C70000078004040380240001002405860024086
:103C800040070020007C004000100140000402407A
:103C90004064024000440040000C024060080020E4
:103CA0000048004000140140001802402DE9F8438C
:103CB000044690F839001F4616460D46202850D17C
:103CC000A5B19EB194F8380001284AD0012084F8AB
:103CD00038004FF00008C4F83C80212084F83900F7
:103CE000FEF750FEA6848146E68426E00120BDE86A
:103CF000F883E08C401EE084A0684B46B0F5805FFE
:103D00004FF000024FF080012046009703D001F0F1
:103D10003BFEE8B90DE001F037FEC8B928882168FC
:103D2000C0F308004860206908B16D1C05E0AD1CB7
:103D300003E0216815F8010B4860E08C0028D8D119
:103D40004B46002240212046009701F01DFE08B19D
:103D50000320CCE7202084F8390084F83880002044
:103D6000C5E70220C3E7FEE77FB500240E226946BF
:103D70003B2000F0E7FABDF8000041BA2748018077
:103D8000BDF8021049BA4180BDF8041049BA8180DB
:103D9000BDF8061049BAC180BDF8081049BA0181C2
:103DA000BDF80A104ABA4281BDF80C1049BA0DB2EA
:103DB00000F1A0018581CB880B818B88CB804B885B
:103DC0008B800B884B800A805FF0000231F8123044
:103DD000521C2344D2B21CB2052AF7D3052694FB09
:103DE000F6F141810D490023AA31CA880A818A88E7
:103DF000CA804A888A800A884A800D804FEA030276
:103E000031F81240521C2344D2B21BB2052AF7D318
:103E100093FBF6F1818141827FBD00005C49002067
:103E20002DE9F0412DED028B03F00EFC7F49804B14
:103E30004A78522A02D0532A0DD106E0D1F8022046
:103E4000DA61D1F806201A6205E0D1F802205A6240
:103E5000D1F806209A620A7B522A02D0532A0DD149
:103E600006E0D1F80D20DA61D1F811201A6205E0E0
:103E7000D1F80D205A62D1F811209A62CA7D522AD7
:103E800002D0532A09D104E08A69DA61C96919624A
:103E900003E08A695A62C969996265492431B1F9B6
:103EA000022000EE102AF8EEC00A9FED620A5F4A77
:103EB00060EE800AE63AC2ED010AB1F9041001EEA3
:103EC000101AA2F13801B8EEC11A21EE000A81EDF4
:103ED000010A91F83550052D59D9062581F835503C
:103EE00091ED021A544E554F30EE411AF7EE001A7A
:103EF00011EE105A81ED001AB54204D991ED041A61
:103F000031EE211A07E011EE105ABD4205DD91EDA8
:103F1000041A31EE611A81ED041AD1ED042A9FEDE5
:103F2000482AB0EE401A02EE821AD1ED032A31EE91
:103F3000621ADFED442A21EE221A81ED051A92ED74
:103F4000021A30EEC11A11EE105A82ED001AB54273
:103F500004D992ED041A31EE211A07E011EE105A3D
:103F6000BD4205DD92ED041A31EE611A82ED041AAC
:103F7000D2ED041AB0EE601A001B01EE821AD2EDE7
:103F8000031A31EE611A82ED051A188103E081ED02
:103F9000030AC2ED030A81ED020AC2ED020A91F89A
:103FA0003500224C401C81F835002148AE3C1C30C5
:103FB0009FED268AB0F9001000EE101AB0EE481AF4
:103FC000F8EEC00A9FED200A60EE800AC4ED070AF1
:103FD000B0F9021000EE901AF8EEE00A60EE800AE6
:103FE000C4ED080AB0F9040000EE900AF8EEE00A09
:103FF00060EE800AC4ED090A94ED0C0A00F0EEF8B8
:1040000084ED090AD4ED080A94ED0B0AB0EE481AC3
:1040100000F0E4F884ED080A84ED0B0A94ED090A37
:1040200084ED0C0ABDEC028BBDE8F081D249002082
:10403000B8000020A0FEB33B000034C300003443AE
:104040000000B4430000B64101007A3D00002F4457
:10405000F7EE001A71EEC11A21EE800A00EE810A15
:104060007047000008B5642002F0D5FB03F0ECFABD
:10407000454DDFF81081454C0127DFF814A10026DB
:1040800005F114094FF4167B0090042000F0BEFEE9
:10409000207CC0070DD002215046FEF766FC88F850
:1040A00002703CA001F0BEFDC821684602F0BAFBD8
:1040B00006E088F80260012202215046FEF75CFC0F
:1040C000207C80070CD504215046FEF74EFC2F8043
:1040D00033A001F0A7FDC821684602F0A3FB05E06C
:1040E000012204215046FEF747FC2E80207C400729
:1040F0000DD508215046FEF738FC022028802CA060
:1041000001F090FDC821684602F08CFB05E02E808E
:10411000012208215046FEF72FFC207C00070DD518
:1041200010215046FEF721FC0320288024A001F036
:1041300079FDC821684602F075FB05E02E8001225A
:1041400010215046FEF718FC207CC0060DD5A9F8BA
:1041500000701FA001F066FD20215046FEF705FC0F
:10416000C821684602F05EFB06E0A9F80060012263
:1041700020215046FEF700FC5946684602F052FBEB
:1041800083E70000FC000020B852002070480020A7
:104190000018024072656D6F7465206F766572005D
:1041A0006D6F746F725F59206F766572000000004A
:1041B0006D6F746F725F50206F7665720000000043
:1041C0006D6F746F725F42206F7665720000000041
:1041D0004A593631206F766572000000F0EE401AC1
:1041E00030EEE10ABDEEC00A10EE100A002800DA37
:1041F000404200EE100AB8EEC00AB4EEC10AF1EE79
:1042000010FA02DDB0EE610A7047B0EE600A704746
:104210002DE9F04186B00025142232496846FCF7AA
:1042200072F86420FEF796FA752000F063F82E4CC1
:104230006E46207006EB4500417816F8150000F038
:10424000AFF80120FEF786FA6D1CEDB20A2DF1D30E
:10425000264E002506F1340706F14C08FFF784FDD1
:10426000B6F90C00052D00EE100A07EB8500B8EE3C
:10427000C00A80ED000AB6F90A0000EE900A08EBC9
:104280008500F8EEE00AC0ED000A94ED031A30EE66
:10429000010A84ED030A94ED041A70EE810AC4ED5C
:1042A000040A17D1B1EE081A1048C0EE011A1A30EC
:1042B000BDEEE10A10EE101A80EE810A8181BDEE9A
:1042C000C00A10EE101A9FED0A0A418184ED030A1C
:1042D00084ED040A6D1CEDB2062DBFD306B000209C
:1042E000BDE8F081FC780008B80000205C4900209F
:1042F00000000000F8B5104E044600224021304670
:10430000FEF73AFB44F080000C4C3725E21C20718C
:104310000123511C0A480095FEF706FFE21C012309
:10432000511C07480095FEF7FFFE01224021304650
:10433000FEF722FBE078F8BD00140240B800002030
:1043400068040020F8B5134F15460E4604460022B7
:1043500040213846FEF710FB0F4944F08000372417
:1043600088712C31A1F127020870012326390B48EE
:104370000094FEF7D9FE08492B4632462C310748F7
:104380000094FEF7D1FE012240213846FEF7F4FAF0
:104390000020F8BD00140240B8000020680400208E
:1043A000F8B5114F0E460446002240213846FEF76C
:1043B000E3FA04F07F000D4C3725621CA070012346
:1043C000511C0B480095FEF7AFFEA670621C01233E
:1043D000511C07480095FEF7A7FE012240213846F0
:1043E000FEF7CAFA0020F8BD00140240B800002011
:1043F000680400207FB500241548009401940294BD
:104400001249039401604FF48031C0E90114012581
:104410000461057680F820400E49C0E90A14C561A0
:10442000C46080F830504561FDF74BFA08B1FCF7E5
:10443000E5FD0920CDE90005694602940448FDF731
:104440008BF9002801D0FCF7D9FD7FBD0020014089
:104450001C0100200100000F0F4810B50D4901603C
:104460000621416000214FF480328160C0E90312CF
:104470004FF440124261017641768176C176017730
:104480004177FDF712FE002803D0BDE81040FCF78D
:10449000B5BD10BD00640040C40100200F4810B538
:1044A0000D4901600621416000214FF48032816096
:1044B000C0E903124FF440124261017641768176E1
:1044C000C17601774177FDF7F0FD002803D0BDE804
:1044D0001040FCF793BD10BD00680040EC010020C7
:1044E000214808B5016841F480010160016801F4C8
:1044F00080010091016841F4001101600068002210
:1045000000F40010009005210E20FEF7C7FA0E20DF
:10451000FEF7B6FA002205211020FEF7BFFA1020A0
:10452000FEF7AEFA002205211120FEF7B7FA11209E
:10453000FEF7A6FA002205213920FEF7AFFA39204E
:10454000FEF79EFA002205213A20FEF7A7FA3A204C
:10455000FEF796FA002205213C20FEF79FFABDE8FF
:1045600008403C20FEF78CBA3038024010B5C0B08D
:104570001C2232496846FBF7C6FE0021684602F05D
:1045800067F92F4C2D491C2220601C3107A8FBF72E
:10459000BAFE002107A802F05BF9284960601C22DE
:1045A00038310EA8FBF7AFFE00210EA802F050F93B
:1045B000224920611C22543115A8FBF7A4FE0021DA
:1045C00015A802F045F91D49A0601C2270311CA8F5
:1045D000FBF799FE00211CA802F03AF91749E060A8
:1045E0001C228C3123A8FBF78EFE002123A802F0A9
:1045F0002FF9124920621C22A8312AA8FBF783FE5A
:1046000000212AA802F024F90C4960611C22C4315F
:1046100031A8FBF778FE002131A802F019F907490B
:10462000E0611C22E03138A8FBF76DFE002138A8BC
:1046300002F00EF9A06140B010BD0000E077000864
:10464000040000202DE9F04F87B014216846FBF7E5
:1046500073FE66480024016841F0100101600168A2
:1046600001F010010591016841F04001016001680D
:1046700001F040010591016841F00201016001680B
:1046800001F002010591016841F008010160016833
:1046900001F008010591016841F480710160016831
:1046A00001F480710591016841F0800101600168A9
:1046B00001F080010591016841F02001016001686D
:1046C00001F020010591016841F0010101600068DD
:1046D000DFF81CA100F001000590002240F60C015B
:1046E0005046FEF749F9DFF80C8142F2FE1700222E
:1046F00039464046FEF740F9DFF8FC9000227C2165
:104700004846FEF739F9DFF8F4B0002244F24001E0
:104710005846FEF731F90C2001250326CDE90005A6
:10472000CDE9024669465046FEF734F80097CDE9D8
:104730000154694640460394FEF72CF8304F84201C
:10474000CDE90007694602942E48FEF723F87C2045
:104750000090CDE90154694648460394FEF71AF8E3
:104760004020CDE90005CDE9024669465846FEF7EE
:1047700011F80420CDE90004694623480294FEF7AD
:1047800009F81020CDE90007694602941F48FEF79A
:1047900001F8E8020090CDE90154694650460394BF
:1047A000FDF7F8FFA8030090CDE90154694658468B
:1047B0000394FDF7EFFF002205210820FEF76EF9B4
:1047C0000820FEF75DF9002205210A20FEF766F9B0
:1047D0000A20FEF755F9002205211720FEF75EF9A1
:1047E0001720FEF74DF907B0BDE8F08F30380240D2
:1047F0000010024000180240001C02400014024059
:10480000000011100020024000040240000002409D
:10481000104810B50E4901604FF4827141600021CB
:104820008160C1604FF400720161C0E9051230225D
:10483000C0E90721416281620A21C162FEF7FEFBE5
:10484000002803D0BDE81040FCF7D8BB10BD000025
:1048500000500140680400201FB50021114800915C
:10486000019102910E4A039102605322C0E9012195
:104870000422C0E9032180218161FEF789FD08B18E
:10488000FCF7BCFB4FF48050009069460548FEF7EA
:10489000FEFD08B1FCF7B2FB0248FEF7E7FD1FBDC5
:1048A000001800408005002010B586B0002418488C
:1048B00000940194029403940494144905940160B3
:1048C0005321C0E901143121C0E903148021816121
:1048D000FEF75EFD08B1FCF791FB4FF480500090AD
:1048E00069460B48FEF7D3FD08B1FCF787FB04943B
:1048F00004A907480594FEF72AFD08B1FCF77EFBE2
:104900000348FEF7B3FD06B010BD000000040040F0
:10491000C004002010B58EB00024079408940994B8
:104920000A940B941C2168460C94FBF705FD28485B
:104930002649016040F24731C0E9011440F2CF71CD
:10494000C0E9031480218161FEF722FD08B1FCF764
:1049500055FB4FF48050079007A91D48FEF797FDBF
:1049600008B1FCF74BFB1A48FEF743FF08B1FCF710
:1049700045FB0B940BA916480C94FEF7E8FC08B114
:10498000FCF73CFB60200090C820CDE90104002228
:1049900069460F480494FEF7C4FE08B1FCF72EFBED
:1049A000042269460A48FEF7BCFE08B1FCF726FB64
:1049B000082269460648FEF7B4FE08B1FCF71EFB64
:1049C0000348FEF783FE0EB010BD0000000C00404F
:1049D000000500201CB50024104800940E490194E5
:1049E000016040F24731C0E901146321C1608021B8
:1049F0008161FEF7CDFC08B1FCF700FB009469462D
:104A000006480194FEF7A3FC08B1FCF7F7FA034847
:104A1000FEF72CFD1CBD00000010004040050020EA
:104A20000C4810B50A4901604FF4E13141600021A2
:104A300081600C22C160C0E904128161C161FEF78E
:104A400044FF002803D0BDE81040FCF7D7BA10BDE2
:104A500000780040C00500200C4810B50A490160EC
:104A60004FF4E1314160002181600C22C160C0E956
:104A700004128161C161FEF728FF002803D0BDE860
:104A80001040FCF7BBBA10BD007C004000060020BF
:104A90000C4810B50A4901600B4941600021816052
:104AA0000C22C160C0E904128161C161FEF70DFFF3
:104AB000002803D0BDE81040FCF7A0BA10BD0000EC
:104AC0000010014040060020A08601000C4810B5EF
:104AD0000A4901604FF4E1314160002181600C22FC
:104AE000C160C0E904128161C161FEF7EEFE0028D9
:104AF00003D0BDE81040FCF781BA10BD004400406F
:104B0000800600200C4810B50A4901604FF4E131DD
:104B10004160002181600C22C160C0E90412816102
:104B2000C161FEF7D2FE002803D0BDE81040FCF7BB
:104B300065BA10BD00480040C00600200C4810B502
:104B40000A4901604FF4E1314160002181600C228B
:104B5000C160C0E904128161C161FEF7B6FE0028A0
:104B600003D0BDE81040FCF749BA10BD0014014065
:104B700000070020FEE70000354C08B50025A571B0
:104B8000A580658000F074F802F05EFD0090314869
:104B9000314F324E808A3989DFF8C4A0401ADFF8DD
:104BA000C48070804FF0FF3B4FF00109594601204F
:104BB00002F0ECF9012845D1FCF78AFA98F80300D5
:104BC000012802D002283DD110E0B4F9020000F51E
:104BD0002070B0F5A06F35D8B4F9040000F5B470BA
:104BE000B0F5347F2ED86580A5802BE0B4F90200A3
:104BF00000F5FA72B2F57A7F24D81B4B4A4683F847
:104C00000090337853B9194B5B68B3F1864F00D1EC
:104C10003270CAF80800B4F90430BB60A3792BB134
:104C2000CAF80800B4F90400B8600BE033783BB16F
:104C3000CAF80800B4F90400B86088F8052001E05B
:104C400088F805500A21684601F0ECFDAEE7000047
:104C50002E4A0020C4460020784B0020F40000209B
:104C6000484B0020FC00002090520020A45200205D
:104C700010B5B7EE000A2DED028B01239FED0E8AD1
:104C800032220321B0EE481AF0EE480A0B4800F039
:104C90007FF8B0EE481AF0EE480ABDEC028B032113
:104CA0000648BDE81040B6EE000A41F2883341F2F2
:104CB0007072803000F06CB800000000484A00209C
:104CC0002DED028B82B0642001F0A5FD02F0BCFC4A
:104CD0009FED128A0090DFED120AB0EE481A9FEDA8
:104CE000110A114802F024F90F4C104DB0EE480A99
:104CF0000D48E56002F0F4F8D4ED010ABCEEE00ADC
:104D000010EE101ABCEEE00A10EE100AFCF777F96C
:104D1000C821684601F086FDE8E700000000C842AF
:104D2000000016430AD7233CA45200200000EC42A6
:104D300003480021016102898281416170470000BE
:104D4000884600207047000070B50024FCF79AF9EF
:104D50000D4B0E4DA3F114015FF0010003EB840233
:104D6000D2ED000A70EE600A10EE902AAA420A8A7A
:104D700000FA04F601DD324300E0B243641C24B2C1
:104D80000A82062CEADB70BD844800200000C8427D
:104D900030B4034C8467034CC46730BC01F072BE6E
:104DA000856A0008936A000810B50D4C01220421A1
:104DB0002046FDF7E1FD012208212046FDF7DCFD3C
:104DC000012210212046FDF7D7FD01222021204697
:104DD000FDF7D2FDBDE810403220FDF7BBBC00005E
:104DE000001C024010B50446FCF74CF9024800EBE9
:104DF000840080ED000A10BD8448002002488168CC
:104E0000491C8160704700007048002010B50446BE
:104E1000FCF738F9024800EB840080ED000A10BD71
:104E20009C4800202DE9F0472D4D14262D4F687A1F
:104E30002D4C40F2FF3240F233314FF001084FF079
:104E40000309012804D0022805D003280ED108E068
:104E500084F8008007E0022000F040F984F8009018
:104E60001CE04FF40071022000F038F9207801288E
:104E700002D0032812D022E0E888F968C0F58060EB
:104E800090FBF6F00844F860A888C0F5806090FBBD
:104E9000F6F11648C2681144C16010E0E888F9686C
:104EA000C0F5806090FBF6F00844F860A888C0F573
:104EB000806090FBF6F10E48026811440160287A88
:104EC000012806D0022807D000206071E070BDE8FC
:104ED000F08784F80580FAE784F80590F7E700008A
:104EE000104A0020784B0020FC000020604B00207E
:104EF000484B002018480188C1F30A0200F1500114
:104F00000A804278D308827843EA4213C3F30A0343
:104F10004B80C378920942EA8303027943EA8223F1
:104F2000C3F30A038B805308427943EAC213C3F3E5
:104F30000A03CB8093090B72C2F301124A72C28832
:104F40004A8102898A814289CA81027B0A74427B32
:104F50004A74C08948827047C04900200EB502F0EB
:104F600073FB4FF0FF3402902146012002F00EF84F
:104F700001281ED1FFF74AFFFFF7BCFF0020009079
:104F80000E4883890E4882890E48C178007900F066
:104F90008BF80D48427A017ACDE90012B0F902305F
:104FA000B0F90020B0F912100848FBF79FFEFFF798
:104FB00039FF012102A801F035FCD5E7C4460020E5
:104FC00000470020FC000020104A0020EC010020D7
:104FD00007480021018041808180C18001724172B7
:104FE00041818181C1810174417441827047000017
:104FF000104A002038B50B4600920446002280215A
:1050000000F008F8002804D0606D40F020006065D2
:10501000032038BD2DE9F0411D4617460E460446D3
:10502000DDF8188008E0681C06D0FDF7ABFCA0EBAB
:105030000800A8420BD255B12068806836EA00000B
:1050400030D00020B842EED10020BDE8F0812068C9
:10505000416821F0E00141606068B0F5827F0BD1CA
:10506000A068B0F5004F02D0B0F5806F04D1206881
:10507000016821F040010160A06AB0F5005F09D12C
:105080002068016821F4005101602068016841F442
:1050900000510160012084F85100002084F8500084
:1050A0000320D2E70120CDE7F0B40A4CFF26049D8F
:1050B00026706070A170100AE070180A2271607189
:1050C000FE20A57120722146F0BC0A230922024865
:1050D000FEF7ECBD3C4A0020000700202DE9F0411E
:1050E0008046CFB20E0AD5B2140AFF2001F044FF69
:1050F000FF2001F041FFFE2001F03EFF0B2001F0F8
:105100003BFF832001F038FF1C2001F035FF062013
:1051100001F032FF404601F02FFF202001F02CFF6C
:10512000202001F029FF384601F026FF304601F02B
:1051300023FF284601F020FF204601F01DFF08EB69
:105140000600384420442844BDE8F041EE30C04316
:10515000C0B201F011BF01F071BB000030B593B0D7
:1051600030216846FBF7E8F814210CA8FBF7E4F8B7
:1051700022480025016841F080510160006800F07C
:10518000805011901E48016841F440410160006860
:10519000022400F44040119001200090000401908E
:1051A0008001CDE906400C2008904FF4A870CDE9AD
:1051B000090404200B906846FDF7B2FD0CA90F20EE
:1051C00081E831004FF4A0500F90E00210900521CB
:1051D0000CA8FDF795FCFDF74BFD4FF47A71B0FB81
:1051E000F1F0FEF79EF80420FEF78FF800220F2161
:1051F000501EFDF753FC13B030BD00004038024094
:10520000007000401048016841F4700101600F48CF
:10521000016841F0010101600C4A0021083211606F
:1052200002680B4B1A400260031D0A4A1A600268AA
:1052300022F48022026005480C30016002495806C1
:10524000803908607047000088ED00E000380240B7
:10525000FFFFF6FE10300024044900224A808A80B5
:10526000CA808A60024ACA60704700007048002005
:105270004005002070B50024FBF704FF0D4B0E4DD8
:10528000A3F12C015FF0010003EB8402D2ED000AD0
:1052900070EE600A10EE902AAA424A8A00FA04F6DA
:1052A00001DD324300E0B243641C24B24A82062C82
:1052B000EADB70BD9C4800200000C8420148FEF7B0
:1052C00052B90000580900200148FEF74CB900000F
:1052D000C0040020034A1060101D0160001D016021
:1052E00070470000340C00400148FEF73CB9000054
:1052F000400500200148FEF736B900008005002077
:10530000F0B50268254C264D264E274F274B4FF00F
:10531000804CA04209D0604507D0A84205D0B042D9
:1053200003D0B84201D0984204D122F0700E4A68EE
:1053300042EA0E02A0421BD0604519D0A84217D005
:10534000B04215D0B84213D0984211D0184DA8429F
:105350000ED0184DA8420BD0174DA84208D0174DBB
:10536000A84205D0164DA84202D0164DA84203D13E
:1053700022F44075CA682A434D6922F080022A430C
:1053800002608A68C2620A688262A04201D09842C2
:1053900001D10969016301214161F0BD00000140B3
:1053A0000004004000080040000C004000040140E0
:1053B0000040014000440140004801400018004006
:1053C000001C00400020004010B501F01F03012127
:1053D000046A99408C430462016A9A401143016255
:1053E00010BD10B5846842EA032224F47F440A43C6
:1053F0002243826010BD826822F070020A4342F0AC
:105400000701816070470000F0B5026A22F00102D6
:105410000262036A42688469124E24F073050C68C4
:105420002C4323F002058B682B430D4DA84201D07D
:10543000B04205D123F00807CB683B4323F00403B7
:10544000A84201D0B04205D14D6922F44072154303
:105450008A692A4342608461496841630362F0BDFE
:105460000000014000040140F0B5026A22F0100281
:105470000262026A436884690D6824F4E64444EADF
:1054800005248D6822F0200242EA05120F4D104ECD
:10549000A84201D0B04206D1CF6822F0800242EA91
:1054A000071222F04002A84201D0B04207D14D6954
:1054B00023F4406343EA85038D6943EA850343602F
:1054C0008461496881630262F0BD00000000014010
:1054D00000040140F0B5026A22F480720262026A9E
:1054E0004368C46922F4007224F073050C68124EFC
:1054F0002C438D6842EA05220E4DA84201D0B042ED
:1055000006D1CF6822F4006242EA072222F48062C8
:10551000A84201D0B04207D14D6923F4405343EA79
:1055200005138D6943EA05134360C4614968C1638B
:105530000262F0BD000001400004014030B5026A83
:1055400022F480520262046A4268C3690D6823F43F
:10555000E64343EA05238D6824F4005444EA053405
:10556000084DA84202D0084DA84204D14D6922F44A
:10557000804242EA85124260C36149680164046264
:1055800030BD0000000001400004014010B5036A76
:10559000046A24F001040462846924F0F00444EAFB
:1055A000021423F00A020A438461026210BD10B59E
:1055B000036A23F0100303628369046A23F47043CF
:1055C00043EA023224F0A00343EA0111826101623E
:1055D00010BD000038B53B4D29680868C968C0F3A4
:1055E000001001F0100100286BD0002969D00420C0
:1055F000FFF7F8FB344C2068016821F001010160DD
:105600003249206888420AD03149884207D02F4960
:105610006031884203D02E496031884201D1202177
:1056200022E02A4A1832D11490421DD0284A18325A
:10563000904219D0254A7832904215D0244A7832C7
:10564000904211D0214A8902303290420CD0204A37
:105650003032904208D01D4A9032904204D01C4A09
:105660009032904200D089011A4A9160184A48321B
:10567000904202D9164A121F05E0144AA8329042FD
:1056800003D9134A083A116008E0104B0F4A483317
:10569000103A984201D9D16000E0916040680E490B
:1056A000C0F10B000880FEF7BBFB21680B204860AF
:1056B0002068016841F001010160286801684068C4
:1056C000009038BD00060020A007002010600240B6
:1056D0001064024028000020F20000202DE9F04173
:1056E000044600680169E26821F4405111430161F8
:1056F0002169A068E269084361691143226808438F
:10570000D16849F20C6399430143D1602068416933
:10571000A26921F4407111434161E2696425B2F547
:10572000004F9748974922684FF032083FD08A428D
:1057300001D082427CD1FDF7B1FA00EBC00101EB50
:10574000001061688900B0FBF1F6FDF7A7FA00EBE5
:10575000C00101EB001061688900B0FBF1F0B0FB03
:10576000F5F06FF01801484306EB800108EB0110DB
:10577000B0FBF5F000F0F006FDF790FA00EBC00189
:1057800001EB001061688900B0FBF1F0B0FBF5F0AF
:1057900006EB0016FDF782FA00EBC00101EB0010EA
:1057A00061688900B0FBF1F7FDF778FAD2E08A4230
:1057B00001D082423DD1FDF771FA00EBC00101EB4F
:1057C000001061684900B0FBF1F0B0FBF5F0060194
:1057D000FDF764FA00EBC00101EB001061684900BD
:1057E000B0FBF1F7FDF75AFA00EBC00101EB001036
:1057F00061684900B0FBF1F0B0FBF5F06FF0180103
:10580000484307EB800108EBC100B0FBF5F000F066
:10581000F80006EB4006FDF741FA00EBC00101EB92
:10582000001061684900B0FBF1F7FDF737FA3CE082
:1058300055E0FDF723FA00EBC00101EB00106168B1
:105840004900B0FBF1F0B0FBF5F00601FDF716FAE8
:1058500000EBC00101EB001061684900B0FBF1F7FB
:10586000FDF70CFA00EBC00101EB00106168490084
:10587000B0FBF1F0B0FBF5F06FF01801484307EB17
:10588000800108EBC100B0FBF5F000F0F80006EB7A
:105890004006FDF7F3F900EBC00101EB0010616871
:1058A0004900B0FBF1F7FDF7E9F900EBC00101EBAE
:1058B000001061684900B0FBF1F0B0FBF5F06FF04B
:1058C0001801484307EB800108EBC100B0FBF5F07D
:1058D00000F00700216830448860BDE8F081FDF7E2
:1058E000CDF900EBC00101EB001061688900B0FB4D
:1058F000F1F6FDF7C3F900EBC00101EB00106168A0
:105900008900B0FBF1F0B0FBF5F06FF018014843EF
:1059100006EB800108EB0110B0FBF5F000F0F0069B
:10592000FDF7ACF900EBC00101EB001061688900E4
:10593000B0FBF1F0B0FBF5F006EB0016FDF79EF9B9
:1059400000EBC00101EB001061688900B0FBF1F7CA
:10595000FDF794F900EBC00101EB001061688900CC
:10596000B0FBF1F0B0FBF5F06FF01801484307EB26
:10597000800108EB0110B0FBF5F000F00F00A9E783
:1059800000140140001001402DE9F04198461746EF
:105990000E460446069D1DE0681C1BD02DB1FCF789
:1059A000F1FFA0EB0800A84214D92068C16821F4D7
:1059B000D071C1602068416921F00101416120205E
:1059C00084F8390084F83A00002084F83800032075
:1059D000BDE8F0812068006836EA000004D00020AD
:1059E000B842D9D00020F3E70120F9E7F8B53F4DE0
:1059F00029680868C968C0F3001001F01001002888
:105A000072D0002970D03A4C2068016821F0010161
:105A100001600020FFF7E6F93649206888420AD085
:105A20003549884207D033496031884203D0324932
:105A30006031884201D1202122E02E4A1832D1144F
:105A400090421DD02C4A1832904219D0294A7832FF
:105A5000904215D0284A7832904211D0254A8902C6
:105A6000303290420CD0244A3032904208D0214A41
:105A70009032904204D0204A9032904200D0890166
:105A80001E4E1D4A4832B160904202D91A4A121F76
:105A900005E0184AA832904203D9174A083A116023
:105AA00008E0144B134A4833103A984201D9D160A8
:105AB00000E09160122141602068016841F001011D
:105AC00001600F480D49006801F000FC306838B1F2
:105AD0000C494FF080500860BFF34F8FBFF36F8FBA
