:020000040800F2
:10000000D0560020810200081D4D0008833D0008E5
:10001000814B0008970C0008F55A0008000000000A
:10002000000000000000000000000000C101000806
:1000300009100008000000001D02000841500008DF
:100040009B0200089B0200089B0200089B0200081C
:100050009B0200089B0200089B0200089B0200080C
:100060000B1000089B020008111000089B020008FA
:100070009B0200089B0200081D0F00089B0200085D
:10008000290F0008350F00089B0200089B0200089A
:10009000990C00089B0200089B020008171000083A
:1000A0009B020008A55100089B0200089B02000863
:1000B0009B020008B15100089B0200089B02000847
:1000C0009B0200089B0200089B0200089B0200089C
:1000D0009B020008C15800089B0200089B02000810
:1000E0009B0200089B0200089B020008DD510008EB
:1000F0009B0200089B0200089B0200089B0200086C
:100100009B0200089B0200089B0200089B0200085B
:100110009B0200089B020008D15100089B020008C6
:100120009B020008410F00084D0F00089B020008C9
:10013000590F00089B0200089B0200089B02000860
:10014000A50C00089B0200089B0200089B02000807
:100150009B0200089B0200089B020008DD59000872
:100160009B0200089B0200089B0200089B020008FB
:100170009B0200089B0200089B0200080000000090
:100180009B0200089B0200089B020008A154000883
:100190009B0200089B0200089B0200089B020008CB
:1001A00000000000000000009B020008DFF80CD0F7
:1001B00000F09AFB004800478D670008D0560020E9
:1001C0002C4B19680868B0E8F04F80F30988BFF33A
:1001D0006F8F4FF0000080F311887047000000001F
:1001E00008480068006880F308884FF0000080F33A
:1001F000148862B661B6BFF34F8FBFF36F8F00DF15
:1002000000BF00BF08ED00E0DFF80C00016841F41A
:1002100070010160704700BF88ED00E0EFF30980D6
:10022000BFF36F8F134B1A681EF0100F08BF20ED3D
:10023000108A20E9F04F106009B44FF0500080F3AD
:100240001188BFF34F8FBFF36F8F07F0C3F84FF0E4
:10025000000080F3118809BC19680868B0E8F04F05
:100260001EF0100F08BFB0EC108A80F30988BFF3AE
:100270006F8F704758000020EFF305807047000033
:100280000648804706480047FEE7FEE7FEE7FEE730
:10029000FEE7FEE7FEE7FEE7FEE7FEE7ED500008BB
:1002A000AD0100082DE9F05F0546002092469B460F
:1002B00088460646814640241BE02846414647467C
:1002C000224600F0B9F953465A46C01A914110D35C
:1002D00011461846224600F0A0F92D1A67EB0108D6
:1002E0004F4622460120002100F097F917EB000944
:1002F0004E41201EA4F10104DFDC484631462A4667
:100300004346BDE8F09F40EA01039B0703D009E0A4
:1003100008C9121F08C0042AFAD203E011F8013BF1
:1003200000F8013B521EF9D27047D2B201E000F84A
:10033000012B491EFBD270470022F6E710B5134689
:100340000A4604461946FFF7F0FF204610BD2DE986
:10035000FE4F804681EA0300C00F0C46009021F05A
:10036000004123F00045B8EB0200A94105D2404608
:10037000214690461C460B46024623F0004010439F
:1003800047D0270DC7F30A00C3F30A510290401A61
:10039000019040286BDAC3F3130040F4801B0098EF
:1003A000924620B10023D2EB030A63EB0B0B0198BA
:1003B0005946C0F14002504600F02FF906460D465E
:1003C00050465946019A00F047F910EB0800614188
:1003D000002487EA115284EAE7731A4340D0009A56
:1003E00062B3019A012A4FEA075215DC001B61EB48
:1003F00002014FF0004202EA0752CDE90042001C20
:1004000041F5801132462B4600F07EF903B0BDE87D
:10041000F08F40462146F9E7001B61EB0201001C0A
:1004200041F5801300185B412018A2F5001747EB37
:10043000030140EAD570B6196D4111E06D084FEA2D
:10044000360645EAC0754FEA0752001B61EB020110
:10045000001C41F5801149084FEA30000019514154
:1004600032462B4603B0BDE8F04F00F03EB900988D
:10047000012240000023D0EB020263EBE0730098FE
:1004800021464FEAE074B8EB000061EB0401E9E7B4
:1004900083F000435BE781F0004158E72DE9F04D20
:1004A00081EA030404F0004B21F0004514464FF0AC
:1004B000000A23F0004150EA050220D054EA01026C
:1004C0001DD0C5F30A570246C5F31303C1F3130049
:1004D000C1F30A5640F4801543F48013A7EB0608D5
:1004E000101BD64608F2FD3873EB050002D308F165
:1004F000010801E092185B41B8F1000F03DA002017
:100500000146BDE8F08D00204FF480110646844678
:100510000EE0171B73EB050705D3121B63EB0503F6
:1005200006434CEA010C49084FEA300092185B413F
:1005300050EA0107EDD152EA030012D082EA04002A
:1005400083EA0501084305D0101BAB4106D2012206
:10055000002306E000224FF0004302E06FF00102AA
:1005600053101AEB06004CEB085110EB0A0041EB5C
:100570000B01BDE8F04D00F0B8B80EB5C10F80EA30
:10058000E0700844CA07002140F233438DE80E00B2
:100590000A460B4600F0B8F803B000BD0EB540F2B5
:1005A000334102910021CDE900110A460B4600F0CB
:1005B000ABF803B000BD01F0004330B421F00041BE
:1005C00050EA010206D00A0DA2F56072C1F31301D0
:1005D000002A02DC30BC00207047440F44EAC1040A
:1005E000C100E01830BC00EBC25000F047B830B595
:1005F0000B46014600202022012409E021FA02F5E1
:100600009D4205D303FA02F5491B04FA02F528447A
:10061000151EA2F10102F1DC30BD202A04DB203AD4
:1006200000FA02F1002070479140C2F1200320FA45
:1006300003F3194390407047202A04DB203A21FA43
:1006400002F00021704721FA02F3D040C2F12002EB
:100650009140084319467047202A06DBCB17203A01
:1006600041FA02F043EAE07306E041FA02F3D040B7
:10067000C2F1200291400843194670470029A8BFE3
:100680007047401C490008BF20F00100704710B4BB
:10069000B0FA80FC00FA0CF050EA010404BF10BC70
:1006A000704749B1CCF1200421FA04F411FA0CF19D
:1006B00018BF012121430843A3EB0C01CB1D4FEAD6
:1006C00000614FEA102042BF002010BC704700EBD1
:1006D000C35010440029A4BF10BC7047401C4900FF
:1006E00008BF20F0010010BC704710B5141E73F154
:1006F000000408DA401C41F1000192185B411A43E2
:1007000001D120F0010010BD2DE9F04D92469B462D
:1007100011B1B1FA81F202E0B0FA80F220329046D3
:10072000FFF77BFF04460F4640EA0A0041EA0B014F
:1007300053465A46084313D0114653EA010019D0D4
:10074000C8F140025046FFF777FF05460E46504677
:1007500059464246FFF761FF084305D0012004E0F7
:1007600020463946BDE8F08D0020054346EAE07694
:100770002C4337430A986305E40AA0EB08000022E3
:10078000FD0A44EA47540A3002D500200146E9E751
:10079000010510196941DDE9084500196941BDE805
:1007A000F04DA2E72DE9FE4F81EA030404F0004476
:1007B00021F0004100944FF0000B23F0004350EA79
:1007C00001045ED052EA03045BD0C3F30A54C1F3C0
:1007D0000A552C44A4F2F3340194A0FB0254C1F353
:1007E000130141F48011C3F3130343F4801301FB9D
:1007F000024400FB034E840A970A44EA815447EA04
:100800008357A4FB076802958D0A05FB07854FEA0D
:10081000932C04FB0C542705029D4FEA065847EA27
:100820001637B5EB08056EEB070C870E920E47EAFC
:10083000811742EA8312A7FB0201B6EB0B0164EBBE
:1008400000042B0D43EA0C335E1844EB1C50DA46CF
:100850005146E7FB0201C5F313044FEA0B3343EAA9
:1008600014534FEA0432019C43EA0603A4F10C043A
:100870000294009CCDE900B4FFF746FF03B0BDE849
:10088000F08F00200146F9E7C1F30A52C1F31301CA
:1008900040F2FF3341F480119A4202DA002001460F
:1008A000704740F233439A42A2F2334202DC524292
:1008B000FFF7C2BEFFF7B1BE30B5041E71F10004F0
:1008C00004DB4FF00044404264EB0101141E73F15D
:1008D000000405DB1C464FF00043524263EB040367
:1008E000994208BF904230BD064C074D06E0E068D3
:1008F00040F0010394E8070098471034AC42F6D367
:10090000FFF758FC88790008A8790008D0ED000AA4
:10091000F4EEC00AF1EE10FA01DD80ED000AD0ED30
:10092000000AB1EE400AF4EEC00AF1EE10FA01D26C
:1009300080ED000A704710B50146806B026C12F022
:10094000500F05D0026CD20626D500F0E3FF10BD93
:10095000016C41F40071016401688A6812F0405F23
:1009600017D1027EAAB9CA6A12F4700F02D08A683F
:1009700052050ED44A6822F020024A60016C21F42C
:1009800080710164016CC90403D4016C41F0010160
:10099000016400F0BDFF10BD806BC26CBDE810406B
:1009A0000846104710B5806B40210164416C41F04E
:1009B0000401416400F0AEFF10BD10B5806B00F083
:1009C000A8FF10BD464910B54A6822F440324A607B
:1009D0004A6843681A434A6001684A6822F4807290
:1009E0004A6001684A68036942EA03224A60016872
:1009F0004A6822F040724A6001684A6883681A4374
:100A00004A6001688A6822F400628A6001688A6824
:100A1000C3681A438A60816A6FF07062D1420168CC
:100A20008A6822F070628A6001688A680CD0836AE2
:100A30001A438A6001688A6822F040528A6001681D
:100A40008A68C36A1A4301E022F040528A60016852
:100A50008A6822F002028A6001688A68037E42EA9C
:100A600043028A6090F82010002901684A680FD07C
:100A700042F400624A6001684A6822F460424A60B7
:100A800001684A68174C436A04EB43331A4301E098
:100A900022F400624A600168CA6A22F47002CA62E3
:100AA0000168CA6A838B104C04EB03531A43CA6271
:100AB00001688A6822F400728A6001688A6890F886
:100AC000303042EA43228A6001688A6822F48062F8
:100AD0008A6001688A68406942EA8020886010BDA7
:100AE0000023014000E0FFFF0000F0FF1CB50C4BAD
:100AF00008224FF400741A6100229A601C60DA60C8
:100B00000B0A8DF800308DF801108DF802208DF859
:100B10000320019201236A46014901F093F81CBDAC
:100B20007447002010B503F093FD03F0DFFC03F0E1
:100B3000C1FE03F0F5FE03F095FC03F0B5FC03F0F5
:100B40004FFF03F08FFE03F05BFC03F067FE03F042
:100B50006DFF03F087FF03F0A1FF03F0BDFF03F07B
:100B6000D7FF03F0F1FF04F00BF9214800F0F8F88B
:100B7000204800F0F5F81E4801F04EFC1D4801F039
:100B80004BFC1D4800F03EFF03F048FB04F0D8FA90
:100B90001A480068C16841F01001C1601848006837
:100BA000C16841F01001C16016480068C16841F099
:100BB0001001C16012221449104800F061F80B22A4
:100BC00012490F4800F05CF8092211490D4800F065
:100BD00057F80A220F49084800F08AFF022104480A
:100BE00001F01EF8BDE810400221024801F018B8DB
:100BF000CC010020F4010020240100204806002040
:100C00000806002008070020C8490020DA49002013
:100C10002C4A0020F047002070B5044690F83900B7
:100C2000202801D0212829D121B31AB394F8380003
:100C3000012823D0012084F83800A162A285002574
:100C4000E56394F83900212816D0222084F8390071
:100C500008461346666B216802463046091D01F0BE
:100C600049FD2068416941F04001416184F83850F4
:100C7000002070BD012070BD2320E7E7022070BD79
:100C800010B50446FFF7C8FF2068C16841F01001A5
:100C9000C160002010BDFEE7014801F032B900003C
:100CA000CC010020014801F02CB90000F401002023
:100CB000704770471CB5144B08241C6100249C60CD
:100CC000DC604FF490741C600B891C0A8DF80040A6
:100CD0008DF801308B8A1B0A8DF80230097D8DF862
:100CE0000310D1788DF8041011788DF805109178E3
:100CF0008DF8061051788DF8071001236A460249D5
:100D000000F0A0FF1CBD0000A44700202DE9FC411D
:100D1000124CDDE90867082525610025A560E5601E
:100D20004FF4887525600C0A8DF800408DF801108D
:100D3000110A8DF80210190A8DF804108DF805308B
:100D40008DF803208DF806608DF8077001236A4640
:100D5000024900F077FFBDE8FC8100008C470020CD
:100D600000B58BB000210122CDE906120391089253
:100D70000E22094B0491009101910291099298422F
:100D800000D1059104492831884200D10592694675
:100D900000F0BCFF0BB000BDCC01002008B5642002
:100DA00005F009FD06F05AFC234C0090A07CC0071A
:100DB00006D022A004F0B8FE6421684605F002FDCA
:100DC000A07C800708D521A004F0AEFE04F0CCF88A
:100DD0006421684605F0F6FCA07C400709D521A0F7
:100DE00004F0A2FE254800F085F86421684605F06D
:100DF000E9FCA07C000706D521A004F095FE642143
:100E0000684605F0DFFCA07CC00606D520A004F0F3
:100E10008BFE6421684605F0D5FCA07C800606D5D3
:100E20001FA004F081FE6421684605F0CBFC64211C
:100E3000684605F0C7FCB9E778480020746573740C
:100E40005461736B204747200A09000052656D6F9B
:100E50007465446174615461736B204747200A09CB
:100E60000000000047696D62616C436F6E74726CC4
:100E70005461736B204747200A090000CC01002011
:100E800047756E5461736B204747200A09000000C4
:100E90004C65645461736B204747200A09000000C9
:100EA000764F75744C696E65436865636B54617306
:100EB0006B204747200A09007CB50D4B40F2FF1418
:100EC00008251C6000249C60C3E903450B0A8DF8CB
:100ED00000308DF80110110A8DF802108DF80320F2
:100EE00001236A460249019400F0ACFE7CBD00007B
:100EF000444700201CB5084940F2FF1208230A604D
:100F000000228A60C1E903230092019201236A460C
:100F100000F098FE1CBD000044470020014801F08D
:100F2000AFBA000048070020014801F0A9BA00004C
:100F300068080020014801F0A3BA0000A8070020BB
:100F4000014801F09DBA0000C8080020014801F0E6
:100F500097BA000008080020014801F091BA00008B
:100F60006C01002001681823CAB2103AB2FBF3F2F8
:100F7000054B6FF30901032A9B5CC36500D9091D6A
:100F80008165084670470000F078000810B50146FA
:100F900000208B698A6A4FF0C07453B1B3F5005FCB
:100FA00015D072B1012A0CD0022A0AD0032A09D125
:100FB00004E01AB1012A06D0022A03D1C96AC90184
:100FC00000D5012010BDC96AA142FAD010BD002A87
:100FD000F7D0012AF2D0022AF3D0032AF3D010BDB1
:100FE00030B50468256825F48025256004686360B1
:100FF0008368402B036803D099600068C26030BDED
:101000009A600068C16030BD7047042001F0E6BB03
:10101000102001F0E3BB802001F0E0BB704704F03A
:10102000CDB8000010B50F4C2DED028BA068FFF776
:10103000A4FA41EC180BE0680068406AFFF7AEFACA
:101040009FED091B53EC112BFFF728FA53EC182BDB
:10105000FFF77DF9FFF7AFFABDEC028B00EE100A47
:1010600010BD00007848002000000000000059403A
:101070000B480C4903780B70027A0A73FF2B0ED1D0
:10108000FE2A0CD1B0F8012052BA4A80B0F80320F1
:1010900052BA8A8042798A71C08840BA0881704702
:1010A0002C4A0020364A00202DED048B82B04FF0F0
:1010B0000008FE4CA4F80480A4F8028005F04AFA67
:1010C00006F0CCFA08264FF0020BDFF8E493F94D56
:1010D000DFF8E4A39FEDF98B9FEDFA9ACDF80000BD
:1010E00002F050FEF14AF2490832F748FFF7E2FDFC
:1010F000022003F077FE2078012804D002280ED0C9
:10110000032818D028E0E9480830067068690028EC
:1011100000DC404264281FDC84F800B01CE0E34897
:1011200008300670E088401C80B2E080642813D943
:101130000320207003E0DD49092008310870D9F848
:101140001400002800DC4042642805DCD74984F8FC
:101150000080083181F800B0D44F083738780A2869
:1011600079D2DFE800F078052579CF787878FEFD30
:10117000D64890ED000AD648F8EEC00A90ED050A70
:10118000D44805F05FFBBAF90800FFF7F6F953EC15
:10119000182BFFF783F9FFF70EFA00EE100ACD487F
:1011A000D0ED140A803005F04DFBCA48803074E061
:1011B000C648103890ED000A3030F8EEC00A99EDBC
:1011C000050AB8EEC00A05F03DFBBAF90800FFF7C2
:1011D000D4F953EC182BFFF761F9FFF7ECF900EEA7
:1011E000100ABA482030D0ED140A803005F02AFBEE
:1011F000B648A03090ED140ABDEEC00A10EE100AF9
:101200006080B248103090ED000A00F58870F8EE6A
:10121000C00A95ED050AB8EEC00A05F013FBBAF94D
:101220000C00FFF7AAF953EC182BFFF737F9FFF77B
:10123000C2F900EE100AA848D0ED140A803005F07B
:1012400001FBA548803090ED140ABDEEC00A10EEF7
:10125000100AA080AFE024E19C4890ED000A9C4871
:10126000F8EEC00A90ED050A9848203005F0EAFA39
:10127000BAF90800FFF781F953EC182BFFF70EF9C4
:10128000FFF799F900EE100A90482030D0ED140ACB
:10129000803005F0D7FA9048803890ED140ABDEE02
:1012A000C00A10EE100A60808848103090ED000AE5
:1012B0008948F8EEC00A95ED050AB8EEC00A05F0B7
:1012C000C1FABAF90C00FFF758F953EC182BFFF7E5
:1012D000E5F8FFF770F900EE100A7F48D0ED140A28
:1012E000803005F0AFFA7C48803090ED140ABDEEF6
:1012F000C00A10EE100AA0807448D9F814101038F3
:101300000160CEE07148103890ED020A3030F8EEFE
:10131000C00A99ED050AB8EEC00A05F093FABAF9C9
:101320000800FFF72AF953EC182BFFF7B7F8FFF77F
:1013300042F900EE100A65482030D0ED140A8030E2
:1013400005F080FA6448803890ED140ABDEEC00ABA
:1013500010EE100A60805D48103090ED020A01E046
:1013600057E031E0F8EEC00A95ED050A5A48B8EEAC
:10137000C00A05F067FABAF90C00FFF7FEF853EC63
:10138000182BFFF78BF8FFF716F900EE100A5248FA
:10139000D0ED140A803005F055FA4F48803090EDBA
:1013A000140ABDEEC00A10EE100AA0804748D9F812
:1013B000141010380160464890ED050A4348BDEE10
:1013C000C00A80ED000A6CE095ED050AF0EE490ACE
:1013D0004248B8EEC00A05F035FABAF90C00FFF73A
:1013E000CCF853EC182BFFF759F8FFF7E4F800EEB0
:1013F000100A3A48D0ED140A803005F023FA374835
:10140000803090ED140ABDEEC00A10EE100AA080E4
:1014100047E095ED050AF0EE490A3048B8EEC00AFB
:1014200005F010FABAF90C00FFF7A7F853EC182BE7
:10143000FFF734F8FFF7BFF800EE100A2748D0EDA9
:10144000140A803005F0FEF92448F0EE490A803095
:1014500090ED140ABDEEC00A10EE100AA08099EDBE
:10146000050A1F48B8EEC00A05F0ECF9BAF9080001
:10147000FFF783F853EC182BFFF710F8FFF79BF8F2
:1014800000EE100A1648D0ED140A803005F0DAF9A3
:101490001048803890ED140ABDEEC00A10EE100A14
:1014A0006080B8784FF0000201281BE0FA000020AD
:1014B00008470020CC460020644900206666666626
:1014C0006666304000000000F4010020604B002000
:1014D000BC480020804F0020804C0020804D002020
:1014E000804E00200FD0B4F902100A48FFF7E4FC48
:1014F000B4F9042000210848FFF7DEFC0521684606
:1015000005F060F9ECE500210248FFF7D5FC002268
:10151000F0E70000F4010020CC01002070B541F29A
:1015200088342DED028B41F270759FED0F8AB0EE7D
:10153000001A9FED0E0AF0EE480A23462A460321C0
:101540000B4803F011FCB0EE481ABDEC028B2346A9
:101550002A46BDE8704006480321DFED060AB7EED3
:10156000080A803003F000BC00000000CDCC4C3EE7
:1015700080510020CDCCCC3D08B54FF4FA6005F089
:101580001AF906F06BF80090FFF7C8FF794E0025B6
:101590004FF00108DFF8E0B1DFF8E0A1784C794FB7
:1015A00086F80780A946032003F01CFCFFF73AFDEC
:1015B000BDEEC00A87ED0C0AE07850B9F8EEC00A1B
:1015C00094ED020A704930EEC00A10EE100A88420B
:1015D00007DA05207071FFF725FDBDEEC00A87ED23
:1015E0000B0AA07804F02AFF70790B281DD2DFE8DF
:1015F00000F0062631484C578C8C8C8C6B00207880
:10160000A0B184F8029000BF97ED050AD4ED010A5D
:101610005A48B8EEC00AF8EEE00A05F013F99AED60
:10162000140ABDEEC00A10EE105A6EE003F06CFB17
:1016300084F802907869606084F80080E4E784F8B8
:1016400002805248606097ED050AB8EEC00ADFEDEF
:10165000500A09E00320A0704E48606097ED050A2B
:10166000B8EEC00ADFED4C0A444805F0EBF89AEDFD
:10167000140ABDEEC00A10EE105A48462070607081
:1016800043E0464D84F80280F7E7FFF7CBFCBDEE60
:10169000C00A5D46484687ED0C0A84F80290EDE7E3
:1016A000207820B184F8039084F80290ACE703F02E
:1016B0002BFB84F802907869606084F80080FFF763
:1016C000B1FC84ED020A9FE7607898B197ED0C0AAF
:1016D000D4ED030A3249B8EEC00A30EE600A10EECB
:1016E000100A88420FDD03F00FFB86F8078084F8AC
:1016F00002900AE084F80290FFF794FC84ED030A5C
:1017000084F8018001E04FF47A75B7F9000000EE2B
:10171000905A00EE100A1948F8EEE00AB8EEC00A36
:10172000803005F08FF81548803090ED140ABDEE3A
:10173000C00A10EE100A01B21A48FFF7D7F9B079C3
:10174000022804D07179022905D001280AD07079C5
:10175000012804D006E014488188C18002E01248C4
:10176000818801817079B0710A21684605F02AF8F4
:1017700019E70000020100200CFEFFFF805100204D
:101780000C010020904600200000C842106EFFFFB0
:1017900000F011C7184EFEFF00F4D8C724FAFFFF6F
:1017A0000000FA44CC0100208052002078B50024CB
:1017B000009490F83C20012A19D0012280F83C20A6
:1017C0000A6807230568092A13D9EE680A3A02EB6A
:1017D000420293409E43EE600B788A680A3B03EB1B
:1017E00043039A400368DD682A43DA6010E0022070
:1017F00078BD2E6902EB420293409E432E610B7826
:101800008A6803EB43039A4003681D692A431A61FF
:101810004A681F23072A13D205686E6B521E02EB1B
:10182000820293409E436E630A8893B20A79521EE5
:1018300002EB820293400268556B2B43536327E00F
:1018400005680D2A12D22E6BD21F02EB8202934042
:101850009E432E630B790A88DB1F92B203EB83034E
:101860009A4003681D6B2A431A6311E0EE6A0D3A31
:1018700002EB820293409E43EE620B790A880D3B95
:1018800092B203EB83039A400368DD6A2A43DA626B
:101890001B4B0568194A9D420AD10D68122D07D1CC
:1018A000556825F400055560556845F48005556078
:1018B00005689D421DD1134D0B68AB4201D0112B21
:1018C00017D1536823F480035360536843F4000333
:1018D00053600968A9420CD10B490C4A0968B1FB55
:1018E000F2F101EB8101490000E0491E009100295D
:1018F000FBD180F83C40002078BD0000002301406F
:1019000000200140120000105400002040420F004F
:1019100070477047704770B504004FF0000503D062
:10192000206C002610B107E0012070BD204600F0B9
:101930001DF8666484F83C60206CC00610D4206CEE
:1019400020F4885040F0020020642046FFF73AF867
:101950006664206C20F0020040F00100206400E08A
:10196000012584F83C60284670BD000070B586B043
:10197000064614216846FEF7DFFC1D4930688842A0
:1019800034D11C480025016841F480710160006871
:1019900000F48070059017481438016841F0020186
:1019A00001600068694600F0020005900220009086
:1019B0000320CDE90105104800F01CFF104C0F4832
:1019C000C4E900050015A560C4E90350800060610A
:1019D0008000A0618011C4E907052046656200F01F
:1019E0001FFE08B1FFF71AFBB463A66306B070BD13
:1019F000002001404438024000040240706402406C
:101A00006C01002018B50021009190F83C20012ABB
:101A100007D0012280F83C2002689368DB0702D0DF
:101A200011E0022018BD936843F0010393602A4A35
:101A30002A4B1268B2FBF3F202EB420200E0521EA4
:101A40000092002AFBD102689368DB0741D0036C47
:101A500040F20164A34343F48073036453685B055D
:101A600005D5036C23F4005343F480530364036CE3
:101A7000DB0404D5436C23F00603436400E04164B7
:101A800080F83C1016496FF0220313604968006823
:101A9000CA06144906D088421BD1816811F0405F04
:101AA00013D016E08842F8D00F4A904203D1D1F803
:101AB0000423D206F1D00D4A90420AD1D1F8041382
:101AC00001F01F011029E8D303E0816841F0804153
:101AD0008160002018BD00005400002040420F002B
:101AE000002301400020014000210140002201406C
:101AF000F8B50E4600210446009190F83C000128FC
:101B000007D0012084F83C0020688368DB0702D0FE
:101B100011E00220F8BD836843F001038360374879
:101B2000374B0068B0FBF3F000EB400000E0401ED4
:101B300000900028FBD120688368DB075CD0236C11
:101B400040F20165AB4343F4807323644068400571
:101B500005D5206C20F4005040F480502064206CA7
:101B6000C00404D5606C20F00600606400E061648D
:101B700084F83C10A16B2448224DC863A16B234814
:101B80000864A16B2248C86421686FF022000860D5
:101B90002068416841F0806141602068816841F4BB
:101BA000807181602168134632464C31A06B00F091
:101BB000C4FD68681749C006206806D088421BD15A
:101BC000816811F0405F13D016E08842F8D0124AC5
:101BD000904203D1D1F80423D206F1D00F4A9042AB
:101BE0000AD1D1F8041301F01F011029E8D303E052
:101BF000816841F0804181600020F8BD54000020E0
:101C000040420F000023014037090008BB090008CB
:101C1000A5090008002001400021014000220140E8
:101C200090F82020012A07D0022A05D0416A41F409
:101C30008021416201207047006842690A43426185
:101C400000207047F0B590F820500468A468012D7A
:101C500005D0022D03D0416A41F4802153E014F0F5
:101C6000406F01D1E5004BD5C4F30164022C03D9C8
:101C7000416A41F4000146E00125A5401D608D68E0
:101C80004FF4C0739DB1CE6835434E6845EAC60532
:101C9000066803EB0417F5514FF4C275076805EBAE
:101CA00004150E697E51097D012905D009E00E88D1
:101CB000CD6845EA4655EBE701684E5946F4807613
:101CC0004E511179D2F805504FF4C67641EA0525F8
:101CD000016806EB04168D511178D2F801204FF4FB
:101CE000C47541EA0221026805EB041551510068F0
:101CF00003EB0411425842F0010242500020F0BDB3
:101D0000416A41F4001141620120F0BD10B590F824
:101D10002020012A07D0022A05D0416A41F48021FF
:101D20004162012010BD3B48D0F8002242F0010280
:101D3000C0F80022D0F8002222F47C52C0F8002221
:101D4000D0F800224B6A42EA0322C0F800220A7D42
:101D500002F01F0301229A40D0F81C329343C0F8CE
:101D60001C32CB69B3B9D0F80C329343C0F80C32B3
:101D70008C894B6864F31F434C6900EBC404C4F8BE
:101D800040320C890B6864F31F434C6900EBC404B8
:101D9000C4F84432CB69012B16D1D0F80C3213436E
:101DA000C0F80C320C884B6864F31F434C6900EB9D
:101DB000C404C4F840320C89CB6864F31F434C69F7
:101DC00000EBC404C4F844328B69002BD0F8043211
:101DD0000ED01343C0F804320B69002BD0F8143234
:101DE00008D01343C0F81432096A012904D008E06E
:101DF0009343EFE79343F5E7D0F81C121143C0F883
:101E00001C12D0F8001221F00101C0F800120020CD
:101E100010BD000000640040704730B590F82040CD
:101E2000012C05D0022C03D0416A41F480215DE0F1
:101E30000468002955D02469A40754D04FF4D874FD
:101E4000056804EB01142D5915F00405956005682B
:101E50002D594ED0ED08556005682C59C4F3400447
:101E6000D4604FF4DA74056804EB01142D5905F0C1
:101E70000F05156105682D59C5F30725956105689E
:101E80002C59240C54614FF4DC72046802EB0112EB
:101E9000A4581C700468A458240A5C700468A458F0
:101EA000240C9C700468A258120EDA704FF4DE7293
:101EB000046802EB0112A4581C710468A458240A97
:101EC0005C710468A458240C9C710468A258120E1A
:101ED000DA71006881B1016941F0200101610020DF
:101EE00030BDE468A8E7416A41F400114162012075
:101EF00030BD6D0D1560AFE7C16841F02001C160D4
:101F0000EDE72DE9F05F0546006800244669D0F84A
:101F100004908768D0F80CB0D0F810A0D0F81880E2
:101F2000F10748D0F90714D001218160B80703D523
:101F3000284600F09EFA0CE0780702D54FF40064C2
:101F400007E0380702D54FF4805402E0284600F03D
:101F50008FFAF80516D529684FF480708860B805A7
:101F600003D5284600F087FA0CE0780502D544F442
:101F7000005407E0380502D544F4804402E02846C6
:101F800000F078FAF80316D529684FF4803088609D
:101F9000B80303D5284600F070FA0CE0780302D5A8
:101FA00044F4004407E0380302D544F4803402E0EE
:101FB000284600F061FA300707D55FEACB6004D508
:101FC0002968102044F40074C86070074FF00807B7
:101FD00007D55FEA0B7004D52868C760284600F073
:101FE00099F9B00706D52868C068800702D028464E
:101FF00000F092F9700607D55FEACA6004D5296837
:10200000102044F480640861B00607D55FEA0A70C6
:1020100004D528680761284600F0FAF9F00606D5CD
:1020200028680069800702D0284600F0F2F9B00362
:1020300008D55FEAC96005D52968102048602846A0
:1020400000F0E8F9F00307D55FEA097004D52868C5
:102050004760284600F012FA300446D55FEA49701E
:1020600040D5F00504D55FEAC87001D044F0010402
:10207000B00504D55FEA887001D544F0020470050C
:1020800004D55FEA487001D544F00404300529D531
:1020900018F0700F26D008F07000402815D006DC2C
:1020A000102809D020280AD0302816D10AE050285C
:1020B0000ED0602811D10EE044F008040DE044F089
:1020C00010040AE044F0200407E044F0400404E077
:1020D00044F0800401E044F480742868816921F0B0
:1020E00070018161296804204860002C05D0686A6D
:1020F000204368622846FFF78FFEBDE8F09F70B569
:10210000040003D094F8200010B104E0012070BD59
:10211000204600F081F82068016821F0020101608A
:1021200000F060FC0546052604E000F05BFC401B67
:102130000A2811D8206840688007F6D42068016812
:1021400041F00101016000F04DFC05460BE000F09C
:1021500049FC401B0A2806D9606A40F400306062DE
:1021600084F82060D2E720684068C007EFD0207E66
:102170000128206801683DD021F080010160607E67
:1021800001282068016838D021F040010160A07E5C
:1021900001282068016833D021F020010160E07E31
:1021A0000128206801682ED041F010010160207FD5
:1021B00001282068016829D021F008010160607FB2
:1021C00001282068016824D021F004010160D4E9CD
:1021D00002010843D4E90412114308436168491E0F
:1021E00008432168C86100206062012084F8200053
:1021F000002070BD41F08001C0E741F04001C5E71B
:1022000041F02001CAE721F01001CFE741F00801B9
:10221000D4E741F00401D9E7F0B587B004461421B2
:102220006846FEF789F8364B3648DFF8D0E0196883
:10223000D4F800C0334A03250226092710300024B1
:10224000491CF44522D11960012907D1016841F0E8
:1022500000710160006800F000700590106840F0A7
:10226000080010601068CDE9005600F00800CDE9C4
:10227000047069462448CDE9024500F0BBFA00220B
:102280000521142000F03AFC142033E0DFF87CE054
:10229000F44531D1D0F800C04CF0806CC0F800C0DB
:1022A000D0F800C001290CF0806CCDF814C0196082
:1022B00007D1016841F000710160006800F0007012
:1022C0000590106840F002001060106802AB00F04A
:1022D000020005904FF44050CDE9000683E8B000BD
:1022E00069460B4800F086FA00220521402000F0E4
:1022F00005FC402000F0F4FB07B0F0BD0064004096
:102300000000002030380240000C0240006800400D
:10231000000402407047000010B536490B24884283
:1023200031D1354B354A0021FFF777FD334800683E
:10233000A0F50070013811D0052848D1022002F024
:102340003DFD2F48816A4A1C82620A2902D841F663
:1023500058313AE08462284929483DE0032002F0E0
:102360002DFD2848816A4A1C82620A2904D8BDE8EA
:102370001040214904F0E9B88462BDE810401E49CC
:10238000204804F0C3B82049884220D11A4B1B4A88
:1023900008331C320021FFF740FD18481C3000684C
:1023A000B0F5A87F21D0B0F5B07F19D0A0F50070AE
:1023B00005380CD1012002F001FD1448816A4A1C45
:1023C00082620A2904D841F626510181818110BD1B
:1023D000094984620D480831BDE8104004F078B81E
:1023E000BDE810400848FEF764BCBDE81040064850
:1023F000FEF75EBCCC010020380000202809002038
:10240000CC46002090460020F40100200847002020
:10241000704770477047000070B5044690F8200080
:10242000012804D0606A40F40020606218E00220B5
:1024300084F820002068016821F00101016000F0AB
:10244000D1FA05460EE000BF00F0CCFA401B0A2886
:1024500008D9606A40F400306062052084F82000EA
:10246000012070BD20684068C007EDD1606270BD7A
:10247000704770477047704770477047704700005B
:102480002DE9F84304464FF00009CDF80090634869
:102490004FF41651A56D0068B0FBF1F72E6894F863
:1024A0005C10082000FA01F131420FD021680A685F
:1024B00052070BD50A6822F004020A6094F85C10F7
:1024C0008840A860606D40F00100606594F85C1081
:1024D0004FF0010808FA01F0304208D0216849693C
:1024E000090604D5A860606D40F00200606594F8AC
:1024F0005C1004208840304208D0216809688907B0
:1025000004D5A860606D40F00400606594F85C102C
:1025100010208840304218D021680968090714D576
:10252000A86020680168490304D50068000308D545
:10253000A16C07E00168C90503D4016821F0080116
:102540000160216C09B12046884794F85C10202076
:102550008840304231D021680968C9062DD5A8606D
:1025600094F8350005282068016806D0490347D54E
:10257000006800031DD4616C1CE021F016010160AD
:102580002068416921F080014161206C08B9A06C8C
:1025900020B12068016821F00801016094F85C1006
:1025A0003F208840A86084F8349084F83580216DFD
:1025B0001FE0E16B09B120468847606D00282BD0F1
:1025C000606DC00714D0052084F8350020680168CC
:1025D00021F0010101600098401C0090B84203D82E
:1025E00020680068C007F6D184F8349084F83580FC
:1025F000E16C002910D001B02046BDE8F043084747
:102600000168C905D5D4016821F01001016084F882
:10261000349084F83580CCE7BDE8F883540000207E
:102620002DE9F041044600F0DDF906465CB10025D5
:1026300084F83450022084F835002068016821F0C5
:10264000010101600DE00120BDE8F08100F0CAF950
:10265000801B052805D920206065032084F83500FB
:10266000F2E720680068C007F0D1226811682048AE
:102670000140D4E901031843D4E903363343184336
:1026800063691843A3691843E3691843236A18432D
:102690000843616A042903D1D4E90B1319430843A1
:1026A000106020684069666A20F0070130460E43DA
:1026B000012704280CD1A06A0643E06A40B12046F5
:1026C000FEF764FC20B14020606584F83570BAE7FD
:1026D000206846612046FEF745FC94F85C203F21C7
:1026E00091408160656584F835700020ACE700009A
:1026F0003F8010F070B5044690F8340000250128A2
:102700000CD0012084F8340094F835600020012EAC
:1027100006D084F834000225284670BD022070BD22
:10272000022684F8356060652046FEF759FC206873
:10273000016841F001010160EEE72DE9F041044636
:10274000866D90F83400002501280DD0012084F812
:10275000340094F835700020012F07D084F834003D
:1027600002252846BDE8F0810220FBE7022784F815
:10277000357060652046FEF733FC94F85C103F200E
:102780008840B0602068016841F01601016020684F
:10279000416941F080014161206C20B120680168ED
:1027A00041F0080101602068016841F00101016009
:1027B000D7E7000070B5044600F014F90546601C28
:1027C00002D004480078044400F00CF9401BA042F9
:1027D000FAD370BD4800002070470000044910B5CE
:1027E0000A68024202D00860FFF7F6FF10BD000041
:1027F000143C01402DE9F84FDFF890B100224FF072
:1028000001084FF0030A4FF00F090BF1040E00BF4F
:102810000B6808FA02F42340A3426ED14D68022DE2
:1028200001D0122D0ED1D50800EB850CDCF820501C
:102830005607F70E09FA07F6B5430E69BE402E4358
:10284000CCF82060066855000F790AFA05FC07F0FD
:10285000030726EA0C06AF40374307604E68012E97
:1028600005D0022E03D0112E01D0122E0ED1876872
:10287000CE6827EA0C07AE403E4386604668A64312
:102880000C79C4F30014944034434460C4688E68E7
:1028900024EA0C04AE402643C6604C68E4006FD5C1
:1028A0003B4C256845F480452560246822F00305EB
:1028B00004F480440094374C2E19D6F80848950744
:1028C0002F0F09FA07F5AC43334DA84201D100257B
:1028D0002EE0324DA84201D1012529E0304DA84219
:1028E00001D1022524E02F4DA84201D103251FE08C
:1028F0002D4DA84202D104251AE041E02B4DA842FB
:1029000001D1052514E02A4DA84201D106250FE08A
:10291000284DA84201D107250AE0274DA84201D140
:10292000082505E0254DA84201D1092500E00A252A
:10293000BD402543C6F80858DBF800405D464E68A8
:102940009C43F60300D51C432C60DEF8004075461E
:102950004E689C43B60300D51C432C600B4D0835D4
:102960002C684E689C43F60200D51C432C60074D32
:102970000C352C684E689C43B60200D51C432C6075
:10298000521C102AFFF444AFBDE8F88F003C014010
:102990004438024000300140000002400004024080
:1029A00000080240000C02400010024000140240E7
:1029B00000180240001C0240002002400024024097
:1029C0000069084000D001207047426931EA0202E4
:1029D00000D10904816170470AB18161704709041F
:1029E000FBE70000014880687047000048000020B5
:1029F00002488168027811448160704748000020D5
:102A00000B4810B5016841F400710160016841F4A0
:102A100080610160016841F480710160032000F071
:102A20008DF8002000F006F800F03EF8002010BD00
:102A3000003C024010B5014688B00022192000F089
:102A40005DF8192000F04CF813480024016841F0AB
:102A500001010160006805A900F0010006906846C8
:102A600000F016F900F04AF90C494000B0FBF1F112
:102A70000C480B4A491E026040F2E732C0E90324C9
:102A8000C0E9011400F0B4FC10B1012008B010BD81
:102A9000044800F01BFDF9E74438024040420F00B3
:102AA00000000140600900200C4882B0016841F438
:102AB00080410160006800F4804000900748001FDA
:102AC000016841F0805101600068002200F08050F0
:102AD00000900F21901E02B000F010B84438024060
:102AE000002809DB00F01F0201219140400980000D
:102AF00000F1E020C0F8001170470000F0B40E4B68
:102B00001B680C46C3F30223C3F10705042D00D94B
:102B10000425191D072901D2002300E0DB1E012630
:102B200006FA05F1491E214099409E40761E164046
:102B30003143F0BC03F008B80CED00E0064900F0AA
:102B4000070208684FF6FF03184040EA0220034AD4
:102B500010430860704700000CED00E00000FA052B
:102B60002DE9F0470E46050065D0DFF81481D8F84E
:102B70000000F7B200F00F00B04207D288F80070F2
:102B8000D8F8000000F00F00B04254D128683D4C46
:102B9000810712D5400703D5206840F4E05020603B
:102BA0002878000703D5206840F460402060206842
:102BB000A96820F0F000084320602878C0072DD0D5
:102BC000304968680839012812D0022813D0032838
:102BD00011D00968890700292DDA216821F0030145
:102BE00001432160FFF7FEFE814641F2883A0EE084
:102BF00009688903EFE709688901ECE7FFF7F2FE4E
:102C0000A0EB0901514502D90320BDE8F0872068F7
:102C1000696800F00C00B0EB810FEFD1D8F800101C
:102C2000404601F00F01B14207D90770006800F07B
:102C30000F00B04201D00120E7E72878400705D512
:102C40002068E96820F4E0500843206028780007F5
:102C500006D52068296920F4604040EAC100206060
:102C600000F05CF82168084AC1F30311515CC840C8
:102C7000064908600020FFF7DDFE0020C5E70000E0
:102C8000003C024008380240F87800085400002058
:102C90000F2202600C4A136803F0030343601368B9
:102CA00003F0F0038360136803F4E053C360126819
:102CB0004FF4E05303EAD20202610448006800F0D6
:102CC0000F0008607047000008380240003C0240D6
:102CD000014800687047000054000020044805497E
:102CE00000680968044AC1F38221515CC8407047FA
:102CF00054000020083802400879000804480549BB
:102D000000680968044AC1F34231515CC840704709
:102D1000540000200838024008790008154810B512
:102D2000006810F00C02144813D01449042A0FD084
:102D3000082A0ED10F4C241F2268236802F03F029C
:102D40005B0207D52068C0F38810A0FB010106E0F4
:102D5000084610BD2168C1F38811A1FB00010023C2
:102D6000FDF7A0FA2168C1F30141491C4900B0FBFD
:102D7000F1F010BD083802400024F400001BB70039
:102D80002DE9F84F050076D02878DFF8F8B2BE4C70
:102D9000C00749D0DBF800105846C1F38101012972
:102DA00008D00068C0F3810002280AD1201D006805
:102DB000400206D52068800336D568680028E2D036
:102DC00032E06868B0F5803F10D0B0F5A02F2068E1
:102DD00010D020F480302060206820F48020206013
:102DE0006868A0B1FFF7FEFD06460CE0206840F4DD
:102DF0008030F4E740F480202060F7E7FFF7F2FD31
:102E0000801B642873D820688003F7D50CE0FFF797
:102E1000E9FD064605E000BFFFF7E4FD801B6428DE
:102E2000F0D820688003F7D42878DFF86082800724
:102E30004FF000093ED5DBF80010584611F00C0F9A
:102E400009D00068C0F3810002280BD18D48001F13
:102E50000068400206D42068800715D5E86801287C
:102E600009D111E0E868B8B10120C8F80000FFF707
:102E7000B9FD064605E002E1FFF7B4FD801B02281C
:102E8000C0D820688007F7D52068296920F0F800AD
:102E900040EAC10020600DE0C8F80090FFF7A2FDF5
:102EA000064604E0FFF79EFD801B02281FD820681D
:102EB0008007F7D42878000722D5724E74486969D4
:102EC0006C3671B101210160FFF78CFD074604E00B
:102ED000FFF788FDC01B022809D830688007F7D5A6
:102EE0000EE0C0F80090FFF77DFD074605E083E0A7
:102EF000FFF778FDC01B02287ED830688007F7D422
:102F00002878400768D5DFF87CA100270AF1380A45
:102F1000DAF80000C0000BD4DAF8001041F080515C
:102F2000CAF80010DAF80000012700F08050009085
:102F3000584E3068C00510D4306840F4807030605E
:102F4000FFF750FD009005E0FFF74CFD0099401A97
:102F5000022851D83068C005F6D54A4EA8686836B0
:102F600001280FD00528306810D020F00100306013
:102F7000306820F004003060A868B8B1FFF732FD77
:102F800000900FE0306840F00100F4E740F00400EA
:102F90003060F7E7FFF726FD0099411A41F28830CB
:102FA000814264D830688007F4D50EE0FFF71AFD3F
:102FB000009007E0FFF716FD0099411A41F28830B2
:102FC000814254D830688007F4D42FB1DAF8001069
:102FD00021F08051CAF80010A869C0B3DBF80010D6
:102FE000C1F3810102294AD00228484607D0C8F817
:102FF0006000FFF7F7FC00E039E005463AE047469D
:10300000C8F86000FFF7EEFC064604E0FFF7EAFCB4
:10301000801B02282BD820688001F7D4D5E907014E
:103020000843A96A1C4A490802EB01416A6A41EA5D
:103030008211084395F82C1040EA01611148001FE5
:10304000016001203866FFF7CDFC054605E014E07D
:10305000FFF7C8FC401B022809D820688001F7D57B
:103060000BE000BFFFF7BEFC401B022802D9032083
:10307000BDE8F88F20688001F4D40020F8E7012033
:10308000F6E70000083802400038024000004742DE
:10309000800E4742007000400000FFFF70B5040042
:1030A00005D00025A56294F8510010B106E001207A
:1030B00070BD84F85050204600F030F8022084F8AB
:1030C00051002068016821F040010160D4E901014C
:1030D0000843D4E903121143084361690843218B73
:1030E00001F400710843E1690843216A0843A16AB9
:1030F000084321680860A069042101EA1040616A60
:103100000843216848602068C16921F40061C161F9
:103110006565012084F85100002070BD10B586B0AF
:10312000044614216846FDF707F9144920688842CF
:1031300021D113480021026842F480120260006825
:1031400000F4801005900E481438026842F0200206
:103150000260006800F0200005904FF4607000905D
:103160000220CDE901010320039005200490694667
:103170000448FFF73FFB06B010BD000000500140BF
:1031800044380240001402402DE9F84F044690F8FC
:10319000500000270A9E1D4692468B464FF00109BB
:1031A00001280ED0012084F85000FFF71BFC804658
:1031B00094F85100616801280CD0B1F5827F07D1E5
:1031C00002E00220BDE8F88FA16809B9042801D007
:1031D0000227C2E0BBF1000F27D0BAF1000F24D0C4
:1031E0001DB394F85100042802D0052084F8510042
:1031F00000206065C4F838A0E587A587C4F830B022
:10320000E586A5862064606420680168490603D4C9
:10321000016841F040010160E068B0F5006F60684E
:1032200005D0E8B3012D46D07FE0012795E008B135
:10323000012D39D1206B21680088C860206B801C6B
:103240002063E08E401EE0862EE0206881688907BA
:103250000FD5E18E69B1B9F1010F0AD1216B09884F
:10326000C160206B801C2063E08E401EE0864FF022
:10327000000920688168C9070CD0E18F51B1C0688E
:10328000A16B0880A06B801CA063E08F401EE087CC
:103290004FF00109FFF7A6FBA0EB0800B04200E0E9
:1032A00009E001D3701C50D1E08E0028CDD1E08F11
:1032B0000028CAD13FE0206B216800780873206B9A
:1032C000401C2063E08E401EE0862EE0206881686E
:1032D00089070FD5E18E69B1B9F1010F0AD1216BD0
:1032E00009780173206B401C2063E08E401EE0864D
:1032F0004FF0000920688168C9070CD0E18F51B1F7
:10330000C068A16B0870A06B401CA063E08F401EDA
:10331000E0874FF00109FFF765FBA0EB0800B04222
:1033200002D3701C01D010E07EB1E08E0028CDD118
:10333000E08F0028CAD142463146204601F026FEE1
:1033400028B101272020606507E0032705E0A06879
:1033500018B92068C16880680090012084F8510085
:10336000002084F8500038462CE74FF0E021042874
:10337000086903D020F004000861704740F00400A1
:10338000FAE710B5401EB0F1807F01D3012010BDD7
:103390004FF0E02460610F21601702F0D5FB0020A0
:1033A000A06107202061002010BD7047704770B5F4
:1033B00090F83C20012A19D0012400F83C4F022249
:1033C000427050F83C3C5A689D6822F070060A68CA
:1033D0004968324325F0800529435A6050F83C2C57
:1033E0009160447000210170084670BD022070BDDC
:1033F00010B5040003D094F83D0010B107E001209F
:1034000010BD002084F83C00204600F00DF802209A
:1034100084F83D00211D206801F0E6FE012084F8BB
:103420003D00002010BD000008B5234A0168234874
:1034300091420ED1016841F0020101600068002252
:1034400000F00200009005211D20FFF757FB1D2012
:103450002EE01B4A914208D1016841F00801016049
:10346000006800F00800009008BD164A91420ED195
:10347000016841F0100101600068002200F01000B6
:10348000009004213620FFF739FB362010E00E4A69
:103490009142E9D1016841F04001016000680022D9
:1034A00000F04000009005212B20FFF727FB2B2088
:1034B000BDE80840FFF714BB00040040403802405C
:1034C000000C004000100040001800400168CA686D
:1034D00042F00102CA600068816801F00701062914
:1034E00003D0016841F0010101600020704770B510
:1034F000044690F83C00012817D0012584F83C5080
:10350000022084F83D002068826822F0770222F4CD
:103510007F4282600868502830D00DDC20284DD0D2
:1035200005DC98B310283BD148E0022070BD30285C
:1035300044D0402834D139E0602828D0702806D003
:10354000B0F5805F2CD0B0F5005F29D10AE0CB68E0
:10355000D1E90121206801F0ABFE2068816841F0CB
:10356000770109E0CB68D1E90121206801F0A0FED4
:103570002068816841F48041816011E0CA6849682F
:10358000206801F069FF5021206807E016E0CA6852
:103590004968206801F071FF6021206801F092FE07
:1035A00084F83D50002084F83C0070BDCA6849682A
:1035B000206801F051FF40212068EFE722680146B2
:1035C0001046EBE7704770B50446006801694FF09C
:1035D0000005C943890715D4C168C943890711D4B7
:1035E000E91E01610120207720688069800720465C
:1035F00002D0FFF7E7FF04E000F0C2F8204600F039
:1036000044F9257720680169C943490717D4C1687F
:10361000C943490713D46FF00401016102202077E8
:103620002068806910F4407F204602D0FFF7CAFF6F
:1036300004E000F0A5F8204600F027F9257720687F
:103640000169C943090716D4C168C943090712D4DF
:103650006FF008010161042020772068C0698007AD
:10366000204602D0FFF7AEFF04E000F089F82046C4
:1036700000F00BF9257720680169C943C90617D402
:10368000C168C943C90613D46FF010010161082055
:1036900020772068C06910F4407F204602D0FFF7F1
:1036A00091FF04E000F06CF8204600F0EEF825777A
:1036B00020680169C943C90708D1C168C943C9075E
:1036C00004D1891E0161204600F0E0F820680169FC
:1036D000C943090609D4C168C943090605D46FF076
:1036E000800101612046FFF760FE20680169C9433F
:1036F000490609D4C168C943490605D46FF04001A1
:103700000161204600F0EEF820680169C94389068E
:103710000BD4C168C943890607D46FF02001016149
:103720002046BDE87040FFF741BE70BD10B586B0C1
:10373000044614216846FCF7FFFD0E4920688842C4
:1037400015D10D480021026842F080020260006835
:1037500000F0800005904FF4E05000900220CDE989
:103760000101CDE9031069460448FFF743F806B0AC
:1037700010BD0000000C004030380240001C024028
:10378000704770B5044690F83C000D4601280DD0F6
:10379000012684F83C60022084F83D0042B1042AEE
:1037A00018D0082A2AD00C2A4DD139E0022070BD49
:1037B000206801F08FFD2068816941F00801816176
:1037C0002068816921F004018161206881692A698A
:1037D000114311E0206801F0ADFD2068816941F4DA
:1037E000006181612068816921F4806181612068C4
:1037F00081692A6941EA0221816124E0206801F09F
:10380000CFFD2068C16941F00801C1612068C1692C
:1038100021F00401C1612068C1692A69114311E0E6
:10382000206801F0F1FD2068C16941F40061C161C7
:103830002068C16921F48061C1612068C1692A6979
:1038400041EA0221C16184F83D60002084F83C0017
:1038500070BD10B5040003D094F83D0010B107E02E
:10386000012010BD002084F83C00204600F00CF838
:10387000022084F83D00211D206801F0B5FC0120E4
:1038800084F83D00002010BD704770470F4A016862
:10389000914201D1FFF7ACB80D4A91420BD10D48CE
:1038A00001680A6842F001020A600068C16841F0DC
:1038B0000101C160704708498842FBD0074988422E
:1038C000F8D007498842F5D101F084BA00000140E0
:1038D000000C004008050020C804002088050020D6
:1038E00048050020704770B5040004D094F83900F2
:1038F000002510B106E0012070BD84F83850204644
:1039000000F022F8242084F839002068C16821F4EE
:103910000051C160204601F04BFE2068016921F48E
:10392000904101612068416921F02A0141612068CC
:10393000C16841F40051C160E563202084F839007A
:1039400084F83A00002070BD2DE9F04F87B005469D
:1039500014216846FCF7F0FCCD49DFF830831039BC
:10396000D5F800C00024DFF82893022201230320A9
:10397000DFF820A30E158F154FF0080BC4453AD180
:10398000D9F8008048F08048C9F80080D9F800C014
:103990000CF0804CCDF814C0D1F800C04CF0100CE5
:1039A000C1F800C0096801F010010591C1018DE85E
:1039B0000E00CDE9030B69465046FEF71BFFDFF80A
:1039C000DC82B5494046C8F800104FF02061C0E9DC
:1039D0000114C0E90346C8F81440C0E90647C8F816
:1039E0002040C8F82440DAE0C5F83480C8F83850E0
:1039F00007B0BDE8F08FDFF8A882C44545D1D9F8FB
:103A0000008048F00048C9F80080D9F800C00CF0E8
:103A1000004CCDF814C0D1F800C04CF0100CC1F827
:103A200000C009688DE80D0001F01001CDE904B176
:103A3000039069465046FEF7DDFEDFF86082964946
:103A400008F1600848314046C8F800100905C0E98F
:103A50000114C0E90346C8F814404FF48031C8F897
:103A60001840C8E90771C8F82440FEF7D9FD08B12D
:103A7000FDF7D4FAC5F83480002206215320C8F897
:103A80003850FFF73BF853204EE0DFF81882DFF89C
:103A900000E24FF0070A0EF1040EC44547D1DEF8EC
:103AA000008048F01008CEF80080DEF800C00CF06E
:103AB000100CCDF814C0D1F800C04CF0020CC1F8C5
:103AC00000C0096801F002010591C0218DE80E00D7
:103AD000CDE9030A69467448FEF78CFEDFF8BC8125
:103AE000724908F1C0084046C8F800104FF0006164
:103AF000C0E90114C0E90346C8F814408912C8F8A7
:103B00001840C8E90771C8F82440FEF789FD08B1DC
:103B1000FDF784FAC5F83480002205212520C8F875
:103B20003850FEF7EBFF2520FEF7DAFF60E7DFF8FD
:103B30008081C4453BD1D9F8008048F40038C9F8E9
:103B40000080D9F800C00CF4003CCDF814C0D1F8C6
:103B500000C04CF0080CC1F800C0096801F0080171
:103B6000059160218DE80E00CDE9030A69465148B0
:103B7000FEF740FE4849DFF8408130314046C8F842
:103B800000104FF00061C0E90114C0E90346C8F815
:103B90001440C0E90647C8F82040C8F82440FEF7A2
:103BA0003FFD00283FF420AFFDF738FA1CE7DFF8AF
:103BB0000C81C4451DD1D9F8005045F48025C9F8C1
:103BC0000050D9F8004004F4802405940C6844F0B7
:103BD00008040C60096801F0080105914FF4407178
:103BE0008DE80E00CDE9030A69463248FEF702FE71
:103BF000FEE6DFF8CC80C44598D1DEF8008048F0BE
:103C00002008CEF80080DEF800C00CF0200CCDF8C3
:103C100014C0D1F800C04CF0400CC1F800C00968D5
:103C200001F0400105914FF484418DE80E00CDE98B
:103C3000030B69462348FEF7DDFDDFF87C801B4956
:103C400008F1600818394046C8F800108905C0E935
:103C50000114C0E90346C8F814404FF40031C8F815
:103C60001840C8E90771C8F82440FEF7D9FC08B12C
:103C7000FDF7D4F9C5F83480002206214720C8F8A2
:103C80003850FEF73BFF47204EE700000078004029
:103C900040380240001002405860024048070020AF
:103CA000007C0040001001400004024040640240DB
:103CB00000440040000C024068080020004800401A
:103CC00000140140001802402DE9F843044690F822
:103CD00039001F4616460D46202850D1A5B19EB189
:103CE00094F8380001284AD0012084F838004FF0B9
:103CF0000008C4F83C80212084F83900FEF772FEE9
:103D0000A6848146E68426E00120BDE8F883E08CA5
:103D1000401EE084A0684B46B0F5805F4FF0000283
:103D20004FF080012046009703D001F097FDE8B9DD
:103D30000DE001F093FDC8B928882168C0F30800A0
:103D40004860206908B16D1C05E0AD1C03E02168E6
:103D500015F8010B4860E08C0028D8D14B460022B2
:103D600040212046009701F079FD08B10320CCE7FF
:103D7000202084F8390084F838800020C5E702202C
:103D8000C3E7FEE77FB500240E2269463B2000F022
:103D9000DFFABDF8000041BA27480180BDF80210E3
:103DA00049BA4180BDF8041049BA8180BDF80610B7
:103DB00049BAC180BDF8081049BA0181BDF80A109E
:103DC0004ABA4281BDF80C1049BA0DB200F1A00107
:103DD0008581CB880B818B88CB804B888B800B882F
:103DE0004B800A805FF0000231F81230521C2344ED
:103DF000D2B21CB2052AF7D3052694FBF6F1418115
:103E00000D490023AA31CA880A818A88CA804A8853
:103E10008A800A884A800D804FEA030231F81240F6
:103E2000521C2344D2B21BB2052AF7D393FBF6F1FE
:103E3000818141827FBD0000644900202DE9F0416D
:103E40002DED028B03F00AFC7F49804B4A78522A01
:103E500002D0532A0DD106E0D1F80220DA61D1F860
:103E600006201A6205E0D1F802205A62D1F8062035
:103E70009A620A7B522A02D0532A0DD106E0D1F869
:103E80000D20DA61D1F811201A6205E0D1F80D2079
:103E90005A62D1F811209A62CA7D522A02D0532A5E
:103EA00009D104E08A69DA61C969196203E08A69A3
:103EB0005A62C969996265492431B1F9022000EE5C
:103EC000102AF8EEC00A9FED620A5F4A60EE800A8F
:103ED000E63AC2ED010AB1F9041001EE101AA2F19E
:103EE0003801B8EEC11A21EE000A81ED010A91F8FD
:103EF0003550052D59D9062581F8355091ED021A16
:103F0000544E554F30EE411AF7EE001A11EE105A8A
:103F100081ED001AB54204D991ED041A31EE211A4F
:103F200007E011EE105ABD4205DD91ED041A31EEA5
:103F3000611A81ED041AD1ED042A9FED482AB0EEF2
:103F4000401A02EE821AD1ED032A31EE621ADFED39
:103F5000442A21EE221A81ED051A92ED021A30EE62
:103F6000C11A11EE105A82ED001AB54204D992ED31
:103F7000041A31EE211A07E011EE105ABD4205DD98
:103F800092ED041A31EE611A82ED041AD2ED041A90
:103F9000B0EE601A001B01EE821AD2ED031A31EE68
:103FA000611A82ED051A188103E081ED030AC2ED62
:103FB000030A81ED020AC2ED020A91F83500224C93
:103FC000401C81F835002148AE3C1C309FED268A0C
:103FD000B0F9001000EE101AB0EE481AF8EEC00A60
:103FE0009FED200A60EE800AC4ED070AB0F90210C6
:103FF00000EE901AF8EEE00A60EE800AC4ED080ABE
:10400000B0F9040000EE900AF8EEE00A60EE800AD3
:10401000C4ED090A94ED0C0A00F0E6F884ED090AF3
:10402000D4ED080A94ED0B0AB0EE481A00F0DCF863
:1040300084ED080A84ED0B0A94ED090A84ED0C0A5C
:10404000BDEC028BBDE8F081DA490020BC00002005
:10405000A0FEB33B000034C3000034430000B4436F
:104060000000B6C101007A3D00002F44F7EE001AAF
:1040700071EEC11A21EE800A00EE810A704700003D
:1040800008B5642002F097FB03F0E8FA414D424C7A
:104090000127DFF80891002605F114084FF4167A7D
:1040A0000090042000F09EFE207CC0070BD002216F
:1040B0004846FEF78AFC3AA001F036FDC821684662
:1040C00002F080FB04E0012202214846FEF784FC56
:1040D000207C80070CD504214846FEF776FC2F8013
:1040E00032A001F021FDC821684602F06BFB05E01B
:1040F000012204214846FEF76FFC2E80207C4007F9
:104100000DD508214846FEF760FC022028802BA030
:1041100001F00AFDC821684602F054FB05E02E803C
:10412000012208214846FEF757FC207C00070DD5E8
:1041300010214846FEF749FC0320288023A001F007
:10414000F3FCC821684602F03DFB05E02E80012209
:1041500010214846FEF740FC207CC0060DD5A8F88B
:1041600000701EA001F0E0FC20214846FEF72DFC67
:10417000C821684602F026FB06E0A8F8006001228C
:1041800020214846FEF728FC5146684602F01AFBFB
:1041900087E70000A852002078480020001802405D
:1041A00072656D6F7465206F766572006D6F746FE8
:1041B000725F59206F766572000000006D6F746F3A
:1041C000725F50206F766572000000006D6F746F33
:1041D000725F42206F766572000000004A593631E6
:1041E000206F766572000000F0EE401A30EEE10AB2
:1041F000BDEEC00A10EE100A002800DA404200EEC0
:10420000100AB8EEC00AB4EEC10AF1EE10FA02DDEF
:10421000B0EE610A7047B0EE600A70472DE9F041D8
:1042200086B00025142232496846FCF76CF86420F9
:10423000FEF7C0FA752000F063F82E4C6E46207031
:1042400006EB4500417816F8150000F0AFF80120A4
:10425000FEF7B0FA6D1CEDB20A2DF1D3264E002503
:1042600006F1340706F14C08FFF78CFDB6F90C0097
:10427000052D00EE100A07EB8500B8EEC00A80EDB0
:10428000000AB6F90A0000EE900A08EB8500F8EE85
:10429000E00AC0ED000A94ED031A30EE010A84ED45
:1042A000030A94ED041A70EE810AC4ED040A17D1D2
:1042B000B1EE081A1048C0EE011A1A30BDEEE10A3C
:1042C00010EE101A80EE810A8181BDEEC00A10EE58
:1042D000101A9FED0A0A418184ED030A84ED040A55
:1042E0006D1CEDB2062DBFD306B00020BDE8F081F5
:1042F00010790008BC000020644900200000000084
:10430000F8B5104E0446002240213046FEF764FB0B
:1043100044F080000C4C3725E21C20710123511C15
:104320000A480095FEF730FFE21C0123511C0748A4
:104330000095FEF729FF012240213046FEF74CFB95
:10434000E078F8BD00140240BC000020700400209A
:10435000F8B5134F15460E46044600224021384654
:10436000FEF73AFB0F4944F08000372488712C3166
:10437000A1F127020870012326390B480094FEF7AB
:1043800003FF08492B4632462C3107480094FEF7BC
:10439000FBFE012240213846FEF71EFB0020F8BD3F
:1043A00000140240BC00002070040020F8B5114F3A
:1043B0000E460446002240213846FEF70DFB04F06D
:1043C0007F000D4C3725621CA0700123511C0B4847
:1043D0000095FEF7D9FEA670621C0123511C074808
:1043E0000095FEF7D1FE012240213846FEF7F4FA8F
:1043F0000020F8BD00140240BC0000207004002022
:104400007FB5002415480094019402941249039446
:1044100001604FF48031C0E9011401250461057683
:1044200080F820400E49C0E90A14C561C46080F8D4
:1044300030504561FDF76FFA08B1FCF7EFFD092038
:10444000CDE90005694602940448FDF7AFF900285C
:1044500001D0FCF7E3FD7FBD0020014024010020D6
:104460000100000F0F4810B50D49016006214160A1
:1044700000214FF480328160C0E903124FF44012F2
:104480004261017641768176C17601774177FDF709
:1044900036FE002803D0BDE81040FCF7BFBD10BDBC
:1044A00000640040CC0100200F4810B50D490160A8
:1044B0000621416000214FF480328160C0E903127F
:1044C0004FF440124261017641768176C1760177E0
:1044D0004177FDF714FE002803D0BDE81040FCF73B
:1044E0009DBD10BD00680040F4010020214808B5C2
:1044F000016841F480010160016801F480010091CC
:10450000016841F4001101600068002200F400100D
:10451000009005210E20FEF7F1FA0E20FEF7E0FADA
:10452000002205211020FEF7E9FA1020FEF7D8FA44
:10453000002205211120FEF7E1FA1120FEF7D0FA42
:10454000002205213920FEF7D9FA3920FEF7C8FAF2
:10455000002205213A20FEF7D1FA3A20FEF7C0FAF0
:10456000002205213C20FEF7C9FABDE808403C20A6
:10457000FEF7B6BA3038024010B5C0B01C2232493E
:104580006846FBF7C0FE0021684602F031F92F4C67
:104590002D491C2220601C3107A8FBF7B4FE002126
:1045A00007A802F025F9284960601C2238310EA8BE
:1045B000FBF7A9FE00210EA802F01AF9224920619A
:1045C0001C22543115A8FBF79EFE002115A802F00D
:1045D0000FF91D49A0601C2270311CA8FBF793FE47
:1045E00000211CA802F004F91749E0601C228C315C
:1045F00023A8FBF788FE002123A802F0F9F812494E
:1046000020621C22A8312AA8FBF77DFE00212AA8DF
:1046100002F0EEF80C4960611C22C43131A8FBF7AE
:1046200072FE002131A802F0E3F80749E0611C2284
:10463000E03138A8FBF767FE002138A802F0D8F86F
:10464000A06140B010BD0000F47700080400002015
:104650002DE9F04F87B014216846FBF76DFE6648E0
:104660000024016841F010010160016801F01001AF
:104670000591016841F040010160016801F04001CD
:104680000591016841F002010160016801F0020139
:104690000591016841F008010160016801F008011D
:1046A0000591016841F480710160016801F4807135
:1046B0000591016841F080010160016801F080010D
:1046C0000591016841F020010160016801F02001BD
:1046D0000591016841F0010101600068DFF81CA14B
:1046E00000F001000590002240F60C015046FEF754
:1046F00073F9DFF80C8142F2FE170022394640467A
:10470000FEF76AF9DFF8FC9000227C214846FEF7AC
:1047100063F9DFF8F4B0002244F240015846FEF796
:104720005BF90C2001250326CDE90005CDE9024601
:1047300069465046FEF75EF80097CDE90154694698
:1047400040460394FEF756F8304F8420CDE9000729
:10475000694602942E48FEF74DF87C200090CDE982
:104760000154694648460394FEF744F84020CDE9D9
:104770000005CDE9024669465846FEF73BF804209D
:10478000CDE90004694623480294FEF733F810206F
:10479000CDE90007694602941F48FEF72BF8E802AE
:1047A0000090CDE90154694650460394FEF722F883
:1047B000A8030090CDE90154694658460394FEF7DA
:1047C00019F8002205210820FEF798F90820FEF7C5
:1047D00087F9002205210A20FEF790F90A20FEF74A
:1047E0007FF9002205211720FEF788F91720FEF730
:1047F00077F907B0BDE8F08F303802400010024072
:1048000000180240001C0240001402400000111079
:10481000002002400004024000000240104810B591
:104820000E4901604FF48271416000218160C160D6
:104830004FF400720161C0E905123022C0E907217E
:10484000416281620A21C162FEF728FC002803D080
:10485000BDE81040FCF7E2BB10BD00000050014075
:10486000700400201FB500211148009101910291B0
:104870000E4A039102605322C0E901210422C0E9DB
:10488000032180218161FEF7B3FD08B1FCF7C6FB6F
:104890004FF48050009069460548FEF728FE08B1A5
:1048A000FCF7BCFB0248FEF711FE1FBD00180040DC
:1048B0008805002010B586B00024184800940194A3
:1048C0000294039404941449059401605321C0E9AF
:1048D00001143121C0E9031480218161FEF788FDB4
:1048E00008B1FCF79BFB4FF48050009069460B48E1
:1048F000FEF7FDFD08B1FCF791FB049404A90748FD
:104900000594FEF754FD08B1FCF788FB0348FEF759
:10491000DDFD06B010BD000000040040C80400200A
:1049200010B58EB000240794089409940A940B944F
:104930001C2168460C94FBF7FFFC284826490160BF
:1049400040F24731C0E9011440F2CF71C0E90314CD
:1049500080218161FEF74CFD08B1FCF75FFB4FF44D
:104960008050079007A91D48FEF7C1FD08B1FCF76C
:1049700055FB1A48FEF76DFF08B1FCF74FFB0B948F
:104980000BA916480C94FEF712FD08B1FCF746FB84
:1049900060200090C820CDE90104002269460F483C
:1049A0000494FEF7EEFE08B1FCF738FB04226946DA
:1049B0000A48FEF7E6FE08B1FCF730FB082269461C
:1049C0000648FEF7DEFE08B1FCF728FB0348FEF7B9
:1049D000ADFE0EB010BD0000000C00400805002028
:1049E0001CB50024104800940E490194016040F267
:1049F0004731C0E901146321C16080218161FEF764
:104A0000F7FC08B1FCF70AFB0094694606480194DC
:104A1000FEF7CDFC08B1FCF701FB0348FEF756FD9D
:104A20001CBD000000100040480500200C4810B5D7
:104A30000A4901604FF4E1314160002181600C229C
:104A4000C160C0E904128161C161FEF74CFF00281A
:104A500003D0BDE81040FCF7E1BA10BD007800407B
:104A6000C80500200C4810B50A4901604FF4E13137
:104A70004160002181600C22C160C0E904128161A3
:104A8000C161FEF730FF002803D0BDE81040FCF7FD
:104A9000C5BA10BD007C0040080600200C4810B5C7
:104AA0000A4901600B494160002181600C22C1600C
:104AB000C0E904128161C161FEF715FF002803D02F
:104AC000BDE81040FCF7AABA10BD0000001001407C
:104AD00048060020A08601000C4810B50A49016074
:104AE0004FF4E1314160002181600C22C160C0E9D6
:104AF00004128161C161FEF7F6FE002803D0BDE813
:104B00001040FCF78BBA10BD00440040880600201E
:104B10000C4810B50A4901604FF4E13141600021B1
:104B200081600C22C160C0E904128161C161FEF79D
:104B3000DAFE002803D0BDE81040FCF76FBA10BDC4
:104B400000480040C80600200C4810B50A49016022
:104B50004FF4E1314160002181600C22C160C0E965
:104B600004128161C161FEF7BEFE002803D0BDE8DA
:104B70001040FCF753BA10BD001401400807002094
:104B8000FEE70000294C08B50025A571A5806580C9
:104B900000F058F84FF47A6001F00DFE02F05EFD6F
:104BA00000902348234E254F808A3189DFF890807A
:104BB000401A21494FF0FF3908804946012002F090
:104BC000CFF901282DD1FCF753FAF878012828D124
:104BD000B4F9021001F52070B0F5A06F1FD8B4F938
:104BE000040000F5B472B2F5347F18D8A279012A16
:104BF00002D0022A09D012E0D8F80830591AC8F8B1
:104C00000810B168081AB06009E0D8F80830591ADD
:104C1000C8F80810B168081AB06001207871658082
:104C2000A5800A21684601F0CDFDC6E7364A00207E
:104C3000CC460020704B0020F8000020020100202C
:104C4000504B002010B5B7EE000A2DED028B01236A
:104C50009FED0E8A32220321B0EE481AF0EE480A88
:104C60000B4800F081F8B0EE481AF0EE480ABDECAF
:104C7000028B03210648BDE81040B6EE000A41F25F
:104C8000883341F27072803000F06EB8000000008E
:104C9000504A00202DED028B82B0642001F08BFD84
:104CA00002F0DCFC00909FED121ADFED120A9FED7E
:104CB000120A124802F00CF9104C114D9FED118AA6
:104CC0000E48E560B0EE480A02F0DAF8D4ED010AC9
:104CD000BCEEE01AFCEEE00A11EE101A10EE900A9B
:104CE000FCF79DF9C821684601F06CFDE8E700007B
:104CF0000000D242000016430AD7233C9452002001
:104D00000000FA420000C842034800210161028904
:104D1000828141617047000090460020704700008A
:104D200070B50024FCF77EF90D4B0E4DA3F1140174
:104D30005FF0010003EB8402D2ED000A70EE600A1E
:104D400010EE902AAA420A8A00FA04F601DD3243E4
:104D500000E0B243641C24B20A82062CEADB70BD78
:104D60008C4800200000C84230B4034C8467034CD8
:104D7000C46730BC01F056BE256A0008336A0008DB
:104D800010B50D4C012204212046FDF725FE01221D
:104D900008212046FDF720FE012210212046FDF7C4
:104DA0001BFE012220212046FDF716FEBDE8104023
:104DB0003220FDF7FFBC0000001C024010B5044685
:104DC000FCF730F9024800EB840080ED000A10BDCA
:104DD0008C48002002488168491C816070470000AF
:104DE0007848002010B50446FCF71CF9024800EB97
:104DF000840080ED000A10BDA4480020F0B51C48D6
:104E00001C49012790F809C08288C0880A25C0F58E
:104E10008064142618480B68A2F58062BCF1010F6B
:104E200017D0BCF1020F19D0BCF1030F1BD00078D2
:104E300001280FD003280DD0022809D192FBF5F2EA
:104E40000E4805682A44026094FBF6F01844086096
:104E5000F0BD077092FBF5F20948F2E702270770F0
:104E600000274771EAE704210170C770F0BD000018
:104E7000184A0020704B002002010020504B0020F7
:104E8000604B002018480188C1F30A0200F150016C
:104E90000A804278D308827843EA4213C3F30A03B4
:104EA0004B80C378920942EA8303027943EA822362
:104EB000C3F30A038B805308427943EAC213C3F356
:104EC0000A03CB8093090B72C2F301124A72C288A3
:104ED0004A8102898A814289CA81027B0A74427BA3
:104EE0004A74C08948827047C84900200EB502F054
:104EF000B5FB1A4D4FF0FF370026029039460120CE
:104F000002F02EF8012823D1FFF76CFFFFF7BAFF5C
:104F1000134C617A207ACDE90001B4F90230B4F97A
:104F20000020B4F912100F48FBF7F0FE207A012898
:104F300004D0022806D003280AD107E0AE70022070
:104F4000287005E0AE70FFF759FF01E00120A8705E
:104F5000012102A801F036FCD0E700000201002088
:104F6000184A0020F40100200748002101804180F8
:104F70008180C1800172417241818181C18101744E
:104F80004174418270470000184A002038B50B4632
:104F9000009204460022802100F008F8002804D086
:104FA000606D40F020006065032038BD2DE9F041C0
:104FB0001D4617460E460446DDF8188008E0681CBA
:104FC00006D0FDF70FFDA0EB0800A8420BD255B1AB
:104FD0002068806836EA000030D00020B842EED168
:104FE0000020BDE8F0812068416821F0E0014160C7
:104FF0006068B0F5827F0BD1A068B0F5004F02D099
:10500000B0F5806F04D12068016821F04001016093
:10501000A06AB0F5005F09D12068016821F4005151
:1050200001602068016841F400510160012084F8AA
:105030005100002084F850000320D2E70120CDE782
:1050400001F0CCBB30B593B030216846FBF774F962
:1050500014210CA8FBF770F922480025016841F0E3
:1050600080510160006800F0805011901E48016876
:1050700041F4404101600068022400F44040119076
:1050800001200090000401908001CDE906400C2031
:1050900008904FF4A870CDE9090404200B906846ED
:1050A000FDF76EFE0CA90F2081E831004FF4A050EF
:1050B0000F90E002109005210CA8FDF751FDFDF7BF
:1050C00007FE4FF47A71B0FBF1F0FEF75AF90420B5
:1050D000FEF74BF900220F21501EFDF70FFD13B014
:1050E00030BD0000403802400070004010480168A8
:1050F00041F4700101600F48016841F00101016055
:105100000C4A00210832116002680B4B1A40026001
:10511000031D0A4A1A60026822F4802202600548D0
:105120000C30016002495806803908607047000061
:1051300088ED00E000380240FFFFF6FE103000244A
:10514000044900224A808A80CA808A60024ACA6072
:1051500070470000784800204805002070B5002402
:10516000FBF760FF0D4B0E4DA3F12C015FF001002A
:1051700003EB8402D2ED000A70EE600A10EE902A72
:10518000AA424A8A00FA04F601DD324300E0B24343
:10519000641C24B24A82062CEADB70BDA4480020BD
:1051A0000000C8420148FEF70EBA00006009002066
:1051B0000148FEF708BA0000C8040020034A106046
:1051C000101D0160001D016070470000340C00409C
:1051D0000148FEF7F8B90000480500200148FEF735
:1051E000F2B9000088050020F0B50268254C264D74
:1051F000264E274F274B4FF0804CA04209D06045E8
:1052000007D0A84205D0B04203D0B84201D098429E
:1052100004D122F0700E4A6842EA0E02A0421BD06E
:10522000604519D0A84217D0B04215D0B84213D06B
:10523000984211D0184DA8420ED0184DA8420BD05C
:10524000174DA84208D0174DA84205D0164DA842C8
:1052500002D0164DA84203D122F44075CA682A43F1
:105260004D6922F080022A4302608A68C2620A689D
:105270008262A04201D0984201D1096901630121F3
:105280004161F0BD00000140000400400008004002
:10529000000C004000040140004001400044014077
:1052A0000048014000180040001C00400020004061
:1052B00010B5846842EA032224F47F440A4322435F
:1052C000826010BD826822F070020A4342F007013A
:1052D00081607047F0B5026A22F001020262036A3F
:1052E00042688469124E24F073050C682C4323F045
:1052F00002058B682B430D4DA84201D0B04205D169
:1053000023F00807CB683B4323F00403A84201D0F5
:10531000B04205D14D6922F4407215438A692A438F
:1053200042608461496841630362F0BD000001404E
:1053300000040140F0B5026A22F010020262026A23
:10534000436884690D6824F4E64444EA05248D68C2
:1053500022F0200242EA05120F4D104EA84201D061
:10536000B04206D1CF6822F0800242EA071222F052
:105370004002A84201D0B04207D14D6923F44063F6
:1053800043EA85038D6943EA850343608461496884
:1053900081630262F0BD0000000001400004014092
:1053A000F0B5026A22F480720262026A4368C4693C
:1053B00022F4007224F073050C68124E2C438D68A1
:1053C00042EA05220E4DA84201D0B04206D1CF6874
:1053D00022F4006242EA072222F48062A84201D04D
:1053E000B04207D14D6923F4405343EA05138D6958
:1053F00043EA05134360C4614968C1630262F0BDBA
:10540000000001400004014030B5026A22F48052DD
:105410000262046A4268C3690D6823F4E64343EA02
:1054200005238D6824F4005444EA0534084DA8424D
:1054300002D0084DA84204D14D6922F4804242EACC
:1054400085124260C36149680164046230BD000096
:10545000000001400004014010B5036A046A24F012
:1054600001040462846924F0F00444EA021423F085
:105470000A020A438461026210BD10B5036A23F078
:10548000100303628369046A23F4704343EA02321F
:1054900024F0A00343EA01118261016210BD000003
:1054A000F8B53D4D29680868C968C0F3001001F0DF
:1054B000100100286ED000296CD00420FFF77EFC7C
:1054C000364C2068016821F00101016034492068F0
:1054D00088420AD03349884207D031496031884236
:1054E00003D030496031884201D1202122E02C4A8A
:1054F0001832D11490421DD02A4A1832904219D045
:10550000274A7832904215D0264A7832904211D0FC
:10551000234A8902303290420CD0224A30329042E3
:1055200008D01F4A9032904204D01E4A90329042D6
:1055300000D089011C4E1B4A4832B160904202D90A
:10554000184A121F05E0164AA832904203D9154A9C
:10555000083A116008E0124B114A4833103A984259
:1055600001D9D16000E0916040681049C0F10B00A2
:105570000880FEF763FC21680B2048602068016802
:1055800041F001010160F068401CF060286801688A
:1055900040680090F8BD000008060020A807002021
:1055A000106002401064024028000020F600002035
:1055B0002DE9F041044600680169E26821F4405198
:1055C000114301612169A068E269084361691143DF
:1055D00022680843D16849F20C6399430143D160C2
:1055E00020684169A26921F4407111434161E26977
:1055F0006425B2F5004F9748974922684FF032086A
:105600003FD08A4201D082427CD1FDF777FB00EB8C
:10561000C00101EB001061688900B0FBF1F6FDF7F5
:105620006DFB00EBC00101EB001061688900B0FB6D
:10563000F1F0B0FBF5F06FF01801484306EB800184
:1056400008EB0110B0FBF5F000F0F006FDF756FB9B
:1056500000EBC00101EB001061688900B0FBF1F0C4
:10566000B0FBF5F006EB0016FDF748FB00EBC001C0
:1056700001EB001061688900B0FBF1F7FDF73EFB1C
:10568000D2E08A4201D082423DD1FDF737FB00EBE8
:10569000C00101EB001061684900B0FBF1F0B0FB04
:1056A000F5F00601FDF72AFB00EBC00101EB00104D
:1056B00061684900B0FBF1F7FDF720FB00EBC0018A
:1056C00001EB001061684900B0FBF1F0B0FBF5F0B0
:1056D0006FF01801484307EB800108EBC100B0FBF5
:1056E000F5F000F0F80006EB4006FDF707FB00EBD5
:1056F000C00101EB001061684900B0FBF1F7FDF754
:10570000FDFA3CE055E0FDF7E9FA00EBC00101EBE2
:10571000001061684900B0FBF1F0B0FBF5F0060144
:10572000FDF7DCFA00EBC00101EB001061684900F5
:10573000B0FBF1F7FDF7D2FA00EBC00101EB00106E
:1057400061684900B0FBF1F0B0FBF5F06FF01801B3
:10575000484307EB800108EBC100B0FBF5F000F017
:10576000F80006EB4006FDF7B9FA00EBC00101EBCB
:10577000001061684900B0FBF1F7FDF7AFFA00EBEC
:10578000C00101EB001061684900B0FBF1F0B0FB13
:10579000F5F06FF01801484307EB800108EBC100FA
:1057A000B0FBF5F000F00700216830448860BDE8E8
:1057B000F081FDF793FA00EBC00101EB0010616886
:1057C0008900B0FBF1F6FDF789FA00EBC00101EBAF
:1057D000001061688900B0FBF1F0B0FBF5F06FF0EC
:1057E0001801484306EB800108EB0110B0FBF5F00F
:1057F00000F0F006FDF772FA00EBC00101EB0010BB
:1058000061688900B0FBF1F0B0FBF5F006EB001623
:10581000FDF764FA00EBC00101EB0010616889003C
:10582000B0FBF1F7FDF75AFA00EBC00101EB0010F5
:1058300061688900B0FBF1F0B0FBF5F06FF0180182
:10584000484307EB800108EB0110B0FBF5F000F0D6
:105850000F00A9E700140140001001402DE9F041BC
:10586000984617460E460446069D1DE0681C1BD050
:105870002DB1FDF7B7F8A0EB0800A84214D92068B5
:10588000C16821F4D071C1602068416921F0010133
:105890004161202084F8390084F83A00002084F81F
:1058A00038000320BDE8F0812068006836EA000077
:1058B00004D00020B842D9D00020F3E70120F9E756
:1058C000F8B53F4D29680868C968C0F3001001F0B9
:1058D0001001002872D0002970D03A4C206801686D
:1058E00021F0010101600020FFF768FA36492068C5
:1058F00088420AD03549884207D03349603188420E
:1059000003D032496031884201D1202122E02E4A61
:105910001832D11490421DD02C4A1832904219D01E
:10592000294A7832904215D0284A7832904211D0D4
:10593000254A8902303290420CD0244A30329042BB
:1059400008D0214A9032904204D0204A90329042AE
:1059500000D089011E4E1D4A4832B160904202D9E2
:105960001A4A121F05E0184AA832904203D9174A72
:10597000083A116008E0144B134A4833103A984231
:1059800001D9D16000E09160122141602068016876
:1059900041F0010101600F480D49006801F080FCF1
:1059A000306838B10C494FF080500860BFF34F8F1A
:1059B000BFF36F8F2868016840680090F8BD000051
:1059C00048060020080800201060024010640240D1
:1059D000280000200800002004ED00E0F8B53E4C4F
:1059E00021680868C968C0F3001001F010010028A0
:1059F00070D000296ED0394A1068016821F0010189
:105A000001603749106888420AD03649884207D079
:105A100033496031884203D032496031884201D134
:105A2000202122E02E4B1833D91498421DD02D4B43
:105A30001833984219D02A4B7833984215D0294B05
:105A40007833984211D0264B8902303398420CD0DB
:105A5000244B3033984208D0214B9033984204D0E5
:105A6000204B9033984200D089011F4D1D4B483385
:105A7000A960984202D91B4B1B1F05E0184BA833A5
:105A8000984203D9174B083B196008E0144E144B99
:105A90004836103BB04201D9D96000E09960092135
:105AA00041601068016841F0010101600F480E4932
:105AB000091D006801F0F4FB686838B10C494FF02B
:105AC00080500860BFF34F8FBFF36F8F206801686D
:105AD00040680090F8BD000008070020C8080020BA
