:020000040800F2
:10000000C05400205D020008FD510008FF3E0008BA
:1000100061500008A70D0008F17000080000000002
:100020000000000000000000000000009D0100082A
:100030008112000800000000F9010008BD670008F7
:1000400077020008770200087702000877020008AC
:100050007702000877020008831200087702000880
:1000600077020008891200088F1200087702000842
:10007000E90E0008770200087702000877020008FE
:10008000770200087702000877020008770200086C
:10009000A90D0008770200087702000895120008F1
:1000A000770200087702000877020008770200084C
:1000B000CD680008D96800087702000877020008B8
:1000C000770200087702000877020008770200082C
:1000D000770200087702000877020008C56E000862
:1000E000770200087702000877020008F16800082C
:1000F00077020008770200087702000877020008FC
:1001000077020008770200087702000877020008EB
:100110007702000877020008E56800087702000807
:1001200077020008F50E0008010F0008D111000841
:1001300077020008770200087702000877020008BB
:10014000B50D000877020008770200087702000862
:10015000770200087702000877020008D96F0008CC
:10016000770200087702000877020008770200088B
:1001700077020008770200087702000800000000FC
:100180007702000877020008DFF80CD000F046FB89
:1001900000480047FD810008C05400202C4B19681E
:1001A0000868B0E8F04F80F30988BFF36F8F4FF015
:1001B000000080F3118870470000000008480068C4
:1001C000006880F308884FF0000080F3148862B65E
:1001D00061B6BFF34F8FBFF36F8F00DF00BF00BF6B
:1001E00008ED00E0DFF80C00016841F470010160E7
:1001F000704700BF88ED00E0EFF30980BFF36F8F19
:10020000134B1A681EF0100F08BF20ED108A20E96A
:10021000F04F106009B44FF0500080F31188BFF325
:100220004F8FBFF36F8F08F019FE4FF0000080F37F
:10023000118809BC19680868B0E8F04F1EF0100F6B
:1002400008BFB0EC108A80F30988BFF36F8F704746
:1002500054000020EFF305807047000006488047F7
:1002600006480047FEE7FEE7FEE7FEE7FEE7FEE79B
:10027000FEE7FEE7FEE7FEE769680008890100087F
:100280002DE9F05F0546002092469B4688460646CB
:10029000814640241BE0284641464746224600F05E
:1002A000B6F953465A46C01A914110D31146184622
:1002B000224600F09DF92D1A67EB01084F462246B1
:1002C0000120002100F094F917EB00094E41201E97
:1002D000A4F10104DFDC484631462A464346BDE826
:1002E000F09F40EA01039B0703D009E008C9121FF1
:1002F00008C0042AFAD203E011F8013B00F8013BE0
:10030000521EF9D27047D2B201E000F8012B491E0B
:10031000FBD270470022F6E710B513460A460446A2
:100320001946FFF7F0FF204610BD2DE9FE4F80462D
:1003300081EA0300C00F0C46009021F0004123F039
:100340000045B8EB0200A94105D24046214690463F
:100350001C460B46024623F00040104347D0270DB1
:10036000C7F30A00C3F30A510290401A01904028D3
:100370006BDAC3F3130040F4801B0098924620B15F
:100380000023D2EB030A63EB0B0B01985946C0F133
:100390004002504600F02CF906460D46504659469C
:1003A000019A00F044F910EB08006141002487EA4B
:1003B000115284EAE7731A4340D0009A62B3019A5B
:1003C000012A4FEA075215DC001B61EB02014FF0D6
:1003D000004202EA0752CDE90042001C41F58011BB
:1003E00032462B4600F07BF903B0BDE8F08F404663
:1003F0002146F9E7001B61EB0201001C41F5801367
:1004000000185B412018A2F5001747EB030140EAF2
:10041000D570B6196D4111E06D084FEA360645EA10
:10042000C0754FEA0752001B61EB0201001C41F549
:10043000801149084FEA30000019514132462B46DD
:1004400003B0BDE8F04F00F03BB900980122400036
:100450000023D0EB020263EBE073009821464FEAE1
:10046000E074B8EB000061EB0401E9E783F00043BE
:100470005BE781F0004158E72DE9F04D81EA030484
:1004800004F0004B21F0004514464FF0000A23F021
:10049000004150EA050220D054EA01021DD0C5F304
:1004A0000A570246C5F31303C1F31300C1F30A56FA
:1004B00040F4801543F48013A7EB0608101BD646C2
:1004C00008F2FD3873EB050002D308F1010801E0E2
:1004D00092185B41B8F1000F03DA00200146BDE835
:1004E000F08D00204FF48011064684460EE0171B65
:1004F00073EB050705D3121B63EB050306434CEAB8
:10050000010C49084FEA300092185B4150EA01079C
:10051000EDD152EA030012D082EA040083EA050119
:10052000084305D0101BAB4106D20122002306E090
:1005300000224FF0004302E06FF0010253101AEB6B
:1005400006004CEB085110EB0A0041EB0B01BDE833
:10055000F04D00F0B5B80EB5C10F80EAE070084468
:10056000CA07002140F233438DE80E000A460B46CD
:1005700000F0B5F803B000BD0EB540F23341029172
:100580000021CDE900110A460B4600F0A8F803B09F
:1005900000BD00F0004230F000400AD0C10D01F56E
:1005A0006071C0F3160042EA0151C20840071143CE
:1005B000704700200146704701F0004330B421F03D
:1005C000004150EA010206D00A0DA2F56072C1F3A3
:1005D0001301002A02DC30BC00207047440F44EABB
:1005E000C104C100E01830BC00EBC25000F031B8CB
:1005F000202A04DB203A00FA02F1002070479140E3
:10060000C2F1200320FA03F3194390407047202AD7
:1006100004DB203A21FA02F00021704721FA02F3AC
:10062000D040C2F120029140084319467047202A69
:1006300006DBCB17203A41FA02F043EAE07306E00A
:1006400041FA02F3D040C2F120029140084319461A
:1006500070470029A8BF7047401C490008BF20F020
:100660000100704710B4B0FA80FC00FA0CF050EAB8
:10067000010404BF10BC704749B1CCF1200421FA39
:1006800004F411FA0CF118BF012121430843A3EB34
:100690000C01CB1D4FEA00614FEA102042BF002041
:1006A00010BC704700EBC35010440029A4BF10BC1D
:1006B0007047401C490008BF20F0010010BC704783
:1006C00010B5141E73F1000408DA401C41F100015A
:1006D00092185B411A4301D120F0010010BD2DE9B1
:1006E000F04D92469B4611B1B1FA81F202E0B0FAA8
:1006F00080F220329046FFF77BFF04460F4640EA27
:100700000A0041EA0B0153465A46084313D01146EA
:1007100053EA010019D0C8F140025046FFF777FFB5
:1007200005460E46504659464246FFF761FF0843CC
:1007300005D0012004E020463946BDE8F08D0020B8
:10074000054346EAE0762C4337430A986305E40AFA
:10075000A0EB08000022FD0A44EA47540A3002D503
:1007600000200146E9E7010510196941DDE9084566
:1007700000196941BDE8F04DA2E72DE9F04D0023D5
:100780001A461B1A8A4103DB00200146BDE8F08DA2
:10079000C1F30A52C1F3130141F480154FF0000B6D
:1007A000D10702D100186D41521E0027044640F2C5
:1007B000FF11384601EB620A3E46804602460020A1
:1007C0004FF48011FFF723FFC2197141BB1846EBAC
:1007D0000100B4EB030C75EB000C04D3E41A65EBD9
:1007E000000517460E46241908F101006D418046A8
:1007F0003428E3DDF91946EB0600091BA84103D2B2
:100800004FF0FF32134601E0002213461BEB0700B6
:1008100046EB0A51BDE8F04DFFF752BF064C074DBD
:1008200006E0E06840F0010394E8070098471034C0
:10083000AC42F6D3FFF7ACFCF8930008189400081C
:1008400070B58C1810F8015B15F0070301D110F892
:10085000013B2A1106D110F8012B03E010F8016BBF
:1008600001F8016B5B1EF9D12B0705D40023521E42
:100870000DD401F8013BFAE710F8013BCB1A921CAA
:1008800003E013F8015B01F8015B521EF9D5A142A8
:10089000D8D3002070BDD0ED000AF4EEC00AF1EE0E
:1008A00010FA01DD80ED000AD0ED000AB1EE400A39
:1008B000F4EEC00AF1EE10FA01D280ED000A7047A2
:1008C000B7EE000A80ED000A9FED040A80ED010AF0
:1008D00080ED020A80ED030A70470000000000006E
:1008E00093EC033AD2EC031A91EC030A04F0FEB83D
:1008F0001CB50C4B08224FF400741A6100229A6058
:100900001C60DA600B0A8DF800308DF801108DF84C
:1009100002208DF80320019201236A46014901F06B
:1009200033F81CBD6C46002001221021014801F063
:10093000E1BE00000000024000221021014801F049
:10094000D9BE00000000024070470000012211469D
:10095000014801F0CFBE0000000402400022012146
:10096000014801F0C7BE00000004024030B54378E2
:1009700004781B021BB2234300EE103A194CB8EE68
:10098000C00AD4ED000A20EE200A81ED000AC378E7
:1009900085781B021BB22B4300EE103AD4ED000AFF
:1009A000B8EEC00A20EE200A81ED010A43790479ED
:1009B0001B021BB2234300EE103AB8EEC00A20EE31
:1009C000200ADFED090A81ED020AD0F8060020F0C6
:1009D0007F4000EE100AB8EE400A20EE200A82EDB9
:1009E000000A30BDB400002000401C42704707F0F0
:1009F0001ABC07F0E7B8000010B54278037812027D
:100A000012B21A4300EE102A124BB8EEC00AD3ED10
:100A1000010A20EE200A81ED000AC27884781202D1
:100A200012B2224300EE102AD3ED010AB8EEC00A3A
:100A300020EE200A81ED010A42790079120212B2F9
:100A4000024300EE102AB8EEC00A20EE200A81ED23
:100A5000020A10BDB400002010B5FFF775FFFFF7C4
:100A6000C5FF06F03DFE08B1802402E006F0A4FDBB
:100A7000044607F003F810B144F0400010BD06F042
:100A80008FFF204310BD00002DE9FC4107460020E8
:100A900016460D4600900190FFF74EFF922000F0A1
:100AA000BDF806226946122000F09AF8FFF73CFFD5
:100AB0009DF801009DF80010000200B2084300EE0E
:100AC000100A464CB8EEC00AD4ED000A20EE200A07
:100AD00085ED000A9DF803009DF80210000200B2A7
:100AE000084300EE100AD4ED000AB8EEC00A20EE6A
:100AF000200A85ED010A9DF805009DF8041000020A
:100B000000B2084300EE100AB8EEC00A20EE200A38
:100B100085ED020AFFF722FF08226946002000F057
:100B20005FF8FFF713FF9DF800000F2830D19DF804
:100B300003009DF80210000200B2084300EE100A04
:100B4000D4ED010AB8EEC00A20EE200A87ED000AB3
:100B50009DF805009DF80410000200B2084300EE65
:100B6000100AD4ED010AB8EEC00A20EE200A87ED83
:100B7000010A9DF807009DF80610000200B2084324
:100B800000EE100AB8EEC00A20EE200A87ED020A35
:100B9000FFF7D2FEA22000F041F80222694622208F
:100BA00000F01EF8FFF7C0FE9DF800009DF8011050
:100BB000C00040EA5110B0F5806F01DBA0F5006085
:100BC00000EE100AB4EE001AF8EEC00AB3EE070AFF
:100BD00000EE810A86ED000ABDE8FC81B400002029
:100BE00070B514460D4640F0800000F017F806E09E
:100BF000552000F013F8641E05F8010BE4B2002C38
:100C0000F6D170BD10B50C4640F0800000F006F83B
:100C1000552000F003F8207010BD000001B582B02F
:100C20004FF47A700090012301AA02A9024802F051
:100C300015FC9DF804000EBD4804002002784078A1
:100C4000D20042EA5010B0F5806F01DBA0F50060E1
:100C500000EE100AB4EE001AF8EEC00AB3EE070A6E
:100C600000EE810A81ED000A704710B50C46FFF7CF
:100C7000D5FF2046BDE81040FFF7D0BF10B503F008
:100C80008BFC03F0F3FB03F0ADFB03F0CDFB03F0B3
:100C900069FD03F087FD03F001FE03F07DFE03F024
:100CA000ADFE03F0D5FD03F0CBFE03F0E5FE03F04F
:100CB00001FF03F09BFD164800F0DAF8154800F03C
:100CC000D7F8134801F042FA124801F03FFA1248EF
:100CD0000068C16841F01001C16010480068C16837
:100CE00041F01001C16012220D490B4800F050F88C
:100CF00009220C49094800F04BF80221044800F091
:100D000031FEBDE810400221024800F02BBE000079
:100D10005001002078010020E0060020200700207C
:100D2000424700206847002070B5044690F839001B
:100D3000202801D0212829D121B31AB394F83800F2
:100D4000012823D0012084F83800A162A285002563
:100D5000E56394F83900212816D0222084F8390060
:100D600008461346666B216802463046091D01F0AD
:100D70005BFB2068416941F04001416184F83850D3
:100D8000002070BD012070BD2320E7E7022070BD68
:100D900010B50446FFF7C8FF2068C16841F0100194
:100DA000C160002010BDFEE7014800F04CBF00000C
:100DB00050010020014800F046BF000078010020EB
:100DC000704770471CB5144B08241C6100249C60BC
:100DD000DC604FF490741C600B891C0A8DF8004095
:100DE0008DF801308B8A1B0A8DF80230097D8DF851
:100DF0000310D1788DF8041011788DF805109178D2
:100E00008DF8061051788DF8071001236A460249C3
:100E100000F0BAFD1CBD00009C4600202DE9FC41FD
:100E2000124CDDE90867082525610025A560E5600D
:100E30004FF4887525600C0A8DF800408DF801107C
:100E4000110A8DF80210190A8DF804108DF805307A
:100E50008DF803208DF806608DF8077001236A462F
:100E6000024900F091FDBDE8FC81000084460020AD
:100E700000B58BB000210122CDE906120391089242
:100E80000E22094B0491009101910291099298421E
:100E900000D1059104492831884200D10592694664
:100EA00000F0D6FD0BB000BD500100207CB50D4B0D
:100EB00040F2FF1408251C6000249C60C3E9034530
:100EC0000B0A8DF800308DF80110110A8DF8021010
:100ED0008DF8032001236A460249019400F054FD75
:100EE0007CBD00003C460020014801F063B90000D1
:100EF00060070020014801F05DB90000C007002034
:100F00002DE9F05FA848A94BA94CC06CA74DA84E8D
:100F1000A64F0068A549DFF89892DFF890A2DFF8A5
:100F200090B2DFF888E2A24A483B603418351836A0
:100F3000303F09F178090AF1300A4FF4006C0BF1E7
:100F4000300BAEF1180E884223D99849543926E067
:100F5000A84233D14FF020080AE0504535D1E04691
:100F600006E000BF4FF4001802E000BF4FF0006839
:100F700011EA080F7CD08D49884253D9904205D0A0
:100F8000984203D0A04201D0A8422FD14FF0200CAC
:100F900045E08749A831884203D98449583909680E
:100FA00005E08349483188428249F8D9496890422E
:100FB000D0D09842CED0A042CCD0C9E7B042CED05B
:100FC000B842CCD04845CAD0C7E75845CAD07045CA
:100FD000C8D0DFF8DC8108F190084045C2D0DFF8C6
:100FE000CC8108F148084045C0D1BBE7B04216D0DB
:100FF000B84214D0484512D0504510D0584509D0B9
:10100000704507D06A499031884203D0674948311A
:10101000884202D14FF4001C01E04FF0006C63489D
:101020004C382AE06249A831884229D9904205D03B
:10103000984203D0A04201D0A84202D14FF0200C28
:1010400019E0B04217D0B84215D0484513D05045EA
:1010500011D0584509D0704507D055499031884284
:1010600003D052494831884203D14FF4001C02E0BA
:1010700097E04FF0006C4D485038C0F800C052E087
:101080004B494831884227D9904205D0984203D035
:10109000A04201D0A84202D14FF0200C18E0B0428B
:1010A00016D0B84214D0484512D0504510D05845FB
:1010B00009D0704507D03E499031884203D03B4962
:1010C0004831884202D14FF4001C01E04FF0006C1F
:1010D0003848C0F80CC026E0904205D0984203D0B2
:1010E000A04201D0A84202D14FF0200C18E0B0423B
:1010F00016D0B84214D0484512D0504510D05845AB
:1011000009D0704507D02A499031884203D0274939
:101110004831884202D14FF4001C01E04FF0006CCE
:101120002448C0F808C0244C207880070CD52078CB
:1011300020F002002070207840F00400207001228E
:1011400011461E4801F0D6FA1D4908781D4D80074A
:101150000CD5087820F002000870087840F00400F0
:10116000087001221021284601F0C4FA16490878B7
:1011700080070CD5087820F002000870087840F04D
:101180000400087001221021284601F0B3FA06F08D
:10119000AFFE2078400704D50C48016841F00101FA
:1011A0000160BDE8F09F0000480400205864024040
:1011B00010600240006002401C0100200004024058
:1011C0001D010020000002401E010020103C0140D3
:1011D000014800F0EFBF000000050020016818235F
:1011E000CAB2103AB2FBF3F2054B6FF30901032ABE
:1011F0009B5CC36500D9091D8165084670470000E6
:101200005C93000810B5014600208B698A6A4FF094
:10121000C07453B1B3F5005F15D072B1012A0CD080
:10122000022A0AD0032A09D104E01AB1012A06D001
:10123000022A03D1C96AC90100D5012010BDC96ABB
:10124000A142FAD010BD002AF7D0012AF2D0022A1A
:10125000F3D0032AF3D010BD30B50468256825F417
:1012600080252560046863608368402B036803D091
:1012700099600068C26030BD9A600068C16030BD8E
:101280007047012001F052B9082001F04FB9102039
:1012900001F04CB9202001F049B9704705F00EBBB0
:1012A00010B50F4C2DED028BA068FFF754F941ECFF
:1012B000180BE0680068406AFFF75EF99FED091BB4
:1012C00053EC112BFFF7D8F853EC182BFFF72DF840
:1012D000FFF772F9BDEC028B00EE100A10BD0000A2
:1012E000E446002000000000000059400B480C4973
:1012F00003780B70027A0A73FF2B0ED1FE2A0CD1F1
:10130000B0F8012052BA4A80B0F8032052BA8A805D
:1013100042798A71C08840BA0881704768470020C6
:1013200072470020DD4C4FF000082DED048B82B099
:10133000A4F80480A4F8028006F0F8FC07F0D2FEBE
:10134000DFF85C93D74DDFF860A308274FF0020B5E
:101350009FEDD68B9FEDD79A04F108060090CF4AF7
:10136000CF490832D448FFF72DFD022003F054FF87
:101370002078012804D002280CD0032814D020E0C3
:1013800037706869002800DC4042642819DC84F862
:1013900000B016E03770E088401C80B2E08064281E
:1013A0000FD90320207001E009203070D9F8140013
:1013B000002800DC4042642803DC84F8008086F8C2
:1013C00000B030780A287CD2DFE800F07B051A658F
:1013D000B17B7B7BDEFEBAF90800FFF7BCF853EC6B
:1013E000182BFFF749F8FFF7E7F800EE100AB348AB
:1013F000D0ED140A803006F05DFFB04880305FE029
:10140000AF4890ED000A2030F8EEC00A99ED050AC9
:10141000B8EEC00A06F04EFFBAF90800FFF79BF8D5
:1014200053EC182BFFF728F8FFF7C6F800EE100A68
:10143000A3482030D0ED140A803006F03BFFA048CE
:10144000A03090ED140ABDEEC00A10EE100A6080C4
:101450009B48103090ED000A00F58870F8EEC00A45
:1014600095ED050AB8EEC00A06F024FFBAF90C00A3
:10147000FFF771F853EC182BFEF7FEFFFFF79CF80F
:1014800000EE100A8F48D0ED140A803006F012FFEB
:101490008C48803095E0BAF90800FFF75CF853EC0F
:1014A000182BFEF7E9FFFFF787F800EE100A8448D3
:1014B0002030D0ED140A803006F0FCFE81488038E0
:1014C00000E0D0E090ED140ABDEEC00A10EE100A64
:1014D00060807B48103090ED000A00BFF8EEC00A33
:1014E00095ED050A7748B8EEC00A06F0E3FEBAF9B2
:1014F0000C00FFF730F853EC182BFEF7BDFFFFF799
:101500005BF800EE100A6F48D0ED140A803006F048
:10151000D1FE6C48803090ED140ABDEEC00A10EE8A
:10152000100AA0806648D9F8141001609BE0644856
:1015300090ED020A2030F8EEC00A99ED050AB8EEE7
:10154000C00A06F0B7FEBAF90800FFF704F853EC3A
:10155000182BFEF791FFFFF72FF800EE100A5848FE
:101560002030D0ED140A803006F0A4FE55488038B3
:1015700090ED140ABDEEC00A10EE100A60805048CB
:10158000103090ED020AA9E795ED050AF0EE490A40
:101590004D48B8EEC00A06F08DFEBAF90C00FEF711
:1015A000DAFF53EC182BFEF767FFFFF705F800EEA4
:1015B000100A4548D0ED140A803006F07BFE424800
:1015C000803090ED140A00E005E0BDEEC00A10EE98
:1015D000100AA08047E095ED050AF0EE490A3A4866
:1015E000B8EEC00A06F066FEBAF90C00FEF7B3FFCB
:1015F00053EC182BFEF740FFFEF7DEFF00EE100A5B
:101600003148D0ED140A803006F054FE2E48F0EE3A
:10161000490A803090ED140ABDEEC00A10EE100A9F
:10162000A08099ED050A2948B8EEC00A06F042FEEE
:10163000BAF90800FEF78FFF53EC182BFEF71CFFDA
:10164000FEF7BAFF00EE100A2048D0ED140A8030F1
:1016500006F030FE1948803890ED140ABDEEC00A3D
:1016600010EE100A6080B0784FF0000201280FD011
:10167000B4F902101048FFF719FCB4F90420002156
:101680001348FFF713FC0521684606F0D3FD66E614
:1016900000210948FFF70AFC0022F0E7F6000020CD
:1016A00000460020C4450020284700206666666684
:1016B000666630400000000078010020AC4C00203D
:1016C0008C480020AC490020AC4A0020AC4B0020E4
:1016D0005001002070B541F288342DED028B41F2AB
:1016E00070759FED0F8AB0EE001A9FED0E0AF0EEB6
:1016F000480A23462A4603210B4803F081FDB0EE39
:10170000481ABDEC028B23462A46BDE870400648C5
:101710000321DFED060AB7EE080A803003F070BD42
:1017200000000000CDCC4C3EBC4E0020CDCCCC3DCA
:1017300008B54FF4FA6006F076FD07F0D3FC009090
:10174000FFF7C8FF794E00254FF00108DFF8E0B140
:10175000DFF8E0A1784C794F86F80780A94603208E
:1017600003F05AFDFFF79CFDBDEEC00A87ED0C0AA1
:10177000E07850B9F8EEC00A94ED020A704930EEF4
:10178000C00A10EE100A884207DA05207071FFF7D0
:1017900087FDBDEEC00A87ED0B0AA07806F0D4F9EC
:1017A00070790B281DD2DFE800F0062631484C572F
:1017B0008C8C8C8C6B002078A0B184F8029000BFD8
:1017C00097ED050AD4ED010A5A48B8EEC00AF8EEC2
:1017D000E00A06F06FFD9AED140ABDEEC00A10EEA5
:1017E000105A6EE003F000FD84F8029078696060A2
:1017F00084F80080E4E784F802805248606097ED46
:10180000050AB8EEC00ADFED500A09E00320A07017
:101810004E48606097ED050AB8EEC00ADFED4C0A4D
:10182000444806F047FD9AED140ABDEEC00A10EEDA
:10183000105A48462070607043E0464D84F802809C
:10184000F7E7FFF72DFDBDEEC00A5D46484687ED80
:101850000C0A84F80290EDE7207820B184F8039018
:1018600084F80290ACE703F0BFFC84F8029078693A
:10187000606084F80080FFF713FD84ED020A9FE7A3
:10188000607898B197ED0C0AD4ED030A3249B8EEAE
:10189000C00A30EE600A10EE100A88420FDD03F035
:1018A000A3FC86F8078084F802900AE084F802908E
:1018B000FFF7F6FC84ED030A84F8018001E04FF4A1
:1018C0007A75B7F9000000EE905A00EE100A194838
:1018D000F8EEE00AB8EEC00A803006F0EBFC1548DE
:1018E000803090ED140ABDEEC00A10EE100A01B26D
:1018F0001A48FEF7FDFFB079022804D07179022959
:1019000005D001280AD07079012804D006E01448D7
:101910008188C18002E01248818801817079B071AC
:101920000A21684606F086FC19E70000FE00002048
:101930000CFEFFFFBC4E002008010020884500205F
:101940000000C842106EFFFF00F011C7184EFEFFE6
:1019500000F4D8C724FAFFFF0000FA445001002029
:10196000BC4F002090F82020012A07D0022A05D081
:10197000416A41F480214162012070470068426958
:101980000A43426100207047F0B590F82050046887
:10199000A468012D05D0022D03D0416A41F48021B5
:1019A00053E014F0406F01D1E5004BD5C4F301645E
:1019B000022C03D9416A41F4000146E00125A5400B
:1019C0001D608D684FF4C0739DB1CE6835434E687D
:1019D00045EAC605066803EB0417F5514FF4C275D6
:1019E000076805EB04150E697E51097D012905D0B4
:1019F00009E00E88CD6845EA4655EBE701684E5987
:101A000046F480764E511179D2F805504FF4C676DF
:101A100041EA0525016806EB04168D511178D2F8CC
:101A200001204FF4C47541EA0221026805EB041558
:101A30005151006803EB0411425842F00102425038
:101A40000020F0BD416A41F4001141620120F0BD67
:101A500010B590F82020012A07D0022A05D0416A4B
:101A600041F480214162012010BD3B48D0F80022A2
:101A700042F00102C0F80022D0F8002222F47C5289
:101A8000C0F80022D0F800224B6A42EA0322C0F8D4
:101A900000220A7D02F01F0301229A40D0F81C3276
:101AA0009343C0F81C32CB69B3B9D0F80C329343DE
:101AB000C0F80C328C894B6864F31F434C6900EB0F
:101AC000C404C4F840320C890B6864F31F434C69AA
:101AD00000EBC404C4F84432CB69012B16D1D0F812
:101AE0000C321343C0F80C320C884B6864F31F436C
:101AF0004C6900EBC404C4F840320C89CB6864F331
:101B00001F434C6900EBC404C4F844328B69002BBA
:101B1000D0F804320ED01343C0F804320B69002B06
:101B2000D0F8143208D01343C0F81432096A0129DE
:101B300004D008E09343EFE79343F5E7D0F81C1295
:101B40001143C0F81C12D0F8001221F00101C0F8B6
:101B50000012002010BD000000640040704730B546
:101B600090F82040012C05D0022C03D0416A41F4AA
:101B700080215DE00468002955D02469A40754D071
:101B80004FF4D874056804EB01142D5915F00405C1
:101B9000956005682D594ED0ED08556005682C59A3
:101BA000C4F34004D4604FF4DA74056804EB011404
:101BB0002D5905F00F05156105682D59C5F3072549
:101BC000956105682C59240C54614FF4DC7204684B
:101BD00002EB0112A4581C700468A458240A5C701B
:101BE0000468A458240C9C700468A258120EDA7081
:101BF0004FF4DE72046802EB0112A4581C710468F1
:101C0000A458240A5C710468A458240C9C710468CC
:101C1000A258120EDA71006881B1016941F0200109
:101C20000161002030BDE468A8E7416A41F4001179
:101C30004162012030BD6D0D1560AFE7C16841F014
:101C40002001C160EDE72DE9F05F05460068002442
:101C50004669D0F804908768D0F80CB0D0F810A08E
:101C6000D0F81880F10748D0F90714D0012181601D
:101C7000B80703D5284600F096FA0CE0780702D59D
:101C80004FF4006407E0380702D54FF4805402E0B7
:101C9000284600F087FAF80516D529684FF48070B9
:101CA0008860B80503D5284600F07FFA0CE0780577
:101CB00002D544F4005407E0380502D544F48044CA
:101CC00002E0284600F070FAF80316D529684FF4B0
:101CD00080308860B80303D5284600F068FA0CE02D
:101CE000780302D544F4004407E0380302D544F4F5
:101CF000803402E0284600F059FA300707D55FEA41
:101D0000CB6004D52968102044F40074C8607007C3
:101D10004FF0080707D55FEA0B7004D52868C76045
:101D2000284600F099F9B00706D52868C0688007F2
:101D300002D0284600F092F9700607D55FEACA6023
:101D400004D52968102044F480640861B00607D5E2
:101D50005FEA0A7004D528680761284600F0F2F9A6
:101D6000F00606D528680069800702D0284600F0F2
:101D7000EAF9B00308D55FEAC96005D529681020E3
:101D80004860284600F0E0F9F00307D55FEA0970E3
:101D900004D528684760284600F00AFA300446D582
:101DA0005FEA497040D5F00504D55FEAC87001D0FC
:101DB00044F00104B00504D55FEA887001D544F011
:101DC0000204700504D55FEA487001D544F00404AC
:101DD000300529D518F0700F26D008F07000402883
:101DE00015D006DC102809D020280AD0302816D1BA
:101DF0000AE050280ED0602811D10EE044F008040B
:101E00000DE044F010040AE044F0200407E044F040
:101E1000400404E044F0800401E044F48074286845
:101E2000816921F070018161296804204860002CDB
:101E300005D0686A204368622846FFF78FFEBDE838
:101E4000F09F70B5040003D094F8200010B104E0B6
:101E5000012070BD204600F081F82068016821F063
:101E60000201016000F04CFC0546052604E000F08C
:101E700047FC401B0A2811D8206840688007F6D428
:101E80002068016841F00101016000F039FC05465D
:101E90000BE000F035FC401B0A2806D9606A40F4CC
:101EA0000030606284F82060D2E720684068C00794
:101EB000EFD0207E0128206801683DD021F080010C
:101EC0000160607E01282068016838D021F040015F
:101ED0000160A07E01282068016833D021F0200134
:101EE0000160E07E0128206801682ED041F01001D9
:101EF0000160207F01282068016829D021F00801B5
:101F00000160607F01282068016824D021F004016D
:101F10000160D4E902010843D4E9041211430843E3
:101F20006168491E08432168C86100206062012081
:101F300084F82000002070BD41F08001C0E741F02E
:101F40004001C5E741F02001CAE721F01001CFE7C9
:101F500041F00801D4E741F00401D9E7F0B587B0BA
:101F6000044614216846FEF7D5F9364B3648DFF8AB
:101F7000D0E01968D4F800C0334A032502260927A7
:101F800010300024491CF44522D11960012907D1E1
:101F9000016841F000710160006800F00070059078
:101FA000106840F0080010601068CDE9005600F09D
:101FB0000800CDE9047069462448CDE9024500F0E7
:101FC000C1FA00220521142000F0B8FE142032E0EE
:101FD000DFF87CE0F44530D1D0F800C04CF0806CE4
:101FE000C0F800C0D0F800C001290CF0806CCDF81A
:101FF00014C0196007D1016841F0007101600068E8
:1020000000F000700590106840F002001060106849
:1020100002AB00F0020005906020CDE9000683E8E5
:10202000B00069460B4800F08DFA002205214020DF
:1020300000F084FE402000F073FE07B0F0BD000009
:10204000006400400000002030380240000C0240D4
:1020500000680040000402407047000010B532499B
:102060000B2488422BD1314B314A0021FFF777FDF9
:102070002F480068A0F5007001380ED005283FD128
:102080002C48816A4A1C82620A2902D841F65831DA
:1020900034E084622549274837E02748816A4A1C92
:1020A00082620A2904D8BDE81040204905F039BEF3
:1020B0008462BDE810401D491F4805F013BE1F494A
:1020C00088421DD1194B1A4A08331C320021FFF7F0
:1020D00046FD17481C300068B0F5A87F1ED0B0F54B
:1020E000B07F16D0A0F50070053809D11448816A78
:1020F0004A1C82620A2904D841F626510181818155
:1021000010BD0A4984620E480831BDE8104005F050
:10211000CBBDBDE810400948FEF753BEBDE81040F6
:102120000648FEF74DBE000050010020340000209C
:1021300020080020C44500208845002078010020A8
:1021400000460020704770477047000070B5044695
:1021500090F82000012804D0606A40F400206062FA
:1021600018E0022084F820002068016821F00101B5
:10217000016000F0C5FA05460EE000BF00F0C0FAAD
:10218000401B0A2808D9606A40F4003060620520CC
:1021900084F82000012070BD20684068C007EDD1A0
:1021A000606270BD704770477047704770477047F6
:1021B000704700002DE9F84304464FF00009CDF8C0
:1021C000009063484FF41651A56D0068B0FBF1F71D
:1021D0002E6894F85C10082000FA01F131420FD00B
:1021E00021680A6852070BD50A6822F004020A60C7
:1021F00094F85C108840A860606D40F00100606554
:1022000094F85C104FF0010808FA01F0304208D051
:1022100021684969090604D5A860606D40F0020094
:10222000606594F85C1004208840304208D0216832
:102230000968890704D5A860606D40F004006065F6
:1022400094F85C1010208840304218D0216809684A
:10225000090714D5A86020680168490304D50068FF
:10226000000308D5A16C07E00168C90503D4016823
:1022700021F008010160216C09B12046884794F8DB
:102280005C1020208840304231D021680968C9069E
:102290002DD5A86094F8350005282068016806D07F
:1022A000490347D5006800031DD4616C1CE021F090
:1022B000160101602068416921F080014161206CB4
:1022C00008B9A06C20B12068016821F00801016004
:1022D00094F85C103F208840A86084F8349084F81B
:1022E0003580216D1FE0E16B09B120468847606DA4
:1022F00000282BD0606DC00714D0052084F835006D
:102300002068016821F0010101600098401C0090E4
:10231000B84203D820680068C007F6D184F834902A
:1023200084F83580E16C002910D001B02046BDE86A
:10233000F04308470168C905D5D4016821F01001B0
:10234000016084F8349084F83580CCE7BDE8F883E8
:10235000500000202DE9F041044600F0D1F9064676
:102360005CB1002584F83450022084F835002068E0
:10237000016821F0010101600DE00120BDE8F0815C
:1023800000F0BEF9801B052805D9202060650320D8
:1023900084F83500F2E720680068C007F0D12268B1
:1023A000116820480140D4E901031843D4E90336F9
:1023B0003343184363691843A3691843E369184317
:1023C000236A18430843616A042903D1D4E90B1333
:1023D00019430843106020684069666A20F00701CD
:1023E00030460E43012704280CD1A06A0643E06A58
:1023F00040B12046FEF706FF20B14020606584F81A
:102400003570BAE7206846612046FEF7E7FE94F88B
:102410005C203F2191408160656584F83570002023
:10242000ACE700003F8010F070B5044690F834002F
:10243000002501280CD0012084F8340094F8356080
:102440000020012E06D084F834000225284670BDF5
:10245000022070BD022684F8356060652046FEF7D4
:10246000FBFE2068016841F001010160EEE7000019
:1024700010B5254910281CD0202821D008282BD0A1
:10248000012815D106F020FE012811D020481F494F
:10249000006806F049FC1D4808388068002807D00D
:1024A0001C494FF080500860BFF34F8FBFF36F8F10
:1024B00010BD1948027842F001020270174800E08E
:1024C0001748027842F00102027008780028EFD025
:1024D000BDE8104005F00CBD1248017841F0010143
:1024E0000170017811F001010170E1D0017821F053
:1024F00001010170017841F002010170BDE8104056
:10250000094805F051BE00001F0100202C000020EA
:102510002000002004ED00E01D0100201E0100202D
:102520001C01002043010020B4500020044910B5D4
:102530000A68024202D00860FFF79AFF10BD00004F
:10254000143C01402DE9F84FDFF87CB100224FF038
:1025500001084FF0030A4FF00F090BF1040E00BF02
:102560000B6808FA02F42340A3426ED14D68022D95
:1025700001D0122D0ED1D50800EB850CDCF82050CF
:102580005607F70E09FA07F6B5430E69BE402E430B
:10259000CCF82060066855000F790AFA05FC07F0B0
:1025A000030726EA0C06AF40374307604E68012E4A
:1025B00005D0022E03D0112E01D0122E0ED1866826
:1025C000CF6826EA0C06AF40374387604668A643CB
:1025D0000C79C4F30014944034434460C6688C689A
:1025E00026EA0C06AC403443C4604C68E40065D570
:1025F000364C256845F480452560246822F00305A3
:1026000004F480440094324C2E19D6F808489507FB
:102610002F0F09FA07F5AC432E4DA84201D1002532
:1026200024E02D4DA84201D101251FE02B4DA842E9
:1026300001D102251AE02A4DA84201D1032515E057
:10264000284DA84202D1042510E037E0264DA842CB
:1026500001D105250AE0254DA84201D1062505E056
:10266000234DA84201D1072500E00825BD402543A0
:10267000C6F80858DBF800405D464E689C43F603F8
:1026800000D51C432C60DEF8004075464E689C4324
:10269000B60300D51C432C600B4D08352C684E68E2
:1026A0009C43F60200D51C432C60074D0C352C686A
:1026B0004E689C43B60200D51C432C60521C102A65
:1026C000FFF44EAFBDE8F88F003C014044380240B3
:1026D00000300140000002400004024000080240B7
:1026E000000C02400010024000140240001802409A
:1026F000001C02400AB1816170470904FBE7000039
:1027000001488068704700004400002070B5040054
:102710001BD094F83D00002520B984F83C50204699
:1027200000F042FA242084F83D002068016821F07E
:102730000101016000F0F2FB4D4A6168914201D84D
:102740004C4900E04C49884201D2012070BD4B4900
:102750002368B0FBF1F15E6826F03F060E435E6031
:102760006368934206D94FF4967359434FF47A73D2
:10277000B1FBF3F12368491C1E6A26F03F06314382
:1027800019626168914210D84900401EB0FBF1F215
:10279000521CC2F30B02042A01D2042022E0B0FB37
:1027A000F1F0401CC0F30B001CE0A368F3B301EB95
:1027B000C10202EB0116421EB2FBF6F2521C42F4B9
:1027C0008042120549D093B301EBC10202EB011123
:1027D000401EB0FBF1F0401CC0F30B0040F4804001
:1027E00040F400402168CA694CF6FF739A431043D5
:1027F000C861D4E90701084321680A6822F0C002D1
:1028000010430860D4E9030101432068826848F25C
:10281000FF339A4311438160D4E9050108432168DD
:10282000CA6822F0FF021043C86001E00EE016E023
:102830002068016841F0010101602564202084F8CE
:102840003D00256384F83E50002070BD01EB410639
:10285000421EB2FBF6F2521CB3E70120C2E701EBC5
:102860004101401EB0FBF1F0401CC0F30B00B7E784
:10287000A086010080841E0000093D0040420F0038
:102880002DE9FF4F83B09A46DDE911979346044640
:10289000DDF84080FFF734FF054694F83D0020281E
:1028A00070D11923012271492046009501F022FCC4
:1028B0000028F5D194F83C00012863D0012084F869
:1028C0003C0020680168C90703D1016841F001019B
:1028D00001602068016821F400610160222084F811
:1028E0003D00402084F83E0000262664C4F8248081
:1028F000A4F82A90608D20855D48E062CDE90075DE
:1029000053465A462046049901F011FB00287CD119
:10291000208DD0B1012821D00228206824D041691F
:1029200080690090208D032869D801282BD0514957
:1029300002283B464FF00002009559D088462046B9
:1029400001F0D8FB002860D13CE020684169816932
:102950000091016841F40071016077E0206801682E
:1029600021F480610160F0E7016821F48061016079
:102970002068016841F40061016020684169806954
:10298000009063E06FE02A463946204601F031FCB2
:1029900098BB20680069616A08704EE02068016891
:1029A00041F40071016020680069616A0870606A22
:1029B000401C6062218D491E2185618D491E618503
:1029C000216838E02068016821F480610160206896
:1029D0000069616A0870606A401C6062208D401E58
:1029E0002085608D401E60853B4600224146009553
:1029F000204601F07FFB00B9D0E706E0FFE72A465A
:102A00003946204601F0F5FB18B1012007B0BDE8BA
:102A1000F08F20680069616A0870606A401C60621B
:102A2000218D491E2185618D491E618521684A6974
:102A3000D24352070AD409690170606A401C60627F
:102A4000208D401E2085608D401E6085208D0028D1
:102A50007FF468AF202084F83D0084F83E6084F85D
:102A60003C600020D2E70220D0E700000200100006
:102A70000000FFFF040001002DE9FF4F83B09A46DC
:102A8000DDE9119793460446DDF84080FFF738FEF4
:102A9000054694F83D0020287FD1192301224049A2
:102AA0002046009501F026FB002876D194F83C00E2
:102AB000012872D0012084F83C0020680168C90711
:102AC00003D1016841F0010101602068016821F42F
:102AD00000610160212084F83D00402084F83E0020
:102AE00000262664C4F82480A4F82A90608D2085EE
:102AF0002C48E062CDE9007553465A4620460499B9
:102B000001F088FA70B930E02A463946204601F0D3
:102B1000A3FB58B1206C042804D12068016841F45B
:102B200000710160012007B0BDE8F08F606A216884
:102B300000780861606A401C6062218D491E89B27C
:102B40002185628D521E628522685369DB435B07D3
:102B50000BD469B100781061606A401C6062208DFE
:102B6000401E2085608D401E6085208D0028CBD1C1
:102B70002A463946204601F097FA0028CAD154F86F
:102B80003D0B016841F400710160202004F81E092A
:102B9000E67766770020C6E7FFE70220C3E700007C
:102BA000020010000000FFFFF0B587B004461421BA
:102BB0006846FDF7AFFB1A49206888422DD11948B5
:102BC000016841F004010160016801F00401059110
:102BD000016841F0010101600068122400F0010069
:102BE00005904FF400700125032604278DE8F100BD
:102BF00069460D48FFF7A6FC28028DE8F1006946FA
:102C00000A48FFF79FFC07481030016841F40001B3
:102C10000160006800F40000059007B0F0BD0000FE
:102C2000005C0040303802400008024000000240D2
:102C30000248816802781144816070474400002096
:102C40000B4810B5016841F400710160016841F45E
:102C500080610160016841F480710160032000F02F
:102C60008DF8002000F006F800F03EF8002010BDBE
:102C7000003C024010B5014688B000221C2000F044
:102C80005DF81C2000F04CF814480024016841F065
:102C900001010160006805A900F001000690684686
:102CA00000F016F900F03AF90D494000B0FBF1F1DF
:102CB0000C484FF08042491E026040F2E732C0E902
:102CC0000324C0E9011400F027FD10B1012008B071
:102CD00010BD044800F09EFDF9E7000040380240B6
:102CE00040420F00580800200C4882B0016841F4AF
:102CF00080410160006800F4804000900748001F98
:102D0000016841F0805101600068002200F08050AD
:102D100000900F21901E02B000F010B8443802401D
:102D2000002809DB00F01F020121914040098000CA
:102D300000F1E020C0F8001170470000F0B40E4B25
:102D40001B680C46C3F30223C3F10705042D00D909
:102D50000425191D072901D2002300E0DB1E0126EE
:102D600006FA05F1491E214099409E40761E164004
:102D70003143F0BC04F0E8B90CED00E0064900F086
:102D8000070208684FF6FF03184040EA0220034A92
:102D900010430860704700000CED00E00000FA05E9
:102DA0002DE9F0470E46050065D0DFF81481D8F80C
:102DB0000000F7B200F00F00B04207D288F80070B0
:102DC000D8F8000000F00F00B04254D128683D4C04
:102DD000810712D5400703D5206840F4E0502060F9
:102DE0002878000703D5206840F460402060206800
:102DF000A96820F0F000084320602878C0072DD093
:102E0000304968680839012812D0022813D00328F5
:102E100011D00968890700292DDA216821F0030102
:102E200001432160FFF76CFC814641F2883A0EE0D5
:102E300009688903EFE709688901ECE7FFF760FC9F
:102E4000A0EB0901514502D90320BDE8F0872068B5
:102E5000696800F00C00B0EB810FEFD1D8F80010DA
:102E6000404601F00F01B14207D90770006800F039
:102E70000F00B04201D00120E7E72878400705D5D0
:102E80002068E96820F4E0500843206028780007B3
:102E900006D52068296920F4604040EAC10020601E
:102EA00000F05CF82168084AC1F30311515CC84086
:102EB000064908600020FFF7DDFE0020C5E700009E
:102EC000003C024008380240649300085000002093
:102ED0000F2202600C4A136803F003034360136877
:102EE00003F0F0038360136803F4E053C3601268D7
:102EF0004FF4E05303EAD20202610448006800F094
:102F00000F0008607047000008380240003C024093
:102F1000014800687047000050000020044805493F
:102F200000680968044AC1F38221515CC8407047B7
:102F300050000020083802407493000804480549F6
:102F400000680968044AC1F34231515CC8407047C7
:102F5000500000200838024074930008154810B54E
:102F6000006810F00C02144813D01449042A0FD042
:102F7000082A0ED10F4C241F2268236802F03F025A
:102F80005B0207D52068C0F38810A0FB010106E0B2
:102F9000084610BD2168C1F38811A1FB0001002380
:102FA000FDF76EF92168C1F30141491C4900B0FBEE
:102FB000F1F010BD083802400024F400001BB700F7
:102FC0002DE9F84F050076D02878DFF8F8B2BE4C2E
:102FD000C00749D0DBF800105846C1F38101012930
:102FE00008D00068C0F3810002280AD1201D0068C3
:102FF000400206D52068800336D568680028E2D0F4
:1030000032E06868B0F5803F10D0B0F5A02F20689E
:1030100010D020F480302060206820F480202060D0
:103020006868A0B1FFF76CFB06460CE0206840F42E
:103030008030F4E740F480202060F7E7FFF760FB82
:10304000801B642873D820688003F7D50CE0FFF755
:1030500057FB064605E000BFFFF752FB801B6428C4
:10306000F0D820688003F7D42878DFF860828007E2
:103070004FF000093ED5DBF80010584611F00C0F58
:1030800009D00068C0F3810002280BD18D48001FD1
:103090000068400206D42068800715D5E86801283A
:1030A00009D111E0E868B8B10120C8F80000FFF7C5
:1030B00027FB064605E002E1FFF722FB801B022802
:1030C000C0D820688007F7D52068296920F0F8006B
:1030D00040EAC10020600DE0C8F80090FFF710FB47
:1030E000064604E0FFF70CFB801B02281FD820686F
:1030F0008007F7D42878000722D5724E7448696992
:103100006C3671B101210160FFF7FAFA074604E05D
:10311000FFF7F6FAC01B022809D830688007F7D5F8
:103120000EE0C0F80090FFF7EBFA074605E083E0F9
:10313000FFF7E6FAC01B02287ED830688007F7D474
:103140002878400768D5DFF87CA100270AF1380A03
:10315000DAF80000C0000BD4DAF8001041F080511A
:10316000CAF80010DAF80000012700F08050009043
:10317000584E3068C00510D4306840F4807030601C
:10318000FFF7BEFA009005E0FFF7BAFA0099401A7F
:10319000022851D83068C005F6D54A4EA86868366E
:1031A00001280FD00528306810D020F001003060D1
:1031B000306820F004003060A868B8B1FFF7A0FACA
:1031C00000900FE0306840F00100F4E740F00400A8
:1031D0003060F7E7FFF794FA0099411A41F288301E
:1031E000814264D830688007F4D50EE0FFF788FA92
:1031F000009007E0FFF784FA0099411A41F2883005
:10320000814254D830688007F4D42FB1DAF8001026
:1032100021F08051CAF80010A869C0B3DBF8001093
:10322000C1F3810102294AD00228484607D0C8F8D4
:103230006000FFF765FA00E039E005463AE04746EE
:10324000C8F86000FFF75CFA064604E0FFF758FA9A
:10325000801B02282BD820688001F7D4D5E907010C
:103260000843A96A1C4A490802EB01416A6A41EA1B
:103270008211084395F82C1040EA01611148001FA3
:10328000016001203866FFF73BFA054605E014E0CF
:10329000FFF736FA401B022809D820688001F7D5CD
:1032A0000BE000BFFFF72CFA401B022802D90320D5
:1032B000BDE8F88F20688001F4D40020F8E70120F1
:1032C000F6E700000838024000380240000047429C
:1032D000800E4742007000400000FFFF70B5040000
:1032E00005D00025A56294F8510010B106E0012038
:1032F00070BD84F85050204600F030F8022084F869
:1033000051002068016821F040010160D4E9010109
:103310000843D4E903121143084361690843218B30
:1033200001F400710843E1690843216A0843A16A76
:10333000084321680860A069042101EA1040616A1D
:103340000843216848602068C16921F40061C161B7
:103350006565012084F85100002070BD2DE9F04121
:1033600086B0064614216846FCF7D4FF354930681C
:10337000884263D134480024016841F480510160DF
:10338000006800F4805005902F481438016841F01F
:1033900002010160016801F002010591016841F03C
:1033A000010101600068022500F00100059018206D
:1033B000CDE9000502AA03274FF0050882E8900135
:1033C00069462248FFF7BEF88020CDE9000502AA31
:1033D000694682E890011E48FFF7B4F81E4D1D486B
:1033E0007F062860C5E901744FF48068C5E9034889
:1033F0006C617812AC61C5E9074028466C62FEF743
:10340000A9FF08B1FDF749FFF564AE63124D1148FD
:1034100060351830E5E802074020A5E811010E48A4
:1034200045F814496030AC61EC612C626C62FEF7C7
:1034300091FF08B1FDF731FFB564AE6306B0BDE89A
:10344000F081000000300140443802400004024096
:103450000000024040640240A00400202DE9F84F23
:10346000044690F8500000270A9E1D4692468B465F
:103470004FF0010901280ED0012084F85000FFF719
:103480003FF9804694F85100616801280CD0B1F5ED
:10349000827F07D102E00220BDE8F88FA16809B958
:1034A000042801D00227C2E0BBF1000F27D0BAF1F7
:1034B000000F24D01DB394F85100042802D0052039
:1034C00084F8510000206065C4F838A0E587A5871E
:1034D000C4F830B0E586A586206460642068016881
:1034E000490603D4016841F040010160E068B0F58D
:1034F000006F606805D0E8B3012D46D07FE001275A
:1035000095E008B1012D39D1206B21680088C86091
:10351000206B801C2063E08E401EE0862EE0206839
:10352000816889070FD5E18E69B1B9F1010F0AD120
:10353000216B0988C160206B801C2063E08E401ED7
:10354000E0864FF0000920688168C9070CD0E18F40
:1035500051B1C068A16B0880A06B801CA063E08F94
:10356000401EE0874FF00109FFF7CAF8A0EB080002
:10357000B04200E009E001D3701C50D1E08E002879
:10358000CDD1E08F0028CAD13FE0206B21680078C0
:103590000873206B401C2063E08E401EE0862EE006
:1035A0002068816889070FD5E18E69B1B9F1010FF3
:1035B0000AD1216B09780173206B401C2063E08ED7
:1035C000401EE0864FF0000920688168C9070CD0D2
:1035D000E18F51B1C068A16B0870A06B401CA06363
:1035E000E08F401EE0874FF00109FFF789F8A0EB5C
:1035F0000800B04202D3701C01D010E07EB1E08E12
:103600000028CDD1E08F0028CAD14246314620465D
:1036100003F076F828B101272020606507E0032732
:1036200005E0A06818B92068C16880680090012092
:1036300084F85100002084F8500038462CE74FF001
:10364000E0210428086903D020F0040008617047D5
:1036500040F00400FAE710B5401EB0F1807F01D3BE
:10366000012010BD4FF0E02460610F21601703F0CE
:103670006BFD0020A06107202061002010BD704775
:10368000704710B590F83C20012A22D0012280F822
:103690003C20CA688C6822F4407222434C6822F4B1
:1036A000806222430C6822F4006222430C6922F4F7
:1036B000805222434C6922F400522243C9690023FC
:1036C00022F480420A4301684A6480F83C300020BA
:1036D00010BD022010BD70B590F83C20012A19D011
:1036E000012400F83C4F0222427050F83C3C5A68DA
:1036F0009D6822F070060A684968324325F080050B
:1037000029435A6050F83C2C9160447000210170AC
:10371000084670BD022070BD10B5040003D094F8B7
:103720003D0010B107E0012010BD002084F83C00EE
:10373000204600F00DF8022084F83D00211D20688D
:1037400003F0DCF8012084F83D00002010BD0000EB
:1037500008B5016829482A4A814207D1106840F01B
:1037600001001060106800F001002FE02448254B94
:10377000001F99420ED1016841F00201016000680A
:10378000002200F00200009005211D20FFF7D6FA6C
:103790001D202EE01C4B99420ED1016841F0100112
:1037A00001600068002200F0100000900521362022
:1037B000FFF7C4FA36201CE0144B994208D1106878
:1037C00040F400301060106800F40030009008BD34
:1037D0000F4A9142FBD1016841F04001016000684D
:1037E000002200F04000009005212B20FFF7A6FAF0
:1037F0002B20BDE80840FFF793BA0000000001400D
:1038000044380240000400400010004000440140E1
:10381000001800400168CA6842F00102CA600068EE
:10382000816801F00701062903D0016841F0010118
:1038300001600020704770B5044690F83C000128F4
:1038400017D0012584F83C50022084F83D00206800
:10385000826822F0770222F47F4282600868502852
:1038600030D00DDC20284DD005DC98B310283BD19A
:1038700048E0022070BD302844D0402834D139E0DF
:10388000602828D0702806D0B0F5805F2CD0B0F525
:10389000005F29D10AE0CB68D1E90121206803F05B
:1038A00091F82068816841F0770109E0CB68D1E99F
:1038B0000121206803F086F82068816841F4804186
:1038C000816011E0CA684968206803F04FF950210F
:1038D000206807E016E0CA684968206803F057F9D5
:1038E0006021206803F078F884F83D50002084F8C7
:1038F0003C0070BDCA684968206803F037F9402170
:103900002068EFE7226801461046EBE7704770B584
:103910000446006801694FF00005C943890715D4C2
:10392000C168C943890711D4E91E016101202077CC
:10393000206880698007204602D0FFF7E7FF04E097
:1039400000F0F0F8204600F072F925772068016950
:10395000C943490717D4C168C943490713D46FF055
:1039600004010161022020772068806910F4407F03
:10397000204602D0FFF7CAFF04E000F0D3F820464B
:1039800000F055F9257720680169C943090716D465
:10399000C168C943090712D46FF00801016104200E
:1039A00020772068C0698007204602D0FFF7AEFF6D
:1039B00004E000F0B7F8204600F039F925772068D8
:1039C0000169C943C90617D4C168C943C90613D4DC
:1039D0006FF010010161082020772068C06910F4A1
:1039E000407F204602D0FFF791FF04E000F09AF8F4
:1039F000204600F01CF9257720680169C943C907F2
:103A000008D1C168C943C90704D1891E0161204694
:103A100000F00EF920680169C943090609D4C1689C
:103A2000C943090605D46FF0800101612046FFF704
:103A300026FE20680169C943490609D4C168C94303
:103A4000490605D46FF040010161204600F0F7F807
:103A500020680169C94389060BD4C168C943890636
:103A600007D46FF0200101612046BDE87040FFF7E8
:103A700007BE70BD70B586B0044614216846FCF7D9
:103A800049FC224A2168002421480225914225D17F
:103A9000016841F001010160016801F00101059137
:103AA000016841F0100101600068012600F010007B
:103AB00005904FF440600090CDE90154CDE90346F4
:103AC00069461448FEF73EFD4FF420600090CDE9B2
:103AD0000154CDE9034669460F4813E00F4A91426D
:103AE00012D1016841F0020101600068694600F0EE
:103AF0000200059090150090CDE901540320CDE916
:103B000003400748FEF71EFD06B070BD00000140EF
:103B100030380240000002400010024000440140E2
:103B200000040240704770B5044690F83C000D4612
:103B300001280DD0012684F83C60022084F83D0065
:103B400042B1042A18D0082A2AD00C2A4DD139E0D3
:103B5000022070BD206802F047FF2068816941F0B3
:103B6000080181612068816921F004018161206878
:103B700081692A69114311E0206802F065FF20681D
:103B8000816941F4006181612068816921F480616B
:103B90008161206881692A6941EA0221816124E00A
:103BA000206802F087FF2068C16941F00801C16107
:103BB0002068C16921F00401C1612068C1692A69D6
:103BC000114311E0206802F0A9FF2068C16941F4A7
:103BD0000061C1612068C16921F48061C161206810
:103BE000C1692A6941EA0221C16184F83D6000206F
:103BF00084F83C0070BD10B5040003D094F83D007B
:103C000010B107E0012010BD002084F83C002046E0
:103C100000F00CF8022084F83D00211D206802F01D
:103C20006DFE012084F83D00002010BD70477047F4
:103C30000068B0F1804F01D1FEF7FABF70477047BE
:103C400070B5040004D094F83900002510B106E0E6
:103C5000012070BD84F83850204600F023F824205D
:103C600084F839002068C16821F40051C160204601
:103C700002F0A0FF2068016921F4904101612068F1
:103C8000416921F02A0141612068C16841F4005175
:103C9000C160E563202084F8390084F83A000020F0
:103CA00070BD00002DE9F04F87B00546142168462D
:103CB000FCF730FB5948584B2A6800245749143800
:103CC000022601274FF003084FF007099A4228D136
:103CD0000A6842F010020A60096801F010010591BB
:103CE000016841F002010160016801F002010591E3
:103CF000016841F0010101600068694600F00100BF
:103D0000059080208DE8C1034548FEF71BFC30027A
:103D10008DE8C10369464348FEF714FC07B0BDE8CF
:103D2000F08F414B4FF4806A4FF4003B9A4236D1FA
:103D30003A49091F0A6842F480220A60096801F4BE
:103D400080210591016841F0040101600068694625
:103D500000F0040005904FF440608DE8C103334843
:103D6000FEF7F0FB334E324830604FF00060C6E99A
:103D70000104C6E9034A7461B461C6E9074B3046E1
:103D80007462FEF7E7FA08B1FDF787FA6E63002266
:103D900005212720B563FEF7D1FF272038E0264B09
:103DA0009A42BBD10A6842F020020A60096801F019
:103DB00020010591016841F04001016000686946F9
:103DC00000F0400005904FF484408DE8C1010820C8
:103DD00004901A48FEF7B6FB164E1948603630605C
:103DE0008005C6E90104C6E9034A7461B461C6E905
:103DF000074B30467462FEF7ADFA08B1FDF74DFA95
:103E00006E63002205214720B563FEF797FF472028
:103E1000FEF786FF82E700000010014044380240B0
:103E20000004024000000240004800400008024038
:103E30002860024060070020001401400018024082
:103E4000286402402DE9F843044690F839001F46E3
:103E500016460D46202850D1A5B19EB194F83800E1
:103E600001284AD0012084F838004FF00008C4F837
:103E70003C80212084F83900FEF742FCA68481466C
:103E8000E68426E00120BDE8F883E08C401EE08453
:103E9000A0684B46B0F5805F4FF000024FF0800104
:103EA0002046009703D002F0DBFFE8B90DE002F0F6
:103EB000D7FFC8B928882168C0F308004860206986
:103EC00008B16D1C05E0AD1C03E0216815F8010B7D
:103ED0004860E08C0028D8D14B4600224021204683
:103EE000009702F0BDFF08B10320CCE7202084F842
:103EF000390084F838800020C5E70220C3E7FEE7D8
:103F000001684A69D24352050FD46FF480624A6156
:103F1000002140F8301F202242738173026942F071
:103F200004020261017301207047002070472DE9EF
:103F3000F84F0446006889460B9D0168984617466D
:103F400041F4806101602068016841F48071016082
:103F500000954FF0011A0022514620460A9B00F0BE
:103F6000C9F8002853D1216809F0FE0008610AF160
:103F7000010B2B46594620460A9A00F0EFF8F0BB99
:103F800020684169806900902A4620460A9900F01D
:103F900063F940B1206C042839D12068016841F4EC
:103FA0000071016033E0FEB2B8F1010F09D0216861
:103FB000380A08612A4620460A9900F04DF900287F
:103FC000E8D1206806612A4620460A9900F044F9A3
:103FD0000028DFD12068016841F4807101600095FC
:103FE0000022514620460A9B00F084F838B9216827
:103FF00009F0FF0040F0010008612B4600E006E0F8
:10400000594620460A9A00F0A9F8002800D001205D
:10401000BDE8F88F2DE9F843044600680D46DDE958
:10402000089701689846164641F4807101604B4636
:1040300000224FF001112046009700F05BF8E0B934
:10404000216805F0FE0008613B464A4615492046B6
:1040500000F084F888B920684169806900903A4688
:104060004946204600F0F8F850B1206C042804D1ED
:104070002068016841F4007101600120BDE8F88307
:10408000F5B2B8F1010F09D02168300A08613A464B
:104090004946204600F0E0F80028E6D12068056196
:1040A0000020EBE70200010070B516460D460446FD
:1040B0000DE02046FFF724FF08B1012070BD681C09
:1040C00005D0FEF71DFB801BA84207D835B120683C
:1040D0004069C0434007ECD4002070BD002044F884
:1040E000300F20216173A073216941F0200121610B
:1040F0002073E2E72DE9F0471E4690460D46044640
:10410000C1F30747DDF8209008E0701C06D0FEF7E9
:10411000F7FAA0EB0900B0420FD876B12068012F62
:1041200018D0806925EA00000004000C14D000219A
:104130004145EAD00020BDE8F087002044F8300F68
:1041400020216173A073216941F020012161207356
:104150000120F0E74069E5E70121E9E72DE9F047B3
:104160009A4691460E46044600254FF02008C1F3BA
:10417000074725E020684069C043400514D4206803
:10418000016841F40071016021686FF4806048614A
:10419000256384F83D8084F83E50206C40F0040094
:1041A000206484F83C501FE0B9F1FF3F08D0FEF7CF
:1041B000A7FAA0EB0A0149450CD8B9F1000F09D0C4
:1041C0002068012F13D0806926EA00000004000C4B
:1041D0000BD0CFE744F8305F84F80D80A5732069D9
:1041E00040F02000206125730120BDE8F087406980
:1041F000EAE72DE9F041002590460E4604462027C7
:1042000017E04069C043C0060CD454F8301B6FF06F
:104210001000486144F810596777A577206A20623A
:10422000257717E0FEF76CFAA0EB0800B04208D83B
:104230003EB120684169C9434906E2D40020BDE887
:10424000F08144F8305F6773A573206940F0200067
:10425000206125730120F2E770B516460D4604462D
:104260000DE02046FFF74CFE08B1012070BD681C30
:1042700005D0FEF745FA801BA84207D835B1206863
:104280004069C0430006ECD4002070BD002044F813
:10429000300F20216173A073216941F02001216159
:1042A0002073E2E7072000E0642003F0BCFFFCF786
:1042B000D3FB0028F8D102E0642003F0B4FF03F040
:1042C00033FF0028F8D13B4AA2F11005101D91469A
:1042D000291D8046FCF7D8FB9FED371ADFED370A22
:1042E0009FED370A41F2301341F294120321A5F1F8
:1042F000A80000F085FF05F12406321D291DA5F157
:104300002800FCF7DDFA2F491020C8610846FEF7A7
:10431000E5FF08B1FCF7C1FF2B490822A1F1080015
:1043200002F076F9284C0120163CE070871E3946D1
:10433000012004F06BFB0128F9D12078400708D553
:10434000207820F0040020701F484146401CFCF7F4
:1043500053FB607840070AD5607820F00400607055
:10436000144A291D1032A2F12A00FCF7FFFAA078A6
:1043700040070CD5A07820F00400A07012484946F0
:104380000A38FCF75BFC95ED040A03F033FE09489C
:10439000331D2A1D41469FED0D0A3838FCF7A0FA5F
:1043A000044B203B1A1F111FA1F1100003F024FC45
:1043B000BDE700009C50002000000000CDCC4C3E2A
:1043C0000000C84448040020320100206F12833AE4
:1043D000F7EE001A71EEC11A21EE800A00EE810A92
:1043E000704700000F4810B50D490160062141607B
:1043F00000214FF480328160C0E903124FF4401273
:104400004261017641768176C17601774177FDF789
:1044100018FD002803D0BDE81040FCF73EBF10BDDA
:1044200000640040500100200F4810B50D490160A4
:104430000621416000214FF480328160C0E90312FF
:104440004FF440124261017641768176C176017760
:104450004177FDF7F6FC002803D0BDE81040FCF7DB
:104460001CBF10BD0068004078010020194808B545
:10447000016841F400110160016801F4001100912C
:10448000016841F4800101600068002200F48000AE
:10449000009005210C20FEF751FC0C20FEF740FC9B
:1044A000002205213920FEF749FC3920FEF738FCAF
:1044B000002211463A20FEF741FC3A20FEF730FC7C
:1044C000002205213B20FEF739FCBDE808403B20D7
:1044D000FEF726BC3038024010B5B8B01C222C497B
:1044E0006846FBF7FEFE0021684603F0B9FE294C42
:1044F00027491C2220601C3107A8FBF7F2FE00218F
:1045000007A803F0ADFE224960601C2238310EA8D6
:10451000FBF7E7FE00210EA803F0A2FE1C49A060F5
:104520001C22543115A8FBF7DCFE002115A803F06E
:1045300097FE174960611C2270311CA8FBF7D1FE61
:1045400000211CA803F08CFE1149E0601C228C3174
:1045500023A8FBF7C6FE002123A803F081FE0C4927
:10456000E0611C22A8312AA8FBF7BBFE00212AA883
:1045700003F076FE064920611C22C43131A8FBF706
:10458000B0FE002131A803F06BFEA06138B010BD71
:104590007C920008040000202DE9F04F87B0142120
:1045A0006846FBF7B7FE67480025016841F0020145
:1045B0000160016801F002010591016841F04001CC
:1045C0000160016801F040010591016841F00101BD
:1045D0000160016801F001010591016841F00801E5
:1045E0000160016801F008010591016841F00401D2
:1045F0000160016801F004010591016841F02001AA
:104600000160016801F020010591016841F080011D
:104610000160016801F080010591016841F010011D
:1046200001600068DFF820B100F010004FF48076E0
:104630000590002231465846FEF75CF8DFF80C8101
:10464000012240214046FEF755F8DFF804914FF46F
:10465000E057002239464846FEF74CF8DFF8F4A050
:10466000012210215046FEF745F8012211463A4832
:10467000FEF740F80320CDE90005012469460294C5
:104680003648FDF75FFF0096CDE90145694658467B
:104690000395FDF757FF4020CDE9000402946946D9
:1046A00040460394FDF74EFF0097CDE9014569466A
:1046B00048460395FDF746FF294D0920CDE9000541
:1046C000694602944046FDF73DFF1020CDE9000405
:1046D0000226CDE9024669465046FDF733FF3020F9
:1046E000CDE90005694602945846FDF72BFFCDE958
:1046F00002460094694618480194FDF723FF002202
:1047000011460620FEF71AFB0620FEF709FB0022E1
:1047100011460920FEF712FB0920FEF701FB0022DB
:1047200011460A20FEF70AFB0A20FEF7F9FA0022DA
:1047300011461720FEF702FB1720FEF7F1FA07B02B
:10474000BDE8F08F303802400008024000180240F7
:10475000001C02400000024000040240001402401D
:10476000000021100D4810B50B4901600C49416053
:1047700000214FF480428160C0E9031241618161F0
:10478000C1610162FDF7C2FF002803D0BDE81040FF
:10479000FCF783BD10BD0000005C0040F403002066
:1047A000801A0600104810B50E4901604FF482715E
:1047B0004160002102228160C0E9031201224261AE
:1047C000520282613822C0E90721416281620A21D6
:1047D000C162FEF783FD002803D0BDE81040FCF75E
:1047E0005CBD10BD003001404804002010B588B009
:1047F0001C216846FBF78EFD144813490024C0E9CC
:10480000001441F28731C0E9024104618461FEF77E
:1048100083FF08B1FCF741FD0C48FFF7ECF908B144
:10482000FCF73BFD6020CDE90004029400226946BC
:1048300006480494FFF777F908B1FCF72EFD03480A
:10484000FFF718F908B010BD004401402006002011
:104850001FB5002110480091019102910D4A03916A
:1048600002605322C0E901210422C0E903218161D1
:10487000FEF752FF08B1FCF710FD4FF48050009096
:1048800069460548FEF7D7FF002801D0FCF705FD73
:104890001FBD0000001800406006002010B596B053
:1048A00000240F9410941194129413941C216846C0
:1048B0001494FBF72FFD202107A8FBF72BFD3548AB
:1048C00033490160A721C0E9011444F61F61C0E922
:1048D000031444618461FEF71FFF08B1FCF7DDFC9F
:1048E0004FF480500F900FA92A48FEF7A4FF08B19B
:1048F000FCF7D3FC2748FFF77EF908B1FCF7CDFCA5
:10490000139413A923481494FEF7E5FE08B1FCF7AD
:10491000C4FC602000904FF47A70CDE90104039448
:1049200004940594002269461A480694FFF7FBF8A0
:1049300008B1FCF7B2FC042269461648FFF7F3F809
:1049400008B1FCF7AAFC082269461248FFF7EBF809
:1049500008B1FCF7A2FC0C2269460E48FFF7E3F809
:1049600008B1FCF79AFC0794089409944FF400509E
:104970000A94CDE90B4007A906480E94FEF781FE84
:1049800008B1FCF78AFC0348FFF774F816B010BDB5
:10499000000001406005002010B586B000241648D4
:1049A00000940194029403940494124905940160C4
:1049B0005321C0E901143121C0E903148461FEF7D9
:1049C000ABFE08B1FCF769FC4FF4805000906946DB
:1049D0000948FEF730FF08B1FCF75FFC049404A916
:1049E00005480594FEF777FE002801D0FCF755FC3A
:1049F00006B010BD00040040A00500201CB5002436
:104A00000E4800940C490194016040F24731C0E91E
:104A1000011463218461C160FEF77EFE08B1FCF7DA
:104A20003CFC0094694605480194FEF754FE0028BA
:104A300001D0FCF732FC1CBD00100040E005002056
:104A40000C4810B50A4901604FF4E1314160002182
:104A500081600C22C160C0E904128161C161FFF76D
:104A6000EFF8002803D0BDE81040FCF716BC10BDDD
:104A700000100140A00600200C4810B50A49016052
:104A80000B494160002181600C22C160C0E9041221
:104A90008161C161FFF7D4F8002803D0BDE8104060
:104AA000FCF7FBBB10BD000000480040E006002002
:104AB000A08601000C4810B50A4901604FF4E131AD
:104AC0004160002181600C22C160C0E90412816153
:104AD000C161FFF7B5F8002803D0BDE81040FCF72E
:104AE000DCBB10BD001401402007002010B50446B7
:104AF0002DED108BF0EE43BAB0EE448AF5EEC0BA5D
:104B0000F0EE638AB0EE629AB0EE42BAB0EE61CADD
:104B1000F0EE419AB0EE60AAF0EE40AAF1EE10FA83
:104B200084B01CD1F5EEC08AF1EE10FA17D1B5EEC3
:104B3000C08AF1EE10FA12D104B0F0EE492AB0EEBC
:104B40004B2AF0EE4C1AB0EE691AF0EE4A0AB0EEBB
:104B50006A0ABDEC108BBDE8104000F083B9B5EED9
:104B6000C0CAF1EE10FA09D1B5EEC0BAF1EE10FAF2
:104B700004D1B5EEC09AF1EE10FA7CD02CEE0C0AFE
:104B80000BEE0B0A09EE090A03F070FA2CEE00FA9C
:104B90006BEE00EA29EE00EA2BEEAB0A08EEA80A5B
:104BA00008EE080A03F062FAD4ED001A2BEE809AA0
:104BB00068EE808A21EEA12A28EE008AF0EE00FA43
:104BC0008DED032A94ED030AD4ED020A94ED011A47
:104BD00021EE802A60EEA0DA21EE00CA60EE80BAF3
:104BE00020EE00BAB6EE000A61EE202A30EE6D0A21
:104BF00061EEA0CA21EE81DA61EE011A30EE4B4A75
:104C00007CEE2C0AB6EE001A8DED024A24EE090A5B
:104C100032EEC24A71EE611A8DED014A08EE840A45
:104C200031EECB1ACDED001A08EE200A72EE820AA0
:104C300060EE890A20EE2F0A48EE810A3BEECD1A7B
:104C400020EE000A48EE010A60EEAF0A00EEA00A6C
:104C500010EE100AFBF79DFC41EC100B02F042FC39
:104C600051EC100BFBF7A8FC3CEE6C0A00EE900A2E
:104C700020EE091A00E08EE07BEE8D1A9DED032AEE
:104C80009DED024A734808EEA11ADDED001A31EEDF
:104C9000ED3AF6EE001A72EE611A08EE031A71EEA2
:104CA0008B3A64EE201A9DED014A61EE2F2A3DEE0B
:104CB0002B1A24EE202A3CEE8C4A42EE801A02EE99
:104CC000812A64EE200A42EE830A6EEEA32A4EEE9B
:104CD000412A28EEA03A2FEE011A08EE423A0EEED3
:104CE000C01A72EE832A2EEE003A29EE020A0FEE67
:104CF000633A68EE213A08EEE10A49EE603A31EE95
:104D0000000A90ED011A73EE230AB5EEC01AF1EE17
:104D100010FA2CDD90ED011AD0ED021A21EE222AB4
:104D20009FED4D1A42EE011AC0ED021AD0ED011AA4
:104D300021EEA02AD0ED031A42EE011AC0ED031AAB
:104D4000D0ED011A21EE802AD0ED041A42EE011AAC
:104D5000C0ED041A90ED021A7AEE81AA90ED031AC2
:104D60003AEE01AA90ED041A79EE819A07E09FEDE0
:104D70003B1A80ED021A80ED031A80ED041A90EDC3
:104D8000001A41EE22AA90ED001A01EE20AAD0ED01
:104D9000000A40EE809A9FED320A94ED021A94EDDB
:104DA000033A6AEE801A2AEE002A69EE802A94ED10
:104DB000010AD4ED000A60EE613A20EE824A41EE2B
:104DC000423A00EE624A43EE623A03EE214A73EE43
:104DD000A04A60EEA13A60EEA20A34EE014AC4EDA8
:104DE000004A41EE223A40EE020A43EE423A41EED8
:104DF000610A73EE803A24EEA40A70EE830AC4EDD1
:104E0000013A84ED024A03EEA30AC4ED030A04EE5C
:104E1000040A00EEA00A03F029F9D4ED000A60EEBE
:104E2000800AC4ED000AD4ED010A60EE800AC4EDE8
:104E3000010AD4ED020A60EE800AC4ED020AD4ED44
:104E4000030A20EE800A84ED030A04B0BDEC108B47
:104E500010BD0000E00000206F12833A0000000047
:104E60006F12033A10B504462DED068BF0EE61AAE1
:104E7000F0EE629AF5EEC0AAB0EE42AAB0EE418A18
:104E8000F0EE608AB0EE409AF1EE10FA09D1B5EE7C
:104E9000C0AAF1EE10FA04D1F5EEC09AF1EE10FAC4
:104EA00078D02AEEAA0A0AEE0A0A09EEA90A03F045
:104EB000DDF82AEE804A6AEE003A29EE803A94ED57
:104EC000012A94ED030AD4ED001AD4ED020A22EE71
:104ED000001A21EE822A5E4801EEE01A00EE802AD6
:104EE000F6EE000A51EEA10A63EE011A40EE000A46
:104EF00024EE020A03EEC10A63EEA02A44EE601A11
:104F0000D0ED010A43EE422AF5EEC00AF1EE10FAA6
:104F10002CDDD0ED010A90ED021A20EEA22ADFED81
:104F20004D0A02EE201A80ED021A90ED011A21EED0
:104F3000212A90ED031A02EE201A80ED031A90ED5B
:104F4000011A21EE002A90ED041A02EE201A80EDDB
:104F5000041AD0ED020A39EE209AD0ED030A78EE59
:104F6000A08AD0ED040A38EE208A07E0DFED3A0A85
:104F7000C0ED020AC0ED030AC0ED040AD0ED000A3C
:104F800000EEA29AD0ED000A40EEA18AD0ED000A10
:104F900000EE808A9FED310AD4ED000A94ED021AEA
:104FA00069EE001A28EE802A68EE002A94ED010AC4
:104FB00020EEA14A94ED033A60EE613A01EE224AF6
:104FC00041EE423A03EE424A43EE623A74EE004A40
:104FD00020EE824A73EEA03A60EEA20A00EE624A28
:104FE000C4ED003A40EE020A23EEA30AC4ED014AE2
:104FF00003EE214A04EEA40A41EE610A34EE014AAE
:1050000070EE830A84ED024A04EE040AC4ED030A3A
:1050100000EEA00A03F02AF8D4ED000A60EE800A40
:10502000C4ED000AD4ED010A60EE800AC4ED010A65
:10503000D4ED020A60EE800AC4ED020AD4ED030A40
:1050400020EE800A84ED030ABDEC068B10BD000043
:10505000E00000206F12833A000000006F12033A54
:10506000FEE70000294C08B50025A571A5806580E4
:1050700000F058F84FF47A6003F0D5F804F032F8F5
:1050800000902348234E254F808A3189DFF8908095
:10509000401A21494FF0FF3908804946012003F0AA
:1050A000B5FC01282DD1FCF721F9F878012828D189
:1050B000B4F9021001F52070B0F5A06F1FD8B4F953
:1050C000040000F5B472B2F5347F18D8A279012A31
:1050D00002D0022A09D012E0D8F80830591AC8F8CC
:1050E0000810B168081AB06009E0D8F80830591AF9
:1050F000C8F80810B168081AB0600120787165809E
:10510000A5800A21684603F095F8C6E7724700209B
:10511000C44500209C480020F4000020FE00002030
:105120008C48002010B5B7EE000A2DED028B01234C
:105130009FED0E8A32220321B0EE481AF0EE480AA3
:105140000B4800F05DF8B0EE481AF0EE480ABDECEE
:10515000028B03210648BDE81040B6EE000A41F27A
:10516000883341F27072803000F04AB800000000CD
:105170008C4700202DED028B82B0642003F053F8A1
:1051800003F0B0FF00909FED121ADFED120A9FEDC1
:10519000120A124803F0D4FB104C114D9FED118AF6
:1051A0000E48E560B0EE480A03F0A2FBD4ED010A18
:1051B000BCEEE01AFCEEE00A11EE101A10EE900AB6
:1051C000FCF76CF8C821684603F034F8E8E7000003
:1051D0000000D242000016430AD7233CD04F0020E3
:1051E0000000FA420000C842034800210161028920
:1051F00082814161704700008845002070470000AF
:1052000030B4034C8467034CC46730BC03F042B92C
:1052100095840008A384000810B50446FCF740F804
:10522000024800EB840080ED000A10BD104700200A
:10523000F0B51C481C49012790F809C08288C08835
:105240000A25C0F58064142618480B68A2F5806210
:10525000BCF1010F17D0BCF1020F19D0BCF1030F44
:105260001BD0007801280FD003280DD0022809D1C7
:1052700092FBF5F20E4805682A44026094FBF6F0B2
:1052800018440860F0BD077092FBF5F20948F2E798
:105290000227077000274771EAE704210170C770F1
:1052A000F0BD0000544700209C480020FE00002074
:1052B0008C480020AC4E002018480188C1F30A0237
:1052C00000F112010A804278D308827843EA42133F
:1052D000C3F30A034B80C378920942EA830302793D
:1052E00043EA8223C3F30A038B805308427943EADB
:1052F000C213C3F30A03CB8093090B72C2F30112EA
:105300004A72C2884A8102898A814289CA81027BA3
:105310000A74427B4A74C089488270474247002021
:105320000EB503F0DFFE1A4D4FF0FF370026029056
:105330003946012003F06AFB012823D1FFF76CFFF7
:10534000FFF7BAFF134C617A207ACDE90001B4F976
:105350000230B4F90020B4F912100F48FBF75EFDDB
:10536000207A012804D0022806D003280AD107E0B9
:10537000AE700220287005E0AE70FFF759FF01E023
:105380000120A870012102A802F054FFD0E700001C
:10539000FE00002054470020780100202DE9F74F3F
:1053A000F84981B00868026822F001020260F648FC
:1053B0000268136823F00103136003E00A6822F017
:1053C00001020A60EF4909680A68D207F6D103E0D2
:1053D000016821F001010160EB4800680168C9071C
:1053E000F6D1EA48EA4AEB4BD0F84C90E84CE94D4C
:1053F000E74EE84FDFF898E3DFF894C3D9F80000F0
:10540000E449483A603318341835303E78374FF461
:10541000006A0CF1300C704535D9884205D09042B5
:1054200003D0984201D0A04201D1202026E0A8421A
:1054300005D0B04203D0B84201D0604501D15046FA
:105440001CE0DFF8508308F13008404511D0DFF848
:105450004083A8F1180840450BD0DFF8388308F1E5
:105460009008404505D0DFF8288308F148084045FA
:1054700002D14FF4001001E04FF00060DFF810831C
:10548000A8F14C083AE0DFF80C8308F1A808404581
:1054900037D9884205D0904203D0984201D0A0422B
:1054A00001D1202026E0A84205D0B04203D0B84266
:1054B00001D0604501D150461CE0DFF8D88208F1E8
:1054C0003008404511D0DFF8C882A8F118084045DF
:1054D0000BD0DFF8C08208F19008404505D0DFF816
:1054E000B08208F14808404502D14FF4001001E0B5
:1054F0004FF00060DFF89882A8F15008C8F800006B
:1055000074E0DFF8908208F14808404537D98842B6
:1055100005D0904203D0984201D0A04201D1202072
:1055200026E0A84205D0B04203D0B84201D0604581
:1055300001D150461CE0DFF85C8208F1300840459C
:1055400011D0DFF84C82A8F1180840450BD0DFF8E5
:10555000448208F19008404505D0DFF8348208F114
:105560004808404502D14FF4001001E04FF00060C0
:10557000DFF82082A8F11008C8F80C0036E0884255
:1055800005D0904203D0984201D0A04201D1202002
:1055900026E0A84205D0B04203D0B84201D0604511
:1055A00001D150461CE0DFF8EC8108F1300840459D
:1055B00011D0DFF8DC81A8F1180840450BD0DFF8E6
:1055C000D48108F19008404505D0DFF8C48108F186
:1055D0004808404502D14FF4001001E04FF0006050
:1055E000DFF8B081A8F11008C8F80800D9F8000069
:1055F0004FF4806B704535D9884205D0904203D076
:10560000984201D0A04201D1102026E0A84205D046
:10561000B04203D0B84201D0604501D158461CE0E9
:10562000DFF8708108F13008404511D0DFF8608163
:10563000A8F1180840450BD0DFF8588108F1900810
:10564000404505D0DFF8488108F14808404502D1BF
:105650004FF4801001E04FF08060DFF83481A8F152
:105660004C083AE0DFF82C8108F1A808404537D90A
:10567000884205D0904203D0984201D0A04201D187
:10568000102026E0A84205D0B04203D0B84201D095
:10569000604501D158461CE0DFF8F88008F1300879
:1056A000404511D0DFF8E880A8F1180840450BD03C
:1056B000DFF8E08008F19008404505D0DFF8D080A1
:1056C00008F14808404502D14FF4801001E04FF046
:1056D0008060DFF8BC80A8F15008C8F800007AE0CC
:1056E000DFF8B08008F14808404537D9884205D036
:1056F000904203D0984201D0A04201D1102026E070
:10570000A84205D0B04203D0B84201D0604501D1D3
:1057100058461CE0DFF87C8008F13008404511D085
:10572000DFF86C80A8F1180840450BD0DFF86480E2
:1057300008F19008404505D0DFF8548008F148088A
:10574000404502D14FF4801001E04FF08060DFF857
:105750004480A8F11008C8F80C003CE0884205D04D
:10576000904203D0984201D0A04201D110202CE0F9
:10577000A84205D0B04203D0B84201D060450BD159
:10578000584622E0A0040020000500204804002024
:105790005864024010600240DFF8688940450FD02D
:1057A000DFF8648940450BD0DFF8588908F16008BC
:1057B000404505D0DFF8508908F16008404502D126
:1057C0004FF4801001E04FF08060DFF83889A8F1D5
:1057D0004008C8F80800D9F80000704532D988425E
:1057E00005D0904203D0984201D0A04201D10820B8
:1057F00023E0A84205D0B04203D0B84201D06045B2
:1058000002D14FF4007018E0DFF8F88840450FD05F
:10581000DFF8F48840450BD0DFF8E88808F160082D
:10582000404505D0DFF8E08808F16008404502D126
:105830004FF4002001E04FF00070DFF8CC88A8F1B1
:10584000340837E0DFF8BC8808F17808404534D9DF
:10585000884205D0904203D0984201D0A04201D1A5
:10586000082023E0A84205D0B04203D0B84201D0BE
:10587000604502D14FF4007018E0DFF88888404599
:105880000FD0DFF8848840450BD0DFF8788808F126
:105890006008404505D0DFF8708808F16008404591
:1058A00002D14FF4002001E04FF00070DFF858887B
:1058B000A8F13808C8F800006EE0DFF8488808F161
:1058C0001808404534D9884205D0904203D0984208
:1058D00001D0A04201D1082023E0A84205D0B04267
:1058E00003D0B84201D0604502D14FF4007018E0F7
:1058F000DFF8108840450FD0DFF80C8840450BD00A
:10590000DFF8008808F16008404505D0DFF8F88727
:1059100008F16008404502D14FF4002001E04FF04B
:105920000070DFF8E087A8F14008C8F80C0033E009
:10593000884205D0904203D0984201D0A04201D1C4
:10594000082023E0A84205D0B04203D0B84201D0DD
:10595000604502D14FF4007018E0DFF8A887404599
:105960000FD0DFF8A48740450BD0DFF8988708F107
:105970006008404505D0DFF8908708F16008404591
:1059800002D14FF4002001E04FF00070DFF874877F
:10599000A8F14008C8F80800DFF86C87D9F80000C3
:1059A00008F118084FF4807E404531D9884205D06F
:1059B000904203D0984201D0A04201D1042022E0BD
:1059C000A84205D0B04203D0B84201D0604501D111
:1059D000704618E0DFF82C8740450FD0DFF82887A5
:1059E00040450BD0DFF81C8708F16008404505D022
:1059F000DFF8148708F16008404502D14FF4802099
:105A000001E04FF08070DFF80087A8F1340836E03D
:105A1000DFF8F08608F17808404533D9884205D090
:105A2000904203D0984201D0A04201D1042022E04C
:105A3000A84205D0B04203D0B84201D0604501D1A0
:105A4000704618E0DFF8BC8640450FD0DFF8B88616
:105A500040450BD0DFF8AC8608F16008404505D022
:105A6000DFF8A48608F16008404502D14FF4802099
:105A700001E04FF08070DFF89086A8F13808C8F890
:105A800000006CE0DFF87C8608F11808404533D947
:105A9000884205D0904203D0984201D0A04201D163
:105AA000042022E0A84205D0B04203D0B84201D081
:105AB000604501D1704618E0DFF8488640450FD0B8
:105AC000DFF8448640450BD0DFF8388608F16008DF
:105AD000404505D0DFF8308608F16008404502D126
